:020000040800F2
:10000000001000209DF80208DB38010881A40008D8
:10001000DB38010871A4000863A40008DB3801087C
:10002000DB380108DB380108DB3801084920020809
:1000300055A40008DB380108DB380108212002083C
:10004000DB380108AF990208DB3801086D9A020815
:10005000DB380108DB380108199802083B980208D0
:100060005D9802087F980208A19802087959020851
:10007000B5590208F5590208355A0208755A02089E
:10008000B15A0208F15A0208C3DF0108E9880208E0
:10009000018902081989020831890208C3980208F7
:1000A000179B0108BF9A0108DB380108D59A01089F
:1000B000EB9A0108019B010805E5010863A202080B
:1000C0007BA20208DB380108DB380108DB380108B5
:1000D000DB380108F71E02080D1F0208231F020863
:1000E00031990208D5990208FB990208DB3801080A
:1000F0001BE50108DB3801083DE50108315B02081A
:10010000DB380108DB38010851960208DB380108AA
:10011000DB380108DB380108DB380108DB3801086F
:10012000715B0208A55B0208DB5B0208115C020838
:10013000475C0208DB380108219A02084989020855
:10014000618902087989020891890208EB7A02081C
:10015000795C0208AF5C0208E55C0208DB38010844
:10016000DB380108DB380108DB380108DB3801081F
:10017000479A0208DB380108DB380108DB38010840
:10018000DB380108DB38010880B54FF47A73DFF8FB
:10019000502ADFF8501ADFF8140D02F06FFC01BD91
:1001A000F8B504000D0095F88001C0B2800810F089
:1001B000010002F07FFC060095F88001C0B2400803
:1001C00010F0010002F076FC070095F8800110F0B5
:1001D000010002F06FFC00963B000200DFF84C1DAE
:1001E000200002F0C7FBF1BD70B582B00400DFF85B
:1001F000240C0068006D02F02BFF0200DFF8CC1A1F
:10020000DFF8A80C02F0B6FB0025D4F89401854273
:1002100012DADFF8000C006810EB8500066A300087
:1002200003F0DBF803006A1CDFF8BC1ADFF87C0C73
:1002300002F0A0FB6D1CE8E7DFF8D80B0068D0F8EF
:10024000840002F005FF0200DFF8BC1ADFF85C0C46
:1002500002F090FB0025D4F89401854212DADFF811
:10026000B40B006810EB8500466D300003F0B5F864
:1002700003006A1CDFF8D41ADFF8300C02F07AFBB6
:100280006D1CE8E7DFF88C0B0068006803F0A5F848
:100290000500DFF8800B0068406802F0D9FEDFF847
:1002A000741B0968896800912B000200DFF8C81AE6
:1002B000DFF8F80B02F05EFBDFF8580B0068D0F8AF
:1002C0008C0002F0C5FE0500DFF8480B0068D0F88E
:1002D000880003F082F82B000200DFF8CC1ADFF868
:1002E000CC0B02F047FBDFF82C0B0068806903F0B1
:1002F00074F80500DFF81C0B0068C06902F0A8FE66
:100300002B000200DFF8C41ADFF8A00B02F032FB6A
:10031000DFF8000B0068D0F8900003F05EF80500ED
:10032000DFF8F00A0068D0F8940002F091FE2B008C
:100330000200DFF8BC1ADFF8740B02F01BFBDFF8D9
:10034000D40A0068D0F8340103F047F80500DFF85C
:10035000C40A0068D0F89C0102F07AFE2B0002006B
:10036000DFF8B41ADFF8440B02F004FBDFF8A40A4C
:100370000068D0F8A80003F030F80500DFF8940A10
:100380000068D0F8AC0002F063FE2B000200DFF83A
:10039000AC1ADFF8180B02F0EDFA73BD010008008B
:1003A00000283AD002283BD003283FD0042840D070
:1003B000052841D0062842D0072849D008284AD02D
:1003C00009284BD00A285BD00B284AD00C284BD0E8
:1003D0000D284CD00E284DD00F284ED0102852D0CA
:1003E00011282FD0122830D013284FD0142850D0E5
:1003F000152854D0172816D018284DD0192851D0B8
:100400001A2852D01C285FD01D2854D01E2855D041
:100410001F2856D020284BD059E0DFF8980A58E022
:10042000DFF8940A55E0DFF8940A52E0DFF8900A0A
:100430004FE0DFF8900A4CE0DFF8DC0A49E0DFF833
:10044000DC0A46E0DFF8E80A43E0DFF8E80A40E0CB
:10045000DFF8E40A3DE0DFF8E40A3AE0DFF8E00A1A
:1004600037E0DFF8E00A34E0DFF8DC0A31E0DFF8FB
:10047000DC0A2EE0DFF8D80A2BE0DFF8D80A28E003
:10048000DFF8D40A25E0DFF8D40A22E0DFF82C0BED
:100490001FE0DFF82C0B1CE0DFF8340B19E0DFF86D
:1004A000340B16E0DFF83C0B13E0DFF83C0B10E0F8
:1004B000DFF8380B0DE0DFF8380B0AE0DFF8340B1B
:1004C00007E0DFF8340B04E0DFF8300B01E0DFF881
:1004D000E00D70472DE9F04786B00400D4F8A8017C
:1004E00002F07DFD0500D4F8180202F0FAFC0600C7
:1004F0002068FFF753FF0200D4F8A801029001958D
:1005000000962368DFF84C1BDFF8A00902F032FAEE
:1005100003F0B4F80200DFF8401BDFF8900902F0A6
:1005200029FA0020102801DA401CFBE7D4F8F43146
:10053000D4F8A421DFF8241BDFF8700902F01AFABE
:10054000D4F8CC0104F0CEFC02000B00DFF84C1B09
:10055000DFF8580902F00EFADFF8441BDFF84C0907
:1005600002F008FAB4F96020DFF8681BDFF83C09F4
:1005700002F000FAD4F8AC0102F0A2FD0200DFF8AC
:10058000581BDFF8280902F0F5F994F8D805C0B235
:10059000000910F0010000280BD0A06E04F0A2FCAE
:1005A00002000B00DFF8341BDFF8000902F0E2F96B
:1005B00010E0D4F8B80104F095FCCDE90001E06E3C
:1005C00004F090FC02000B00DFF8141BDFF8DC08DD
:1005D00002F0D0F9DFF85C1BDFF8D00802F0CAF9AE
:1005E00094F8E405C0B2400810F0010002F062FA8D
:1005F0000500D4F8BC0102F04AFD2B000200DFF830
:10060000381BDFF8A80802F0B5F9D4F8C40102F0ED
:1006100053FC0200DFF8241BDFF8900802F0AAF96F
:10062000D4F8C40101280BD194ED720ABDEEC00AC2
:1006300010EE102ADFF8501BDFF8700802F09AF96C
:10064000D4F8C00104F04EFC02000B00DFF84C1B94
:10065000DFF8580802F08EF9DFF8541BDFF84C0879
:1006600002F088F994F8E40510F0010002F022FA93
:100670000500D4F8B00102F023FD06000295D4F87D
:10068000B40104F02FFCCDE900013200DFF8241B97
:10069000DFF8180802F06EF92000FFF7A5FDDFF87B
:1006A0007407006890F88001C0B2000910F00100E2
:1006B00002F000FA050094F8E505C0B2800810F0D9
:1006C000010002F0F7F9060094F8E505C0B2400811
:1006D00010F0010002F0EEF9070094F8E50510F0C3
:1006E000010002F0E7F9804694F8E405C0B2C009C1
:1006F00002F0E0F9814694F8E405C0B2800910F0F8
:10070000010002F0D7F9824694F8E405C0B240092E
:1007100010F0010002F0CEF9049503960297CDF88F
:100720000480CDF8009053460200DFF8E41ADFF8A9
:100730007C0702F01FF994F8E405C0B2800810F0BD
:10074000010002F0B7F9050094F8E505C0B2000910
:1007500010F0010002F0AEF92B000200DFF80C1BD4
:10076000DFF8480702F006F9DFF8040B006890F89C
:10077000640202F09FF90500DFF898060068D0F8DF
:100780001C0302F02AFE2B000200DFF8041BDFF836
:100790001C0702F0EFF8DFF8D80A006890F865024D
:1007A00002F088F90500DFF86C060068D0F8A000B8
:1007B00002F013FE2B000200DFF8F81ADFF8EC0657
:1007C00002F0D8F8DFF84C060068D0F8500102F0CB
:1007D00004FEDFF8FC1A0B680200DFF8F81ADFF8F5
:1007E000CC0602F0C7F8DFF82C060068D0F8D42059
:1007F000DFF8001BDFF8B40602F0BCF80025042D7A
:1008000012DADFF81006006810EB8500D0F8D80087
:1008100002F0E3FD03002A00DFF8DC1ADFF88C06A3
:1008200002F0A8F86D1CEAE7DFF8E8050168DFF8D8
:100830007C06FFF7B5FC06B0BDE8F08710B50400F4
:10084000DFF8100B0068FFF745FE10BD80B52DEDF9
:10085000028B08EE100AB8EEC80ADFF8F80A006842
:1008600080ED720ADFF8080A0068FFF7E7FF02F080
:1008700008FFBDEC028B01BD10B50400DFF8D40AFF
:100880000068C0F8C441DFF8E8090068FFF7D6FF48
:1008900002F0F7FE10BD10B50400DFF8B80A0068DA
:1008A00004602100DFF8040604F04AF9DFF8C0090B
:1008B000006890F88002002803D0DFF8000B04F0F5
:1008C0003FFB04F0FDFC02F0DCFEDFF8A409006849
:1008D000FFF7B4FF10BDDFF83C150968886070476A
:1008E00010B50400DFF82C0500680465DFF8800906
:1008F0000068FFF7A3FF10BD10B50400DFF8140572
:100900000068C0F88440DFF868090068FFF796FFC8
:1009100010BD10B50400DFF8FC0400684460DFF887
:1009200050090068FFF78AFF10BD80B52DED028BDE
:10093000B0EE408ADFF81C0A006880ED6D8ADFF8AF
:1009400030090068FFF77AFF02F09BFEBDEC028BD6
:1009500001BD80B52DED028BB0EE408ADFF8F409C1
:10096000006880ED708ADFF808090068FFF766FF0D
:1009700002F087FEBDEC028B01BD10B50400DFF86C
:1009800094040068C461DFF8E8080068FFF756FFC8
:1009900010BD10B50400DFF87C040068C0F88C407E
:1009A000DFF8CC080068FFF749FF10BD10B5040060
:1009B000DFF860040068C0F81043DFF8B40800688E
:1009C000FFF73CFF10BD10B50400DFF88809006890
:1009D000C0F8F441DFF898080068FFF72FFF10BD5A
:1009E000F8B52DED048B8AB007000E001400F569F0
:1009F0002900DFF8FC0A04F073FE00EE100AB8EEDE
:100A0000C00ADFEDB10A20EE200ADFF848090068CD
:100A1000D0ED740A20EE208A300005F091FAF0EE55
:100A2000408A2100300005F0B7FAB0EE409A0695F2
:100A300018EE900A04F056FACDE9040119EE100AF6
:100A400004F050FACDE9020118EE100A04F04AFA57
:100A5000CDE900013A00DFF89C1ADFF8FC0801F04C
:100A600089FFDFF8941A280005F00FFF0200AEA1FD
:100A7000DFF8E40801F07EFF706904F033FACDE995
:100A80000801B06804F02EFACDE90601306904F0DF
:100A900029FACDE90401706804F024FACDE90201D5
:100AA000F06804F01FFACDE90001306804F01AFA8A
:100AB00002000B00DFF8441ADFF89C0801F05AFF2F
:100AC000A06804F00FFACDE90401606804F00AFAA6
:100AD000CDE90201206804F005FACDE9000196EDA8
:100AE000060ADFEDB00A80EE200A10EE100A04F0CC
:100AF000F9F902000B00DFF8081ADFF85C0801F0D2
:100B000039FFDFF8E81ADFF8500801F033FF0AB0C8
:100B1000BDEC048BF1BD70B52DED028B84B0DFF818
:100B20003408006890F8D905C0B2C009C0B20028E6
:100B300006D1DFF8BC1ADFF8200801F01BFF4BE0FC
:100B4000DFF810080068D0F80C0204F057FE04002B
:100B5000DFF800080068D0F80C0204F0BBFE0500C6
:100B6000200002F079FB060006F0EEFA03950296EB
:100B700010EE100A04F0B6F9CDE90001DFF8D40751
:100B80000068B0F95430DFF8CC070068B0F95220A3
:100B9000DFF8B81ADFF8C00701F0ECFE06F086FABD
:100BA000B0EE408A06F03EFBF0EE408A06F0E3FA33
:100BB000060018EE100A04F095F9CDE9020118EECE
:100BC000900A04F08FF9CDE900013200DFF8801AB5
:100BD000DFF8840701F0CEFE04B0BDEC028B70BDDF
:100BE000246B0120082F030810B5DFF88406006885
:100BF00000F5F0528432DFF85C07006810F5807170
:100C00009FA0FFF7EDFE05F02BFA05F0E9F90028AB
:100C100005D1DFF8781ADFF8400701F0ABFEDFF806
:100C20005006006800F5F0525C32DFF828070068D3
:100C300010F590719EA0FFF7D3FE05F08BFB05F039
:100C4000EFF9002805D1DFF8481ADFF80C0701F0AA
:100C500091FE70480068D0F8900002F0BEFB0400DE
:100C6000DFF8300A06F08AFBC0B201F023FF020071
:100C70002300DFF8D81ADFF8E00601F07BFE6548B4
:100C80000068D0F8600202F0A8FB0400DFF8C00A98
:100C900006F074FBC0B201F00DFF02002300DFF884
:100CA000B41ADFF8B40601F065FE10BD10B50400FB
:100CB000DFF8A0060068A0F86040DFF8B40500681F
:100CC000FFF7BCFD10BD0000010C403A6C1A030890
:100CD00010B50400200006F0EDFFDFF89405006871
:100CE000FFF7ACFD10BD0000982B030810B5040001
:100CF000DFF860060068C0F89841DFF87405006806
:100D0000FFF79CFD10BD0000841A030810B5040015
:100D1000DFF840060068C0F8A441DFF85405006819
:100D2000FFF78CFD10BD00004025730080B52DED50
:100D3000028BB0EE408ADFF81C06006880ED178A4F
:100D4000FFF752FFBDEC028B01BD0000AC2B030886
:100D500080B52DED028BB0EE408ADFF8F805006813
:100D600080ED738A02F08DFCDFF804050068FFF760
:100D700065FDBDEC028B01BD8004030880B52DED3F
:100D8000028BB0EE408ADFF8CC05006880ED6E8AF9
:100D900002F077FCDFF8D8040068FFF74FFDBDECE8
:100DA000028B01BD00007A44D8FB020810B5040094
:100DB000DFF8A0050068C0F8AC4102F062FCDFF883
:100DC000B0040068FFF73AFD10BD0000AC0E030848
:100DD00010B50400DFF87C050068C0F8B04102F0EF
:100DE00050FCDFF88C040068FFF728FD10BD000000
:100DF0009C1A030810B50400DFF858050068C0F815
:100E0000BC4102F03EFCDFF868040068FFF716FD05
:100E100010BD0000F4150020B41A030810B504003A
:100E2000DFF830050068C0F8184202F02AFCDFF84D
:100E300040040068FFF702FD10BD0000A004030895
:100E400038B504000D002B002200DFF8541A1748B3
:100E500001F090FDDFF8FC040068D0F8F4312A00BE
:100E60002100DFF80C04006810F5217007F0DCFBAE
:100E700002F007FCDFF8F8030068FFF7DFFC31BD84
:100E8000434C540080B52DED028BB0EE408ADFF864
:100E9000C404006880ED1B8A02F0F3FBDFF8D00386
:100EA0000068FFF7CBFCBDEC028B01BD0C6F01208D
:100EB00049415400245203082C52030834520308B9
:100EC0003C5203084452030880B52DED028BB0EE6E
:100ED000408A9FEDB10AB4EE408AF1EE10FA06D4D2
:100EE0009FEDB20AB4EE408AF1EE10FA00DB10E09A
:100EF00018EE100A03F0F6FF02000B00DFF8A41949
:100F0000DFF8540401F036FDDFF84804006880ED96
:100F10008E8ABDEC028B01BD4C520308545203086B
:100F2000DFF83004006880ED460A7047842B030820
:100F30005C520308645203086C520308745203089D
:100F40007C52030884520308744903088C52030836
:100F5000945203089C520308A4520308AC5203089D
:100F600080B52DED028B82B0B0EE408AF0EE608A43
:100F7000F4EE488AF1EE10FA12DB18EE900A03F054
:100F8000B1FFCDE9000118EE100A03F0ABFF02003B
:100F90000B00DFF81419DFF8C00301F0EBFC08E0E8
:100FA000DFF8B003006880ED778AEA480068C0ED9A
:100FB000788A02B0BDEC028B01BD0000B452030878
:100FC000BC520308E348006880ED4E0A70470000F9
:100FD000C4520308CC520308DE48006880ED750A4D
:100FE00070470000D4520308DC520308E45203089F
:100FF000EC520308F4520308804903088C490308A3
:1010000080B52DED028BB0EE408A18EE100A03F089
:1010100069FF02000B00DFF89418CF4801F0AAFC2A
:101020000020102813DA002110290EDA4022DFF800
:10103000703D1B6802FB003212EB810202F5385250
:10104000383282ED008A491CEEE7401CE9E7BDEC2E
:10105000028B01BDC0040308CC1A0308FCFB020884
:1010600080B52DED028BB0EE408A18EE100A03F029
:1010700039FF02000B00DFF83818B74801F07AFC9E
:10108000B0EE480ADFF8180D006800F5145038304B
:1010900002F017FBBDEC028B01BD0000C80E030877
:1010A000C02B030880B52DED028BB0EE408A18EE00
:1010B000100A03F017FF02000B00DFF8F817A6482C
:1010C00001F058FCB0EE480AFFF79AFFBDEC028B26
:1010D00001BD0000603C0308E41A0308E0040308B3
:1010E00048F2020880B52DED028BB0EE408A18EE72
:1010F000100A03F0F7FE02000B00DFF8BC17964859
:1011000001F038FC93480068D0F8A801032804D007
:10111000DFF8A817904801F02DFCB0EE480ADFF880
:10112000800C006800F54850B83002F0CAFABDECF7
:10113000028B01BDD42B0308E40E0308703C0308A6
:1011400080B52DED028BB0EE408A18EE100A03F048
:10115000C9FE02000B00DFF86817DFF8380D01F058
:1011600009FC7C480068D0F8A801032805D1DFF805
:101170005417DFF8200D01F0FDFBB0EE480A02F035
:10118000B2FABDEC028B01BDE82B0308DFF8081DA5
:101190000968C1F8C00170470BD7233CFC2B03083A
:1011A000DFF8F41C0968C1F8D40070470100484218
:1011B000102C030820FC0208F8B504000D002000E4
:1011C00001F0E3FC461E002E01D40C2E00DB1EE0D5
:1011D000280002F0CFF80700512F06D12A00DFF8CF
:1011E000E8165D4801F0C6FB11E0380002F0F5F8A2
:1011F00003003200DFF8D416574801F0BBFBDFF8DC
:10120000980C006810EB8600476507F03BFDF1BDC8
:101210000CEA0208F8B504000D001600200002F0E8
:10122000A9F80700512F07D12200DFF89C16DFF83C
:10123000640C01F09FFB0DE0380002F0CEF80300D3
:101240003200DFF88C16DFF84C0C01F093FB2F60B6
:1012500007F018FDF1BD10B50400DFF87826DFF8BF
:10126000380C01682000FFF7D5FF10BDF4EC020830
:10127000FC15002010B50400DFF85C26DFF8180C20
:10128000006810F59A712000FFF7C4FF10BD000040
:10129000803C030810B50400DFF80C2BDFF8F80BD6
:1012A000006810F1A8012000FFF7B4FF10BD000096
:1012B00098490308242C030810B504008BA2DFF81A
:1012C000D80B006810F518712000FFF7A3FF10BDC0
:1012D000600F0120E4F6020810B50400DFF8CC2A04
:1012E000DFF8B40B006810F118012000FFF792FF3F
:1012F00010BD000044FC020800050308F8B5040016
:101300000D00200001F041FC461E002E01D40C2EE1
:1013100000DB1EE0280002F02DF80700512F06D157
:101320002A00DFF8A4150C4801F024FB11E0380076
:1013300002F053F803003200DFF8F81A064801F013
:1013400019FBDFF8240D006810EB8600076207F038
:1013500099FCF1BDF01500200C6F0120F8B50400D8
:101360000D00200001F011FC0600002E01D4032E18
:1013700000DB21E0280001F0FDFF0700512F07D11D
:101380002A00DFF84415DFF80C0B01F0F3FA13E044
:10139000380002F022F803003200DFF8041BDFF807
:1013A000F40A01F0E7FADFF8C00C006810EB8600E1
:1013B000C0F8287107F066FCF1BD000070880020BD
:1013C000F8B504000D00200001F0DFFB0600002E40
:1013D00008D4032E06DA300001F08AFBDFF8C41AC5
:1013E000884200D111E0280001F0CFFB070038004F
:1013F00001F07EFBDFF8AC1A884206D0DFF8680CFB
:10140000006810EB8600C0F86C71F1BD2DE9F04169
:1014100004000D001600200001F0B7FB0700002FAC
:1014200008D4082F06DA380001F062FBDFF8741ADE
:10143000884200D122E0280001F09CFF8046B8F1EC
:10144000510F07D12A00DFF88014DFF8480A01F0B5
:1014500091FA13E0404601F0C0FF03003A00DFF8C4
:10146000041BDFF8300A01F085FADFF8FC0B006896
:1014700010EB8700C0F8A08107F004FCBDE8F08104
:10148000F8B504000D00200001F07FFB0600002EDF
:1014900008D4032E06DA300001F02AFBDFF8041A24
:1014A000884200D121E0280001F064FF0700512F9D
:1014B00007D12A00DFF81014DFF8D80901F05AFA32
:1014C00013E0380001F089FF03003200DFF8981ABA
:1014D000DFF8C00901F04EFADFF88C0B006810EB62
:1014E0008600C0F8607107F0CDFBF1BD412F4300CD
:1014F000FC52030854F00208486F0120200503083D
:1015000074E80208F8B504000D00280001F032FF6D
:101510000600512E07D12A00DFF8AC13DFF874095A
:1015200001F028FA60E0300004F022F9070040F2F0
:10153000E730874207D12A00DFF8301ADFF8540974
:1015400001F018FA50E02100B0A001F087FC00285B
:101550000DD0DFF8180B0068C0F8FC703B002A00C3
:10156000DFF80C1BDFF82C0901F004FA3AE0210047
:10157000A7A001F073FC00280DD0DFF8F00A006886
:10158000C0F81C713B002A00DFF8E81ADFF80409F4
:1015900001F0F0F926E021009EA001F05FFC002898
:1015A0000DD0DFF8C80A0068C0F83C713B002A0083
:1015B000DFF8C41ADFF8DC0801F0DCF912E02100E2
:1015C00095A001F04BFC00280CD0DFF8A00A0068C1
:1015D000C0F80C723B002A00DFF8A01ADFF8B4084C
:1015E00001F0C8F907F04EFBF1BD0000400503080B
:1015F000903C0308F8B504000D00200001F0C5FA86
:101600000600002E01D4032E00DB1EE0280001F0AE
:10161000B1FE0700512F06D12A00AB49DFF874084C
:1016200001F0A8F911E0380001F0D7FE0300320004
:10163000DFF84C1ADFF85C0801F09CF9DFF8280AA3
:10164000006810EB8600C0F88471F1BD60050308E6
:1016500068FC020838B50400200001F08BFE05008C
:10166000512D06D122009849DFF8280801F082F9AF
:101670000AE0280001F02AFF03002200DFF8041A24
:10168000DFF8100801F076F931BD0000382C0308AE
:101690004C2C0308ECEB00202DE9F0412DED048BE0
:1016A00082B004000D001600200001F021FBB0EE16
:1016B000408A280001F01CFBF0EE408A300001F067
:1016C00017FBB0EE409AB0EE480A1021DFF8D006C2
:1016D000006800F54850783007F009FD0700002F3A
:1016E00001D50027FFE7B0EE680A1021DFF8B00649
:1016F000006800F54850383007F0F9FC8046B8F132
:10170000000F02D55FF00008FFE74020DFF89016D9
:10171000096800FB081010EB870000F538503830DE
:1017200080ED009A19EE100A03F0DCFBCDE9000110
:1017300043463A00DFF85019DFF8EC0B01F01AF9D4
:1017400002B0BDEC048BBDE8F0810000A4490308A1
:10175000FCEB0020602C03082DE9F0412DED048BFB
:1017600082B004000D001600200001F0C1FAB0EEB6
:10177000408A280001F0BCFAF0EE408A300001F007
:10178000B7FAB0EE409AB0EE480A1021DFF8100622
:10179000006800F53450F83007F0A9FC0700002F6E
:1017A00001D50027FFE7B0EE680A1021DFF8F00549
:1017B000006800F53450B83007F099FC8046B8F165
:1017C000000F02D55FF00008FFE74020DFF8D015DA
:1017D000096800FB081010EB870000F52450B830B2
:1017E00080ED009A19EE100A03F07CFBCDE90001B0
:1017F00043463A00DFF89418DFF82C0B01F0BAF8F2
:1018000002B0BDEC048BBDE8F08100006D6170009A
:10181000636C7400696174007470730038B50400FF
:101820000D00012C04D02AD3032C1BD00DD326E0AD
:10183000DFF86406006890F8800165F30000DFF8C7
:101840005816096881F8800121E0DFF84C0600682D
:1018500090F8800165F34100DFF83C16096881F8D3
:10186000800114E0DFF83006006890F8800165F32D
:101870008200DFF82416096881F8800107E0220061
:10188000DFF80C18DFF8A00A01F074F806E0DFF8C2
:1018900008060168DFF8900AFEF782FC31BD0000FF
:1018A00080050308FC1A030874F20208A005030867
:1018B0000CF7020834F70208000F030828ED0208AD
:1018C000C00503085CED0208141B030890ED020834
:1018D000A0F2020804530308B049030838B5040015
:1018E0000D00DFF8B017200001F08AFA00280CD0B4
:1018F000DFF8A405006890F8800165F30410DFF8B4
:101900009815096881F8800139E2DFF88C1720000A
:1019100001F076FA00280CD0DFF87C05006890F81A
:10192000810165F38200DFF87015096881F8810193
:1019300025E2DFF86817200001F062FA00280CD0D9
:10194000DFF85405006890F8810165F30000DFF8C6
:101950004815096881F8810111E2DFF84417200079
:1019600001F04EFA00280CD0DFF82C05006890F842
:10197000810165F34100DFF82015096881F88101D4
:10198000FDE1DFF82017200001F03AFA00280ED020
:10199000DFF8D806006890F8E50565F38610DFF8F3
:1019A000CC16096881F8E50501F06BFEE7E1DFF888
:1019B000F816200001F024FA00280ED0DFF8AC065B
:1019C000006890F8E50565F34510DFF8A016096892
:1019D00081F8E50501F055FED1E1DFF8D0162000D1
:1019E00001F00EFA00280CD0DFF88006006890F8AD
:1019F000D90565F3C300DFF87416096881F8D905C5
:101A0000BDE1DFF8AC16200001F0FAF900280CD097
:101A1000DFF88404006890F8800165F38610DFF831
:101A20007814096881F88001A9E1DFF888162000A0
:101A300001F0E6F900280ED0DFF85C04006890F8A9
:101A4000800110F07F0050EAC510DFF84C140968DF
:101A500081F8800193E1DFF86016200001F0D0F9F1
:101A600000280CD0DFF83004006890F8810165F39D
:101A7000C300DFF82414096881F881017FE1DFF8F1
:101A80003C16200001F0BCF9002805D0DFF8300634
:101A9000006880F8705272E1DFF82816200001F02B
:101AA000AFF900280CD0DFF8C405006890F8D9051C
:101AB00065F34510DFF8B415096881F8D9055EE1D2
:101AC000B8A1200001F09CF900280CD0DFF8C80371
:101AD000006890F8800165F3C300DFF8BC13096863
:101AE00081F880014BE1C9A1200001F089F90028AB
:101AF0000CD0DFF87805006890F8D80565F38610FB
:101B0000DFF86815096881F8D80538E1DFF8B815FD
:101B1000200001F075F9002805D0DFF8A405006861
:101B200080F880522BE1DFF8A415200001F068F95D
:101B300000280CD0DFF83405006890F8D90565F36B
:101B40000000DFF82815096881F8D90517E1DFF8EA
:101B50008015200001F054F900280CD0DFF80C05A6
:101B6000006890F8D90565F34100DFF800150968B1
:101B700081F8D90503E1DFF85C15200001F040F998
:101B800000280CD0DFF8E404006890F8E40565F361
:101B90000000DFF8D814096881F8E405EFE0DFF809
:101BA0003815200001F02CF900280CD0DFF8BC0417
:101BB000006890F8E50565F3C300DFF8B014096824
:101BC00081F8E505DBE0DFF81415200001F018F9D5
:101BD00000280CD0DFF89404006890F8E40565F361
:101BE0004100DFF88814096881F8E405C7E0DFF8F0
:101BF000F014200001F004F900280CD0DFF86C0488
:101C0000006890F8500065F30000DFF86014096880
:101C100081F85000B3E0DFF8CC14200001F0F0F8B8
:101C200000280AD09C48006890F8800165F34510B0
:101C30009949096881F88001A1E0DFF8AC1420001F
:101C400001F0DEF800280CD0DFF82004006890F8DE
:101C5000E40565F34510DFF81414096881F8E4051C
:101C60008DE08EA1200001F0CBF800280CD0DFF829
:101C7000FC03006890F8E40565F38610DFF8EC13C8
:101C8000096881F8E4057AE0DFF8A816200001F081
:101C9000B7F800280ED0DFF8D403006890F8E40508
:101CA00010F07F0050EAC510DFF8C013096881F812
:101CB000E40564E0DFF88016200001F0A1F80028B8
:101CC0000CD0DFF8A803006890F8E50565F3000084
:101CD000DFF89813096881F8E50550E0DFF85C1635
:101CE000200001F08DF800280BD0DFF88003006899
:101CF00090F8E50565F34100DC49096881F8E505E0
:101D00003DE0DFF83C16200001F07AF800280AD008
:101D1000D648006890F8E50565F38200D349096864
:101D200081F8E5052BE0DFF81C16200001F068F8CB
:101D300000280AD0CD48006890F8E50565F3041046
:101D4000CA49096881F8E50519E0DFF8FC152000AB
:101D500001F056F800280AD0C448006890F8E4055D
:101D600065F38200C149096881F8E40507E02200B3
:101D7000DFF8D815DFF8B00500F0FCFD0EE0EDB29D
:101D8000002D02D0DFF8C83501E0DFF8C8352200A9
:101D9000DFF8C415DFF8900500F0ECFD31BD000060
:101DA000EC15002073640000BC490308C84903080F
:101DB00010B5040001212000FFF790FD10BD10B503
:101DC000040000212000FFF789FD10BD10B50400BC
:101DD00001212000FFF722FD10BD10B504000021F5
:101DE0002000FFF71BFD10BD80B5A048006890F8EB
:101DF000E40550F001009D49096881F8E405DFF829
:101E00005C15DFF8240500F0B5FD01BD63616E00CF
:101E100080B59648006890F8E40510F0FE009349FC
:101E2000096881F8E405DFF83815DFF8FC0400F0F4
:101E3000A1FD01BDC4ED020880B58C48006890F892
:101E4000E40550F002008949096881F8E405DFF8EB
:101E50001415DFF8D40400F08DFD01BD80B5834872
:101E6000006890F8E40510F0FD008049096881F8E9
:101E7000E405DFF8F414DFF8B00400F07BFD01BDE9
:101E800080B504F006FCDFF8E4241268C2E90C0116
:101E900001BD00000C6F0120F41500206D696C007D
:101EA000F8ED020830E48C1210B5FEF79DFEFEF747
:101EB00032FEDFF8BC040268DFF8B814DFF868040B
:101EC00000F058FDDFF8B0040068C0F3400010F0E7
:101ED000010090F00100C0B200F0ECFD0200DFF85C
:101EE0009C14DFF8440400F045FD5F480068D0F81A
:101EF000500107F0F7FA04695B480068D0F8500118
:101F000007F007FB34FA00F010F0010090F0010038
:101F1000C0B200F0CFFD0200DFF86414DFF808045F
:101F200000F028FD10BD5148006880ED030A70479D
:101F300010B50400DFF84C14200000F061FF002809
:101F400006D0DFF84414DFF8E00300F013FD08E0EA
:101F5000DFF83814200000F053FF002801D007F00C
:101F6000C7FB10BD2CEE0208B0E80208A03C030835
:101F700070B52DED028B04000D00280000F0B8FEB6
:101F8000B0EE408A280000F000FE0600DFF80014E2
:101F9000200000F035FF002804D03448006880EDB0
:101FA0007A8A5DE0DFF8EC13200000F029FF0028BA
:101FB00008D00B2E03DB2D480068C0F8746807F0CA
:101FC000B4FC4DE0DFF8D013200000F019FF00282A
:101FD0000AD000EE106AB8EEC00A2448006800F685
:101FE000780080ED000A3BE0DFF8B013200000F03D
:101FF00007FF002804D0B0EE480A07F0F1FC2FE0FC
:10200000DFF89C13200000F0FBFE002804D01748E6
:102010000068C0F8406123E0DFF88813200000F07A
:10202000EFFE002804D011480068C0F8446117E0B2
:10203000DFF87413200000F0E3FE002806D00B4800
:10204000006800F66C0080ED008A09E0DFF83C13C0
:10205000200000F0D5FE002802D0280007F07FFB0A
:10206000BDEC028B70BD0000F4150020F0150020BF
:102070002C1B0308441B03085C1B0308741B030888
:1020800044EA0208B03C03085CF702088CFC020832
:102090008C1B03080C530308C03C030814530308AB
:1020A000D4490308742C0308D03C0308E049030812
:1020B0001C530308EC490308882C0308F84903085B
:1020C000FC150020044A0308104A03081C4A0308B0
:1020D000284A0308344A0308E03C0308404A03083E
:1020E0009C2C0308F03C03082453030810B504009B
:1020F0009E4AAE49AE4807F06BFDAE49AE4807F0C8
:102100007DFDAE49AE4807F079FDAE49AE4807F017
:1021100075FDAE49AE4807F0CDFDAE49AE4807F0BB
:10212000C9FDAE49AE4807F0C5FDAE49AE4807F05F
:102130006FFDAE49AE4807F06BFDAE49AE4807F003
:1021400067FDAE49AE4807F063FDAE49AE4807F003
:102150005FFDAE49AE4807F05BFDAE49AE4807F003
:1021600057FDAE49AE4807F053FDAE49AE4807F003
:102170004FFDAE49AE4807F04BFDAE49AE4807F003
:1021800099FDAE49AE4807F095FDAE49AE4807F05F
:102190003FFDAE49AE4807F08DFDAE49AE4807F0B1
:1021A00089FDAE49AE4807F033FDAE49AE4807F0B1
:1021B0002FFDAE49AE4807F02BFDAE49AE4807F003
:1021C00079FDAE49AE4807F075FDAE49AE4807F05F
:1021D00071FDAE49AE4807F06DFDAE49AE4807F05F
:1021E00055FDAE49A64807F065FDAD49AD4807F07D
:1021F0004DFDAD49AD4807F00BFDAD49AD4807F0C9
:1022000007FDAD49AD4807F003FDAD49AD4807F006
:10221000F5FCAD49AD4807F0F1FCAD49AD4807F01C
:10222000EDFCAD49AD4807F0E9FCAD49AD4807F01C
:10223000E5FCAD49AD4807F0EBFCAD49AD4807F012
:10224000E7FCAD49AD4807F002FDAD49AD4807F0E8
:10225000FEFCAD49AD4807F0F0FCAD49AD4807F0D4
:10226000D7FCAD49AD4807F025FDAD49AD4807F0B5
:1022700021FDAD49AD4807F01DFDAD49AD4807F062
:1022800019FDAD49AD4807F0C3FCAD49AD4807F0B5
:102290001BFDAD49AD4807F0DAFCAD49AD4807F08C
:1022A000EBFCAD49AD4807F0E7FCAD49AD4807F0A0
:1022B000E3FCAD49AD4807F0DFFCAD480268AD492D
:1022C000AD4807F090FCAD49AD4807F0A1FCAD4921
:1022D000AD4807F0D1FCAD49AD4807F0B8FCAD49B9
:1022E000AD4807F0B4FCAD49AD4807F0B0FCAD49CE
:1022F000AD4807F0ACFCAD49AD4807F0A8FCAD49CE
:102300000AA007F0B9FCAC4909A007F0A0FCAB4952
:10231000AB4807F0B1FCAB49AB4807F0ADFCAB49AB
:10232000AB4807F075FC10BD0C6F0120736574009D
:10233000676574004C4A0308584A0308003D0308C7
:10234000644A0308103D0308B02C0308203D03082D
:1023500034530308704A03082C530308C42C0308A1
:10236000D82C0308EC2C0308002D0308FC150020D2
:1023700018C50120A41B030810040240BC1B03085D
:102380001C0F03083C5303087C4A0308445303080A
:10239000884A03084C530308944A0308545303081B
:1023A000A04A0308AC4A0308B84A03083D080008DD
:1023B000C44A0308E90B0008D04A0308170B0008B9
:1023C0005C530308A91E000864530308530900085E
:1023D000142D03082B090008D41B0308510D000815
:1023E000E0050308AD090008EC1B03084D080008D0
:1023F000041C030879080008303D0308970800080A
:10240000403D0308E10800081C1C0308F908000807
:10241000341C030813090008282D03087B09000851
:102420004C1C030893090008B0FC0208C709000807
:102430003C2D0308C90E0008380F03082D0D0008B5
:10244000502D0308AD0C0008642D03087D0D000815
:10245000540F0308850E0008700F0308F50D0008DF
:10246000782D0308AD0D00088C0F0308D10D00086E
:102470008C2D030861100008A02D0308A51000088A
:10248000641C030841110008B42D0308E51000087E
:10249000C82D030859170008503D03080110000813
:1024A00099160008603D03080D0D0008DC2D030897
:1024B000ED0C0008F02D0308D10C0008703D030856
:1024C000811E0008DC4A0308E91D0008042E0308E9
:1024D000111E0008182E0308391E0008803D03084D
:1024E0005D1E00082C2E0308CD1D0008E84A0308D5
:1024F000DB1D0008F44A0308B11D00086C530308F3
:10250000BF1D000874530308410E0008402E030845
:102510001D0E0008542E0308D90F0008682E03086A
:10252000271F00087C2E0308210F0008903D030898
:10253000C50F0008A03D0308D70800087C1C03084D
:10254000610F00087C5303085516000884530308E4
:10255000FD120008902E0308B9110008A42E0308EC
:102560005D130008941C030881140008A80F0308D9
:10257000F41500200D140008B03D03088D1100086B
:10258000004B0308C1130008C40F0308D912000848
:10259000B82E0308B91200080C4B03089512000866
:1025A000CC2E030857120008C03D0308751200081E
:1025B000E02E0308711F0008311F000805150008F0
:1025C000AC1C0308F5150008F42E0308A11100083F
:1025D000184B030810B50400200000F04FFA10BD9E
:1025E00038B504000D00E06A002806D12168DFF844
:1025F000040406F0A7FB01200FE0200000F0E1F941
:10260000691C884208D22268DFF8EC1340F25E2091
:1026100007F082FE012000E0002032BDF8B5040082
:102620000D00002D04D1DFF8D40306F08BFB12E07F
:10263000280000F075FA060031002000FFF7D0FFF7
:102640000700FFB2002F06D12900206B07F0CAFE59
:10265000206B30182063F1BD10B40A001378002BF2
:1026600001D0521CFAE7531A046B22000C78491C63
:102670001470521CE4B2002CF8D1046B1C190463D2
:1026800010BC704770B504000D001600DFF8700331
:102690000021C160DFF86C03806907F0C5FE812866
:1026A00004DADFF8640306F04DFB0EE03200290087
:1026B000D34808F055F8D248C068D149496800228B
:1026C0004254D2492000FFF7A9FF70BDF8B50400BD
:1026D0000D001600CB48806907F0A6FE812803DABA
:1026E000CB4806F02FFB13E0CA480078002803D13E
:1026F000C94806F027FB0BE008F0F0FA07003200AB
:1027000029002000FFF7BEFF002F01D108F008FBD1
:10271000F1BD0CB470B504000D00BA48806907F033
:1027200083FE812803DABD4806F00CFB06E004A80E
:102730000600320029002000FFF7C8FF70BC5DF8DA
:102740000CFBF8B504000D0016001F002560E662C2
:102750006763200000F0DDF8B148A063F1BD70B5FB
:1027600004000D00160029002000FFF757FF9FA16D
:102770002000FFF753FF9DA33200AA492000FFF776
:10278000C8FF70BD38B52DED028B0400B0EE408A55
:102790000D00012D09D04AD3032D1CD010D3052DD7
:1027A0002FD023D3062D37D041E018EE100A02F0C7
:1027B00099FB02000B009C492000FFF7AAFF40E0B4
:1027C00018EE100A02F08EFB02000B009749200061
:1027D000FFF79FFF35E018EE100A02F083FB0200BE
:1027E0000B0093492000FFF794FF2AE018EE100A2F
:1027F00002F078FB02000B008E492000FFF789FFF2
:102800001FE018EE100A02F06DFB02000B008A496F
:102810002000FFF77EFF14E018EE100A02F062FBC2
:1028200002000B0085492000FFF773FF09E018EE56
:10283000100A02F057FB02000B006DA12000FFF709
:1028400068FFBDEC028B31BD70B52DED028B04002D
:102850000D00B0EE408A160029002000FFF7DEFED2
:1028600062A12000FFF7DAFE3100B0EE480A200036
:10287000FFF788FF5DA12000FFF7D0FEBDEC028BC3
:1028800070BD70B50400200000F04AF905006C49E5
:102890006C4807F0A7FD00F043F96A494618290083
:1028A000300000F0D3F906003A203070761C00208A
:1028B0003070761C2600AE190D203070761C0A2070
:1028C0003070761C08F053F900280AD05D4808F0F3
:1028D00075FA01005B4808F09FF9311B200008F0F1
:1028E0009BF970BD10B50400E06AFFF7CAFF200035
:1028F00000F00FF810BD10B5040053492000FFF799
:102900008DFE10BD10B5040038A12000FFF786FE33
:1029100010BD38B50400E56A002D04D121684B488C
:1029200006F010FA03E02563206B0021017031BD31
:102930000CB470B504000D003248806907F074FDD6
:10294000812803DA424806F0FDF910E02000FFF785
:10295000D2FF04A80600320029002000FFF7B6FECF
:1029600022A12000FFF75AFE2000FFF7BBFF70BC3A
:102970005DF80CFB0CB4F8B504000D00002C03D17D
:10298000344806F0DFF919E008F0A8F90600200045
:10299000FFF7BFFF2000FFF7AEFF06A807003A00D1
:1029A00029002000FFF792FE2000FFF7ABFF200078
:1029B00008F020FA002E01D108F0B2F9F1BC5DF860
:1029C0000CFB416B026B891AC06A4018704780B5D6
:1029D00008F079FA00234FF4FA620C49084808F02D
:1029E000EFFA0C480121017001BD00002C0000002D
:1029F00025660000A40903082C240308F0420308FC
:102A0000B0E30020CCB40020FC420308FCE7001037
:102A10000843030855C6012040F102081443030887
:102A20000939B202DC4D0308E44D0308EC4D0308FC
:102A3000204303082C430308384303084443030896
:102A4000F44D0308C4E30020FC4D0308503503088F
:102A50005043030860350308002101600021C16272
:102A6000002101630021416300218163704710B59B
:102A700004002000FFF7F0FF200010BDF8B50400AF
:102A80000D0016001F002000FFF7E6FF3B0032009C
:102A900029002000FFF755FE2000F2BD38B50400E4
:102AA0000D00C82314F13C0229002000FFF792FD1D
:102AB000200032BDC0B2002801D08BA000E08BA066
:102AC0007047884200DB08007047B0EE401A81EE84
:102AD000200ABDEEC00AB8EEC00A20EE200A7047F8
:102AE000B5EE400AF1EE10FA01DCB1EE400A704793
:102AF000002800D540427047814200DB0800704743
:102B0000F4EE400AF1EE10FA01D4B0EE600A70471C
:102B1000B4EE600AF1EE10FA01D4B0EE600A70472C
:102B200001000A78002A01D0491CFAE7081A704708
:102B300010B504002078202801D1641CFAE7200099
:102B4000FFF7EEFF010001290ADB081910F8010C5C
:102B5000202805D10819002200F8012C491EF2E7AF
:102B6000200010BD38B504000D002000FFF7D8FF8D
:102B700001000020884205DA025DEDB2AA4203D0CE
:102B8000401CF7E75FF0FF3032BD70B50400200055
:102B900008F014F90500002D01D191481CE02078BF
:102BA0002D2804D1601CFFF7F0FF404214E0002004
:102BB0000021A94210DA0A5DD2B2302A02DBD2B279
:102BC0003A2A01DB874807E0D2B2B2F130030A2685
:102BD00006FB0030491CECE770BD30B400F20B0579
:102BE0002C00B1FBF2F502FB15152B0030333A2B0C
:102BF00000DBDB1D641E2370B1FBF2F10029F0D174
:102C000010F10B052D1B2B0025780570641C401C52
:102C10005B1E002BF8D130BC704770B504000D006E
:102C20001600002D0AD52D202070641C3200694248
:102C30002000FFF7D2FF0021017006E032002900DA
:102C40002000FFF7CAFF0021017070BD38B50400F5
:102C50000D000A2229002000FFF7DFFF32BD00002F
:102C600080B52DED028BF0EE408AB0EE608A38EE32
:102C7000C80AFFF735FFDFED580AB4EE600AF1EE3F
:102C800010FA01D5012000E00020C0B2BDEC028B9B
:102C900002BD10B50400002C0CD0022C0ED00BD3BA
:102CA000042C10D00CD3062C12D00FD3082C13D028
:102CB00010D313E0012016E00A2014E0642012E093
:102CC0004FF47A700FE042F210700CE046480AE0D0
:102CD000464808E0464806E0464804E00920FFF779
:102CE000D8FF0A21484310BD596573004E6F00009C
:102CF0002DE9F8432DED028B8146484608F05EF839
:102D00008046B8F1640F02D39FED340A5FE0494674
:102D1000394807F067FB384D2E212800FFF722FFC6
:102D2000040014F1010F11D12800FFF72EFF08EE67
:102D3000100A18EE100AFFF7DBFE2A49884202D17A
:102D40009FED260A43E0B8EEC80A40E00020605537
:102D50002800FFF71AFF08EE100A18EE100AFFF716
:102D6000C7FE2049884202D19FED1C0A2FE060195E
:102D7000451C280008F022F806002800FFF705FF90
:102D800008EE900A18EE900AFFF7B2FE1549884245
:102D900002D19FED120A1AE0B7EE000A0027B742EF
:102DA0000DDA10EE100A02F09DF80022134B08F025
:102DB00013F908F0E3F900EE100A7F1CEFE7F8EED4
:102DC000C80AB8EEE81A81EE000A30EE800ABDECBF
:102DD000028BBDE8F183000018B7D138FFFFFF7FF9
:102DE000D01B73ED30E48C12A086010040420F002E
:102DF0008096980000E1F50520EF002000002440B7
:102E000070B504000D00200007F0D8FF0600280070
:102E100007F0D4FF01008E4201D000201DE0002207
:102E2000B24219DA105D412805DB105D5B2802DA39
:102E3000105D203000E0105D535D412B05DB535DDC
:102E40005B2B02DA535D203300E0535D984201D0E2
:102E5000002002E0521CE3E7012070BD70B50400C1
:102E60000D00200007F0AAFF0600280007F0A6FFCB
:102E700001008E4201D000200BE00022B24207DAAE
:102E8000105D535D984201D0002002E0521CF5E72E
:102E9000012070BD704750F8041B61B150F8042B3D
:102EA000D30744BFA9F101039A18002342F8043B59
:102EB000091FFAD1EFE7704701000800002808D089
:102EC000012809D0DFF82C22904208D1DFF828022F
:102ED00006E0DFF8280203E0DFF8240200E000202B
:102EE00070470100080000285FD0012836D0022872
:102EF0002ED003284DD004284ED005283AD00628DD
:102F00004DD007282DD0082855D0092850D00A28A0
:102F100033D00B2846D00C2838D00D2833D00E28BB
:102F200019D00F2820D0102821D0112846D01228DF
:102F300047D013284BD0142846D0152820D0162867
:102F400048D0DFF8B021904247D1DFF8B80145E022
:102F5000DFF8B40142E0DFF8B4013FE0DFF8B00190
:102F60003CE0DFF8B00139E0DFF8AC0136E0DFF833
:102F7000AC0133E0DFF8A80130E0DFF8A8012DE074
:102F8000DFF8A4012AE0DFF8A40127E0DFF8A001C0
:102F900024E0DFF8A00121E0DFF89C011EE0DFF86B
:102FA0009C011BE0DFF8980118E0DFF8980115E0BC
:102FB000DFF8940112E0DFF894010FE0DFF89001F0
:102FC0000CE0DFF8900109E0DFF88C0106E0DFF8A3
:102FD0008C0103E0DFF8880100E000207047010069
:102FE0000800002811D001280CD0022813D0032893
:102FF00014D004280CD0DFF8FC20904211D1DFF867
:1030000064010FE0DFF860010CE0DFF8600109E027
:10301000DFF85C0106E0DFF85C0103E0DFF8A40103
:1030200000E00020704701000800002808D00128B7
:1030300009D0DFF8C020904208D1DFF88C0106E00B
:10304000DFF8880103E0DFF8880100E00020704726
:103050000100080000280CD001280DD002280ED055
:1030600003280FD0DFF88C2090420ED1DFF86401E6
:103070000CE0DFF8640109E0DFF8600106E0DFF84A
:10308000600103E0DFF85C0100E000207047010010
:10309000080000280CD0012807D002280BD0154AC0
:1030A00090420BD1DFF8400109E0DFF8400106E073
:1030B000DFF83C0103E0DFF83C0100E0002070474E
:1030C0000100080000280FD001280AD0022805D0EE
:1030D000084A90420BD1DFF8200109E0DFF81C011B
:1030E00006E0DFF81C0103E0DFF8180100E0002033
:1030F00070470000009435772CF50208DC41030886
:10310000E8410308B4140308842103089821030844
:103110004033030850330308AC210308603303082D
:10312000F4410308C0210308CC140308E414030885
:1031300020FF0208D4210308E8210308FC2103082A
:103140000042030810220308FC14030814150308A6
:1031500040FF0208344D03080C4203087033030893
:1031600018420308FC0803082442030880330308BC
:10317000304203083C4D030801000800002810D02D
:10318000012810D0022814D0032810D004280CD015
:10319000052810D0062810D01B4A90420FD11B489A
:1031A0000EE01B480CE01B480AE01B4808E01B48E7
:1031B00006E01B4804E01B4802E01B4800E000203A
:1031C000704700002422030838220308444D0308F6
:1031D0003C42030818090308484203085442030804
:1031E000903303082C150308441503084C220308E8
:1031F00060420308A03303085C1503086C4203080F
:10320000B0330308C033030800943577340903084A
:10321000784203088442030860220308D03303087D
:1032200090420308E03303089C42030880B5DFF8AE
:10323000D013DFF8D003FFF731FC01BD0CB470B53B
:1032400004000D0004A8060032002900200007F049
:1032500087FA70BC5DF80CFB0100DFF8AC0381421B
:1032600001D181A025E0DFF8A403814201D17FA034
:103270001FE0DFF89C03814201D17DA019E0DFF857
:103280009403814201D17BA013E0DFF88C038142DB
:1032900001D179A00DE0DFF88403814201D194A02F
:1032A00007E0DFF87C03814201D192A001E0DFF862
:1032B0007403704710B50400DFF84C03844201D159
:1032C000002029E0DFF84403844201D1012023E0FB
:1032D000DFF83C03844201D102201DE0DFF8340313
:1032E000844201D1032017E0DFF82C03844201D18E
:1032F000042011E0DFF82803844201D105200BE00F
:10330000DFF81803844201D1062005E0DFF8180336
:1033100005F018FD5FF0FF3010BD2DE9F04182B0DF
:103320000024702C1EDADFF8040350F8245010201B
:1033300094FBF0F6102094FBF0F707FB1047DFF842
:10334000F00250F82680002D0AD04046FFF784FF97
:1033500000953B000200DFF8DC12AA48FFF70AFBE9
:10336000641CDEE7B4480268B449A648FFF702FBD4
:10337000BDE8F381F8B50400B1492000FFF76EFD08
:10338000002801D0502027E02078702804D0207831
:10339000502801D051201FE06578EDB2612D08DB87
:1033A000EDB27B2D05DAEDB2B5F16100000106004A
:1033B0000DE0EDB2412D08DBEDB25B2D05DAEDB28B
:1033C000B5F141000001060001E0512004E0A71C16
:1033D0003800FFF7DAFB8019F2BD70B50400512CFC
:1033E00001D198481EE0200006F07CF80500002D71
:1033F00001D1954816E0200006F08BF806009348AE
:103400000021C1602800FFF727FF33000200904928
:103410008E48FFF713FF8D48C0688C494968002229
:1034200042548C4870BD80B50023142289498748D6
:1034300007F0C6FD0020702805DA7C49002241F81B
:103440002020401CF7E7844801210160834984481B
:1034500006F0D4FB01BD754A42F82010764A126886
:10346000521C754B1A6070475041000050420000DA
:10347000504300005044000050450000F8B50400DF
:103480000D001600280006F044F80700280006F09A
:1034900029F833003A000100200000F02DF8F1BDBA
:1034A00001000800012802D0022802D003E02020F9
:1034B00002E0402000E00020704738B504000D0015
:1034C0002000FFF7F7FE15EB001032BD70B50400C9
:1034D000200006F007F80500200006F01AF80600A4
:1034E00031002800FFF7E9FF504951F8200070BD76
:1034F00050480000504600002DE9F04182B0040021
:103500000D0016001F0054480068002803D15548DC
:1035100005F018FC40E0002D3ED02800FFF79CFE8F
:10352000330002002100504807F02DFF22004F49D0
:103530003448FFF7EEF82800FFF78EFE02002FA0B8
:10354000009033004A492F48FFF7E3F82D48FFF772
:10355000C9F931002800FFF7B0FF8046334850F822
:10356000280000280DD02800FFF776FE01002F4824
:1035700050F828000090230032003E4805F0E2FB9E
:103580000AE021004046FFF766FF3A00012010FAEA
:1035900006F1280007F0F2FFBDE8F38170B50400E2
:1035A000200005F09FFF0500200005F0B2FF060097
:1035B00031002800FFF781FF1C4951F82010002935
:1035C00008D01A49002241F820201B490968491EE9
:1035D000194A116070BD38B504000D00207801282B
:1035E00006D02078022803D0234805F0ABFB03E087
:1035F0002900200008F03FF831BD00002C00000039
:1036000014490308D447012000000240000402408E
:1036100000080240000C024000100240001C024062
:1036200000140240BC510308FC4803081046012066
:1036300040170020803B0308D8480120F4190308F4
:10364000C4510308CC510308D4510308DC480120BD
:10365000DC510308F0480120D04701201B3300084B
:10366000E4510308200E0308903B0308EC510308C3
:10367000084903083C0E0308D02A0308564800688E
:10368000704755480068401C534908607047002047
:10369000082815DA4FF47A7101FB00F100EE901A58
:1036A000F8EEE00A4D49096811EB8001C1ED540ABA
:1036B0004A49096811EB800181ED5C0A401CE7E78B
:1036C0007047002110290DDA0022102A08DA402361
:1036D00003FB010313EB820383ED000A521CF4E7A2
:1036E000491CEFE7704780B52DED028BB0EE408AA4
:1036F000B0EE480A3A48006800F52450B830FFF7A9
:10370000E0FFBDEC028B01BD80B52DED028BB0EE6C
:10371000408AF0EE608AB7EE001AF0EE680AB0EE6A
:10372000480A10212E48006800F52450383008F06F
:1037300043F8B7EE001AF0EE680AB0EE480A10211E
:103740002748006800F55850B83008F035F8B7EE53
:10375000001AF0EE680AB0EE480A1021204800680E
:1037600000F56C50383008F027F8BDEC028B01BD35
:10377000002110290DDA0022102A08DA402303FB69
:10378000010313EB820383ED000A521CF4E7491C8A
:10379000EFE7704780B52DED028BB0EE408AB0EEBA
:1037A000480A0F48006800F50050B830FFF7E0FF06
:1037B000BDEC028B01BD80B52DED028BB0EE408AD1
:1037C000B0EE480A0648006800F538503830FFF778
:1037D000CFFFBDEC028B01BDDCF10020F015002015
:1037E000EC15002010B40023834211DA0A2404FBF4
:1037F00003F4283C00EE104AB8EEC00A11EB830433
:1038000084ED000A5FF07E5442F823405B1CEBE736
:1038100010BC704738B5040040F6A8020021200013
:1038200008F026F814F51C755020C5F82801502022
:10383000C5F82C015020C5F830010020052806DA13
:1038400015EB80015022C1F84422401CF6E75020BD
:10385000C5F860020020C5F8640206F009F908F016
:1038600023F95020C5F804015020C5F80801502064
:10387000C5F834010020C5F89C01502028600020C4
:1038800068605020A8610020E8615020C5F8F00071
:103890005020C5F8F4005020C5F8E8005020C5F8C5
:1038A000EC005020C5F878015020C5F888000020B1
:1038B000C5F88C005020C5F890000020C5F8940091
:1038C0005020C5F8A0000120C5F8A4005020C5F87C
:1038D0001C030120C5F8200300200C2805DA15EB95
:1038E000800150220A62401CF7E700202865002072
:1038F0000C2805DA15EB800150224A65401CF7E7D9
:103900000020C5F8840031BD80B543F6B8320021EF
:10391000DFF8A00E07F0ACFFDFF89C0E0068FFF7A1
:1039200079FFDFF8980E00680121C0F81413DFF862
:10393000900E006808F0D2F9DFF87C0E00685FF0A6
:103940007E51C160DFF8700E00684FF42F71A0F84F
:10395000F815DFF8640E006841F28831A0F8FA1516
:10396000DFF85C0E006800F5B8527832DFF8500ED0
:10397000006800F5B85138311020FFF733FFDFF849
:10398000400E006800F5B052F832DFF8340E0068DF
:1039900000F5B051B8311020FFF724FFDFF8200EFA
:1039A000006800F5C0527832DFF8140E006800F5A8
:1039B000C05138311020FFF715FFF7EE080A9FEDD0
:1039C000DC0A1022DFF8F80D006800F5C0517831EC
:1039D000DFF8EC0D006800F5C050383005F004FD4C
:1039E000F7EE080ABBEE0E0A1022DFF8D40D0068CD
:1039F00000F5C0517831DFF8C80D006800F5C050FF
:103A0000383005F0F1FCDFEDDF0ABBEE040A1022CE
:103A1000DFF8AC0D006800F5C0517831DFF8A00D7B
:103A2000006800F5C050383005F0DEFCDFEDD60A46
:103A3000BAEE040A1022DFF8880D006800F5C051C4
:103A40007831DFF87C0D006800F5C050383005F0A3
:103A5000CBFCDFEDCE0A9FEDCE0A1022DFF8600D21
:103A6000006800F5C0517831DFF8540D006800F5AA
:103A7000C050383005F0B8FCDFEDC60AB2EE040ADB
:103A80001022DFF83C0D006800F5C0517831DFF8F6
:103A9000300D006800F5C050383005F0A5FCDFEDB2
:103AA000BE0AB3EE040A1022DFF8140D006800F518
:103AB000C0517831DFF8080D006800F5C05038308B
:103AC00005F092FCDFEDB50AB3EE0E0A1022DFF826
:103AD000F00C006800F5C0517831DFF8E40C0068A4
:103AE00000F5C050383005F07FFCDFEDAD0A9FEDEA
:103AF000AD0A1022DFF8C80C006800F5C05178311B
:103B0000DFF8BC0C006800F5C050383005F06CFCE4
:103B1000DFEDA30A9FEDE90A1022DFF8A40C00688C
:103B200000F5C0517831DFF8980C006800F5C050FE
:103B3000383005F059FCDFED9C0A9FED9C0A1022FD
:103B4000DFF87C0C006800F5C0517831DFF8700CAC
:103B5000006800F5C050383005F046FCDFED940AEF
:103B60009FED940A1022DFF8580C006800F5C05150
:103B70007831DFF84C0C006800F5C050383005F0A3
:103B800033FCF7EE080A9FED6A0A1022DFF8300CCA
:103B9000006800F5B051F831DFF8240C006800F53A
:103BA000B050B83005F020FCF7EE080ABBEE0E0A64
:103BB0001022DFF80C0C006800F5B051F831DFF886
:103BC000000C006800F5B050B83005F00DFCDFEDDA
:103BD0006D0ABBEE040A1022DFF8E40B006800F562
:103BE000B051F831DFF8D80B006800F5B050B830AC
:103BF00005F0FAFBDFED640ABAEE040A1022DFF8E2
:103C0000C00B006800F5B051F831DFF8B40B006864
:103C100000F5B050B83005F0E7FBDFED5C0A9FED32
:103C20005C0A1022DFF8980B006800F5B051F831FB
:103C3000DFF88C0B006800F5B050B83005F0D4FB0D
:103C4000DFED540AB2EE040A1022DFF8740B0068AC
:103C500000F5B051F831DFF8680B006800F5B0509E
:103C6000B83005F0C1FBDFED4C0AB3EE040A1022B8
:103C7000DFF84C0B006800F5B051F831DFF8400B6D
:103C8000006800F5B050B83005F0AEFBDFED430A38
:103C9000B3EE0E0A1022DFF8280B006800F5B051D1
:103CA000F831DFF81C0B006800F5B050B83005F0B3
:103CB0009BFBDFED3B0A9FED3B0A1022DFF8000B78
:103CC000006800F5B051F831DFF8F40A006800F53B
:103CD000B050B83005F088FBDFED310A9FED770A70
:103CE0001022DFF8DC0A006800F5B051F831DFF887
:103CF000D00A006800F5B050B83005F075FBDFED74
:103D00002A0A9FED2A0A1022DFF8B40A006800F59B
:103D1000B051F831DFF8A80A006800F5B050B830AB
:103D200005F062FBDFED220A9FED220A02E000BFF0
:103D3000000020C21022DFF8880A006800F5B051A8
:103D4000F831DFF87C0A006800F5B050B83005F0B3
:103D50004BFB002008282FDA10F1080100EE101AA2
:103D6000B8EEC00ADFF8501A096811EB800181ED46
:103D7000040ADFF8441A096811EB800100220A6383
:103D8000401CE7E78FC2B53F7B14AE3F0AD7A33F85
:103D900000000000EC51983F295C8F3FCDCC8C3F58
:103DA00014AE873F000020420AD7833F00007042D4
:103DB000AE47813F00008C42B1EE000AFFF767FC7E
:103DC000DFF8F409006890F8D80510F0EF00DFF88C
:103DD000E819096881F8D805DFEDEB0A9FEDEB0AD9
:103DE00003F021FFDFEDEA0A9FEDEA0A03F005FF89
:103DF000DFEDE50A9FEDE50A03F041FFDFEDE40AA0
:103E00009FEDE40A03F025FFB7EE001ADFEDE00AAC
:103E10009FEDE00A0821DFF8A0090068703007F084
:103E2000CBFCB7EE001ADFEDE50A9FEDE50A0821AD
:103E3000DFF884090068903007F0BEFCB7EE001A86
:103E4000DFEDD30A9FEDD30A0821DFF86C09006883
:103E5000B03007F0B1FCB7EE001ADFED180A9FEDA5
:103E6000170A0821DFF850090068D03007F0A4FCD9
:103E7000B0EE080AFFF737FC9FEDD20ADFF84009E1
:103E8000006800F55C503830FFF71BFC08F05AFB67
:103E90009FEDCD0ADFF82809006800F5145038308E
:103EA000FFF70FFC1021DFF81809006800F5245017
:103EB000783007F0C7FCDFEDC50A01E0000048429A
:103EC000B2EE040AFFF720FC08F0C8FCDFEDC02AC0
:103ED0009FEDC02ADFEDC01A9FEDC01ADFEDC00ACA
:103EE0009FEDC00ADFF8D008006810F5807002F07E
:103EF00003F9DFF8C4080068DFF8241CC0F81811C3
:103F0000DFEDB32A9FEDB82ADFEDB31A9FEDB71AA4
:103F1000DFEDB30A9FEDB60ADFF89C08006810F5E4
:103F2000907002F0E9F8DFF890080068DFF8F41B01
:103F3000C0F83811DFF88008006840F6B831C0F8E2
:103F40004011DFF8740800680A21C0F84411DFF856
:103F50006808006841F65831C0F8A411DFF8580825
:103F6000006840F22621A0F86010DFF84C080068D5
:103F700090F8DA0550F00100DFF83C18096881F884
:103F8000DA05DFF83408006890F8DA0550F002002E
:103F9000DFF82418096881F8DA05DFF81C080068E2
:103FA000DFF8841BC0F86C1641F2B870DFF8101807
:103FB0000968DFF8682D425041F2D870DFF8001828
:103FC0000968DFF8682B425041F2BC70DFF8F01747
:103FD0000968DFF85C2B425041F2DC70DFF8E01733
:103FE0000968DFF8502B4250DFF8D407006810F55D
:103FF000BE50DFF8441B0160DFF8C407006810F50D
:10400000BF50DFF8181D016041F2C470DFF8B0172F
:104010000968DFF8D42C425041F2E470DFF8A017B1
:104020000968DFF8C82C425041F2C870DFF89017D9
:104030000968DFF8EC2C425041F2E870DFF8801795
:104040000968DFF8542D425041F2CC70DFF8701748
:104050000968DFF8D02C425041F2EC70DFF86017AD
:104060000968DFF8382D425041F2D070DFF8501760
:1040700009685FF07F52425041F2F070DFF840175C
:104080000968DFF8A42C425041F2D470DFF83017F1
:1040900009685FF07E52425041F2F470DFF8201759
:1040A0000968DFF8882C425041F2F870DFF81017E9
:1040B00009685FF08042425041F61800DFF80017AF
:1040C0000968DFF8002D425041F2FC70DFF8F0166D
:1040D00009685FF07E52425041F61C00DFF8E0169E
:1040E0000968DFF8BC2C4250DFF8D406006810F5F0
:1040F000C0505FF07E510160DFF8C406006810F523
:10410000C150DFF8C41C016041F60400DFF8B016AE
:1041100009685FF07C52425041F62400DFF8A01697
:104120000968DFF8A82C425041F60800DFF8901625
:1041300009685FF07C52425041F62800DFF8801693
:104140000968DFF88C2C425041F60C00DFF870163D
:1041500009685FF07C52425041F62C00DFF860168F
:104160000968224A425041F61000DFF854160968E7
:104170005FF07C52425041F63000DFF84416096887
:10418000DFF8502C08E000BFCDCC8C409A99993FC5
:1041900000C0DA4500004844425041F61400DFF800
:1041A000201609685FF07C52425041F63400DFF877
:1041B00010160968DFF8202C1CE000BF0000024345
:1041C0000000C84233336B41000034C30000204379
:1041D00000007A443C8E434200400345781CBF41B6
:1041E00000701446000000000000F04200009642FB
:1041F000000000424250DFF8C0050068DFF81C1BD9
:10420000C165DFF8B40500685FF08041C0F8D011E7
:10421000DFF8A4050068DFF8C41BC166DFF8980565
:1042200000680021C0F8C411DFF88C050068DFF8D1
:104230006C1BC0F8C811DFF8840500680021C0F8C5
:104240001013DFF8740500680421C0F8FC10DFF8D3
:10425000680500681021C0F86C12DFF85C05006882
:104260001021C0F85C12DFF8500500680121C0F889
:104270009811DFF8440500680021C0F8AC11DFF8A0
:10428000380500680121C0F8B011DFF82C0500687E
:104290000021C0F8BC11DFF8200500680021C0F83B
:1042A000CC11DFF8140500680021C0F8B411DFF864
:1042B000080500680021C0F8C011DFF8FC040068A0
:1042C0000121C0F81012DFF8F00400681421C0F8D2
:1042D0001412DFF8E40400680021C0F8A811DFF828
:1042E000D8040068DFF8F81AC0F8D411DFF8C80461
:1042F0000068DFF8F01AC0F8DC11DFF8BC040068D1
:10430000DFF8D81AC0F8E011B7EE040A02F09AFFFD
:10431000DFF8A4140968A1F852009FEDB40A02F076
:1043200091FFDFF894140968A1F854009FEDB00ADA
:1043300002F088FFDFF880140968A1F85600B1EE9A
:10434000080A02F07FFFDFF870140968A1F858002E
:10435000DFF8640400680021C0F8EC11DFF85804AD
:1043600000683221C0F8F011DFF84C04006890F8C2
:10437000D90550F00100DFF84014096881F8D9052B
:10438000DFF83404006890F8D90510F0FD00DFF87C
:104390002814096881F8D9050221DFF81C04006897
:1043A00000F053FDDFF8100400680421C0F89411F8
:1043B000DFF8040400685FF08041C0F89011DFF876
:1043C000F8030068DFF8241A8160DFF8EC03006866
:1043D0000121C0F8F811DFF8E00300680021C0F8FF
:1043E000FC11DFF8D403006890F8500010F0FE00D4
:1043F000DFF8C413096881F85000DFF8BC030068D7
:104400000821C0F81812DFF8B00300681421C0F8C2
:104410000412DFF8A40300680421C0F80812DFF8D2
:10442000980300681021C0F80016DFF88C030068BC
:104430001021C0F8D811DFF8800300680621C0F809
:104440001C11DFF8740300680721C0F83C11DFF885
:10445000680300681021C0F84412DFF85C030068AC
:104460000E21C0F84812DFF850030068DFF8801909
:10447000C0F89C11022008F0C1FACF4800685FF034
:104480007E51C0F83812CC4800680221C0F8F810FC
:10449000C94800680021C0F86812C74800680021B8
:1044A000C0F86012C4480068DFF84819C0F8641208
:1044B000C148006890F8D80550F00100BE4909686D
:1044C00081F8D805BC48006890F8D90550F0400044
:1044D000B949096881F8D905B748006890F8D90545
:1044E00050F08000B449096881F8D905B2480068E5
:1044F00090F8D80550F00800AF49096881F8D80550
:10450000AD48006890F8D80550F00200AA49096843
:1045100081F8D805A848006890F8D80550F08000C8
:10452000A549096881F8D805A348006890F8D8051E
:1045300010F0FB00A049096881F8D8059E48006882
:1045400090F8D80550F020009B49096881F8D805FB
:104550009948006890F8E50510F0BF009649096891
:1045600081F8E50595480068C82181609348006896
:10457000DFF828184161904800684FF49661C0F850
:10458000EC158D4800680121C0F8E0158A480068E4
:104590001021C0F8F015884800681021C0F85416A2
:1045A0008648006890F8810150F00100834909684D
:1045B00081F881018148006890F8810110F0FD00C8
:1045C0007E49096881F881017C4800684A21C16000
:1045D0007A4800684C210161774800684E21C0F894
:1045E000681675480068DFF8DC1703E04C37914027
:1045F000CDCC4C3EC0F80C166F4800689621C0F830
:1046000064166D4800684FF49671C0F8E8156A4862
:1046100000684FF43471C0F8A01167480068DFF8F3
:10462000FC1641666448006890F8E40550F001000B
:104630006149096881F8E4055F48006890F8E4057D
:1046400050F002005C49096881F8E4055A480068A6
:1046500090F8E40550F004005749096881F8E40532
:104660005548006890F8E40550F008005249096880
:1046700081F8E4055048006890F8E40550F0200007
:104680004D49096881F8E4054B48006890F8E40555
:1046900050F040004849096881F8E4054648006840
:1046A00090F8E40550F080004349096881F8E4057A
:1046B0004148006890F8E50550F001003E4909685E
:1046C00081F8E5053C48006890F8E50550F00200E7
:1046D0003949096881F8E5053748006890F8E5052B
:1046E00050F004003449096881F8E5053248006853
:1046F000C821A0F8FC1530480068DFF89C16C0F807
:1047000004162D480068DFF8F016C0F808162A488D
:1047100000681021C0F8E411284800680021C0F8A2
:104720000C1126480068DFF8F415C0F81011224873
:1047300000681021C0F8DC15204800684FF496612D
:10474000C0F8D0101D4800685021C0F858121B480E
:1047500000680021C0F8C0110020082808DA1749B5
:10476000096811EB80015022C1F8A021401CF4E738
:104770000020102826DA1149096811EB8001502227
:10478000C1F8C421C8210E4A126801FB0021002291
:1047900081F8A8280949096811EB80015022C1F865
:1047A00024230549096811EB80010022C1F8142671
:1047B000401CDEE7686B0010F0150020F4150020A7
:1047C000EC150020DFF8340600683121C0F86011D4
:1047D000DFF8280600683221C0F86411DFF81C06F3
:1047E00000685021C0F86811DFF810060068002149
:1047F000C0F86C11DFF8040600680021C0F87011E1
:10480000DFF8F80500680021C0F87411DFF8EC0546
:10481000006808F025F9C0A1DFF8E405006800F59C
:10482000A850283005F0DEFDBCA1DFF8D4050068F3
:1048300000F5A850F03005F0D5FDC0480068022111
:10484000C0F83412BD48006890F8D90550F0200037
:10485000BA49096881F8D905B848006890F8D905BF
:1048600010F0EF00B549096881F8D905DFF88C052B
:1048700000681721C0F8C810DFF88005006816210D
:10488000C0F8CC10DFF8740500682621C0F82811A4
:10489000DFF8680500680521C0F82C11DFF85C0519
:1048A00000685021C0F88411DFF8500500685021DD
:1048B000C0F88811DFF8440500685021C0F88C1159
:1048C000DFF8380500685021C0F89011DFF82C059A
:1048D00000685021C0F81813984800685FF07E51B6
:1048E000C0F8E811DFF814050068002180F8941181
:1048F000DFF808050068002180F89511DFF8FC0456
:1049000000686421C0F83811DFF8F0040068C8219D
:10491000C0F83C11DFF8E40400684FF49671C0F869
:104920004011DFF8D80400683221C0F84811DFF8E0
:10493000CC0400681021C0F85011DFF8C0040068F2
:104940000221C0F85411DFF8B40400681621C0F841
:104950005811DFF8A80400681C21C0F85C11DFF8CA
:104960009C0400680021C0F8D410DFF890040068AF
:104970003721C0F8D810DFF8840400685021C0F84F
:10498000DC10DFF8780400683521C0F8E010DFF8AB
:104990006C0400685021C0F8E410DFF8600400687F
:1049A00090F8800110F0FE00DFF85014096881F8DB
:1049B0008001DFF84804006890F8800110F0FD00E5
:1049C000DFF83814096881F88001DFF830040068E6
:1049D00090F8800150F00400DFF82014096881F895
:1049E0008001DFF8180400681521C0F8D412DFF840
:1049F0000C0400681421C0F8D812DFF80004006825
:104A00001321C0F8DC12DFF8F40300681F21C0F89E
:104A1000E012DFF8E80300681E21C0F8E412DFF8B6
:104A2000DC0300681D21C0F8E812DFF8D00300683D
:104A30001521C0F8EC12DFF8C40300681421C0F897
:104A4000F012DFF8B80300681321C0F8F412DFF8A1
:104A5000AC0300685FF07E51C0F8F812DFF89C03E9
:104A600000683421C0F84411DFF89003006890F822
:104A7000800150F00800DFF88413096881F8800194
:104A8000DFF87803006890F8800150F01000DFF83C
:104A90006C13096881F88001DFF86003006890F802
:104AA000800150F02000DFF85413096881F880017C
:104AB000DFF84803006890F8800110F07F00DFF80D
:104AC0003C13096881F88001DFF8300300684FF477
:104AD0001641C0F84C11194800680621C0F8941816
:104AE000164800688D49C0F8A018144800685FF0A7
:104AF0008041C0F8A418114800680C21C0F888183B
:104B00000E480068BF49C0F88C180C480068BE49C0
:104B1000C0F8901801BD0000310000003000000016
:104B20000080BB4400C02845000040400000A0C1F8
:104B3000CDCC6C40000020C166662640F0150020F8
:104B400038B504000D00FEF7DFFEB04800680560D0
:104B5000AE480068AE494160280000283FD00228D6
:104B600045D0032849D004284AD005284BD0062830
:104B70004ED0072858D0082859D009285AD00A28DA
:104B800000F07F800B2858D00C285ED00D2861D013
:104B90000E2864D00F2871D0102842D011283AD0A6
:104BA00012283BD013285DD014285ED0152862D07F
:104BB000162869D017281DD0182859D0192866D072
:104BC0001A2870D01B280DD01C283BD01D286DD072
:104BD0001E285FD01F2860D0202861D069E007F030
:104BE000DBFF6CE08948006808F074F867E008F0C3
:104BF00079F864E008F048F961E008F051FB5EE004
:104C000008F02AFC5BE08148006808F06BFC56E085
:104C100008F057FD53E008F06EFD50E008F05EFD2F
:104C20004DE008F08DFD4AE008F014FE47E008F082
:104C300037FF44E008F0A2FF41E07448006809F043
:104C400089F83CE009F092F839E07048006809F012
:104C500041F934E06D48006809F040F92FE009F0AF
:104C600017FA2CE009F0DCF929E009F0F1FB26E065
:104C700009F00BFC23E009F07BFC20E009F026FDA5
:104C80001DE007F000FF1AE009F07CFE17E009F0D4
:104C90009BFE14E00AF04CF811E00AF063F80EE015
:104CA0000AF040F90BE00AF0A9F908E00AF012FA5C
:104CB00005E02A00574940F25E2005F02DFB200058
:104CC00000F036F85448006810F5217003F0C6FA79
:104CD0004E490968D1F8F411814202D04F4804F0DE
:104CE00031F80AF0F5FE31BD9A9919400000A04153
:104CF00010B50400200002F08DFC04F5B850883097
:104D000002F088FC022341F60862454904F53C5054
:104D100050300BF003FA200010BD00000000A0404E
:104D2000666606406666E63F000082420000B442C6
:104D300010B504003B492000FDF71CFE2100364859
:104D4000006810F521700BF0D3FD3348006810F5B2
:104D5000217003F08CF8002803D1334803F0F2FFF0
:104D600018E02D48006810F5217003F080F8002845
:104D700003D12E4803F0E6FF0CE02748006810F549
:104D8000217003F018FA41F6FC61234A126888503A
:104D90000CF0FEF910BD000000000C42000048427B
:104DA0000000F84110B51C480068846A02F0C6FE95
:104DB00004F53C505030DFED0C0A9FED0B0A02F079
:104DC00091FB10BD000020410000504200009242C3
:104DD000000094420000984200009A4200008C4279
:104DE000ABAAAA4000009642000000000000484321
:104DF0000000AF420000FA4300000743F415002012
:104E0000EC15002000002042CDCC4C3DF0150020D8
:104E100039122201840A0308FC15002094160308A5
:104E2000E5F002084CFA0208A00A0308A0000308F3
:104E3000022802D1B6EE000A06E0012802D1B7EE40
:104E4000000A01E0B7EE000A7047C0F8F41170479D
:104E50000E21C0F8D811704790F8D91551F008010B
:104E600080F8D91510F51C712822C1F8FC223A22CD
:104E7000C1F800235022C1F804235022C1F80823AE
:104E80003B22C1F80C23704730B40022102A10DAFC
:104E90000023102B0BDA402404FB0214402505FBF1
:104EA000020555F8235044F823505B1CF1E7521CCF
:104EB000ECE730BC704730B40022102A10DA00232F
:104EC000102B0BDA402404FB0214402505FB0205DD
:104ED00055F8235044F823505B1CF1E7521CECE7D3
:104EE00030BC70475FF0FF0C1CEAD05114BF614525
:104EF00006E0C110400721F0E04101F16051704728
:104F000079B900F0004100020AD0B0FA80FC00FA42
:104F10000CF001F16051A1EB0C5101EBD0214005E7
:104F2000704741020CBF40F4E0016FF00001002027
:104F30007047FFFC80B5B849B848FDF7AFFD01BD2B
:104F400010B504002000FDF7E4FC0020E063002021
:104F50000021C4E910019FA2B1492000FDF7D9FB4F
:104F600010BD10B5040001F094FBD4E91023801AA1
:104F70009941D4E91023002B01D1002A14D0A82292
:104F800000230CF0CFFDA74A1268D2F8E825A64B03
:104F90005A431423B2FBF3F200238B4204DC01DBFF
:104FA000824201D2012000E00020C0B210BDC06BDF
:104FB0009C490968D1F8E815884201D3012000E036
:104FC0000020C0B2704780B59648006890F8D805B8
:104FD000C0B2400910F00100FDF76CFD02009349DA
:104FE0008E48FDF7C7FC8F480068D0F8E825904947
:104FF0008A48FDF7BFFC01BD10B50400002C01D0AC
:10500000012000E000208749096891F8D81560F375
:1050100045118448006880F8D815FFF7D4FF85480B
:105020000021016010BD10B50400052C05DB7D4892
:105030000068C0F8E845FFF7C6FF10BD10B50400D2
:105040002000FFF7B4FF002804D12000FFF789FFFC
:10505000002805D0200000F022F82000FFF770FFA4
:1050600010BD10B504002000FDF701FD0020A06474
:1050700000200021C4E910010020E063200010BDE1
:1050800010B5040041F288336B4A6C492000FDF7EB
:1050900058FB0120A0642000FFF752FF10BD38B577
:1050A00004004CA12000FDF734FB206BE16A401A9C
:1050B000634908600DF096FD05005A48006890F8B5
:1050C000D805800605D5EDB2002D02D0200005F0F0
:1050D00091FE31BD2DE9F84F06000F00904659486A
:1050E00000680DF097FE5849096888426FD3002F79
:1050F00003D1564803F026FE69E04A48006890F85C
:10510000D805C0B2400910F0010000285FD0504817
:10511000806905F089F9212803DA4E4803F012FE70
:1051200055E0B06C002803D14B4803F00BFE4EE075
:105130003000FFF73CFF002849D101F0AAFA040033
:105140000D0005F0E9FD8146F06B002801D1C6E9AC
:105150001045F06B401CF063D6E91001B4EB000A77
:105160000A20BAFBF0F0A821B0FBF1FB3000FDF7FC
:1051700028FC242824D339003000FDF76DFA306B69
:1051800021210170306B401C306341463000FDF737
:1051900063FA306B21210170306B401C306359463B
:1051A0002E48FDF753FD2D493000FDF755FA306BC1
:1051B00021210170306B401C3063306B0021017085
:1051C0005FFA89F9B9F1000F01D105F0F3FDBDE8EF
:1051D000F18F00002C000000704710B5040011484A
:1051E000006890F8D805C0B2400910F0010000280E
:1051F00003D11B490948FDF79BFB2000FFF740FF47
:10520000FFF7E1FE1749184804F002FD1749184856
:1052100004F0FEFC10BD0000C84C03081CC50120B2
:10522000F0400308F015002040420F008C320308C4
:105230002420030890F4002064C60010B04C03083A
:1052400018C50120FC15002020C6012000410308DC
:10525000CCB40020BC4C03083C20030824C6012029
:10526000DCDD020827500008A44C0308F94F0008B1
:10527000B454030810B5040043F6B83114F1080023
:105280000DF0BCFF10BD80B58B498C480068FDF760
:1052900071FB8B480121017001BD8948007870477E
:1052A00080B5FFF7FAFF002809D08548002101707A
:1052B000844982480068FDF75DFB00F001F801BDFC
:1052C00038B581497D480068FDF754FB7F4843F6B7
:1052D000C43141607D4842F2D00101607B480268E0
:1052E0007B4976480068FDF745FB7848FFF7C2FF29
:1052F00004007848047043F6C43277496F48006868
:10530000FDF738FB43F6C43174480EF06DF8E4B293
:105310002200734969480068FDF72CFB01F0BFF9D2
:10532000050043F6C43269496C480EF0B3F8040036
:1053300001F0B5F9421B6B4960480068FDF71AFBA4
:10534000E4B2220068495D480068FDF713FB674836
:105350000021016031BD70B504002000FFF78AFF15
:10536000050014F56F500078EDB2854201D1012699
:1053700000E00026F6B2002E09D114F56F50037834
:10538000EDB22A005A494D480068FDF7F3FA002EA5
:1053900001D0012000E00020C0B270BD80B55548AA
:1053A0000068016845480068FFF7CAFB01BD016855
:1053B000212905D240685049884201D1012000E0EE
:1053C0000020C0B2704780B54C493C480068FDF7EA
:1053D000AFFA43F6C4323D4940480EF03EF83B4830
:1053E000FFF7B9FF00280AD1454934480068FDF7A6
:1053F0009FFA002131480068FFF7A2FB35E03348EF
:10540000006842F2D00188420FD13048406843F62C
:10541000C431884209D13B4928480068FDF788FA21
:1054200026480068FFF784FC1FE032480068FFF759
:10543000BEFF00280FD02F480068026832491F487D
:105440000068FDF775FA2B48006801681B48006882
:10545000FFF776FB09E02D4918480068FDF768FA68
:10546000002116480068FFF76BFB03F09FFC214901
:105470000968C1F8000201BD80B5FFF78FFFFFF793
:105480001FFF01BD10B504000C48046020492148ED
:1054900004F0B4FB2049214804F0B0FB2049214826
:1054A00004F0ACFB2049214804F0A8FB2049214826
:1054B00004F0A4FB10BD000000010308B0F40020BC
:1054C00057C601202001030888DE0208606B001027
:1054D0002C0B030820A7001024170308000006085F
:1054E0003C17030840010308BC25030890F4002082
:1054F00060010308F015002039122201E03603088C
:10550000C4F10208B8FA0208A4F502089CE90208EE
:10551000C753000858440308C152000864440308F4
:10552000A9F70008704403089D5300087C44030851
:1055300079540008F036030880B54FF4FA73DFF8A9
:1055400098288AA1DFF89408FDF798FADFF89018F8
:10555000DFF8900800F007F8DFF88C18DFF88C0807
:1055600000F001F801BD38B504000D00C4F89C50EE
:105570000020C4F89800002020650020606500200D
:10558000E86100202862002068625022002114F1A6
:10559000A00006F06DF950225FF0FF31200006F008
:1055A00067F9200032BD70B40400002000263500E9
:1055B000954205DA31F8146030181C196D1CF7E7B4
:1055C00080B290FBF2F080B270BC704710B504005E
:1055D000DFF81C08806904F027FF212804DADFF8CF
:1055E000140803F0AFFB35E0DFF8F807006D401C4E
:1055F000DFF8F0170865202080F311880DF0DFFF39
:10560000DFF8F4070078022816D0DFF8EC070078FE
:10561000042811D0DFF8E007007805280CD0DFF867
:10562000C407406D401CDFF8BC1748650DF0D7FF7C
:10563000002080F311880DE00123DFF8C027DFF898
:10564000A017DFF8B4070EF0BCF80DF0C8FF00207B
:1056500080F3118810BD10B50400DFF8940780694D
:1056600004F0E2FE212804DADFF8940703F06AFB75
:1056700035E0202080F311880DF0A1FFDFF88407CA
:105680000078022816D0DFF87C070078042811D0B3
:10569000DFF87007007805280CD0DFF85007406D60
:1056A000401CDFF8481748650DF099FF002080F393
:1056B000118814E00123DFF85027DFF82C17DFF8FA
:1056C00044070EF07EF80DF08AFF002080F3118869
:1056D000DFF81807006D401CDFF81017086510BDD3
:1056E00038B504000D00102D09D12200DFF81C1779
:1056F00040F25E2004F010FE5FF0FF3023E0DFF8A0
:10570000100750F8250002280AD1DFF8E00650F80B
:105710002500DFF8D81611EB4000B0F8580012E071
:10572000DFF8EC0650F82500012807D02B002200F6
:10573000DFF8E01640F25E2004F0EEFD2900DFF80D
:10574000A40600F01EF932BD70B504000D0016006D
:105750003100DFF8C40605F016FE03232A002100FD
:10576000DFF8B806FDF7C8FE70BD000041444300F5
:105770000100080000281ED001281ED002281ED0DB
:1057800003281ED004281ED005281ED006281ED0AF
:1057900007281ED010281ED011281ED020281ED069
:1057A00021281ED022281ED023281ED024281ED017
:1057B00025281ED01FE000201FE001201DE0022050
:1057C0001BE0032019E0042017E0052015E0062067
:1057D00013E0072011E008200FE009200DE00A2067
:1057E0000BE00B2009E00C2007E00D2005E00E2067
:1057F00003E00F2001E040F2E730704710B50400ED
:10580000002C17D0022C1BD017D3042C1ED01AD377
:10581000062C21D01DD3082C24D020D30A2C27D02D
:1058200023D30C2C2AD026D30E2C2DD029D30F2CE9
:105830002DD02FE0DFF8E80532E0DFF8E4052FE0B7
:10584000DFF8DC052CE0DFF8D80529E0DFF8D0052B
:1058500026E0DFF8CC0523E0DFF8C40520E0DFF820
:10586000C0051DE0DFF8BC051AE0DFF8B80517E059
:10587000DFF8B40514E0DFF8B00511E0DFF8A805A3
:105880000EE0DFF8A4050BE0DFF89C0508E0DFF888
:10589000980505E02100DFF8940503F053FA002095
:1058A00010BD10B504002100DFF8380500F08AF8BB
:1058B000002802D0DFF878050BE02100DFF82C0586
:1058C00000F080F8002802D0DFF8680501E0DFF87A
:1058D000680510BD10B50400002C17D0022C19D09B
:1058E00016D3042C1AD017D3062C1BD018D3082C8F
:1058F0001CD019D30A2C1DD01AD30C2C1ED01BD3AC
:105900000E2C1FD01CD30F2C1ED01FE0002024E033
:10591000012022E0022020E003201EE004201CE001
:1059200005201AE0062018E0072016E0002014E009
:10593000012012E0002010E001200EE002200CE027
:1059400003200AE0042008E0052006E02100DFF83B
:10595000DC0403F0F7F95FF0FF3010BD70B5040010
:105960002000FFF74BFF05002000FFF7B3FF060004
:10597000AAA231002800FFF7E7FE70BDD0F898001A
:10598000704750F8212010EB4200B0F878007047C3
:1059900010EB4100B0F87800704738B504002000E3
:1059A000FFF7ECFFD4F89C104880D4F89C00C56940
:1059B0002000FFF7E3FF401E15EB0050D4F89C10C9
:1059C000C86131BD02000023D2F89800834209DA91
:1059D00012EB8300D0F8A000884201D1012002E040
:1059E0005B1CF1E70020704770B504000D00D4F88F
:1059F0009860701CC4F8980044F8256014EB860089
:105A0000C0F8A050062E0CDAD4F89C00406A05219C
:105A100001FB06F115FA01F10818D4F89C10486250
:105A20001EE00C2E0EDAD4F89C00006A3100891FAB
:105A3000052211FB02F115FA01F10818D4F89C10A7
:105A400008620DE0D4F89C00C06931000C390522D1
:105A500011FB02F115FA01F10818D4F89C10C86185
:105A60002800FFF77BFF70BD10B52DED028B040001
:105A70002100DFF8C803FFF733FE08EE100AB8EE86
:105A8000C80ADFED670A20EE200ADFF8B4030068D9
:105A9000D0ED740A60EE208A18EE900AFFF722FA21
:105AA00002000B00DFF89C13CC48FCF763FFBDEC51
:105AB000028B10BD10EB8100D0F8A00070470000F1
:105AC000F8B52DED028B82B0C648036DC748026D54
:105AD000DFF87413C148FCF74DFF0024C148FFF7FD
