:020000040800F2
:1000000000100020814A0008F14B000821E9010896
:10001000F14B000801E90108E1E80108F14B000893
:10002000F14B0008F14B0008F14B0008214C00088F
:10003000C1E80108F14B0008F14B0008214D000810
:10004000F14B000861A70008F14B0008A1A80008C7
:10005000F14B0008F14B000821A5000851A500084C
:1000600081A50008B1A50008E1A5000831990008A4
:1000700071990008B1990008F1990008319A0008B7
:10008000719A0008B19A000801A3000871AC000839
:1000900091AC0008B1AC0008D1AC000811A6000872
:1000A00001CC000881CB0008F14B0008A1CB00086F
:1000B000C1CB0008E1CB000851CF000811B4000803
:1000C00051B50008F14B0008F14B0008F14B000856
:1000D000F14B0008E1D3000801D4000821D4000846
:1000E000B1A60008A1A70008E1A70008F14B00088D
:1000F000E1CF0008F14B000811D00008F19A000888
:10010000F14B0008F14B0008D1C90008F14B000881
:10011000F14B0008F14B0008F14B0008F14B0008CF
:10012000319B0008719B0008B19B0008F19B0008FF
:10013000319C0008F14B000821A80008F1AC000830
:1001400011AD000831AD000851AD000841C10008F3
:10015000719C0008B19C0008F19C0008F14B00085C
:10016000F14B0008F14B0008F14B0008F14B00087F
:1001700061A80008F14B0008F14B0008F14B0008A2
:10018000F14B0008F14B0008F14B0008F14B00085F
:10019000F14B0008F14B0008F14B0008F14B00084F
:0C01A000F14B0008F14B0008F14B000887
:1001AC0051020008D1020008F102000811030008F6
:1001BC005103000891030008C1030008E103000883
:1001CC00010400083104000871040008B10400089F
:1001DC00D10400087105000881050008A10500087C
:1001EC00C1050008010600082106000841060008A8
:1001FC0091060008F10600082107000841070008D5
:10020C0061070008E107000801080008F108000870
:10021C001109000881090008A1090008F10900086A
:10022C00110A0008510A0008710A0008C10A0008E6
:10023C00610D0008B10D0008910F00087111000844
:04024C00F1110008A4
:1002500070B543F6E814C2F2000443F27861204618
:10026000C2F2000129F07CFA43F6EC01201DC2F233
:10027000000129F075FA43F2D87104F10800C2F2C6
:10028000000129F06DFA43F6DC03C2F20003266890
:100290006568A4681E6043F2787043F288211A46AC
:1002A0005D609C60C2F20001C2F2000017F0A0F88D
:1002B00043F6D400C2F2000029F02AFA43F6D8032C
:1002C000C2F2000300221A705A709A7070BD00BF0B
:1002D00010B543F60024C2F20004204617F0F0F9EE
:1002E00004F11800BDE8104017F0EAB9AFF3008040
:1002F00008B544F6B010C2F2000013F001FC43F65A
:100300003820C2F20000BDE8084010F021B800BF5C
:1003100038B544F6282045F65004C2F20004002502
:10032000C2F2000029F0F4F9204629464FF4807209
:10033000C4F8005102F0BCFF4023C4F80451C4F8D3
:100340000831C4F8045138BDAFF30080AFF300802A
:1003500038B545F65C1045F67014C2F2000400256D
:10036000C2F2000017F0D4FA204629464FF48072FA
:10037000C4F8005102F09CFF4023C4F80451C4F8B3
:100380000831C4F8045138BDAFF30080AFF30080EA
:1003900010B545F67C24C2F20004204617F0B8FAE6
:1003A00004F1100017F0B4FA04F12000BDE8104089
:1003B00017F0AEBAAFF30080AFF30080AFF3008068
:1003C00045F6F0204FF2142145F62C32C2F200001F
:1003D000C0F60201C2F2000241F2883328F098BA56
:1003E00046F6CC604FF21831C2F20000C0F60201AE
:1003F00028F0A6BAAFF30080AFF30080AFF300801F
:10040000084930B40022002501F5DC74002341F8CE
:10041000585CA1F158005831A142C0E91423F6D12B
:1004200030BC704730700020AFF30080AFF3008025
:10043000F8B547F2D0460024C2F20006402747F242
:100440008445C2F2000521463A463046B46402F0C3
:100450002FFF3A462846214634647464AC6402F0A7
:1004600027FF2C646C64F8BDAFF30080AFF300800D
:10047000F8B547F268560024C2F20006402747F25A
:100480001C55C2F2000521463A463046B46402F0DB
:100490000FFF3A462846214634647464AC6402F087
:1004A00007FF2C646C64F8BDAFF30080AFF30080ED
:1004B00047F2BC5046F6C821C2F20000C0F6030164
:1004C00028F03EBAAFF30080AFF30080AFF30080B6
:1004D00047F2D060C2F2000047F6101110B40022BB
:1004E000C2F200014FF0FF3481608161816281635B
:1004F000816481650260426002614261026242621F
:10050000026342630264426402654265C460C4617E
:10051000C462C463C464C46500F1740300F5B270BE
:1005200043F80C1C43F8142C43F8102C43F8084CE7
:1005300043F8042C14338342F2D10A4B002203F116
:10054000F0044FF0FF3043F80C1C43F8142C43F830
:10055000102C03E905001433A342F4D15DF8044BD9
:10056000704700BF34780020AFF30080AFF3008005
:1005700047F61810C2F2000017F03ABAAFF3008045
:1005800047F6604043F21861C2F20000C0F6030172
:1005900028F0D6B9AFF30080AFF30080AFF300804E
:1005A00047F6006043F66C01C2F20000C0F603019A
:1005B00028F0C6B9AFF30080AFF30080AFF300803E
:1005C00038B50D4C04F50065204628F071FA04F1A9
:1005D0007C0004F5807428F06BFAAC42F4D148F248
:1005E000F034C2F20004201D00214FF4006202F03A
:1005F0005FFE0023236038BDFC830020AFF3008042
:1006000048F6807043F6F021C2F20000C0F6030104
:1006100028F096B9AFF30080AFF30080AFF300800D
:1006200049F6243043F63C51C2F20000C0F6030103
:1006300028F086B9AFF30080AFF30080AFF30080FD
:1006400008B54AF2AC0043F6FC7149F6B8524FF4D3
:10065000FA73C0F60301C2F20002C2F2000028F0F1
:1006600057F949F6B07041F2E871C2F20001C2F2E6
:1006700000001BF075FF49F6C84041F64401C2F284
:100680000000C2F20001BDE808401BF069BF00BFD6
:100690004AF2004044F2A84138B5C0F60301C2F264
:1006A000000017F025F94AF218454AF28840C2F2D4
:1006B0000005C2F2000017F02BF94AF25044284618
:1006C00016F0FEFFC2F2000405F1180016F0F8FF64
:1006D000204616F0F5FF04F11800BDE8384016F08A
:1006E000EFBF00BFAFF30080AFF30080AFF3008037
:1006F00008B54AF6A80044F27461C2F20000C0F6E0
:10070000030128F01DF94AF69400C2F20000BDE88A
:10071000084017F0FDB800BFAFF30080AFF30080D2
:100720004AF6B41044F61C01C2F20000C0F6030100
:1007300028F006B9AFF30080AFF30080AFF300807C
:100740004AF6BC4044F6A861C2F20000C0F60301BC
:1007500028F0F6B8AFF30080AFF30080AFF300806D
:100760004FF6AC2045F2B4114FF2005208B5C2F278
:1007700000024FF4AF63C0F60301C2F2000028F09C
:10078000C7F84FF6EC2045F2C011C0F60301C2F2E3
:10079000000028F0D5F84FF2001045F2CC11C0F659
:1007A0000301C2F2000028F0CBF84FF2F000C2F2D1
:1007B000000017F0ADF84FF67820C2F2000017F0F5
:1007C000A7F84FF68820C2F2000017F0A1F84FF604
:1007D0009820C2F20000BDE8084017F099B800BFA9
:1007E00041F6085045F28C51C2F20100C0F60301F7
:1007F00028F0A6B8AFF30080AFF30080AFF300801D
:1008000010B541F6246082B0C2F2010029F028FC44
:100810004CF2AE73C4F236330024009341F64860C4
:1008200047F6E12200232146CCF2D402C4F2A00311
:10083000C2F2010029F01CFC41F614604DF61002D2
:10084000002300944FF07C51C4F2B622C4F240035E
:10085000C2F2010029F00CFC0023C4F248330093DB
:1008600041F62C60002321462246C4F2A003C2F2C6
:10087000010029F0FDFB0023C4F29833009341F6F8
:10088000346048F63711002243F67D73C3F62171B8
:10089000C4F22022C4F29D03C2F2010029F0E8FB59
:1008A0000023C4F28233009341F61C6000232146EA
:1008B0004FF08242C4F2A003C2F2010029F0D8FB3B
:1008C0000023C4F2C823009341F65060002322465F
:1008D0004FF07C51C4F29003C2F2010029F0C8FB32
:1008E00002B010BDAFF30080AFF30080AFF3008023
:1008F00042F2083046F6FC4141F62072C2F2010095
:10090000C0F60301C2F201024FF47A7328F000B876
:1009100010B542F2F03046F6405182B0C0F6030105
:10092000C2F2010028F00CF842F2E070C2F20100BD
:1009300016F03EFD42F26030C2F2010016F0E8FF10
:1009400042F28030C2F2010016F032FD42F2703005
:10095000C2F2010016F0DCFF00244FF07E510022AD
:100960000091C4F2B42442F24430002113460194B1
:10097000C4F22011C2F201002BF0DAF802B010BD6F
:1009800042F6780046F67051C2F20100C0F603014B
:1009900027F0D6BFAFF30080AFF30080AFF3008045
:1009A00038B542F6502046F6282142F6D815C0F652
:1009B0000301C2F20105C2F2010016F099FF42F6EE
:1009C0001024284616F07CFEC2F2010405F118003E
:1009D00016F076FE204616F073FE04F11800BDE80E
:1009E000384016F06DBE00BFAFF30080AFF300805B
:1009F00042F6A05047F2A011C2F20100C0F6030176
:100A000027F09EBFAFF30080AFF30080AFF300800C
:100A100043F2205008B5C2F2010016F079FF43F20C
:100A2000C810C2F2010016F0C3FC42F6B860C2F270
:100A300001001DF0D5FC43F23450C2F20100BDE8C4
:100A4000084013F045BE00BFAFF30080AFF3008055
:100A500043F2485047F2F431C2F20100C0F60301FC
:100A600027F06EBFAFF30080AFF30080AFF30080DC
:100A700010B543F6681082B0C2F2010016F098FC7F
:100A800043F65410C2F2010016F042FF00244FF06A
:100A90007E5100220091C4F2B42443F638100021A4
:100AA00013460194C4F22011C2F201002BF040F869
:100AB00002B010BDAFF30080AFF30080AFF3008051
:100AC0002DE9F04144F2D004C2F20104002143F6C2
:100AD0003457C2F201070A46204644F2181816F0AD
:100AE00057FAC2F201082146384616F0D9F943F602
:100AF000EC55396840460722C2F2010516F058FA53
:100B000047F2CC5239682846C0F6030244F2640426
:100B1000C2F2010416F03CFA47F2D452396820467A
:100B2000C0F6030243F67C66C2F2010616F030FA04
:100B300047F2E05239683046C0F6030216F028FA50
:100B400043F6B07041460822C2F2010016F030FAB6
:100B500044F2AC0041460922C2F2010016F028FA24
:100B600044F2880029460A22C2F2010016F020FA57
:100B700043F6445029460B22C2F2010016F018FA3F
:100B800043F6C46029460D22C2F2010016F010FAA5
:100B900043F6C84029460E22C2F2010016F008FAB8
:100BA00043F6447029461022C2F2010016F000FA02
:100BB00044F2A41029460C22C2F2010016F0F8F902
:100BC00043F6687029461422C2F2010016F0F0F9CB
:100BD00044F2801029461122C2F2010016F0E8F911
:100BE00044F25C1029461222C2F2010016F0E0F92C
:100BF00044F21C0047F2E85242F641732146C0F627
:100C00000302C0F60203C2F2010016F0B1F943F686
:100C1000586047F2F45245F621732146C0F60302AC
:100C2000C0F60203C2F2010016F0A2F944F240003D
:100C300047F2006245F6C173C0F602032146C0F6D2
:100C40000302C2F2010016F093F943F6A45047F2F2
:100C50000C622146C0F60302C2F2010016F098F9B8
:100C600043F6C85047F218622146C0F60302C2F2AA
:100C7000010016F08DF943F6805047F224622146B8
:100C8000C0F60302C2F2010016F082F943F61060CA
:100C900047F230622146C0F60302C2F2010016F0AC
:100CA00077F943F6A06047F23C622146C0F60302A2
:100CB000C2F2010016F06CF943F6105047F24C6294
:100CC0002146C0F60302C2F2010016F061F943F6B4
:100CD000E86047F25C622146C0F60302C2F20100FE
:100CE00016F056F943F60C7047F26C622146C0F6D6
:100CF0000302C2F2010016F04BF943F68C70314644
:100D00000122C2F2010016F053F943F6EC403146DD
:100D10000222C2F2010016F04BF944F2F40031460F
:100D20000322C2F2010016F043F943F6F87031468F
:100D30000422C2F2010016F03BF943F6346031465A
:100D40000522C2F2010016F033F943F6D4703146A1
:100D5000C2F201000622BDE8F04116F029B900BF39
:100D600044F2005047F67C0108B5C0F60301C2F218
:100D7000010027F0E5FD0C4815F0F2FB44F2086095
:100D80000A49C2F2010015F003FE44F2F010C2F26B
:100D9000010028F07DFC44F2C810C2F20100BDE859
:100DA000084028F0B5BC00BF505500109019001045
:100DB0002DE9F00F49F2E820C2F2010082B049F2B9
:100DC0003C22C2F201020168019049F20C2349F26F
:100DD0001820C2F201031160C2F2010044F67C3116
:100DE0000090C0F60301062049F2242AC2F2010A4B
:100DF000916050601A6047F67C42C0F6030249F2E7
:100E0000D029C2F2010958609A60CAF8003043F64E
:100E1000E0430720C0F6030349F29428C2F2010818
:100E2000CAF80830CAF80400C9F800A047F6804A9A
:100E3000C0F6030AC9F80400C9F808A0C8F8009071
:100E400049F2DC2C4FF00809C2F2010CC8F80490FA
:100E500047F68449C0F60309C8F80890CCF800802A
:100E600049F200274FF00908C2F20107CCF80480CC
:100E700047F68848C0F6030849F24826C2F2010640
:100E8000CCF80880C7F800C049F2A0254FF00A0C42
:100E900047F68C48C2F20105C7F804C0C0F6030843
:100EA00049F2C42447F6904CC2F20104C7F8088006
:100EB0003760C0F6030C0B2747F694487760C6F8F6
:100EC00008C02E60C0F603080C2647F6E8576E608F
:100ED000C5F808802560C0F603070325656047F65E
:100EE000984CA7600098C0F6030C05270460476083
:100EF000C0F808C049F2B82B0198C2F2010B49F2C0
:100F0000F411C2F20101C0F800B049F2EC220098DD
:100F100049F2AC2349F2302A47F69C46C2F201035B
:100F2000C2F2010AC2F20102C0F60306022447F629
:100F3000A04847F6A44547F6A84747F6AC4CC0F68C
:100F40000308C0F60305C0F60307C0F6030C4FF014
:100F5000040908604C600D200E248E600F2682E884
:100F60000202C2F808801A6058609D60CAF800301A
:100F7000CBF800A0CAF80440CAF80870CBF80460A7
:100F8000CBF808C002B0BDE8F00F7047AFF30080A7
:100F900049F6CC604FF6380238B5C0F6020264213B
:100FA000C2F2010028F0A4FC4AF29C7045F60C1233
:100FB000C0F603026A21C2F2010028F099FC4AF24D
:100FC000CC7045F24002C0F603026B21C2F2010070
:100FD00028F08EFC4AF2847045F27002C0F60302DB
:100FE0006D21C2F2010028F083FC49F6E46046F668
:100FF000C832C0F603026621C2F2010028F078FC74
:1010000049F6BC6048F2B402C0F603026521C2F2A0
:10101000010028F06DFC4AF2B47047F6C472C0F6C5
:1010200003026E21C2F2010028F062FC49F6F06072
:1010300048F2BC02C0F603026821C2F2010028F0A7
:1010400057FC49F2944048F2CC02C0F603026921F1
:10105000C2F2010028F04CFC49F2B06048F2DC0218
:10106000C0F603026721C2F2010028F041FC49F2F8
:10107000843048F27C02C0F603026F21C2F2010004
:1010800028F036FC49F2A4404EF6B442C0F6020203
:101090007021C2F2010028F02BFC49F2FC20C2F2C0
:1010A000010049F2B04428F043FCC2F2010404F507
:1010B00000752046103428F02BFCAC42F9D14AF2DE
:1010C000A87049F2B041C2F20100C2F2010120222F
:1010D00049F6847428F0FCFEC2F2010404F50065B0
:1010E0002046103428F014FCAC42F9D149F6D860FF
:1010F00049F68471C2F20100C2F20101802249F274
:10110000BC6428F0E5FEC2F2010404F50065204647
:10111000103428F0FDFBAC42F9D14AF2907049F24C
:10112000BC61C2F20100C2F2010180220E4C28F023
:10113000CFFE04F5E0652046703416F039F9AC4274
:10114000F9D149F6FC60C2F2010049F2943428F06A
:10115000EFFBC2F2010404F580752046103416F04E
:10116000D7FBAC42F9D138BD28E20010AFF30080C4
:101170002DE9F0414AF624070024C2F201074FF09E
:1011800040084AF2D876C2F2010621464246384665
:101190004AF67005C2F20105BC6402F089F82146E6
:1011A000424630463C647C64B46402F081F84246B6
:1011B0002846214634647464AC6402F079F84AF637
:1011C000BC03C2F201031A469C6142F8044B04328C
:1011D0005C6042F8044B14602C646C641C615C61BC
:1011E000BDE8F081AFF30080AFF30080AFF3008083
:1011F0004AF6D80048F2F041C2F20100C0F60301FD
:1012000027F09EBBAFF30080AFF30080AFF3008008
:1012100008B505F0B5FC03F033FE1DF049FB2AF0DC
:1012200067FF002008BD00BFAFF30080AFF3008070
:1012300050EA010301D102207047D0F1010338BF09
:101240000023B1F1004F08BF0028F4D021F0004185
:101250004FF6FF72A1F58010C7F6DF72904201D8F9
:1012600004207047B1F5801F01D203207047002091
:10127000C7F6F070814214BF002003F001007047F0
:10128000C1F30A5C2DE9F843ACF2FF33132B064699
:101290000F4613DC002B40DB4FF6FF7CC0F20F0C37
:1012A0004CFA03F303EA010C5CEA000C1CD107F0D2
:1012B0000041C2E900676046BDE8F883332B1EDCBD
:1012C0004FF0FF33ACF2134C23FA0CFC1CEA000382
:1012D0001CD020EA0C060F460B46C2E900673246D6
:1012E00000F09AFABDE8F88321EA030700263B469E
:1012F000C2E90067324600F08FFABDE8F88307F0D4
:101300000041C2E900670020BDE8F88307F0004112
:10131000C2E900671846BDE8F88307F000494FF0BE
:101320000008C2E90089BDE8F88300BF00000000A2
:10133000F8B5C1F30A57A7F2FF360246132E0B4643
:101340000D468C4616DC002E31DB4FF6FF7CC0F2DA
:101350000F0C4CFA06FC0CEA010101430FD04FF4CC
:101360000023002143FA06F62E4426EA0C0C084618
:101370006146F8BD332E05DDB6F5806F23D01046EB
:101380001946F8BD4FF0FF30A7F21341C840104294
:10139000F5D0C7F5866701210237B940891828BF03
:1013A00003F1010C21EA000108466146F8BD01F095
:1013B000004C013602BF4CF07F5C00214CF4401C15
:1013C000D5D00021D3E700F029FAF8BD00000000D5
:1013D00030F0004001D102207047A0F50003B3F1C6
:1013E000FE4F01D2042070474FF6FE73421EC0F23A
:1013F0007F039A4201D803207047B0F1FF4358425F
:10140000584170470000000000000000000000008C
:1014100070B58AB0054600F06BF841F20064C2F284
:10142000000494F900300133064609D02846FFF73E
:10143000CFFF28B12846002101F086F9034610B1FC
:1014400030460AB070BD48F200522846C0F603028A
:101450000893019200F040FB2478CDE90401CDE926
:10146000020174BB4FF6FF734FF06042CCF2EF7392
:10147000CDE906232846002101F03EF978B1022388
:1014800000939C4229D0684600F0B2F928B3089B2B
:1014900043BBDDE9060100F03BFE0AB070BD022C43
:1014A0004FF00103009313D0684600F0A1F978B122
:1014B00047F61430C0F6030000F0A2F9CDE90601AA
:1014C000E5E700230022CFF6F073CDE90623D1E74C
:1014D00001F04EFE21230360EAE701F049FE2223DA
:1014E0000360D4E701F044FE089B0360D1E700BF2E
:1014F00020F0004201462DE9F84F0346002A00F093
:10150000B0800028C0F2D380B0F1FF4F80F2CB80D2
:10151000B0F5000FA8BF002706DA4FF098416FF032
:10152000180700F055FF03464FF62030C3F31604AA
:10153000C0F24A00DB1520447F3B00F400021F4448
:1015400082F07E504FF07E51204307EBD25700F0DF
:1015500033FE04F10F03C3F316030F2B054640F3CC
:1015600087804FF0804145F6304800F027FECFF6E7
:10157000CF78A044C4F5571404F5227444EA08084F
:101580000146284600F0D8FF8146384600F0CAFEE2
:1015900049468346484600F01BFF0146824600F05C
:1015A00017FF48F69701C3F61761064600F010FFD3
:1015B00043F22531C3F63A6100F000FE314600F0F7
:1015C00007FF44F62511C3F6926100F0F7FD31469E
:1015D00000F0FEFE4AF6AB21C3F62A7100F0EEFDE4
:1015E000514600F0F5FE4DF24F01C3F61C618246F4
:1015F000304600F0EDFE48F62961C3F6636100F065
:10160000DDFD314600F0E4FE4CF6CD41C3F6CC6181
:1016100000F0D4FD314600F0DBFE0146504600F0FC
:10162000CDFDB8F1000F064640F3AF804FF07C517E
:10163000284600F0CDFE294600F0CAFE0446002FE1
:1016400059D1314600F0BAFD494600F0C1FE0146CD
:10165000204600F0B1FD0146284600F0ADFDBDE892
:10166000F88F00214FF04C4000F066FFBDE8F88F86
:10167000002101F041F808B3002F00F083803846C4
:1016800000F050FE4FF4E341C3F63171054600F01F
:101690009FFE4FF2D171C3F217710446284600F045
:1016A00097FE0146204600F089FDBDE8F88F00F066
:1016B00083FD002100F040FFBDE8F88F2946284651
:1016C00000F086FE4AF6AB21C3F6AA61044628461E
:1016D00000F07EFE01464FF07C5000F06DFD0146AB
:1016E000204600F075FE04466FBB2846214600F0F8
:1016F00063FDBDE8F88F4FF4E3415846C3F63171FE
:1017000000F066FE31460746204600F057FD494688
:1017100000F05EFE4FF2D171C3F2177106465846D3
:1017200000F056FE0146304600F048FD01462046D6
:1017300000F042FD294600F03FFD0146384600F02A
:101740003BFDBDE8F88F384600F0ECFD4FF4E34177
:10175000C3F63171074600F03BFE4FF2D171C3F280
:1017600017710646384600F033FE0146204600F069
:1017700023FD294600F020FD0146304600F01CFD07
:10178000BDE8F88F0020BDE8F88F1FB34FF4E341A8
:101790005846C3F6317100F01BFE31460446284618
:1017A00000F00AFD494600F013FE4FF2D171C3F27A
:1017B00017710646584600F00BFE0146304600F011
:1017C000FBFC294600F0F8FC0146204600F0F4FC42
:1017D000BDE8F88F0146284600F0EEFC494600F0CF
:1017E000F7FD0146284600F0E7FCBDE8F88F00BF92
:1017F0000020704700000000000000000000000012
:1018000000210020C7F6F871704700BF00000000FB
:1018100081F0004102E000BF83F0004330B54FEAA1
:1018200041044FEA430594EA050F08BF90EA020F0E
:101830001FBF54EA000C55EA020C7FEA645C7FEAA1
:10184000655C00F0E2804FEA5454D4EB5555B8BFC4
:101850006D420CDD2C4480EA020281EA030382EA35
:10186000000083EA010180EA020281EA0303362DC7
:1018700088BF30BD11F0004F4FEA01314FF4801C9A
:101880004CEA113102D0404261EB410113F0004FAC
:101890004FEA03334CEA133302D0524263EB430363
:1018A00094EA050F00F0A780A4F10104D5F1200E01
:1018B0000DDB02FA0EFC22FA05F2801841F100015C
:1018C00003FA0EF2801843FA05F359410EE0A5F130
:1018D00020050EF1200E012A03FA0EFC28BF4CF061
:1018E000020C43FA05F3C01851EBE37101F0004517
:1018F00007D54FF0000EDCF1000C7EEB00006EEB24
:101900000101B1F5801F1BD3B1F5001F0CD34908AD
:101910005FEA30004FEA3C0C04F101044FEA445204
:1019200012F5800F80F09A80BCF1004F08BF5FEA8B
:10193000500C50F1000041EB045141EA050130BD6B
:101940005FEA4C0C404141EB010111F4801FA4F10E
:101950000104E9D191F0000F04BF01460020B1FA63
:1019600081F308BF2033A3F10B03B3F120020CDA9B
:101970000C3208DD02F1140CC2F10C0201FA0CF079
:1019800021FA02F10CE002F11402D8BFC2F1200CDE
:1019900001FA02F120FA0CFCDCBF41EA0C01904094
:1019A000E41AA2BF01EB0451294330BD6FEA0404DD
:1019B0001F3C1CDA0C340EDC04F11404C4F12002C8
:1019C00020FA04F001FA02F340EA030021FA04F3DA
:1019D00045EA030130BDC4F10C04C4F1200220FA31
:1019E00002F001FA04F340EA0300294630BD21FA6F
:1019F00004F0294630BD94F0000F83F4801306BF35
:101A000081F480110134013D4EE77FEA645C18BF28
:101A10007FEA655C29D094EA050F08BF90EA020FBF
:101A200005D054EA000C04BF1946104630BD91EAB7
:101A3000030F1EBF0021002030BD5FEA545C05D1BA
:101A40004000494128BF41F0004130BD14F58004F9
:101A50003CBF01F5801130BD01F0004545F0FE416D
:101A600041F470014FF0000030BD7FEA645C1ABFA2
:101A7000194610467FEA655C1CBF0B46024650EAD9
:101A8000013406BF52EA033591EA030F41F4002105
:101A900030BD00BF90F0000F04BF0021704730B58B
:101AA0004FF4806404F132044FF000054FF0000160
:101AB00050E700BF90F0000F04BF0021704730B521
:101AC0004FF4806404F1320410F0004548BF4042F6
:101AD0004FF000013EE700BF42004FEAE2014FEA4B
:101AE00031014FEA02701FBF12F07F4393F07F4F26
:101AF00081F06051704792F0000F14BF93F07F4F58
:101B0000704730B54FF4607401F0004521F000419A
:101B100020E700BF50EA010208BF704730B54FF020
:101B200000050AE050EA010208BF704730B511F025
:101B3000004502D5404261EB41014FF4806404F15D
:101B400032045FEA915C3FF4DCAE4FF003025FEADF
:101B5000DC0C18BF03325FEADC0C18BF033202EB67
:101B6000DC02C2F1200300FA03FC20FA02F001FAC1
:101B700003FE40EA0E0021FA02F11444C1E600BF60
:101B800070B54FF0FF0C4CF4E06C1CEA11541DBF13
:101B90001CEA135594EA0C0F95EA0C0F00F0DEF8DE
:101BA0002C4481EA030621EA4C5123EA4C5350EAC3
:101BB000013518BF52EA033541F4801143F4801314
:101BC00038D0A0FB02CE4FF00005E1FB02E506F0A5
:101BD0000042E0FB03E54FF00006E1FB03569CF0FA
:101BE000000F18BF4EF0010EA4F1FF04B6F5007F00
:101BF00064F5407404D25FEA4E0E6D4146EB060672
:101C000042EAC62141EA55514FEAC52040EA5E50FA
:101C10004FEACE2EB4F1FD0C88BFBCF5E06F1ED8A4
:101C2000BEF1004F08BF5FEA500E50F1000041EBDB
:101C3000045170BD06F0004646EA010140EA020088
:101C400081EA0301B4EB5C04C2BFD4EB0C0541EAAA
:101C5000045170BD41F480114FF0000E013C00F3BF
:101C6000AB8014F1360FDEBF002001F0004170BDE3
:101C7000C4F10004203C35DA0C341BDC04F11404FC
:101C8000C4F1200500FA05F320FA04F001FA05F288
:101C900040EA020001F0004221F0004110EBD37055
:101CA00021FA04F642EB06015EEA430E08BF20EA81
:101CB000D37070BDC4F10C04C4F1200500FA04F324
:101CC00020FA05F001FA04F240EA020001F00041B6
:101CD00010EBD37041F100015EEA430E08BF20EA29
:101CE000D37070BDC4F1200500FA05F24EEA020E71
:101CF00020FA04F301FA05F243EA020321FA04F0A0
:101D000001F0004121FA04F220EA020000EBD37056
:101D10005EEA430E08BF20EAD37070BD94F0000F56
:101D20000FD101F00046400041EB010111F4801F8A
:101D300008BF013CF7D041EA060195F0000F18BF3B
:101D4000704703F00046520043EB030313F4801F77
:101D500008BF013DF7D043EA0603704794EA0C0F31
:101D60000CEA135518BF95EA0C0F0CD050EA410647
:101D700018BF52EA4306D1D181EA030101F00041C4
:101D80004FF0000070BD50EA410606BF10461946EC
:101D900052EA430619D094EA0C0F02D150EA0136F8
:101DA00013D195EA0C0F05D152EA03361CBF104639
:101DB00019460AD181EA030101F0004141F0FE41D8
:101DC00041F470014FF0000070BD41F0FE4141F45C
:101DD000780170BD70B54FF0FF0C4CF4E06C1CEA5C
:101DE00011541DBF1CEA135594EA0C0F95EA0C0F11
:101DF00000F0A7F8A4EB050481EA030E52EA0335CC
:101E00004FEA013100F088804FEA03334FF08055EC
:101E100045EA131343EA12634FEA022245EA111519
:101E200045EA10654FEA00260EF000419D4208BFCA
:101E3000964244F1FD0404F5407402D25B084FEA77
:101E40003202B61A65EB03055B084FEA32024FF423
:101E500080104FF4002CB6EB020E75EB030E22BF80
:101E6000B61A754640EA0C005B084FEA3202B6EB40
:101E7000020E75EB030E22BFB61A754640EA5C00EF
:101E80005B084FEA3202B6EB020E75EB030E22BF7F
:101E9000B61A754640EA9C005B084FEA3202B6EB80
:101EA000020E75EB030E22BFB61A754640EADC003F
:101EB00055EA060E18D04FEA051545EA16754FEAA1
:101EC00006164FEAC30343EA52734FEAC2025FEABF
:101ED0001C1CC0D111F4801F0BD141EA00014FF04E
:101EE00000004FF0004CB6E711F4801F04BF01431F
:101EF0000020B4F1FD0C88BFBCF5E06F3FF6AFAE3B
:101F0000B5EB030C04BFB6EB020C5FEA500C50F1CA
:101F1000000041EB045170BD0EF0004E4EEA11314D
:101F200014EB5C04C2BFD4EB0C0541EA045170BD54
:101F300041F480114FF0000E013C90E645EA060E98
:101F40008DE60CEA135594EA0C0F08BF95EA0C0FC6
:101F50003FF43BAF94EA0C0F0AD150EA01347FF40E
:101F600034AF95EA0C0F7FF425AF104619462CE7E5
:101F700095EA0C0F06D152EA03353FF4FDAE104648
:101F8000194622E750EA410618BF52EA43067FF499
:101F9000C5AE50EA41047FF40DAF52EA43057FF429
:101FA000EBAE12E70000000000000000000000009F
:101FB0004FF0FF3C06E000BF4FF0010C02E000BF15
:101FC0004FF0010C4DF804CD4FEA410C7FEA6C5CF8
:101FD0004FEA430C18BF7FEA6C5C1BD001B050EA9B
:101FE000410C0CBF52EA430C91EA030F02BF90EA86
:101FF000020F0020704710F1000F91EA030F58BF45
:10200000994208BF90422CBFD8176FEAE37040F0A6
:10201000010070474FEA410C7FEA6C5C02D150EA44
:10202000013C07D14FEA430C7FEA6C5CD6D152EAFF
:10203000033CD3D05DF8040B704700BF84461046C4
:1020400062468C461946634600E000BF01B5FFF7C3
:10205000B7FF002848BF10F1000F01BD4DF808ED93
:10206000FFF7F4FF0CBF012000205DF808FB00BF64
:102070004DF808EDFFF7EAFF34BF012000205DF8BE
:1020800008FB00BF4DF808EDFFF7E0FF94BF01200B
:1020900000205DF808FB00BF4DF808EDFFF7CEFF0C
:1020A00094BF012000205DF808FB00BF4DF808ED4B
:1020B000FFF7C4FF34BF012000205DF808FB00BF1C
:1020C0004FEA410212F5001215D211D56FF4787360
:1020D000B3EB625212D94FEAC12343F0004343EA03
:1020E000505311F0004F23FA02F018BF40427047DE
:1020F0004FF00000704750EA013005D111F0004068
:1021000008BF6FF0004070474FF00000704700BFFD
:102110004FEA4102B2F1E04324BFB3F5001CDCF109
:10212000FE5C0DD901F0004C4FEAC0024CEA507041
:10213000B2F1004F40EB830008BF20F00100704770
:1021400011F0804F21D113F13872BCBF01F0004073
:10215000704741F480114FEA5252C2F11802C2F1A5
:10216000200C10FA0CF320FA02F018BF40F0010026
:102170004FEAC1234FEAD32303FA0CFC40EA0C00D8
:1021800023FA02F34FEA4303CCE77FEA625307D115
:1021900050EA01331EBF4FF0FE4040F4400070474C
:1021A00001F0004040F0FE4040F40000704700BFE6
:1021B00080F0004002E000BF81F0004142001FBFFC
:1021C0005FEA410392EA030F7FEA226C7FEA236C05
:1021D0006AD04FEA1262D2EB1363C1BFD2184140FA
:1021E00048404140B8BF5B42192B88BF704710F090
:1021F000004F40F4000020F07F4018BF404211F033
:10220000004F41F4000121F07F4118BF494292EA9A
:10221000030F3FD0A2F1010241FA03FC10EB0C00C6
:10222000C3F1200301FA03F100F0004302D5494253
:1022300060EB4000B0F5000F13D3B0F1807F06D300
:1022400040084FEA310102F10102FE2A51D2B1F1F8
:10225000004F40EBC25008BF20F0010040EA0300ED
:102260007047490040EB000010F4000FA2F101029A
:10227000EDD1B0FA80FCACF1080CB2EB0C0200FA24
:102280000CF0AABF00EBC25052421843BCBFD04072
:102290001843704792F0000F81F4000106BF80F4EC
:1022A00000000132013BB5E74FEA41037FEA226CAF
:1022B00018BF7FEA236C21D092EA030F04D092F07A
:1022C000000F08BF0846704790EA010F1CBF0020AE
:1022D000704712F07F4F04D1400028BF40F000400B
:1022E000704712F100723CBF00F50000704700F02B
:1022F000004343F0FE4040F4000070477FEA226252
:1023000016BF08467FEA23630146420206BF5FEA22
:10231000412390EA010F40F4800070474FF0000322
:1023200004E000BF10F0004348BF40425FEA000CE9
:1023300008BF704743F0964301464FF000001CE091
:1023400050EA010208BF70474FF000030AE000BFE7
:1023500050EA010208BF704711F0004302D5404225
:1023600061EB41015FEA010C02BF84460146002097
:1023700043F0B64308BFA3F18053A3F50003BCFAB2
:102380008CF2083AA3EBC25310DB01FA02FC63445F
:1023900000FA02FCC2F12002BCF1004F20FA02F266
:1023A00043EB020008BF20F00100704702F1200259
:1023B00001FA02FCC2F1200250EA4C0021FA02F2BA
:1023C00043EB020008BF20EADC7070470000000009
:1023D0004FF0FF0C1CEAD0521EBF1CEAD15392EA08
:1023E0000C0F93EA0C0F6FD01A4480EA010C4002E4
:1023F00018BF5FEA41211ED04FF0006343EA50103E
:1024000043EA5111A0FB01310CF00040B1F5000F7F
:102410003EBF490041EAD3715B0040EA010062F12E
:102420007F02FD2A1DD8B3F1004F40EBC25008BF18
:1024300020F00100704790F0000F0CF0004C08BF36
:1024400049024CEA502040EA51207F3AC2BFD2F103
:10245000FF0340EAC250704740F400004FF0000311
:10246000013A5DDC12F1190FDCBF00F0004070474B
:10247000C2F10002410021FA02F1C2F1200200FA89
:1024800002FC5FEA310040F1000053EA4C0308BF50
:1024900020EADC70704792F0000F00F0004C02BFA1
:1024A000400010F4000F013AF9D040EA0C0093F01C
:1024B000000F01F0004C02BF490011F4000F013B76
:1024C000F9D041EA0C018FE70CEAD15392EA0C0FE4
:1024D00018BF93EA0C0F0AD030F0004C18BF31F04F
:1024E000004CD8D180EA010000F00040704790F025
:1024F000000F17BF90F0004F084691F0000F91F0C9
:10250000004F14D092EA0C0F01D142020FD193EA8E
:102510000C0F03D14B0218BF084608D180EA010016
:1025200000F0004040F0FE4040F40000704740F0F2
:10253000FE4040F4400070474FF0FF0C1CEAD052C0
:102540001EBF1CEAD15392EA0C0F93EA0C0F69D01C
:10255000A2EB030280EA010C49024FEA402037D087
:102560004FF0805343EA111143EA10130CF000407E
:102570008B4238BF5B0042F17D024FF4000C8B426E
:1025800024BF5B1A40EA0C00B3EB510F24BFA3EB4E
:10259000510340EA5C00B3EB910F24BFA3EB91031E
:1025A00040EA9C00B3EBD10F24BFA3EBD10340EA78
:1025B000DC001B0118BF5FEA1C1CE0D1FD2A3FF6BE
:1025C00050AF8B4240EBC25008BF20F00100704773
:1025D0000CF0004C4CEA50207F32C2BFD2F1FF0316
:1025E00040EAC250704740F400004FF00003013A47
:1025F00037E792F0000F00F0004C02BF400010F4EB
:10260000000F013AF9D040EA0C0093F0000F01F0FE
:10261000004C02BF490011F4000F013BF9D041EA20
:102620000C0195E70CEAD15392EA0C0F08D1420253
:102630007FF47DAF93EA0C0F7FF470AF084676E726
:1026400093EA0C0F04D14B023FF44CAF08466EE7FF
:1026500030F0004C18BF31F0004CCAD130F00042CD
:102660007FF45CAF31F000437FF43CAF5FE700BF25
:102670004FF0FF3C06E000BF4FF0010C02E000BF4E
:102680004FF0010C4DF804CD4FEA40024FEA4103F0
:102690007FEA226C18BF7FEA236C11D001B052EAA6
:1026A000530C18BF90EA010F58BFB2EB030088BF6C
:1026B000C81738BF6FEAE17018BF40F001007047DB
:1026C0007FEA226C02D15FEA402C05D17FEA236CBD
:1026D000E4D15FEA412CE1D05DF8040B704700BF04
:1026E000844608466146FFE70FB5FFF7C9FF00289B
:1026F00048BF10F1000F0FBD4DF808EDFFF7F4FFD4
:102700000CBF012000205DF808FB00BF4DF808ED6C
:10271000FFF7EAFF34BF012000205DF808FB00BF8F
:102720004DF808EDFFF7E0FF94BF012000205DF8B1
:1027300008FB00BF4DF808EDFFF7D2FF94BF012062
:1027400000205DF808FB00BF4DF808EDFFF7C8FF5B
:1027500034BF012000205DF808FB00BF000000002E
:102760004BB942B9002908BF002802D04FF0FF3111
:10277000084600F065B882B0EC462DE9005000F044
:1027800047F8DDF804E002B00CBC70470000000020
:1027900070B5FFF7A1F900230022C3F6F0530446F9
:1027A0000D46FFF7EDF900F053F80646FFF772F912
:1027B00000230022C4F2F013FFF7E2F902460B46B1
:1027C00020462946FFF728F800F042F8002231465B
:1027D00042EA0004204670BD000000000000000036
:1027E0002DE9F0471746804689469A46089E00F034
:1027F0004FF8A7FB004507FB01F700FB0A721544E1
:10280000B8EB040469EB0505C6E90045BDE8F087AF
:102810002DE9F8431746804689461D46089E00F07C
:10282000E7F900FB05F3A0FB074507FB01373D4433
:10283000B8EB040469EB0505C6E90045BDE8F8837B
:10284000704700BF00000000000000000000000012
:102850004A0011D212F5001211D20DD56FF478731F
:10286000B3EB62520ED44FEAC12343F0004343EA74
:10287000505323FA02F070474FF00000704750EABF
:10288000013002D14FF0FF3070474FF00000704729
:102890002DE9F04F444261EB410500294FF0FF362E
:1028A000A2BF04460D460026002B85B0C0F2C780AB
:1028B0002046AA469446194690462746A946002B2C
:1028C00058D1AA426CD9B2FA82F35BB1C3F12002AB
:1028D00005FA03F924FA02F20CFA03F842EA0909AC
:1028E00004FA03F74FEA1844484621461FFA88FACB
:1028F00000F0FEFA21468346484600F027FC3A0CD9
:102900000AFB0BF042EA014188420BD911EB0801A6
:102910000BF1FF3305D2884284BFABF1020B414477
:1029200000D89B46C0EB010921464846BFB200F0E3
:10293000DFFA21460546484600F008FC0AFB05FA86
:1029400047EA01418A4509D911EB080805F1FF332F
:1029500003D2C24588BF023D00D81D4645EA0B435D
:1029600000241846214616B1404261EB410105B0F2
:10297000BDE8F08FAB4284BF00242346F1D8B1FA02
:1029800081F5002D40F0B580514528BF82428CBFB3
:10299000002401249CBF01232C46E2D92346E0E712
:1029A00022B91146012000F0A3FA8046B8FA88F354
:1029B000002B49D1C8EB09094FEA18451FFA88FADC
:1029C00001242946484600F093FA294683464846A2
:1029D00000F0BCFB3A0C0AFB0BF042EA01418842D2
:1029E0000CD911EB08010BF1FF3380F0F280884223
:1029F00084BFABF1020B414440F2EB800A1A294636
:102A00001046019200F074FA019A2946BFB281463D
:102A1000104600F09BFB0AFB09FA47EA01418A4590
:102A20000AD911EB080809F1FF3304D2C24588BF67
:102A3000A9F1020900D8994649EA0B4391E7F64308
:102A4000524263EB430333E708FA03F8C3F1200B68
:102A500029FA0BF409FA03F94FEA184520462946EA
:102A600027FA0BFB9F4000F043FA29461FFA88FA29
:102A70004BEA090B02462046019200F067FB019ADF
:102A80004FEA1B430AFB02F043EA014188420BD99B
:102A900011EB080102F1FF3380F0A180884284BF6E
:102AA000023A414440F29B80C0EB01092946484666
:102AB000019200F01DFA29461FFA8BFB0446484696
:102AC00000F044FB019A0AFB04F94BEA01418945F5
:102AD0000AD911EB080104F1FF3304D2894584BF00
:102AE000023C414400D81C46C9EB010944EA0244B7
:102AF00067E7C5F12003A94022FA03F82AFA03FB8D
:102B000048EA010820FA03F30AFA05FA58464FEAA0
:102B1000184902FA05FC494643EA0A0ACDF80CC0F6
:102B200000F0E6F949460446584600F00FFB1FFA4C
:102B300088F24FEA1A4E02FB04F04EEA014E70454D
:102B400009D91EEB080E04F1FF3146D2704584BF4F
:102B5000023CC64441D9C0EB0E0C49466046019286
:102B6000CDF808C000F0C4F9DDF808C049461FFAE6
:102B70008AFA8346604600F0E9FA019A02FB0BF2FA
:102B80004AEA01418A420AD911EB08010BF1FF30F0
:102B900021D28A4284BFABF1020B41441BD9039876
:102BA0004BEA044B891AABFB002399420DD314BFA7
:102BB0000023012307FA05F494422CBF002403F0FC
:102BC00001045B46002C3FF4CCAE0BF1FF33002434
:102BD000C7E69B4612E78346E1E70C46BBE71A4689
:102BE00062E700BF000000000000000000000000DD
:102BF0002DE9F04F064683B00D4614460746884639
:102C0000002B51D18A4264D9B2FA82F35BB1C3F18D
:102C1000200801FA03F520FA08F802FA03F448EA5A
:102C2000050800FA03F7250C404629461FFA84FAE6
:102C300000F05EF929468146404600F087FA3B0CD9
:102C40000AFB09F043EA014188420AD9091909F14E
:102C5000FF3205D2884284BFA9F10209091900D8C0
:102C60009146C0EB010829464046BFB200F040F94A
:102C700029460646404600F069FA0AFB06FA47EA8A
:102C800001418A4509D90C1906F1FF3380F01981F9
:102C9000A24588BF023E40F2148146EA0940002660
:102CA000314603B0BDE8F08F8B4284BF002630462A
:102CB000F6D8B3FA83F4002C5AD18B4228BFB24223
:102CC0008CBF002601269CBF01202646E8D930464D
:102CD000E6E722B91146012000F00AF90446B4FAE9
:102CE00084F3002B40F0A2802D1B4FEA14481FFAFA
:102CF00084FA01264146284600F0FAF8414681460A
:102D0000284600F023FA3B0C0AFB09F043EA014194
:102D100088420BD9091909F1FF3280F0D48088422A
:102D200084BFA9F10209091940F2CD80C0EB010B63
:102D300041465846BFB200F0DBF8414605465846CA
:102D400000F004FA0AFB05FA47EA01418A4509D96D
:102D50000C1905F1FF3380F0B880A24588BF023D11
:102D600040F2B38045EA0940314603B0BDE8F08F38
:102D7000C4F12001A34022FA01F825FA01F748EA3C
:102D80000308384626FA01F3A5404FEA1849A24045
:102D9000494601921D4300F0ABF849468346384648
:102DA00000F0D4F91FFA88F22F0C02FB0BF047EA6F
:102DB0000147B84206D917EB08070BF1FF31C0F005
:102DC0008D808B463F1A49463846009200F090F8B5
:102DD0004946ADB28246384600F0B8F9009A02FB87
:102DE0000AF245EA01418A4205D911EB08010AF1CC
:102DF000FF306CD38246019D4AEA0B40891AA0FB42
:102E0000052399420CD306FA04F614BF00210121D0
:102E100096422CBF002601F00106002E3FF440AF81
:102E200000260138314603B0BDE8F08F9C40C3F165
:102E3000200925FA09FA06FA03F74FEA1448504622
:102E400041469D4000F054F8414626FA09F949EA06
:102E500005098346504600F079F91FFA84FA4FEAD3
:102E600019430AFB0BF043EA0141884209D90919C9
:102E70000BF1FF333AD2884284BFABF1020B091940
:102E800034D90D1A414628461FFA89F900F030F866
:102E900041460646284600F059F90AFB06F549EA7C
:102EA00001418D4209D9091906F1FF3304D28D423F
:102EB00084BF023E091900D81E464D1B46EA0B4648
:102EC00018E71E46E9E6914630E71D464AE78A4282
:102ED00084BFAAF1020A41448DD88BE7B84284BF6F
:102EE000ABF1020B47443FF66DAF6AE79B46C8E77C
:102EF0004A1E08BF7047C0F02481884240F2168104
:102F0000114200F01781B0FA80F3B1FA81F2A2EB1E
:102F10000303C3F11F0304A202EB03134FF00002EB
:102F20009F4600BFAFF30080B0EBC17F00BF42EB14
:102F3000020228BFA0EBC170B0EB817F00BF42EB63
:102F4000020228BFA0EB8170B0EB417F00BF42EBD3
:102F5000020228BFA0EB4170B0EB017F00BF42EB43
:102F6000020228BFA0EB0170B0EBC16F00BF42EBC3
:102F7000020228BFA0EBC160B0EB816F00BF42EB43
:102F8000020228BFA0EB8160B0EB416F00BF42EBB3
:102F9000020228BFA0EB4160B0EB016F00BF42EB23
:102FA000020228BFA0EB0160B0EBC15F00BF42EBA3
:102FB000020228BFA0EBC150B0EB815F00BF42EB23
:102FC000020228BFA0EB8150B0EB415F00BF42EB93
:102FD000020228BFA0EB4150B0EB015F00BF42EB03
:102FE000020228BFA0EB0150B0EBC14F00BF42EB83
:102FF000020228BFA0EBC140B0EB814F00BF42EB03
:10300000020228BFA0EB8140B0EB414F00BF42EB72
:10301000020228BFA0EB4140B0EB014F00BF42EBE2
:10302000020228BFA0EB0140B0EBC13F00BF42EB62
:10303000020228BFA0EBC130B0EB813F00BF42EBE2
:10304000020228BFA0EB8130B0EB413F00BF42EB52
:10305000020228BFA0EB4130B0EB013F00BF42EBC2
:10306000020228BFA0EB0130B0EBC12F00BF42EB42
:10307000020228BFA0EBC120B0EB812F00BF42EBC2
:10308000020228BFA0EB8120B0EB412F00BF42EB32
:10309000020228BFA0EB4120B0EB012F00BF42EBA2
:1030A000020228BFA0EB0120B0EBC11F00BF42EB22
:1030B000020228BFA0EBC110B0EB811F00BF42EBA2
:1030C000020228BFA0EB8110B0EB411F00BF42EB12
:1030D000020228BFA0EB4110B0EB011F00BF42EB82
:1030E000020228BFA0EB0110B0EBC10F00BF42EB02
:1030F000020228BFA0EBC100B0EB810F00BF42EB82
:10310000020228BFA0EB8100B0EB410F00BF42EBF1
:10311000020228BFA0EB4100B0EB010F00BF42EB61
:10312000020228BFA0EB0100104670470CBF01202F
:1031300000207047B1FA81F2C2F11F0220FA02F0BA
:10314000704708B14FF0FF30FFF77ABB0029F8D085
:103150002DE90340FFF7CCFEBDE8064002FB00F37B
:10316000A1EB0301704700BF000000000000000059
:1031700041F20463C2F200031868704700000000C7
:10318000002200F097BC00BF00000000000000001B
:10319000032A70B412D940EA01039B070FD10C46F1
:1031A000034621461846043404330D680668AE42CF
:1031B00004D1043A1846032A2146F2D8C2B1057850
:1031C0000C78A54204BF02F1FF32002306D00CE0C8
:1031D00010F8015F11F8014FA54206D1934203F1A7
:1031E0000103F5D1002070BC7047281B70BC7047EC
:1031F0001046F8E70000000000000000000000009A
:103200000F2AF0B445D940EA01039B0745D1A2F14A
:1032100010070C4603463F0900EB071610362568D9
:103220001033103443F8105C54F80C5C43F80C5C19
:1032300054F8085C43F8085C54F8045C43F8045CF8
:10324000B342ECD17B1C02F00F0CBCF1030F4FEA30
:1032500003131944034422D90E461D46644656F80A
:10326000047B043C032C45F8047BF8D8ACF104043F
:1032700002F0030224F0030404342344214432B155
:103280000A4411F8014B914203F8014BF9D1F0BC0B
:1032900070470346002AF3D1F9E70346F0E7624698
:1032A000002AEDD1F3E700BF00000000000000009D
:1032B0008307F0B448D0541E002A43D0CDB2034651
:1032C00002E0002C3ED0144603F8015B13F0030F1C
:1032D00004F1FF32F5D1032C2DD9CDB20F2C45EAE4
:1032E000052545EA054518D9A4F1100703F1100694
:1032F0001A463F0906EB07161560103242F80C5CBF
:1033000042F8085C42F8045CB242F5D104F00F04C4
:103310000137032C03EB07130DD91E462246043A4E
:1033200046F8045B032AFAD8221F04F0030422F0B3
:103330000302043213442CB1C9B21C4403F8011B2C
:10334000A342FBD1F0BC704714460346C3E700BF5D
:1033500001682DE9F0473B2982B0044600F2E18084
:1033600041683B2900F29C80A168172900F2AD80DA
:1033700025690B2D00F2BE8063699A074BD148F294
:103380001F52D917C5F2EB12642082FB0376C1EB02
:10339000661100FB113189B3E2681D274CF230261B
:1033A00048F21F5C002A3EDC2946C0F60206C5F240
:1033B000EB1C64254FF4C8780AE0012B04BF3846A3
:1033C000194602D056F8230019460244002A4DDC63
:1033D0004B1E0029F1D161694B1E63619F0740F0CC
:1033E000BF808CFB0307D817C0EB671005FB1033B9
:1033F000002B00F0A9801D270B23E3E703F26C7379
:103400004FF4C87182FB0302D817C0EBE21201FB34
:103410001233002BC0D0E2681C274CF2302648F251
:103420001F5C002AC0DDC0F60206C5F2EB1C4FF09F
:1034300000084FF064094FF4C87A6B1C002106EBBA
:1034400085050AE068589042C0EB020210DA0C2BA6
:10345000E26023610FD001330431022BF2D1974295
:10346000C7EB020204DAE2602361F4E72361E26061
:1034700002B0BDE8F0876169C4F810804B1C63613D
:10348000980702D01C270025D7E78CFB0375D817B7
:10349000C0EB651009FB1033002B63D01D27F2E74A
:1034A0003C22684601F00CF9019BA2680099002BB0
:1034B000B4BF3C3363601144A160BEBF01F1FF3172
:1034C0006360A16017297FF653AF1822684601F0A8
:1034D000F7F8019BE168009A002B25690A44A36074
:1034E000E260BFBF183302F1FF32A360E2600B2D30
:1034F0007FF642AF29460C22684601F0E1F89DE8CC
:1035000028006269002D1344B8BF05F10C02636105
:10351000BBBF154603F1FF3325612261B8BF63616C
:103520002BE73C22684601F0CBF89DE80C0061686F
:10353000002B1144B8BF3C336160B7BF01F1FF31CC
:103540002360236061600CE701F26B718CFB01303A
:10355000CB17C3EBE01308FB131100293FF44BAF6B
:103560001C2749E701F26D718CFB0130CB17C3EBCF
:10357000E0130AFB1311002990D083E72DE9F84FDF
:10358000064601F0C5F880463046FFF7E1FE326995
:1035900071684CF23023C0F60203346803EB8203F7
:1035A000B568C1EB0111F7684FF461601B6B04EB68
:1035B0008104012A07F1FF3700FB054007EB0304F4
:1035C000756902DDAB0700F0CB8005F51C5344F6AE
:1035D00020621033F461934200F22981462D00F3FA
:1035E00093804ED0452D49D048F21F574523C5F250
:1035F000EB174FF064094FF4C87A13F0030F40F251
:103600006D1287FB03EC4FEAE37E14D103F26C7179
:10361000CEEB6C1E4FF4B77287FB01BC4FEAE17B27
:1036200009FB1E3ECBEBEC1BBEF1000F03D10AFBE6
:103630001B1101B1013A013BA41AAB42DDD1AF0726
:103640001CD148F21F53EA17C5F2EB13642183FB28
:1036500005C7C2EB671201FB1252002A40F0D88066
:1036600005F26C724FF4C87183FB02E3D717C7EB06
:10367000E31301FB1322002A00F0CA8040F26D130D
:10368000E41A4FF4A347C0F2010707FB040701F057
:103690000FF841F68C13C2F200031B68002B00F0F8
:1036A000A3807069326AD8F8043000F26C70012A85
:1036B000B4BF91464FF00109834261D000F028F970
:1036C00000285DD1B9F1010F40F08A80D8F83C00A4
:1036D000074400F0EFFF42F293430434C9F2492358
:1036E000C6F8209083FB0403E2172344C2EBA30334
:1036F000C3EBC303E31A59BFB36138460733B36161
:1037000048BF3846BDE8F88F48F21F574623C5F238
:10371000EB174FF064094FF4C87A13F0030F40F22F
:103720006D1287FB03EC4FEAE37E14D103F26C7158
:10373000CEEB6C1E4FF4B77287FB01BC4FEAE17B06
:1037400009FB1E3ECBEBEC1BBEF1000F03D10AFBC5
:103750001B1101B1013A01331444AB42DDD190E7B2
:1037600048F21F53EA17C5F2EB13642183FB05B738
:10377000C2EB671201FB1252002A3AD0013424E74F
:10378000D8F83830D8F83C20D8F82000991AD8F862
:103790001CE08F42C0EB0303ACBF002101219F421C
:1037A000B8BF002100298DD1D8F80010C2EB0E0E51
:1037B00089B39F42ACBF4FF0000A4FF0010A774532
:1037C000B8BF4FF0000AB9F1000F04DB8AEA09091B
:1037D000B9F1010F2FD0D146B9F1010F3FF476AF07
:1037E000D8F82000074474E7D8F820009946074429
:1037F0006FE705F26C724FF4C87183FB02C3D717F1
:10380000C7EBE31301FB1322002A7FF4DEAEB5E71A
:103810004FF4B77334E77745B4BF4FF0000E4FF065
:10382000010E9F42ACBFF2464EF0010ACBE74FF0CB
:10383000FF30BDE8F88F821ABAF1000F00D1524272
:1038400033683046D6F80C90174413443360FFF7C2
:103850007FFDF368B3EB0903BDD0012BC8BF4FF068
:10386000FF334ADDF2691C449B1822D4A90741D1D9
:1038700048F21F52E917C5F2EB12642082FB05BE25
:10388000C1EB6E1100FB115159B905F26C754FF483
:10389000C87182FB05C2E817C0EBE21201FB1255AA
:1038A00045BB4FF4B7729A4221DC9B1AD146F361B3
:1038B00008E76B1E980725D148F21F52D917C5F2A9
:1038C000EB12642082FB03BEC1EB6E1100FB1133CF
:1038D0005BB905F26B754FF4C87182FB05C2EB173B
:1038E000C3EBE21301FB135565B940F26D13F361AD
:1038F000D146E7E640F26D12D5E7B3F1FF3FB8BF1E
:103900000123AFE74FF4B673F1E700BF00000000FA
:103910002DE9F04F85B0064600F0FAFE40F2B17393
:103920009E420446D8BF002040F3A18048F21F53B6
:10393000A6F26D71C5F2EB136FF4C862B2186FF4A2
:10394000F66083FB067506EB000883FB01C7F017E2
:10395000C9174FEAA80883FB02C3C0EBE51CC0EB04
:1039600065100190A1EB6711019F6425A6F2B27961
:1039700040F26D1A4FF4C87005FB1767D2170AFBA7
:103980000988C2EBE31300FB1C604CF29025414414
:10399000019742F293484FF4A34701EB030BC0F6A3
:1039A0000205C9F24928C0F2010722460021D0F1E0
:1039B0000100666038BF0020029006F0030003900B
:1039C000137A4A2B5BD0442B6CD00398029B0028BF
:1039D00050D0D0685E001E44012805EB061664DD59
:1039E0004FEA8009A6F1080ACA44301F5B46944694
:1039F00050F8042F50451344FAD16246A9F1040946
:103A000003F1040CCDF800C0009888FB0CCA4FEA03
:103A1000E07C56F809908244CCEBAA0CCCEBCC0CA1
:103A2000CCEB000C5069B0EB0C0C106948BF0CF1EA
:103A3000070C461EC6EBC606B444CC4504DB48461C
:103A4000ACF1070C8445FBDA634496690131106AD6
:103A5000022907FB0366304442F81C0FB0D1A36B68
:103A60000120E2699A42ACBF00230123236005B024
:103A7000BDE8F08F019E002E18BF0123A9E7506911
:103A8000039E00EB0B0346B9019E36B13B28D4BF21
:103A9000002001200344013BD7E7029E002EF5D110
:103AA0000298F7E753695B44CFE75B464FF00009A4
:103AB000A6E700BF2DE9F84F0F468146904600F07B
:103AC00027FE44F20753D9F80020CCF22E234FF4FE
:103AD000A3414FF4616CC0F2010148F68904C8F6B5
:103AE0008804824683FB0203D0171344C0EB2343B0
:103AF00042F29340C9F2492001FB13224BF2C53137
:103B0000C9F2A211002ABEBF02F5A83203F1FF33A9
:103B100002F5C07281FB02B5D617191D154480FB52
:103B200001B0C6EBE525BD60CE170CFB152208449D
:103B30004FF4C87C4FF0640BC6EBA000C0EBC00094
:103B400084FB0254D517081A4CF29021144448BF44
:103B50000730002BB861C5EB64147C6048F21F503D
:103B6000C0F60201C4EB0414C5F2EB10A2EB840210
:103B700040F2B2743A6002DA3DE001349B1AA607C3
:103B80004FEAE47580FB046205D1C5EB62120126A1
:103B90000BFB12424AB980FB0426C5EBE6160CFB70
:103BA0001646D6F1010638BF002601EB8602126EDA
:103BB0009342E2DA7200FB611644A4F26C700022B8
:103BC000786136013A6101EB060B8D59AB4208DB97
:103BD0005A4601265B1B3E6152F8045F01369D4246
:103BE000F8DD0133FB60B8F1000F22D00023384626
:103BF0003B62BDE8F88F013C14F0030F80FB0452D8
:103C00004FEAE47505D1C5EB621201260BFB1242A7
:103C10004AB980FB0426C5EBE6160CFB1646D6F126
:103C2000010638BF002601EB8602126E9B18E2D413
:103C3000C0E700F03DFD41F68C13C2F200031B68A3
:103C4000002B5DD1C7F82080DAF820004BF2C53395
:103C5000C217C9F2A2134FF4616C48F6890579685E
:103C600083FB006EBE68C8F688053C6886444FEA50
:103C7000EE2EC2EB0E03F21ABA600CFB130385FBA7
:103C80000360DE171844C6EB6010091A7960C0EBB8
:103C90000010A3EB8003E31A3B603B2B6FDD013187
:103CA0003C3B79603B603B2946DD01323C39172AB9
:103CB000BA60796049DDBB69183AF9690133BA60C5
:103CC000062B01F10101F961C8BF00233969BB610D
:103CD000FB680133FB605BF8212093420BDD01316F
:103CE0009B1A0C293961FB6005D17A6900233B617D
:103CF0000132FB617A6100F0DDFC3846BDE8F88FE7
:103D0000DAF80430A34204D02046FFF701FE002871
:103D10004DD0DAF80030002B39D0D9F80030DAF87D
:103D20001C20934247DBDAF83820934243DA012320
:103D30003B62DAF83C0089E70029BFBF02F1FF329D
:103D40003C31BA607960172AB5DC002AD3DABB6946
:103D50001832F969013BBA6048BF0623BB61FB68B2
:103D60000139F961013BFB60002BC4D13B69013B88
:103D700024D43B619B005BF80330FB60BBE7002B66
:103D8000BFBF01F1FF313C3379603B608BE7D9F86D
:103D90000030DAF81C209342C9DADAF8382093426E
:103DA000ACBF002301233B62002BC2D14CE74FF094
:103DB000FF333B6248E700233B6245E77B690B2208
:103DC0003A615A1E7A6194071CBF03F26B73DA17CB
:103DD00013D148F21F5103F26B73C5F2EB1164204B
:103DE000DA1781FB0341C2EB611100FB113121B1F4
:103DF00040F26D122C23FA61BDE748F21F514FF4D7
:103E0000C870C5F2EB1181FB0351C2EBE11200FB5C
:103E10001233D3F1010238BF002202F5B672E9E78E
:103E2000C9B2F0B4002947D084070FD00278002A25
:103E30003FD091423ED0431C05E013F8012B002AED
:103E400037D0914236D09A071846F6D141EA012779
:103E5000036847EA0747A3F1013483EA070224EA2B
:103E60000303A2F1013424EA0202134313F0803F5A
:103E700011D1021D104652F8043B83EA0704A3F156
:103E80000136A4F1013526EA030325EA040423439D
:103E900013F0803FEED00378002B3BD0994209D03D
:103EA000431C01E0914205D0184613F8012B002A6B
:103EB000F8D11046F0BC704781070DD00378002B75
:103EC000F8D0431C02E00278002AF3D013F0030F6D
:103ED000184603F10103F6D10368A3F1013222EA87
:103EE000030313F0803F0AD1031D184653F8042B37
:103EF000A2F1013121EA020212F0803FF5D00378ED
:103F0000002BD7D0431C184601330278002AFAD17F
:103F1000F0BC70471846CDE700000000000000002C
:103F200080EA0102844612F0030F4FD111F0030F13
:103F300032D14DF8044D11F0040F51F8043B0BD071
:103F4000A3F101329A4312F0803F04BF4CF8043BC6
:103F500051F8043B16D100BF51F8044BA3F10132D4
:103F60009A4312F0803FA4F101320BD14CF8043B8C
:103F7000A24312F0803F04BF51F8043B4CF8044BBD
:103F8000EAD023460CF8013B13F0FF0F4FEA33232E
:103F9000F8D15DF8044B704711F0010F06D011F80D
:103FA000012B0CF8012B002A08BF704711F0020FFB
:103FB000BFD031F8022B12F0FF0F16BF2CF8022BE6
:103FC0008CF8002012F47F4FB3D1704711F8012B09
:103FD0000CF8012B002AF9D1704700BF0000000047
:103FE00020F0030110F00300C0F1000051F8043B81
:103FF00000F1040C4FEACC0C6FF000021CBF22FA57
:104000000CF213434FF0010C4CEA0C2C4CEA0C4C14
:10401000A3EB0C0222EA030212EACC1204BF51F80D
:10402000043B0430F4D013F0FF0F1FBF013013F432
:104030007F4F013013F47F0F18BF0130704700BF6E
:10404000F0B4002A4BD040EA010313F003032DD152
:10405000032A2BD904680D68AC4227D1043A3ED01C
:10406000A4F1013525EA040414F0803F3DD10C464B
:1040700005460EE06B68054666680C46A3F10137FD
:10408000B34227EA030711D1043A28D017F0803F42
:1040900028D1032A00F1040001F10401EAD8561ED8
:1040A0002AB928792279801AF0BC7047561E037805
:1040B0000A7893421BD1E6B1BBB101368B1C044692
:1040C000314405E08B4203F101030BD00028EBD013
:1040D00014F8010F13F8012C9042F3D0E3E71046D7
:1040E000F0BC70470020F0BC70471846DCE718466B
:1040F000D9E73046D8E700BF00000000000000000C
:1041000040EA01039B0770B42BD1032A84BF0B46FE
:10411000054626D9194653F8044BA4F1013626EA80
:10412000040616F0803F05D1043A45F8044B032AF3
:104130001946EFD89AB10C78013A6B1C2C703CB13F
:104140006AB111F8014F013A03F8014B002CF7D185
:104150002AB11A44002103F8011B9342FBD170BC21
:1041600070470546E6E700BF0000000000000000C1
:1041700038B502460C46002511B909E0421C054637
:1041800010462146FFF74CFE0028F7D1284638BDDF
:10419000BDE83840FFF744BE00000000000000000A
:1041A0004FF0010C2DE9F003644600254FF0FF3677
:1041B000631987198B420DD23F5D10F80380B84513
:1041C0002FD21D460124C6EB030C63198B4200EB72
:1041D0000607F1D34FF0010900254C464FF0FF3799
:1041E000C2F800C0631900EB070C99420ED91CF805
:1041F00004C010F80380E0451AD91D460124C7EB1E
:1042000003096319994200EB070CF0D80137013616
:10421000B74226BFC2F8009038463046BDE8F003EA
:1042200070470CD04FF0010C2E4664466544BFE742
:104230000CD04FF001092F464C464D44D2E764455F
:1042400004F10104B4D11D460124B1E74C4504F149
:104250000104C7D11D460124C4E700BF2DE9F04F7A
:10426000ADF2244D164680460D461046194607AA63
:104270001C46FFF795FF07AB0DF21C42039043F875
:10428000044F9342FBD1671E002308A834B1F25CAF
:10429000F91A0133A34240F82210F8D107993046A9
:1042A000039A3144FEF774FF002840F08180DDF866
:1042B0000CC02A468246671E0CF1FF3CCDF808C0B0
:1042C000B444CDF810C0DDF80CC005460196CCF121
:1042D000010CCDF814C008E025B1079A934238BF0D
:1042E000C2EB04039A44002532460AEB040608EBAD
:1042F00002000021B21A00F013FA002853D1002E58
:1043000051D008EB060308A913F8013C51F82330FB
:10431000002BE1D1039A954228BF2A46BA4212D215
:10432000019908EB0A03985C11F802C01144844516
:1043300006D032E011F8010F13F802C084452CD1E9
:104340000132BA42F6D3039B02989D4228BF184619
:104350001CD2DDF810C008EB0A039CF80010DDF851
:1043600008C013F80C20914240F08680DDF804B0BC
:10437000049AAB4406E012F8019D13F801C0E14530
:1043800004D108465A4500F1FF31F4D10135854288
:1043900074D8079DAA44651BA6E7DDF814C0002564
:1043A000E2449244A0E700200DF2244DBDE8F08FD6
:1043B000DDF80CC02A46DDF80CA04FF0000BCCEB6A
:1043C00004030DF12009634538BF6346671E0133BE
:1043D000254607930CF1FF33B444CDF808C0DDF84F
:1043E0000CC00193CCF1010CCDF810C00BEB05040F
:1043F00008EB02000021A21A00F092F90028D2D1A5
:10440000002CD0D008EB040313F8013C59F82330FA
:1044100053BBBA4508EB0B0013D2029B1A7810F875
:104420000A309A4218BF534621D1029A534605E0FA
:1044300012F8011F10F803C08C4518D10133BB429C
:10444000F6D3019B5A1CAFD0DDF804C016F80C104F
:1044500010F80C20914206D113F1FF33A4D3F15C84
:10446000C25C9142F8D0079B9B442246BEE7DDF830
:1044700010C0E3449B44F8E7039887E708EB0A0081
:1044800092E700BF2DE9F04F8046037887B00E46D3
:10449000002B00F001810A789AB184460131012491
:1044A00002E011F8012B5AB1934214BF002404F02A
:1044B00001041CF8013F0D46002BF2D12B7813BBF1
:1044C0001CB1404607B0BDE8F08F08F1010031781B
:1044D000FFF7A6FCAD1B012D18BF0028074608BF3B
:1044E0000046EFD0A844474594BFC7EB0804012419
:1044F0001F2D0CD93846214632462B46FFF7AEFE1B
:1045000007B0BDE8F08F002007B0BDE8F08F294666
:1045100005AA3046FFF744FE059931440090024653
:104520003046FEF735FE002857D1009B8346804673
:104530002246013B019333440293009BC3F10103E4
:10454000039308EB0504B8180021A21A00F0E8F85C
:104550000028D8D1002CD6D0009B9B4528BF5B46B5
:104560009D4214D9F918F05CF21811F8081088422D
:1045700040F08C8007EB080C06E012F8011F1CF8D5
:104580000300884240F0828001339D42F5D8009BB1
:1045900001995B4540F28380029B07EB08091A787A
:1045A00019F801309A427AD1029B06EB0B0A06E019
:1045B00013F801CD19F80200844504D11146534582
:1045C00001F1FF32F4D10BF1010B8B4569D8059B4A
:1045D0009844C3EB050B2246B3E700984FF0000B5D
:1045E00022462B1A8146834238BF0346B144013329
:1045F0000593009B38440190C3F101030293009B93
:1046000003F1FF389A460BEB0504B8180021A21AF3
:1046100000F086F800287FF476AF002C3FF473AFEB
:10462000554598BF07EB0B0014D9019899F8002065
:1046300010F80B309A4224D14A46534607EB0B0040
:1046400005E012F8011F10F803C08C451AD10133A0
:104650009D42F6D8B8F1FF3F43463FF433AF16F81A
:10466000081010F80820914207D113F1FF33FFF42E
:1046700029AFF15CC25C9142F7D0059B9B44224676
:10468000C1E75346029A93449B44F8E703994FF0DD
:10469000000B884498449EE70D4601240EE70099DC
:1046A00091E707EB08000DE70000000000000000A4
:1046B000704700BF704700BF00000000000000000E
:1046C000F8B50C46054611462046164600F070F82F
:1046D00031460746204600F0B5F9002C08DB0029DA
:1046E0002846BCBF0137C6EB01012F606960F8BDE9
:1046F00000292846C4BF07F1FF3789192F60696078
:10470000F8BD00BF00000000000000000000000035
:1047100041F2F860C2F20000704700BF00000000E4
:104720008307C9B270B43FD0541E2AB303788B42BA
:1047300023D0431C04E0FCB1057814468D421CD004
:1047400013F0030F184604F1FF3203F10103F2D115
:10475000032C14D8651E4CB303788B420DD0421C39
:10476000002302E004788C4207D0AB42104603F1EC
:10477000010302F10102F5D1002070BC704741EA4B
:104780000126034646EA064618460433026872408C
:10479000A2F1013525EA020212F0803FDAD1043C91
:1047A0001846032CF0D8D5E71446D1E72046E4E7B5
:1047B000002900F03E8180EA010C48BF49424A1EB0
:1047C00000F01F81030048BF43428B4240F21E812C
:1047D000114200F02381B3FA83F2B1FA81F0A0EB29
:1047E0000202C2F11F0204A000EB02124FF000000F
:1047F000974600BFAFF30080B3EBC17F00BF40EB33
:10480000000028BFA3EBC173B3EB817F00BF40EB77
:10481000000028BFA3EB8173B3EB417F00BF40EBE7
:10482000000028BFA3EB4173B3EB017F00BF40EB57
:10483000000028BFA3EB0173B3EBC16F00BF40EBD7
:10484000000028BFA3EBC163B3EB816F00BF40EB57
:10485000000028BFA3EB8163B3EB416F00BF40EBC7
:10486000000028BFA3EB4163B3EB016F00BF40EB37
:10487000000028BFA3EB0163B3EBC15F00BF40EBB7
:10488000000028BFA3EBC153B3EB815F00BF40EB37
:10489000000028BFA3EB8153B3EB415F00BF40EBA7
:1048A000000028BFA3EB4153B3EB015F00BF40EB17
:1048B000000028BFA3EB0153B3EBC14F00BF40EB97
:1048C000000028BFA3EBC143B3EB814F00BF40EB17
:1048D000000028BFA3EB8143B3EB414F00BF40EB87
:1048E000000028BFA3EB4143B3EB014F00BF40EBF7
:1048F000000028BFA3EB0143B3EBC13F00BF40EB77
:10490000000028BFA3EBC133B3EB813F00BF40EBF6
:10491000000028BFA3EB8133B3EB413F00BF40EB66
:10492000000028BFA3EB4133B3EB013F00BF40EBD6
:10493000000028BFA3EB0133B3EBC12F00BF40EB56
:10494000000028BFA3EBC123B3EB812F00BF40EBD6
:10495000000028BFA3EB8123B3EB412F00BF40EB46
:10496000000028BFA3EB4123B3EB012F00BF40EBB6
:10497000000028BFA3EB0123B3EBC11F00BF40EB36
:10498000000028BFA3EBC113B3EB811F00BF40EBB6
:10499000000028BFA3EB8113B3EB411F00BF40EB26
:1049A000000028BFA3EB4113B3EB011F00BF40EB96
:1049B000000028BFA3EB0113B3EBC10F00BF40EB16
:1049C000000028BFA3EBC103B3EB810F00BF40EB96
:1049D000000028BFA3EB8103B3EB410F00BF40EB06
:1049E000000028BFA3EB4103B3EB010F00BF40EB76
:1049F000000028BFA3EB0103BCF1000F48BF4042F9
:104A000070479CEA000F48BF4042704738BF002003
:104A100004BF4FEAEC7040F001007047B1FA81F238
:104A2000C2F11F02BCF1000F23FA02F048BF40425E
:104A300070470028C8BF6FF00040B8BF4FF000407B
:104A4000FDF7FEBE0029F4D02DE90340FFF7B3FEC9
:104A5000BDE8064002FB00F3A1EB0301704700BF75
:104A6000704700BFAFF30080AFF30080AFF300806A
:104A7000FEE700BFAFF30080AFF30080AFF300802C
:104A800072B641F20060C2F2000080F309884EF66F
:104A90003472CEF200024EF68853CEF200034FF08D
:104AA000404111601A6842F470021A600023E1EE7E
:104AB000103A4EF63C73CEF2000300221A60062331
:104AC00083F31488BFF36F8F40F2000341F20002BA
:104AD000C2F20003C2F2000293420BD2D943114446
:104AE00021F0030119444FF05532043B43F8042FE1
:104AF0008B42FBD141F20003C2F2000383420CD28D
:104B000037491A1D891A21F0030119444FF0553213
:104B1000043B43F8042F8B42FBD108F041FD41F2E6
:104B2000006141F68813C2F20001C2F2000399420B
:104B30000ED2CC431C4424F0030448F21050043439
:104B4000C0F603000023C258CA500433A342FAD16E
:104B500041F688134BF24442C2F20003C2F2010252
:104B600093420AD2D943114421F00301194400228F
:104B7000043B43F8042F8B42FBD1FFF771FF40F257
:104B8000AC1540F25023C0F60005C0F600039D426C
:104B90000BD2EE431E44B6080136043D0024013416
:104BA00055F8043F9847B442F9D1FCF731FB40F285
:104BB000502540F25023C0F60005C0F600039D4288
:104BC0000BD2EE431E44B6080136043D00240134E6
:104BD00055F8043F9847B442F9D1FFF749FF00BFA9
:104BE00003160020AFF30080AFF30080AFF3008026
:104BF000FEE700BFAFF30080AFF30080AFF30080AB
:104C000072B6FEE7AFF30080AFF30080AFF3008031
:104C100000F0DEF900F02CFD00F0FAF900DF00BF33
:104C20004EF63073CEF200035A6822F001025A6049
:104C3000EFF30983683383F30988002383F3118832
:104C4000704700BFAFF30080AFF30080AFF3008088
:104C500008B54FF46D43CEF200034FF44072C0F23A
:104C6000FA52002199600720DA60102100F0E0F884
:104C70000A20202100F0DCF80B206021BDE808406C
:104C800000F0D6B8AFF30080AFF30080AFF3008040
:104C9000202383F311884FF46D43CEF200035B6849
:104CA00013F4006329D0F1EE10FAEFF309834EF606
:104CB0003072CEF200024FF08071D26843F84C1C83
:104CC00043F8082CA3F1680282F3098840F2A85245
:104CD000C1F20002916991F8220088B110688A68D7
:104CE0008168914294BF0022012292B144F61142A0
:104CF000C0F6000243F8502C704783F311887047C8
:104D000010688A688168914234BF00220122002A1B
:104D1000ECD144F61C42C0F6000243F8502C704718
:104D200008B500F0DDF9202383F3118800F090F935
:104D300000F0EEF800F0ACF9002383F3118800F0E6
:104D4000FFF9BDE80840FFF7A3BF00BFAFF3008045
:104D50002DE9F04F2DED108AC1F80CD0D0F80CD011
:104D6000BDEC108ABDE8F08FAFF30080AFF3008098
:104D700008B500F04DF9002383F311882846A047B9
:104D800000F08EFD08BD00BFAFF30080AFF30080E0
:104D900020F0030303F1604303F56143F0B400F036
:104DA00003024409D3F80053D200FF26A400964022
:104DB00004F1604404F5614425EA060501279140A9
:104DC00000F01F0007FA00F045EA0102C3F80023D3
:104DD000C4F880012060F0BC704700BFAFF30080D2
:104DE00041094FF4614230B4203100F01F04012525
:104DF000CEF2000220F0030305FA04F403F160434D
:104E000042F8214003F5614300F00300D3F800238A
:104E1000C000FF2101FA00F022EA0000C3F80003FD
:104E200030BC7047AFF30080AFF30080AFF3008079
:104E300020F0030303F1604303F56D4300F003002A
:104E400010B4C0009A69FF24844022EA0402814021
:104E50000A439A615DF8044B704700BFAFF30080CE
:104E600040F2A852C1F200024CF200339269C0F63F
:104E700002039361FEE700BFAFF30080AFF3008051
:104E800010B582B0FFF7E4FE00F07AFA00F000FA05
:104E900001F03EF901F08CF900F0BAF940F200009F
:104EA0004021C1F2000000F0F3FB41F2000240F2A9
:104EB000A8530121C2F20002C1F2000380F82010C1
:104EC000C261986100F064F8002383F3118862B630
:104ED00040F2A853C1F200034CF2E0429C69C0F6D4
:104EE0000202002140F2500044F66163A261C0F664
:104EF0000003009101224FF4AB61C1F2000000F009
:104F000057FC02B010BD00BFAFF30080AFF30080CC
:104F1000F8B500F03DF940F2A853C1F200039A69D8
:104F200092F8223013B1013B82F82230516A40F2EC
:104F3000C453C1F2000301315162DA681C680132C6
:104F40009C42DA601DD0A768013FA760CFB91E461A
:104F50002268E568E76053601A6000F099F8002362
:104F600083F311882069A847202383F3118800F078
:104F70006FF83468A26840F2C453C1F20003002AFB
:104F8000E6D0F8BDAFF30080AFF30080AFF3008050
:104F900041F69013C2F200031B682BB941F69C53F3
:104FA000C2F200031B685BB14CF240304CF2183186
:104FB000C0F60200C0F602014FF48C7220F0C8BAAD
:104FC000704700BFAFF30080AFF30080AFF3008005
:104FD00041F69013C2F2000310B51B6841F69C54D1
:104FE000C2F200040BB923685BB14CF248304CF2BA
:104FF0001831C0F60200C0F602014FF48C7220F0A6
:10500000A7FA0123236010BDAFF30080AFF3008047
:1050100041F69013C2F2000310B51B6841F69C5490
:10502000C2F200042BB92368002B02DD00232360A9
:1050300010BD4CF264304CF21831C0F60200C0F6DC
:1050400002014FF48C7220F083FA0023236010BD1C
:1050500041F69013C2F2000310B51B6841F69C5450
:10506000002BC2F2000401DD23685BB14CF26C300E
:105070004CF21831C0F60200C0F602014FF48C72F7
:1050800020F066FA0123236010BD00BFAFF300805B
:1050900041F69013C2F2000310B51B6841F69C5410
:1050A000002BC2F2000405DD2368002B02DD002383
:1050B000236010BD4CF28C304CF21831C0F6020067
:1050C000C0F602014FF48C7220F042FA00232360F4
:1050D00010BD00BFAFF30080AFF30080AFF30080DE
:1050E00010B5202383F3118841F69014C2F2000416
:1050F0002268002A05DB41F69C53C2F200031B68BC
:1051000063B14CF294304CF218314FF48C72C0F60B
:105110000200C0F6020120F01BFA226848F60C4398
:10512000C2F200030132196822608A42C8BF1A60C5
:10513000002383F3118810BDAFF30080AFF300802C
:1051400010B5202383F3118841F69014C2F20004B5
:105150002268002A05DD41F69C53C2F200031B6859
:1051600063B14CF29C304CF218314FF48C72C0F6A3
:105170000200C0F6020120F0EBF92268013A226039
:10518000002383F3118810BDAFF30080AFF30080DC
:1051900041F69013C2F200031B68002B07DB41F6B7
:1051A0009C53C2F200031B68002B00DD70474CF2D9
:1051B000A4304CF21831C0F60200C0F602014FF4E0
:1051C0008C7220F0C5B900BFAFF30080AFF3008050
:1051D00041F69013C2F200031B683BB941F69C53A1
:1051E000C2F200031B68002B00DD70474CF2C83090
:1051F0004CF21831C0F60200C0F602014FF48C7276
:1052000020F0A6B9AFF30080AFF30080AFF30080C9
:1052100041F69413C2F200031A46402142F8081BDB
:105220005A607047AFF30080AFF30080AFF30080A7
:1052300010B441F6941340F2C45440F2A851C2F2A3
:105240000003C1F20004C1F200015A68E4688969F0
:1052500014605160816A916090F8204002F1100161
:1052600003F58160814214732ABF03F1080259607B
:105270005A605DF8044B7047AFF30080AFF30080D5
:105280004CF21831C0F602014FF48C7220F060B974
:1052900040F2C453C1F200034FF0FF3100225B60C3
:1052A0001B609960DA607047AFF30080AFF3008055
:1052B000F8B5054616460C461F46FFF769FF002E57
:1052C00018BF002D1CD0DCB140F2C451C1F2000166
:1052D0002F610B68EE609A68944204D91B68A41A87
:1052E0009A68A242FAD35A682B606A608B425D606A
:1052F0001560AC601EBF9A68C4EB02049C60F8BDE8
:105300004CF2D0304CF2E031C0F60200C0F602019F
:10531000512220F01DF9D7E7AFF30080AFF30080F2
:1053200010B50446FFF734FF9CB1E368EBB1236886
:1053300040F2C452C1F2000293421FBF9968A268B2
:1053400052189A6062681360236800215A60E16015
:1053500010BD4CF200404CF2E031C0F60200C0F645
:1053600002016D2220F0F4F8DFE74CF21040C0F6A5
:105370000200FFF785FFDAE7AFF30080AFF30080AC
:1053800040F2A853C1F2000300225B601B605B6126
:105390001B619A60704700BFAFF30080AFF30080DD
:1053A00010B50446FFF7F4FE94F82030002B18BF28
:1053B0000E2B12D0002240F2A853A16884F82020BE
:1053C000C1F200031B689A688A42FBD25A682360C4
:1053D000626020465C60146010BD4CF23040C0F644
:1053E0000200FFF74DFFE5E7AFF30080AFF3008069
:1053F00038B50446202383F31188FFF729FE94F87B
:105400002050032D0ED00D2D10D0ADB14FF0FF3335
:10541000A3622046FFF7C4FFFFF73AFE002383F3A1
:10542000118838BDA36A9A6801329A6094E80C002A
:105430001A6022685360E9E7FFF72AFE2B4683F3E0
:10544000118838BDAFF30080AFF30080AFF3008068
:1054500070B540F2A854C1F200040646FFF7B8FE4A
:105460002368A5691A6885F820600121142085F851
:1054700022005460284683F820102260A361FFF7C1
:10548000D7FE284619F0FCF9002805DBA06929465B
:10549000BDE87040FFF75CBC284626F0C9FDA06956
:1054A0002946BDE87040FFF753BC00BFAFF3008052
:1054B00070B50D4686B00646FFF78AFE6B1C18D005
:1054C00040F2A854C1F2000445F2F132A369294622
:1054D00001A8C0F60002FFF7EBFE3046FFF7B8FF69
:1054E000049B13B101A8FFF71BFFA369986A06B0DC
:1054F00070BD40F2A854C1F200043046FFF7A8FF87
:10550000A369986A06B070BDAFF30080AFF3008066
:1055100070B540F2A855C1F2000504460E46FFF7EB
:1055200057FEA869A3688268A662934213D9FFF761
:1055300037FF0123064684F82030AC61FFF778FE80
:10554000304619F09DF900280ADB20463146BDE8B7
:105550007040FFF7FDBB2046BDE87040FFF720BF5D
:10556000304626F065FDF0E7AFF30080AFF3008032
:1055700070B540F2A854C1F2000414212368A56953
:105580001A6801265460284683F8206085F82210A6
:105590002260A361FFF704FF2846FFF749FE284673
:1055A00019F06EF9002805DBA0692946BDE87040B6
:1055B000FFF7CEBB284626F03BFDA0692946BDE893
:1055C0007040FFF7C5BB00BFAFF30080AFF30080B2
:1055D00070B540F2A856C1F2000601203268B569E4
:1055E0001368AC68336000215E6082F820001346C7
:1055F000B26185F8201000E01B689A68A242FBD8CF
:105600005A682B606A6028465D601560FFF710FEDF
:10561000284619F035F9002805DBB0692946BDE8B0
:105620007040FFF795BB284626F002FDB069294679
:10563000BDE87040FFF78CBBAFF30080AFF3008094
:1056400008B5FFF7C5FD40F2A853C1F200031A6880
:105650009B6992689B689A4200D808BDBDE80840E3
:10566000FFF7B6BFAFF30080AFF30080AFF3008069
:1056700040F2A853C1F200039B6993F822300BB1AA
:10568000FFF7A6BFFFF774BFAFF30080AFF3008052
:105690002DE9F00140F2A852C1F200020024556940
:1056A00080F8214000F12C064FF0020800F14C0771
:1056B0004FF0140C45610261816080F82080C46362
:1056C0008463446284610164506180F822C028616F
:1056D000C7610663C662BDE8F0017047AFF30080A2
:1056E000884203D200F8012B8842FBD1704700BFEB
:1056F0002DE9F84F99460D4604469046FFF748FDC0
:10570000B5F5AC7F2CBF00230123002C08BF43F06C
:1057100001034BB9D9F1010338BF0023B8F17F0F62
:1057200088BF43F0010353B14CF250404CF2644146
:10573000C0F60200C0F60201A6221FF009FF40F2E7
:10574000A856C1F20006A5F1640121440A9F7369BD
:10575000E16044F671500025C0F600004FF0020BE6
:105760004FF0140A0866C1F840904F6404F12C020F
:1057700004F14C0C84F820B084F8215084F822A065
:10578000C4F8088026616361C4F840807461E563F1
:10579000A5636562A56120461C612263E262C4F8CC
:1057A0001CC0BDE8F88F00BFAFF30080AFF30080EE
:1057B0002DE9F04F83B080460C9F894693469A4668
:1057C00000F14C050446FF2604F8016BA542FBD10D
:1057D00008EB0904A54204D2552605F8016BA54241
:1057E000FBD1202383F31188FFF7F2FB53465A467F
:1057F000494600974046FFF77BFF00210446FFF72C
:1058000087FEFFF705FC002383F31188204603B0D1
:10581000BDE8F08FAFF30080AFF30080AFF30080FE
:1058200010B5044658B94CF2B4404CF26441C0F68D
:105830000200C0F602014FF493721FF089FE20238C
:1058400083F31188FFF7C4FB21460620FFF730FEE3
:10585000FFF7DEFB002383F3118810BDAFF3008058
:1058600008B540F2A853C1F200039B6993F82120C8
:105870009862920701BF5A69196911611B694FF05B
:105880000E0008BF5A61FFF7E3FD4CF2C440C0F6BA
:105890000200BDE80840FFF7F3BC00BFAFF3008093
:1058A00010B52023044683F31188FFF791FB2046AF
:1058B000BDE81040FFF7D4BFAFF30080AFF3008026
:1058C00010B5202383F31188FFF782FB40F2A85321
:1058D000C1F200031C69FFF79BFB002383F31188CF
:1058E000204610BDAFF30080AFF30080AFF300801F
:1058F00010B52023044683F31188FFF769FB246960
:1059000040F2A853C1F200039C4208BF0024FFF7F5
:105910007FFB002383F31188204610BDAFF3008086
:1059200038B5D0F1010338BF002353EAD1730446E0
:105930000D460AD04CF200504CF21051C0F6020055
:10594000C0F6020158221FF003FE64602460A560C7
:1059500038BD00BFAFF30080AFF30080AFF300802D
:1059600038B504460D46FFF733FC5CB3A3682268E4
:10597000002B0EDBA2420ED04CF29050C0F602007B
:10598000FFF77EFCA268531E002BA36008DB0020FB
:1059900038BDA242F0D01A46531E002BA360F6DA9F
:1059A000E5B140F2A853C1F2000329469B699C620D
:1059B00062681C605A60032063601360BDE8384071
:1059C000FFF776BD4CF278504CF21051C0F6020051
:1059D000C0F60201FD221FF0BBFDC7E7A2604FF039
:1059E000FF3038BDAFF30080AFF30080AFF300802D
:1059F00010B50446FFF7CCFB14B3A3682268002B54
:105A00000DDBA24206D04CF2E050C0F60200FFF7D8
:105A100037FCA3680133002BA36006DD10BDA24252
:105A2000F1D00133002BA360F8DC23681A68002151
:105A30002260546099621846BDE81040FFF7B0BC80
:105A40004CF2CC504CF21051C0F60200C0F60201EC
:105A50004FF499721FF07CFDCFE700BFAFF30080D9
:105A600010B5044620B1002364602460A36010BD1B
:105A70004CF230604CF24061C0F60200C0F6020108
:105A800058221FF065FDEEE7AFF30080AFF3008012
:105A9000F8B540F2A853C1F2000305469C69FFF730
:105AA00097FB002D5BD0A868002848D0A1688368C8
:105AB0008B421ED290F820308160002B44D0042B02
:105AC00017D103684268866A1360076833467A60B4
