:020000040800F2
:1000000000040020A57D0108EF8600089D5A000825
:10001000EF8600088F5A0008815A0008EF86000812
:10002000EF860008EF860008EF860008E956000812
:10003000735A0008EF860008EF860008C1560008D2
:10004000EF860008EF860008EF860008EF860008BC
:10005000EF860008EF860008EF860008EF860008AC
:10006000EF860008EF860008EF8600085D3600087E
:1000700095360008D13600080D37000849370008CA
:1000800081370008BD370008273A0108755E01086E
:100090008D5E0108A55E0108BD5E0108EF860008BF
:1000A000F153010899530108EF860008AF53010886
:1000B000C5530108DB530108873D01084762010869
:1000C0005F620108EF860008EF860008EF860008EF
:1000D000EF860008CF330108E5330108FB33010840
:1000E000EF860008EF860008EF860008EF8600081C
:1000F0009D3D0108EF860008BF3D0108F937000863
:10010000EF860008EF860008215A0108EF860008F4
:10011000EF860008EF860008EF860008EF860008EB
:100120002F3800085D3800088F380008C1380008F3
:10013000F3380008EF860008EF860008D55E010856
:10014000ED5E0108055F01081D5F0108DB2C010859
:10015000213900085339000885390008EF86000866
:10016000EF860008EF860008EF860008EF8600089B
:10017000EF860008EF860008EF860008EF8600088B
:10018000EF860008EF86000803E00B780370491C37
:10019000401C13005A1E002BF7D1704701E001707C
:1001A000401C13005A1E002BF9D1704710B40023D5
:1001B0001400621E002C06D003780C781B1B491C0F
:1001C000401C002BF4D0180010BC704700E0401C0D
:1001D0000278002A02D002788A42F8D1007870476B
:1001E000F8B504000D00E66AAE4231D0207900284F
:1001F00020D00123320014F13001607801F03BFE81
:10020000002801D0012024E000202071206AE1694B
:10021000081886420ED2E77809E0E06986190123C2
:10022000320014F13001607801F025FE7F1EFFB22C
:10023000022FF2DA002D0BD001232A0014F1300135
:10024000607801F0EBFD002801D0012001E0E562BB
:100250000020F2BD38B5040000212000FFF7C0FFE8
:100260000500EDB2002D5DD12078032852D16079D0
:1002700000284FD00020E0624FF40072002114F1FA
:100280003000FFF78BFF552084F82E02AA2084F857
:100290002F02522084F83000522084F8310061206F
:1002A00084F83200412084F83300722084F814026C
:1002B000722084F81502412084F81602612084F827
:1002C0001702206984F81802206980B2000A84F8B5
:1002D00019022069000C84F81A022069000E84F8C3
:1002E0001B02E06884F81C02E06880B2000A84F80F
:1002F0001D02E068000C84F81E02E068000E84F81D
:100300001F020123626914F13001607801F0B3FD2E
:100310000020607100220021607801F0E1FD0028DA
:1003200000D001252800C0B232BD891E8269921E0C
:10033000914201D3002003E08278806A02FB010031
:100340007047F8B504000D00022D02D3A069854264
:1003500001D3012014E02078012804D00ED3032813
:100360004AD032D30AE02E0016EB5606206A10EB74
:1003700056212000FFF734FF002802D05FF0FF3045
:10038000F2BD4FF40070B6FBF0F101FB10610819EB
:1003900090F83070761C206A10EB56212000FFF791
:1003A0001FFF0028EAD14FF40070B6FBF0F101FB0B
:1003B0001061081990F8300057EA0027E80701D5C6
:1003C000380901E03805000DDAE7206A10EB152145
:1003D0002000FFF705FF0028D0D168004FF400711E
:1003E000B0FBF1F202FB11021019303041780078B5
:1003F00050EA012080B2C3E7206A10EBD51120003B
:10040000FFF7EEFE0028B9D1A8004FF40071B0FB51
:10041000F1F202FB110210193030C1788278120417
:1004200052EA0161427851EA022100780843000152
:100430000009A5E7F8B504000D001600022D02D34F
:10044000A069854201D3022082E02078012804D0EF
:100450007BD3032858D040D377E02F0017EB570702
:10046000206A10EB57212000FFF7BAFEC0B2002827
:100470006CD14FF40070B7FBF0F101FB107108195B
:1004800010F13001E80705D5087810F00F0050EAA8
:10049000061000E0300008707F1C01202071206AE7
:1004A00010EB57212000FFF79BFEC0B200284DD172
:1004B0004FF40071B7FBF1F202FB117211193031E8
:1004C000EA0701D5320906E00A7812F0F002330A91
:1004D00013F00F031A430A7038E0206A10EB15215D
:1004E0002000FFF77DFEC0B200282FD169004FF435
:1004F0000072B1FBF2F303FB1213191930310E70C5
:10050000B6B2320A4A7021E0206A10EBD511200001
:10051000FFF766FEC0B2002818D1A9004FF40072A0
:10052000B1FBF2F303FB121319193031CA7812062A
:1005300012F0704216430E70320092B2120A4A70E4
:10054000320C8A70320ECA7000E002200121217143
:10055000C0B2F2BDF8B504000E00022E02D3A069AD
:10056000864201D3022527E0002509E0206910F129
:10057000010F04D02069401C2061012060713E0001
:10058000A069864218D231002000FFF7DAFE07008A
:10059000002F11D0012F01D102250DE017F1010F1D
:1005A00001D1012508E0002231002000FFF742FFC1
:1005B0000500EDB2002DD9D02800C0B2F2BDF8B5CB
:1005C00004000E00002E07D1E768002F02D0A069BA
:1005D00087420DD301270BE031002000FFF7B1FE69
:1005E000022801D2012043E0A169884240D33700AC
:1005F0003D006D1CA069854204D30225AF4201D2A3
:10060000002035E029002000FFF79BFE00281DD1C7
:100610007FF0704229002000FFF70CFFC0B20028D5
:1006200006D1002E04D02A0031002000FFF702FF7F
:10063000C0B2002814D1E560206910F1010F16D076
:100640002069401E20610120607110E010F1010F4F
:1006500001D0012800D10BE0BD42CAD1002007E043
:10066000C0B2012802D15FF0FF3500E0012528006B
:10067000F2BD70B504000D00E580A068012803D02C
:1006800021688969884201D3022048E0002805D109
:1006900021680978032901D12068406A00280ED119
:1006A000E06020680089ADB2854201D3022036E0C7
:1006B0002068406AADB210EB1510206123E021687C
:1006C000897889B20E0100E0AD1BADB2B6B2B54279
:1006D00010D301002068FFF734FE10F1010F01D1A3
:1006E00001201CE0022803D3216889698842EBD3EA
:1006F000022014E0E06001002068FFF716FEADB2B2
:1007000010EB15102061ADB21020B5FBF0F101FB2C
:100710001051206810EB411030306061002070BD36
:10072000F8B504000D00E088461CB6B2002E02D0D9
:100730002069002801D1042089E0B6B21020B6FB60
:10074000F0F101FB1061002974D12069401C206187
:10075000E068002806D120680089B6B2864269D3D5
:10076000042074E0B6B220688078401E10EA161F9C
:1007700060D1E1682068FFF7E4FD0700022F01D295
:10078000022064E017F1010F01D101205FE0206831
:100790008069874248D3002D01D1042057E0E168E9
:1007A0002068FFF70CFF0700002F01D107204EE063
:1007B000012F01D102204AE017F1010F01D10120E0
:1007C00045E000212068FFF70BFD002801D0012043
:1007D0003DE04FF40072002120683030FFF7DEFC6E
:1007E00039002068FFF7A1FD2168C862002505E0F7
:1007F0002068C06A401C2168C8626D1C206880782F
:10080000EDB285420AD220680121017100212068E1
:10081000FFF7E6FC0028EBD0012018E02068C06A52
:10082000EDB2401B2168C862E76039002068FFF71D
:100830007CFD2061E680B6B21020B6FBF0F101FB32
:100840001061206810EB4110303060610020F2BD73
:100850002DE9F04104000D00287830F04000401EE2
:100860000D2101FB00F600275FF00108DFF8F00C16
:10087000385C40194078DFF8E81C795C495D51EA42
:1008800000201FFA88F8B8F1000F11D080B201F0F3
:100890006CFB8046FF2E09D234F8160001F065FB90
:1008A000761C1FFA88F880B2804508D0002018E036
:1008B00080B24FF6FF71884201D0002011E07F1C0A
:1008C0000D2FD3D3287840060AD51FFA88F8B8F13F
:1008D000000F05D034F81600002801D0002000E0F9
:1008E0000120BDE8F08170B40A7812F03F02521E78
:1008F0000D235A4300230124DFF8645C5D5D6D180D
:100900006D78DFF85C6C9E5D765C56EA0525A4B2D6
:10091000002C11D0FF2A01D3002018E02C0020F871
:100920001240521C5B1C0D2BE6D3097849060DD5ED
:10093000FF2A08D300200AE0ADB24FF6FF76B54299
:10094000F0D0002003E0002120F81210012070BC3C
:100950007047F0B44B730F23CB7200230B7300234B
:100960008B760023CB76D2B2531E0D246343002432
:100970002500A4B2ADB24FF6FF76B54202D030F8F2
:1009800013505B1CDFF8D86BA65D7554DFF8D06B95
:10099000A65D7618ADB22F0A7770ADB2002D01D1E9
:1009A0004FF6FF75641C0D2CE4D3ADB24FF6FF7407
:1009B000A54203D030F81300002801D152F04002C4
:1009C0000A70F0BC70477CB5040016001D000B22B5
:1009D0002000FFF7D9FBADB2062D09DBADB2E8036D
:1009E00010EB550031880D18B61C30880028F5D161
:1009F0000720ADB2102195FBF1F202FB115212F16A
:100A00003001C9B23A2900DBC91D00AA8154401E39
:100A1000ADB2102195FBF1F5ADB2002DE9D100A9E1
:100A20007E224254002100E0491C814202D20A5D2C
:100A3000202AF9D10A00511C082803D200ABC35C5C
:100A4000401C00E0202313550829F3D373BD002177
:100A50000B22C9B2CB0113EB510103785918401C8A
:100A6000521E002AF5D10800C0B270472DE9F041AE
:100A7000050000212800FFF7FCFD0400E4B2002C73
:100A800002D02000C0B226E0FF27B84629692868B6
:100A9000FFF7A6FB0400E4B2002C1AD16E6930788F
:100AA000C0B2002801D1042413E0F17A11F03F0113
:100AB000C0B2E52804D00A070FD5C9B20F290CD05F
:100AC000FF2700212800FFF72BFE0400E4B2002CD2
:100AD000DCD02000C0B2BDE8F081C9B20F291ED120
:100AE000E9690029EDD0410606D596F80D8010F091
:100AF000BF000700E9882984C0B2FFB2B8420CD118
:100B0000707B5FFA88F8804507D13100E869FFF70C
:100B10009FFE002801D07F1E00E0FF27D1E7FFB233
:100B2000002F06D13000FFF792FF5FFA88F880456A
:100B3000CFD0FF274FF6FF702884A869C07AC0077E
:100B4000BFD40B22A9693000FFF730FB0028B8D1D1
:100B5000BFE7F8B50400FF26FF2704252069002819
:100B600025D021692068FFF73BFB0500EDB2002D81
:100B70001DD160690178C9B2002901D1042516E0B0
:100B8000C27A12F03F02C9B2E52907D0C9B22E29B4
:100B900004D0130713D5D2B20F2A10D0FF2600219C
:100BA0002000FFF7BDFD0500EDB2002DD6D0EDB25F
:100BB000002D01D0002020612800C0B2F2BDD2B2C9
:100BC0000F2A19D14A0605D5477B11F0BF010E0047
:100BD000E2882284C9B2F6B2B1420BD1417BFFB2A6
:100BE0008F4207D10100E069FFF77DFE002801D0A8
:100BF000761E00E0FF26D2E7F6B2002E04D1FFF702
:100C000026FFFFB2874202D04FF6FF702084CEE766
:100C10002DE9F04184B00400A769E6690C2239008F
:100C200000A8FFF7B1FA9DF80B00C0072CD50020F3
:100C3000F8720020E0615FF0010801E018F101089E
:100C40001FFA88F8B8F1640F0DDA43469BB2320000
:100C500000A93800FFF7B7FE2000FFF707FF0500E7
:100C6000EDB2002DEAD01FFA88F8B8F1640F01D177
:100C70000720A7E0EDB2042D02D02800C0B2A1E009
:100C80009DF80B00F872E6619DF80B0080070ED509
:100C9000002700E07F1CBFB236F817000028F9D10A
:100CA000BFB217F119000D2190FBF1F700E0012709
:100CB00000212000FFF7DDFC0500EDB2002D02D081
:100CC0002800C0B27EE05FF0000846462169206837
:100CD000FFF786FA0500EDB2002D1FD1606900789C
:100CE000C0B2E52802D0C0B200280DD11FFA88F8A2
:100CF000B8F1000F00D1E68818F10108404680B233
:100D0000BFB2B84202D109E05FF000080121200023
:100D1000FFF706FD0500EDB2002DD7D0EDB2002D96
:100D200030D1BFB2022F2DDB310089B22000FFF796
:100D3000A0FC0500EDB2002D24D1A069FFF787FECD
:100D400006007F1E21692068FFF74AFA0500EDB210
:100D5000002D17D13300DBB23A00D2B26169E069ED
:100D6000FFF7F7FD20680121017100212000FFF746
:100D7000D7FC0500EDB2002D04D17F1E380080B2F3
:100D80000028DFD1EDB2002D1AD121692068FFF7CC
:100D900027FA0500EDB2002D12D16669202200214C
:100DA0003000FFF7FBF90B22A1693000FFF7ECF9E7
:100DB000A069C07A10F01800307320680121017119
:100DC0002800C0B204B0BDE8F0812DE9F14F88469B
:100DD000D8F8009001E019F1010999F800002F28D6
:100DE000F9D099F800005C28F5D00098C669002475
:100DF000250002E026F815706D1C14F80970641CBB
:100E0000BFB2202F05DBBFB22F2F02D0BFB25C2FA5
:100E100009D114EB0900C8F80000BFB2202F1FDA77
:100E20005FF004081EE0FF2D01D3062090E0FFB222
:100E30000121380080B201F071F80700BFB2002F25
:100E400001D1062084E0BFB2802FD3DABFB23900CF
:100E5000DFF86807FFF7BAF90028CBD0062077E063
:100E60005FF0000800E06D1E002D09D016EB450074
:100E700030F8027CBFB2202FF5D0BFB22E2FF2D0B7
:100E8000002D01D1062063E0002026F815000B227A
:100E9000202100988069FFF781F9002400E0641C9C
:100EA00036F814002028FAD036F814002E28F6D090
:100EB000002C03D058F0030800E06D1E002D05D073
:100EC00016EB450030F8020C2E28F6D15FF0000931
:100ED000CB465FF0080A01E058F0030836F81470BA
:100EE000641CBFB2002F35D1009880690078E528D6
:100EF00003D10098806905210170BAF1080F01D172
:100F00005FEA89095FFA89F919F00C000C2805D00D
:100F10005FFA89F919F00300032801D158F002089B
:100F20005FEA88700FD45FFA89F919F0030001288D
:100F300001D158F010085FFA89F919F00C00042863
:100F400001D158F008080098806980F80B800020D3
:100F5000BDE8F28FBFB2202FBED0BFB22E2F01D17D
:100F6000AC42B9D1D34501D2AC4213D1BAF10B0F87
:100F700002D158F00308B7E7AC4201D058F003089B
:100F8000A542B1D32C005FF0080B5FF00B0A5FEABB
:100F90008909A3E7BFB2802F10DB0021380080B29F
:100FA00000F0BCFF0700BFB2002F05D0BFB2DFF8D2
:100FB0001006381810F8807C58F00208BFB2002FD5
:100FC00007D0BFB23900DFF8FC05FFF7FFF80028B3
:100FD00003D05F2758F003080FE0BFB2B7F141001C
:100FE0001A2802D259F0020907E0BFB2B7F1610036
:100FF0001A2802D259F00109203F009880690BF8A5
:1010000000701BF1010B69E7F8B50C0004F209014F
:101010000269002A48D04269137B00250EE0F6B22F
:10102000052E00D1E5261F0705D5F6B2B6F141071A
:101030001A2F00D220360E70491C6D1C082D03D2C9
:10104000AE5CF6B2202EEAD1157A202D15D02E25D1
:101050000D70491C08250AE0DF0605D5F6B2B6F189
:1010600041071A2F00D220360E70491C6D1C0B2D23
:1010700003D2AE5CF6B2202EEED1D37A2372D37FA8
:10108000957F2D0455EA0363557F53EA0523157FA9
:101090002B432360537E157E55EA0323A380D37D23
:1010A000927D52EA0322E28000220A70A16900299F
:1010B00026D0E169002923D0A6690025016900290D
:1010C0001CD0018C4FF6FF72914217D0C76901E026
:1010D000A8556D1C3888BF1C010089B200290DD0AD
:1010E000002180B200F01AFF80B2002801D1002553
:1010F00004E0E169491E8D42EAD300250020A8558D
:10110000F1BD13B50400019800782F2803D0019891
:1011100000785C2802D10198401C01900020A0605A
:1011200001980078202813D200212000FFF7A1FAAF
:101130000021616129E0417D027D52EA012189B2ED
:10114000C27E807E50EA022080B250EA0140A06058
:1011500001A92000FFF739FEC0B2002815D12000F8
:10116000FFF784FCA169C97AC0B2002806D0C0B2DA
:1011700004280AD1490700D4052006E0490704D411
:101180006069C17AC906D6D40520C0B216BD10B5B3
:10119000040001230A0014F13001607800F03EFEE3
:1011A000002801D003202DE094F82F0294F82E128D
:1011B00051EA002080B24AF65521884201D002202F
:1011C00020E094F8680094F86710090251EA0040A2
:1011D00094F866100843DFF8F013884201D100202C
:1011E00010E094F8840094F88310090251EA00405A
:1011F00094F882100843DFF8D013884201D1002010
:1012000000E0012010BDF8B5150002681378B3F1B5
:1012100030060A2E05D253783A2B02D1921C026076
:1012200000E00026002E01D00B2098E1DFF89C039F
:1012300050F826400C60002C01D10C208FE1207862
:1012400000280DD0607800F0D2FDC10708D4EDB2BF
:10125000002D03D0400701D50A2080E100207EE167
:10126000002020706670607800F0AAFDC10701D5EB
:10127000032074E1EDB2002D03D0400701D50A2010
:101280006DE1002529002000FFF781FF0600F6B27E
:10129000012E1CD10020C0B2002800D0401EC0B2D8
:1012A00014EB001000F2EE10017900290FD0C17A82
:1012B000827A120452EA0161427A51EA0221007AEA
:1012C00050EA010529002000FFF761FF0600F6B291
:1012D000032E01D1012042E1F6B2002E01D00D20F3
:1012E0003DE194F83C0094F83B1051EA002080B2B4
:1012F000B0F5007F01D00D2031E194F8470094F85B
:10130000461051EA002080B200280DD194F8570011
:1013100094F85610090451EA006094F8551050EA08
:10132000012094F854100843E06194F84010E170F3
:10133000C9B2012904D0C9B2022901D00D200EE1A1
:10134000C9B2484394F83D10A170C9B2002903D036
:101350004A1EC9B2114201D00D2000E194F842109A
:1013600094F8412052EA0121218121891022B1FB08
:10137000F2F303FB1213002B01D00D20EFE094F8E1
:10138000441094F8432052EA012292B2002A0DD16F
:1013900094F8531094F85220120452EA016194F820
:1013A000512051EA022194F850200A4394F83F104A
:1013B00094F83E3053EA012189B2002901D10D2071
:1013C000CDE010FA81F3268913EB16139A4201D26D
:1013D0000D20C4E0D21AA678B2FBF6F2002A01D1A1
:1013E0000D20BCE0012640F6F677BA4200D3022673
:1013F0004FF6F677BA4200D30326921CA2615A191F
:10140000A26215FA81F12162F6B2032E16D120896B
:10141000002801D00D20A2E094F85F0094F85E103F
:10142000090451EA006094F85D1050EA012094F834
:101430005C1008436062A069800015E021890029E2
:1014400001D10D208BE0216A40186062F6B2022EB5
:1014500002D1A069400007E0A06903214843217E32
:1014600011F0010111EB5000E16900F2FF10B1EB46
:10147000502F01D20D2072E05FF0FF30206100207C
:10148000E060F6B2032E5ED10020607194F8610036
:1014900094F8601051EA002015FA80F06061012391
:1014A000626914F13001607800F0B8FC00284AD17C
:1014B00094F82F0294F82E1251EA002080B24AF6D6
:1014C000552188423FD194F8330094F83210090432
:1014D00051EA006094F8311050EA012094F830107D
:1014E00008433B4988422ED194F8170294F816120B
:1014F000090451EA006094F8151250EA012094F8AA
:1015000014120843334988421DD194F81F0294F8FD
:101510001E12090451EA006094F81D1250EA0120DD
:1015200094F81C120843E06094F81B0294F81A1215
:10153000090451EA006094F8191250EA012094F865
:10154000181208432061267023480088401C224955
:101550000880E0800020E062002020710020F2BDC1
:101560009C9E010880B5002806D00278002A03D08E
:10157000C28889B28A4201D0092007E0407800F091
:1015800036FCC00701D5032000E0002002BDC0B238
:10159000002801D00B2010E0C0B20C4A52F82020E5
:1015A000002A01D000231370002901D000220A7004
:1015B000C0B2064A42F820100020704758A6010821
:1015C000A06C010844AC010846415400E8530120D6
:1015D00052526141727241614ABE01202DE9F247C7
:1015E0008DB0040016000020206016F01F0616F0D3
:1015F000FE0200A90DA8FFF706FE07004FF40070D9
:1016000000F0D2FC0500002D01D11120DAE0079591
:1016100009A80690FFB2002F04D10D9900A8FFF78A
:1016200070FD0700DDF81480FFB2002F03D1B8F180
:10163000000F00D106271C20064275D0FFB2002FF4
:101640000BD0FFB2042F03D100A8FFF7E1FA070087
:1016500056F00806DDF8148009E098F80B00112117
:10166000084201D0072702E0700700D50827FFB223
:10167000002F69D1300767D500F046FC814688F815
:101680000E90484680B2000A88F80F005FEA1940C1
:1016900088F810005FEA196088F81100002088F8C7
:1016A0000B00002088F81C00002088F81D00002096
:1016B00088F81E00002088F81F0098F8150098F898
:1016C000141051EA002080B298F81B1098F81A20E4
:1016D00052EA012189B251EA004A002088F81A0032
:1016E000002088F81B00002088F81400002088F8EB
:1016F0001500009801210171BAF1000F24D0009863
:10170000D0F82C9051460098FEF724FF0700FFB256
:10171000002F19D10098BAF10101C1604946009823
:10172000FEF75EFD07000FE0FFB2002F0CD198F826
:101730000B00C00601D5042706E0B00704D598F8D1
:101740000B00C00700D50727FFB2002F08D13007D4
:1017500001D556F020060098C06AE061C4F82080E8
:10176000280000F027FCFFB2002F29D1A67198F8BD
:10177000150098F8141051EA002080B298F81B1058
:1017800098F81A2052EA012189B251EA00402061FA
:1017900098F81F0098F81E10090451EA006098F8A4
:1017A0001D1050EA012098F81C100843E06000204A
:1017B000A0600020A061009820600098C088A080F0
:1017C0003800C0B20EB0BDE8F0872DE9F047050043
:1017D00016001F000C0000203860A9882868FFF759
:1017E000C1FEC0B2002801D0C0B270E0A8790006E6
:1017F00001D502206BE0A879800701D4072066E0BC
:10180000E8683018E96888422DD200262BE0C5F838
:101810001890A8684FF40071B0FBF1F202FB1102BE
:10182000D2F50078464500D2B04642462100A8686D
:101830004FF40073B0FBF3FC0CFB130C1CEB050026
:101840002430FEF7A1FCA87950F04000A87118EBF5
:101850000404A86818EB0000A860386818EB0000C2
:101860003860B6EB0806002E26D0A8684FF4007149
:10187000B0FBF1F202FB1102002ACAD1A868400AAB
:1018800029688978491E11EA00085FFA88F8B8F1DA
:10189000000F30D1A868002808D12869002809D194
:1018A00000212868FEF78BFE286103E0696928683B
:1018B000FEF785FE00280CD1E868A968884201D2AD
:1018C000A868E860A87950F02000A8710020BDE861
:1018D000F087012805D1A87950F08000A871022076
:1018E000F5E710F1010F05D1A87950F08000A8713B
:1018F0000120ECE76861A879400613D50123AA69A5
:1019000015F124012868407800F0B5FA002805D0C8
:10191000A87950F08000A8710120D8E7A87910F0CC
:10192000BF00A87169692868FEF7FFFC8146B9F11C
:10193000000F05D1A87950F08000A8710220C6E7F9
:1019400059FA88F95FEA562ABAF1000F36D02868AA
:1019500080785AFA88F1884205D2286880785FFA40
:1019600088F8B0EB080A5346DBB24A4621002868E3
:10197000407800F080FA002805D0A87950F0800067
:10198000A8710120A3E7A869B0EB0900504510D267
:101990004FF40072A869B0EB09004FF4007101FB2D
:1019A000004115F12400FEF7EFFBA87910F0BF000D
:1019B000A8714FF4007000FB0AF848E7A869484591
:1019C0003FF425AFA868E9688842BFF420AF01233F
:1019D0004A4615F124012868407800F01FFA0028D3
:1019E0003FF415AFA87950F08000A87101206EE790
:1019F00038B50400A1882068FFF7B4FDC0B2002804
:101A000050D1A17989064DD5A07940060FD5012383
:101A1000A26914F124012068407800F02CFA002813
:101A200001D001203FE0A07910F0BF00A071E16972
:101A30002068FEF7D5FBC0B2002833D1256AE87ACA
:101A400050F02000E872E0682877E06880B2000A71
:101A50006877E068000CA877E068000EE8772069F6
:101A6000A876206980B2000AE8762069000C287503
:101A70002069000C80B2000A687500F045FAA8756C
:101A8000010089B2090AE975010C2976000E687611
:101A9000A07910F0DF00A071206801210171206899
:101AA000FEF7D8FBC0B232BD10B504002000FFF72E
:101AB0009FFFC0B2002801D100212160C0B210BD3B
:101AC0002DE9F04104000D00A1882068FFF74AFDD0
:101AD0000600F6B2002E02D03000C0B2CCE0A079F1
:101AE000000601D50220C7E0E068A84203D2A07931
:101AF000800700D4E568A0680027A760002D7BD090
:101B0000216889784FF4007202FB01F8002810D098
:101B1000411EB1FBF8F16A1EB2FBF8F28A4208D30B
:101B2000401EB8F101018843A060A0682D1A6069C9
:101B300019E02069002815D100212068FEF73FFD3B
:101B4000012805D1A07950F08000A071022093E017
:101B500010F1010F05D1A07950F08000A071012093
:101B60008AE020616061002807D145E06061A168DA
:101B700018EB0101A160B5EB0805A84509D2A179D0
:101B800089071ED501002068FEF719FD00281CD129
:101B90004546A1686918A1604FF40071B5FBF1F2E8
:101BA00002FB1152002A27D001002068FEF7BDFB7E
:101BB0000700002F1ED1A07950F08000A0710220F4
:101BC0005AE001002068FEF7BCFB10F1010F05D1BF
:101BD000A07950F08000A07101204DE0022803D3CD
:101BE000216889698842C1D3A07950F08000A07132
:101BF000022041E017EB5527A0684FF40071B0FBBD
:101C0000F1F202FB1102002A2AD0A069874227D0F4
:101C1000A079400613D50123A26914F1240120689C
:101C2000407800F028F9002805D0A07950F0800015
:101C3000A071012020E0A07910F0BF00A071012365
:101C40003A0014F124012068407800F0E7F80028F9
:101C500005D0A07950F08000A07101200CE0A761B0
:101C6000E068A168884205D2A068E060A07950F0E1
:101C70002000A0713000C0B2BDE8F08172B583B021
:101C800004000022210003A8FFF7BDFA0500EDB211
:101C9000002D3FD14FF4007000F086F90600002EB1
:101CA00001D1112038E0E66100A8A061039920006D
:101CB000FFF727FA0500300000F07CF9EDB2002DA7
:101CC00024D16069002816D06069C07AC00611D599
:101CD0006069407D6169097D51EA002080B26169D7
:101CE000C97E6269927E52EA012189B251EA0040BE
:101CF000A06000E00525EDB2002D07D12068C08866
:101D0000A08000212000FEF7B4FC0500EDB2042DF8
:101D100000D105252800C0B204B070BDFEB5040096
:101D20000D00A1882068FFF71DFC0600F6B2002E0A
:101D300032D1002D05D100212000FEF79AFC0600CB
:101D40002AE04FF4007000F02FF90700002F01D1B6
:101D5000112023E0E76100A8A0612000FEF7F9FE52
:101D60000600F6B2042E02D1002020610026F6B251
:101D7000002E0ED129002000FFF746F90021200097
:101D8000FEF7CEFC0600F6B2042E02D10020206140
:101D90000026380000F00EF93000C0B2FEBD50F849
:101DA000041B61B150F8042BD30744BFA9F1010310
:101DB0009A18002342F8043B091FFAD1EFE7704755
:101DC00010B5C0B2002810D100245248007905286F
:101DD00001D054F001044F4800F0F6F8002801D07B
:101DE00054F004042000C0B200E0022010BD10B581
:101DF000C0B2002810D1002446480079052801D03F
:101E000054F00104434800F0DFF8002801D054F0FA
:101E100004042000C0B200E0022010BD38B50C0060
:101E200011001D00C0B2002823D13A4800790528CE
:101E300001D003201EE0374800F053FB002804D0F7
:101E4000012017E014F500746D1EEDB2002D07D0CF
:101E50002100304800F085FB0028F3D0012009E084
:101E60002C4800F0BAFB002801D0012002E000203D
:101E700000E0042032BD70B50C0015001E00C0B299
:101E800000282BD123480079052801D0032026E023
:101E9000204800F099F8002801D002201FE0290016
:101EA0001C4800F0BBFB002804D0012017E014F50B
:101EB0000074761EF6B2002E07D02100154800F0FF
:101EC000EBFB0028F3D0012009E0124800F025FCCC
:101ED000002801D0012002E0002000E0042070BDB5
:101EE000C0B200280ED1C9B2002902D0022902D006
:101EF00006E0002007E04FF400701080002002E0B0
:101F0000042000E00420704780B5034800F090FCF6
:101F100002BD00003C620120A071012080B2802837
:101F200001DA01001EE000290CD080B2FF2801DD9B
:101F3000002106E080B2194911EB4000B0F5807035
:101F400001880FE0002100E0491C89B2802906DAEF
:101F500089B2124A32F8112080B29042F4D111F1C4
:101F60008000C1B2080080B27047002100E0491C27
:101F70000B4A32F81120002A05D0094A32F8112004
:101F800080B29042F3D1064A32F81120002A03D0E1
:101F9000044830F81100FFE780B270474868010834
:101FA000C8620108A864010880B50100002000F0A3
:101FB0005FFC02BD80B500F09EFC01BD80B500F065
:101FC00061FD01BD01207047002070477047FFFC94
:101FD00070B5040015001E00200000F082FA0028F1
:101FE00004D0012014E015F50075761E002E07D0F0
:101FF0002900200000F0B5FA0028F4D0012007E005
:10200000200000F0EAFA002801D0012000E00020C2
:1020100070BD70B5040015001E00200000F0FEFA2F
:10202000002804D0012014E015F50075761E002E5E
:1020300007D02900200000F02FFB0028F4D0012059
:1020400007E0200000F069FB002801D0012000E03B
:10205000002070BD07E0C0B20B7893EA4000DFF8C3
:102060006437C05C491C13005A1E002BF3D1C0B268
:10207000704738B50400002500E06D1C102D0DDA06
:1020800000AA0121E06A006800F0A2FE9DF80000AD
:10209000FF28F2D10CE0012000F07BFF00AA012113
:1020A000E06A006800F094FE9DF80000FF28F2D17D
:1020B00031BD7CB504000E0015002000FFF7D9FFEC
:1020C00056F040008DF80000280E8DF80100280C15
:1020D0008DF80200280A8DF803008DF804500522BF
:1020E00000A90020FFF7B6FF400050F001008DF876
:1020F000050000AA0621E06A006800F02EFE73BD0C
:1021000038B50400002500E06D1C092D0CDA00AA8A
:102110000121E06A006800F05BFE9DF80000FF28E6
:10212000F2D09DF8000000E0FF2032BD70B5040041
:102130000D002000FFF7E4FF06002A000421E06AFA
:10214000006800F045FE3000C0B270BD70B50400FC
:102150000D001600E06A006800F088FD32002900DA
:10216000C9B22000FFF7A5FF2000FFF7C9FF050057
:10217000E06A006800F09AFD2800C0B270BDF8B5B2
:1021800004000D0016001F00E06A006800F06EFDFC
:1021900032002900C9B22000FFF78BFF3900200070
:1021A000FFF7C4FF0500E06A006800F07FFD28002B
:1021B000C0B2F2BD7FB504000E001500E06A0068F1
:1021C00000F054FD00223100C9B22000FFF771FF7A
:1021D0002000FFF795FF002805D0E06A006800F0B6
:1021E00065FD012035E0002600E0761C42F210700B
:1021F00086422DD200AA0121E06A006800F0E8FDC5
:102200009DF80000FE28F0D100AA1021E06A0068C5
:1022100000F0DEFD00A815F10C010CE00278437817
:102220001B0453EA0262837852EA0322C3781A43FA
:102230000A60001D091FA942F0D20221E06A00686D
:1022400000F054FDE06A006800F030FD002000E07E
:10225000012004B070BD10B582B00400E06A0068CF
:1022600000F004FD02E0012000F093FE00AA01212D
:10227000E06A006800F0ACFD9DF80000FF28F2D194
:10228000E06A006800F012FD13BD7047DFF83815F2
:102290000160012101710021C162002180F830102C
:1022A000704738B504000D00002C01D0002D07D177
:1022B00040F29512DFF81415DFF8140500F0BCFEAB
:1022C0002079012806D02079022803D0DFF8040500
:1022D00000F0B5FFE5620220207131BD10B50400A9
:1022E000002C07D14FF4D372DFF8E014DFF8E804D4
:1022F00000F0A2FE2079012806D02079022803D020
:10230000DFF8D80400F09BFFE06A006800F086FC6C
:102310000120207110BD38B50400002C07D140F217
:10232000C312DFF8A814DFF8B80400F085FE2079A6
:10233000022806D02079052803D0DFF8A80400F091
:102340007EFF03202071E06A4168E06A006800F0C7
:102350003CFC1021E06A006800F0C8FC002502E0A7
:102360000A2000F016FE002200212000FFF7EEFEFA
:1023700001280AD100AB4FF4D57208212000FFF7E5
:10238000FEFE05282CD000250DE06D1C0A2DE7D39C
:10239000E06A006800F042FC02202071012032BD9A
:1023A0000A2000F0F6FD002237212000FFF7CEFEC4
:1023B000012817D100ABDFF8302429212000FFF7D6
:1023C000DEFE00280ED100AB00223A212000FFF7EC
:1023D000D6FE9DF80000400602D5012084F83000AA
:1023E000002506E06D1C642DDAD3D1E70A2000F049
:1023F000D0FD002201212000FFF7A8FEC0B2002876
:1024000016D1E06A8168E06A006800F0DEFB4FF4F4
:10241000007210212000FFF799FE00280FD114F15F
:10242000180209212000FFF7C5FE002808D0AFE7F9
:10243000C0B20128ACD16D1C642DD7D3A8E7A7E7A3
:1024400014F1180000F050FFA062A06A00289FD08D
:1024500014F108020A212000FFF7ACFE002897D1F2
:102460000520207100209AE710B50400002C07D148
:102470004FF40B72DFF85413DFF8700300F0DCFD4B
:10248000202080F3118800F051FE2079022806D028
:102490002079052803D0DFF8580300F0D0FE20791A
:1024A000022806D100F051FE002080F311880020A0
:1024B00016E00420207100F048FE002080F311880F
:1024C000E06A8168E06A006800F07FFB2000FFF7A7
:1024D000C2FEE06A006800F0A1FB0220207100202B
:1024E00010BD38B504000D00002C06D140F24F227B
:1024F000B649DFF8000300F09FFD2079052803D0DE
:10250000DFF8F40200F09BFE06202071E06A81688B
:10251000E06A006800F059FBE06A006800F0A6FB82
:1025200094F83000002805D02A0012212000FFF77F
:10253000C0FD07E04FF4007000FB05F212212000FF
:10254000FFF7B7FD2000FFF7DBFD002807D0E06AAA
:10255000006800F063FB05202071012000E00020EE
:1025600032BD70B504000D00002C01D0002D05D146
:1025700040F277229549A14800F05EFD20790628B7
:1025800001D0012028E0002600E0761C42F2107005
:10259000864216DA2A000121E06A006800F018FC81
:1025A0002878FE28F1D12A004FF40071E06A006813
:1025B00000F00EFC0221E06A006800F097FB0020AA
:1025C0000AE0E06A006800F071FBE06A006800F071
:1025D00025FB05202071012070BD38B50400002CBA
:1025E00005D140F29B227949854800F025FD2079EC
:1025F000062801D0012010E0824A0721E06A006825
:1026000000F0ABFB2000FFF77BFD0500E06A0068EF
:1026100000F04CFB05202071002032BD38B50400CD
:102620000D00002C05D140F2B9226849764800F02F
:1026300003FD2079052802D0744800F000FE072031
:102640002071E06A8168E06A006800F0BEFAE06A22
:10265000006800F00BFB94F83000002805D02A0039
:1026600019212000FFF725FD07E04FF4007000FB63
:1026700005F219212000FFF71CFD2000FFF740FDA7
:10268000002807D0E06A006800F0C8FA0520207131
:10269000012000E0002032BD38B504000D00002C00
:1026A00001D0002D05D14FF438724849584800F048
:1026B000C3FC2079072801D001202DE0554A0221D2
:1026C000E06A006800F049FB2A004FF40071E06AFC
:1026D000006800F042FB0221E06A006800F006FB9F
:1026E00000AA0121E06A006800F072FB9DF800007A
:1026F00010F01F00052804D12000FFF7BAFC0020CD
:102700000AE0E06A006800F0D1FAE06A006800F0D0
:1027100085FA05202071012032BD10B50400002C7F
:1027200005D140F2033229493B4800F085FC20796D
:10273000072801D001200CE0384A0221E06A006835
:1027400000F00BFBE06A006800F0B0FA0520207191
:10275000002010BD10B50400002C05D140F21D3240
:102760001A492F4800F068FC2079052801D0012083
:102770000DE008202071E06A8168E06A006800F0DE
:1027800024FA2000FFF767FD05202071002010BD0E
:1027900038B504000D00002C01D0002D05D140F209
:1027A0003B320A491F4800F047FC2079052801D038
:1027B000012005E0A06A68604FF4007028600020E6
:1027C00032BD000048690108848401086C71010869
:1027D0009CA00108ACA001085CA80108BCA00108ED
:1027E000CCA001081C980108AA01004030980108FB
:1027F000449801088088010844840108D88F0108A2
:102800009C880108DCAC0108B888010864840108D0
:10281000F08F0108CE1F0008D48801084233000859
:1028200068A80108DCA0010880B500F08BFD01BD9F
:1028300010B50400002C04D1BB220449044800F068
:10284000FBFB200000F0DEFD10BD0000F873010866
:102850005CA1010880B54D484D4901604B480021FD
:1028600081604A480021C1604A4800F039FE01BD3C
:10287000F8B504000D00002C00D1444CE81DC5083B
:10288000ED0014F1080614F1100000F037FE00E02E
:102890003E00306800281BD037687868A842F7D31C
:1028A000786815F10801884202D23868306009E082
:1028B000E81908303968016079680839491B4160B6
:1028C00030607D603C6000F07AFE17F1080011E096
:1028D00000F075FE206800280BD015F10800216873
:1028E00088470700002F04D03C607D60083738001F
:1028F00000E00020F2BD70B50400002C04D1C62217
:102900002549264800F098FB083C256815F1080683
:1029100015F1100000F0F2FD00E03668B44207D374
:10292000706880190830844202D21D4800F087FC8C
:1029300015F10800864201D0A642EED23068002888
:1029400002D030688442E8D2306820603460606829
:10295000001908302168884208D1606821684968F8
:10296000083108186060206800682060706880196D
:102970000830A04206D1706861680831081870609C
:102980002068306000F01BFE70BD00008810002041
:10299000330901089810002018700108DC9C010818
:1029A000D49401086A48006850F48070684908604F
:1029B0006848006810F44070B0F5007F06D06548A4
:1029C0005FF4803101606348002101606148006864
:1029D00000040BD45F48006850F400705D49086043
:1029E0005C48006850F400405A4908605A48006842
:1029F00030F4007058490860704770B55748046853
:102A000056485FF0FF31016054480021016054488E
:102A1000056853485FF0FF310160514800210160B3
:102A20005048006870F080504E4908604D480021C1
:102A300001604D4806684C485FF0FF3101604A482C
:102A40000021016049484A4901604A48002101606B
:102A50004948072101604948006850F080704749A3
:102A600008604748006850F0010045490860454843
:102A7000006850F0805043490860FFF793FF00F072
:102A80009AFF70BD3F485FF08051016030484FF4BD
:102A9000404101603C48006850F001003A4908603C
:102AA000394800688007FBD53748006810F0F90006
:102AB000354908603548002101603448006810F04D
:102AC0000C0FFAD13048006850F480302E4908606D
:102AD0002D4800688003FBD52D48006850F00100A8
:102AE0002B4908602A4800688007FBD529482A49F5
:102AF00001602548006850F080702349086016483E
:102B000000684004FBD5204800688001FBD51F48C1
:102B100022490160224840F2057101601B480068AB
:102B200050F00200194908601848006810F00C00C5
:102B30000828F9D11B48006850F480401949086002
:102B40001948006850F48040174908607047000039
:102B5000007000407038024004700040103802409D
:102B600014380240203802402438024014E000E0CB
:102B70003F90020018E000E010E000E0FCED00E013
:102B8000001000E04038024000380240083802409F
:102B90007438024004380240085440070094083852
:102BA000003C0240443802406438024080B501F0E5
:102BB0002DF801BD80B50121017000214160002187
:102BC00081600C3000F08CFC01BD38B504000D00B4
:102BD000002C01D0002D06D16D22DFF86C12DFF839
:102BE0006C0200F029FA202080F3118800F09EFA90
:102BF0002078012806D02078022803D0DFF8500280
:102C000000F01DFB6560200001F018F80220207024
:102C100000F09BFA002080F3118831BD10B504004C
:102C2000002C06D18322DFF82012DFF8280200F002
:102C300003FA202080F3118800F078FA2078012828
:102C400006D02078022803D0DFF80C0200F0F7FA53
:102C5000200001F070F8200001F04AF801202070F7
:102C600000F073FA002080F3118810BD10B5040045
:102C7000002C06D19722DFF8D011DFF8E00100F038
:102C8000DBF9202080F3118800F050FA2078022828
:102C900003D0DFF8CC0100F0D2FA200001F043F8B5
:102CA00000F053FA002080F3118810BD10B5040025
:102CB000002C06D1A922DFF89011DFF8A80100F05E
:102CC000BBF9202080F3118800F030FA2078022828
:102CD00003D0DFF8940100F0B2FA200001F02BF8E5
:102CE00000F033FA002080F3118810BD38B50400DD
:102CF0000D00002C01D0002D05D14FF495725249E2
:102D00005A4800F099F9202080F3118800F00EFA5B
:102D10002078022802D0564800F091FA60680068D6
:102D2000002802D0534800F08AFA032020702900BE
:102D3000200001F008F8A068002802D04E4800F0FA
:102D40007EFA4E488069A060022001F0CCF800F0C5
:102D5000FCF9002080F3118831BD70B504000D002E
:102D60001600002C03D0002D01D0002E05D140F21A
:102D700067123549424800F05FF9202080F311883E
:102D800000F0D4F92078022802D03E4800F057FA2B
:102D900060680068002802D03B4800F050FA032029
:102DA000207032002900200000F0F4FFA068002805
:102DB00002D0314800F043FA30488069A060022018
:102DC00001F091F800F0C1F9002080F3118870BD86
:102DD00070B504000D001600002C03D0002D01D0AA
:102DE000002E05D14FF4C2721749284800F024F98B
:102DF000202080F3118800F099F92078022802D071
:102E0000234800F01CFA60680068002802D02148BE
:102E100000F015FA0320207032002900200000F095
:102E2000E3FFA068002802D0134800F008FA134816
:102E30008069A060022001F056F800F086F90020B9
:102E400080F3118870BD000038740108ACA201083D
:102E5000BCA2010824AA0108CCA20108DCA2010836
:102E6000ECA20108FCA20108149B0108289B0108A0
:102E70000CA301081CA301082CA30108D4E800201E
:102E800030AA01083CA301084CA301085CA3010877
:102E90003C9B0108509B010801680A680260080019
:102EA00070478160022280F82020002280F82120D3
:102EB000142280F823204164002101640021C163B1
:102EC00000214162012180F82210002181615449D2
:102ED000016153494969416151494861416908614A
:102EE00010F12C01C16210F130014163016310F156
:102EF0004C01C16170472DE9F843804689461400B2
:102F00001D00089E474600F080F9B8F1000F07D079
:102F1000B9F5067F04D3802C02D22800002804D102
:102F2000A6224049404800F087F819EB08006438B1
:102F3000F860F8680564F8684664F8683B4901661B
:102F400021003800FFF7ADFFBDE8F2832DE9F04125
:102F500082B004000D0016001F00DDF82080202044
:102F600080F3118800F0E2F8CDF800803B003200D9
:102F700029002000FFF7BFFF04000021200001F01E
:102F800025F800F0E2F8002080F311882000BDE869
:102F9000F68110B50400002C05D14FF4937221493D
:102FA000234800F049F8202080F3118800F0BEF893
:102FB0002100062000F0E6FF00F0C7F8002080F3B3
:102FC000118810BD10B50400202080F3118800F096
:102FD000ADF8200000F001F810BD10B510498C6963
:102FE000A06205E014F12C00FFF756FF00F05BFF34
:102FF000E06A14F12C018842F4D194F821000321F5
:10300000084205D1606921690161206961694161F6
:103010000E2000F068FF074800F011F910BD000015
:10302000D4E80020406F010888950108E5580008A1
:103030003C9D01089C95010870B504000D00160028
:1030400001F05AF800281CD128480560284806607D
:103050002848046028484FF480410160200001F0B6
:10306000E3FB2648006800280BD133002A0021002A
:10307000234801F0D5FC4FF47A70FFF78AFF01F086
:103080005FFD70BD0CB438B50C0001F0F6FD050015
:103090001C480068281A01F08DFF0A2803DB1A4833
:1030A0000068002801D1012014E016480560174887
:1030B00002F01AFA154802F00CFA04AA210013488B
:1030C00002F0B8F808A1114802F07CF80F4802F0AD
:1030D0006FFA002032BC5DF80CFB80B50C490B4840
:1030E00002F02BF901BD00002C000000E05301208C
:1030F000E4530120C8E80020180C0240A872012007
:103100008C96010884050020F00D0020DC5201207F
:103110006C9E010880B54D4800684D490968084318
:10312000002802D04B4800F08AF801BD80B547481E
:103130000068474909680843002802D0464800F063
:103140007EF843480121016001BD80B53F48006819
:10315000002803D13E480068012802DA3F4800F009
:103160006EF83B480021016001BD80B5374800681A
:10317000012803DB36480068002802D0384800F0F8
:103180005EF833480121016001BD80B52F48006819
:10319000012803DB2E480068012802DA314800F0DC
:1031A0004EF82B480021016001BD80B5202080F33E
:1031B000118826480068002803D4254800680028A4
:1031C00002D0294800F03BF820480068401C1F4905
:1031D0000860002080F3118801BD80B5202080F3B5
:1031E00011881A480068012803DB19480068002884
:1031F00002D01E4800F023F814480068401E13490E
:103200000860002080F3118801BD80B50F48006878
:10321000002803D40E480068012802DA144800F0A0
:103220000EF801BD80B509480068002803D10848A0
:103230000068012802DA0F4800F001F801BD80B5EE
:1032400040F213120C49FFF7F7FE01BDC0E8002061
:10325000C4E800200CAB0108F886010814AB010893
:10326000A48101081CAB010824AB01082CAB0108A8
:103270005C7E010834AB0108206E0108F8B504003B
:103280000D001600B54202D3A81B202804D3492202
:1032900013491448FFF7D0FE71092022B6FBF2F063
:1032A00000FB12606A0901232026B5FBF6F707FB35
:1032B00016577D1CAB405B1E91420BD254F8211077
:1032C000C14054F822201A40D0F1200012FA00F038
:1032D000084304E054F82110194031FA00F0F2BD1F
:1032E000387301085898010870B50400E068800F31
:1032F000002802D0012818D021E03E2249212000D8
:10330000FFF7BCFF05002F2231212000FFF7B6FF99
:103310000600502253212000FFF7B0FF691CB21CA9
:103320009140093811FA00F00AE0302245212000CE
:10333000FFF7A4FF401C4FF48061484300E00020E9
:1033400070BDFDFF2C482D4901607F202A49096886
:10335000CA224A622849096853224A6228490968F0
:10336000C90624D424490968C96851F08001224A59
:103370001268D16020490968C9684906FAD54FF436
:10338000FA41421CB1FBF2F1491E4904490C51EAD1
:103390000040194909680861174909680861164819
:1033A0000068C06830F0800013490968C860704741
:1033B00011480068C0688006FAD50F4800680069A7
:1033C0004004400C0C4A1268926A801A4FF47A72D8
:1033D0005043094A126812695204520C521CB0FB45
:1033E000F2F0C8600448006800684860024800685D
:1033F0004068086070470000A0710120002800406C
:103400000C28004030B585B00400202080F31188DE
:10341000FFF78CFE00A92000FFF7CAFFFFF795FE1B
:10342000002080F31188019B009913F00F02C3F371
:1034300002100A2404FB00225008C3F30322C3F342
:1034400002340A2505FB042250EA4210C3F303426A
:10345000C3F301540A2505FB0422C3F380530C2453
:1034600004FB032250EAC22011F00F02C1F3011342
:103470000A2404FB032250EA0240C1F30322C1F3F1
:1034800000330A2404FB032250EA4250C1F30342F2
:10349000C1F303510A2303FB0122143250EA4260B4
:1034A00005B030BD10B40A0012688A4203D0936898
:1034B0008468A342F8D2026051684160506041685C
:1034C000086010BC704701680A680260506008001C
:1034D0007047416802680A60016842684A60704744
:1034E00010B50400002C04D1582254495448FFF769
:1034F000A3FD646024600020A06010BD10B504002E
:10350000202080F31188FFF711FE200000F006F85C
:10351000FFF71BFE002080F3118810BD70B504007A
:1035200048488569FFF77EFE002C04D17D2243497F
:103530004548FFF781FDA06800283BD0A66807E05A
:103540003000FFF7C6FFB16AFFF7ACFFB06A8668CC
:10355000B068A968884218D2A868B06096F82000C0
:1035600000280AD00428EBD005280ED13000FFF740
:10357000B0FFB16AFFF796FF07E0012086F8200050
:103580003000FFF7A6FF00F08EFC21002800FFF7B7
:1035900089FFAC62042000F0A6FCA068A84202D01B
:1035A0002A48FFF74CFE286CA04207D02848FFF7B6
:1035B00046FE03E0A560286CE0602C6470BD38B561
:1035C00020488469202080F31188FFF7AFFD206C2C
:1035D000002802D11F48FFF732FE206C8068A0420D
:1035E00002D01D48FFF72BFE256CE8682064286890
:1035F000A8421AD0616C206C09E00268824205D0B2
:1036000002689268914201D201688968C068002806
:10361000F3D1A1602800FFF756FFA860016CE960B4
:103620000564002100F0D2FC01E00020A860FFF753
:103630008CFD002080F31188280032BD5C700108E9
:10364000FC9C0108D4E800200C9D0108E8940108C6
:10365000FC940108109501082495010880B5FFF736
:10366000A4FDDFF8B804006810F03D01DFF8B004F5
:103670000160DFF8B0040068002806D0DFF8A40479
:103680004068DFF8A02412689047FFF7A6FD02F01B
:1036900067F801BD80B5FFF788FDDFF8800400689A
:1036A000800910F03D018801DFF874241060DFF814
:1036B00074048068002806D0DFF86804C068DFF86A
:1036C000642492689047FFF788FD02F049F801BD35
:1036D00080B5FFF76AFDDFF844040068000C10F0C5
:1036E0003D010804DFF838241060DFF83804006971
:1036F000002806D0DFF82C044069DFF8282412697E
:103700009047FFF76AFD02F02BF801BD80B5FFF787
:103710004CFDDFF808040068800D10F03D018805BD
:10372000DFF8FC231060DFF8FC038069002806D076
:10373000DFF8F003C069DFF8EC2392699047FFF7E8
:103740004CFD02F00DF801BD80B5FFF72EFDDFF84E
:10375000D803006810F03D01DFF8D0030160DFF806
:10376000C403006A002806D0DFF8B803406ADFF817
:10377000B423126A9047FFF730FD01F0F1FF01BD5D
:1037800080B5FFF712FDDFF8A0030068800910F094
:103790003D018801DFF894231060DFF88803806A18
:1037A000002806D0DFF87C03C06ADFF87823926A2D
:1037B0009047FFF712FD01F0D3FF01BD80B5FFF781
:1037C000F4FCDFF864030068000C10F03D0108040D
:1037D000DFF858231060DFF84C03006B002806D098
:1037E000DFF84003406BDFF83C23126B9047FFF794
:1037F000F4FC01F0B5FF01BD80B5FFF7D6FCDFF8A2
:1038000028030068800D10F03D018805DFF81C23B7
:103810001060C448806B002804D0C248C06BC14A05
:10382000926B9047FFF7D9FC01F09AFF01BD80B57C
:10383000FFF7BBFCBE48006810F03D01BD480160C9
:10384000B848006C002804D0B648406CB54A126CE9
:103850009047FFF7C2FC01F083FF01BD80B5FFF781
:10386000A4FCB3480068800910F03D018801B14A0A
:103870001060AC48806C002804D0AA48C06CA94AEB
:10388000926C9047FFF7A9FC01F06AFF01BD80B57B
:10389000FFF78BFCA6480068000C10F03D010804FF
:1038A000A44A10609F48006D002804D09D48406DD8
:1038B0009C4A126D9047FFF790FC01F051FF01BD4B
:1038C00080B5FFF772FC9A480068800D10F03D014A
:1038D0008805984A10609348806D002804D091486C
:1038E000C06D904A926D9047FFF777FC01F038FF6A
:1038F00001BD80B5FFF759FC8F48006810F03D010D
:103900008E4801608748006E002804D08548406ECC
:10391000844A126E9047FFF760FC01F021FF01BD61
:1039200080B5FFF742FC84480068800910F03D0133
:103930008801824A10607B48806E002804D0794854
:10394000C06E784A926E9047FFF747FC01F008FF7F
:1039500001BD80B5FFF729FC77480068000C10F026
:103960003D010804754A10606E48006F002804D0BD
:103970006C48406F6B4A126F9047FFF72EFC01F0C6
:10398000EFFE01BD80B5FFF710FC6B480068800DAD
:1039900010F03D018805694A10606248806F002878
:1039A00004D06048C06F5F4A926F9047FFF715FCE4
:1039B00001F0D6FE01BD62480021016000200BE04D
:1039C0000C21604A01FB0021096800220A60554968
:1039D000002241F83020401C1028F1DB50485FF0F5
:1039E000FF31016051485FF0FF31016051485FF0E5
:1039F000FF31016051485FF0FF3101607047F8B559
:103A000004000D0016001F00002C05D140F2CF125B
:103A10004D494E48FFF710FB49480068617AC8409D
:103A2000C00701D5012043E0607A3E4941F830608B
:103A3000607A3C4911EBC0004760414800680121B1
:103A400094F90920914008433D4908603C480078BA
:103A5000000605D03E48006850F400103C4908605C
:103A60003748006810F47F4F05D03948006850F49B
:103A700080003749086020680068400940012168DB
:103A8000086020680068C007FBD43D2094F9081046
:103A90008840616808602068002101602068212159
:103AA0004161002E03D02901A07A01F0B3FE00206D
:103AB000F2BD10B50400002C05D140F2FB122249E2
:103AC0002448FFF7B9FA1E480068617AC840C00769
:103AD00002D42148FFF7B3FBA07A01F0BFFE1848DB
:103AE0000068012194F90920914088431449086035
:103AF00013480078000605D11548006830F400101E
:103B0000134908600E48006810F47F4F05D1104833
:103B1000006830F480000E49086010BD006002406B
:103B20000860024068800120046002400C6002408E
:103B30000064024008640240046402400C640240D5
:103B400064800120446B0108CC6D0108609201087B
:103B500030380240789201089092010810B50400B4
:103B600011F00C0F606A0068006840094001616A4A
:103B700009680860606A00680068C007FAD43D20E0
:103B8000616A91F908108840616A49680860206A92
:103B90000068006840094001216A09680860206ADD
:103BA00000680068C007FAD43D20216A91F9081026
:103BB0008840216A496808606068006800280BD066
:103BC0000420207020006168096888472078042854
:103BD00004D10220207001E002202070202080F318
:103BE0001188FFF7C2FAA068002806D0A06800215B
:103BF000A1600021816200F056F9FFF7C6FA0020AB
:103C000080F3118810BD11F00C0F704780B58B4800
:103C10004FF6FF7101808A48FEF7CCFF884889493A
:103C2000C161874888490162854888494162844862
:103C30008749816282488749C16201BD10B504008D
:103C4000207801282AD17E48A0421DD12300824A33
:103C50000A21206AFFF7D3FEC0B2002802D07F48B5
:103C6000FFF7EDFA23007E4A0A21606AFFF7C7FEDC
:103C7000C0B2002802D07B48FFF7E1FA7A4800681A
:103C800050F4004078490860206A0068E1690C310E
:103C90008160606A0068E1690C3181606068408918
:103CA000000508D4A06A30F4F040A062E06A30F465
:103CB000F040E06209E00520A16A60F3CE21A16234
:103CC0000520E16A60F3CE21E162E0690021018014
:103CD0006068408950F44170E1690880E06907211B
:103CE0008180E069008850F04000E169088010BDE3
:103CF00010B504002078022814D1E0690021018069
:103D0000E06900218180206AFFF7D3FE606AFFF737
:103D1000D0FE4B48A04205D15348006830F4004023
:103D20005149086010BD01214268128991404068E4
:103D30004068418370470121426812899140406880
:103D4000406801837047026A1268484BD360026A78
:103D500012685160026A1268836A1360426A1268CC
:103D6000364BD360426A12685160416A0968C26A80
:103D70000A60016A0968096851F00101026A126863
:103D80001160416A0968096851F00101406A0068E0
:103D90000160704710B4036A1B68344CDC60036A2E
:103DA0001B685960036A1B68846A1C60436A1B684D
:103DB000DA60426A12685160C16A51F48061426AF5
:103DC00012681160016A0968096851F00101026A0C
:103DD00012681160416A0968096851F00101406A7E
:103DE0000068016010BC7047036A1B68DA60026AF1
:103DF00012685160826A52F48062036A1B681A601A
:103E0000426A12680D4BD360426A12685160416A7F
:103E10000968C26A0A60016A0968096851F001010B
:103E2000026A12681160416A0968096851F001016B
:103E3000406A006801607047000000004CBE01202D
:103E4000047B0120003C0040446B0108986B010892
:103E500016000100460001005D3B0008649B01085C
:103E6000073C0008789B0108403802404EBE012004
:103E700001680A6802605060080070474168026883
:103E80000A60016842684A607047974896494860EE
:103E9000954908609448002181609348924948619F
:103EA00091490861704710B50400FFF7AEF994F826
:103EB0002000002803D094F820000E2802D18B485F
:103EC000FFF7BDF9002084F820008748006881686A
:103ED000A2689142FAD220604168616044606068E3
:103EE0000460200010BD38B50500FFF79BF97E483F
:103EF000846984F82050142084F823007A48FFF75E
:103F0000B7FF7949886178488069012180F82010DD
:103F100068466438E169884202D27548FFF78FF934
:103F200021007148806901F0D1FC31BD10B5040059
:103F3000202080F31188FFF718F994F8200000285A
:103F400006D003280AD005280DD00D280BD00DE08F
:103F5000FFF71BF9002080F3118812E0A06A806847
:103F6000401CA16A88602000FFF788FF5FF0FF30E7
:103F7000A0622000FFF797FFFFF707F9002080F30A
:103F8000118810BD30B585B004000D00FFF74AF967
:103F900015F1010F11D054488369564A290000A831
:103FA00001F0BDFC2000C0B2FFF79DFF0398002880
:103FB00007D000A801F0DFFC03E02000C0B2FFF74B
:103FC00092FF49488069806A05B030BD38B5040069
:103FD0000D00FFF727F9A562434880698068A16852
:103FE000884203D32000FFF75EFF15E03E4880695A
:103FF000FFF759FF05003C488461012084F8200048
:1040000068466438E969884202D23948FFF717F9EF
:104010002900200001F05AFC31BD80B5FFF702F9FC
:10402000314880698068304909688968884201D2CE
:1040300000F022F801BD10B52B4884692A48FFF72B
:1040400017FF2949886128488069012180F82010DC
:10405000142084F823002000FFF725FF6846643809
:10406000E169884202D22248FFF7E9F821001E48A0
:10407000806901F02BFC10BD10B51B4884691A48FB
:10408000FFF7F6FE1849886117488069012180F81A
:104090002010002084F8200013480068A16882687E
:1040A0009142FAD3206041686160446060680460B6
:1040B00068466438E169884202D20D48FFF7BFF8CC
:1040C00021000948806901F001FC10BD80B5064857
:1040D000806990F82300002802D1FFF7ACFF01E0CF
:1040E000FFF7CAFF01BD0000D4E800204C9501088D
:1040F0001C9D01082D3F000804480068002801D0DD
:10410000012000E00020C0B2704700BFC8E80020D6
:1041100080B5DFF83417096800290FD0A82148437B
:104120000021002201E05118521C8242FBDB0029D1
:104130000FD1DFF8180701F0BBFC0AE04FF47A71E9
:104140004843401EDFF80817B0FBF1F0401CFEF7B3
:1041500020FF01BDF8B50400DFF8F8060068D0F8CC
:10416000E40B012840F0D480DFF8EC060068D0F8BA
:10417000B40001F0D0FD0500C4F3C01010F001063A
:10418000DFF8D4060068D0F8B40001F0D8FDC4F31D
:10419000C01111F00101F24312F00102103012FAC5
:1041A00000F611F00107DFF8B0060068D0F8B4009F
:1041B00001F0C5FD17FA00F03043A861DFF898065A
:1041C0000068D0F8B00001F0A6FD0500C4F380102F
:1041D00010F00106DFF880060068D0F8B00001F0AA
:1041E000AEFDC4F3801111F00101F24312F001029F
:1041F000103012FA00F611F00107DFF85C060068D3
:10420000D0F8B00001F09BFD17FA00F03043A86130
:10421000DFF844060068D0F8AC0001F07CFD050032
:10422000C4F3401010F00106DFF82C060068D0F847
:10423000AC0001F084FDC4F3401111F00101F24320
:1042400012F00102103012FA00F611F00107DFF847
:1042500008060068D0F8AC0001F071FD17FA00F014
:104260003043A861DFF8F0050068D0F8A80001F03D
:1042700052FD0500C4F3001010F00106DFF8D80568
:104280000068D0F8A80001F05AFDC4F3001111F045
:104290000101F24312F00102103012FA00F411F0A1
:1042A0000106DFF8B4050068D0F8A80001F047FD6A
:1042B00016FA00F02043A861DFF89C050068D0F8EA
:1042C000A40001F028FD04000125DFF88C0500683A
:1042D000D0F8A40001F033FD15FA00F020830A2085
:1042E000FFF716FFDFF870050068D0F8A40001F0B2
:1042F00012FD04000125DFF860050068D0F8A40075
:1043000001F01DFD15FA00F060832820FFF700FF83
:10431000F1BD70B50400DFF840050068D0F8A000DA
:1043200001F0F9FC05000126DFF82C050068D0F843
:10433000A00001F004FD16FA00F068832000C0B26E
:10434000FFF708FF2001C0B2FFF704FF70BD70B592
:104350000400DFF804050068D0F8A00001F0DBFCE1
:1043600005000126DFF8F0040068D0F8A00001F095
:10437000E6FC16FA00F028832000C0B2FFF7EAFE40
:104380002001C0B2FFF7E6FEDFF8CC040068D0F8E9
:10439000A00001F0C0FC04000125DFF8BC040068A7
:1043A000D0F8A00001F0CBFC15FA00F0608370BDDE
:1043B00080B5DFF8A0241268D2F8F42BC0B2824294
:1043C00004DADFF8980401F073FB0DE0DFF89024C5
:1043D000C0B21060C0B2DFF88C2452F82000081878
:1043E0008038C0B2FFF795FF01BD80B5C0B20A2882
:1043F0000BD1DFF86C040068401CDFF8641408601F
:104400000021C0B2FFF7D4FF02E0C0B2FFF79FFF68
:1044100001BD10B5040003E02078FFF7E6FF641C3F
:1044200020780028F8D110BD7CB5DFF82C04006896
:10443000D0F8A40001F083FC0400DFF81C0400683D
:10444000D0F8A40001F067FC01F090FD0500DFF852
:1044500008040068D0F8A00001F071FC0600DFF845
:10446000F8030068D0F8A00001F055FC01F07EFDD3
:104470000200019400953300DFF8EC13DFF8EC0341
:1044800001F05CF8DFF8D0030068D0F8AC0001F070
:1044900056FC0400DFF8C0030068D0F8AC0001F05F
:1044A0003AFC01F063FD0500DFF8AC030068D0F8CA
:1044B000A80001F044FC0600DFF89C030068D0F877
:1044C000A80001F028FC01F051FD01940095330093
:1044D0000200DFF89C13DFF8940301F02FF8DFF8F7
:1044E00078030068D0F8B40001F029FC0400DA4831
:1044F0000068D0F8B40001F00EFC01F037FD0500B3
:10450000D5480068D0F8B00001F019FC0600D24888
:104510000068D0F8B00001F0FEFB01F027FD019427
:10452000009533000200D349D04801F007F873BD6D
:1045300070B5D149CD4800F000FFD049D04801F016
:1045400073FEC4480068D0F8E40B032807DBC148B9
:104550000068D0F8E41BCB4801F0AAFA63E1BD483B
:104560000068D0F8E42BC849C04800F0CAFFB94839
:104570000068D0F8E40B012840F01A81B6480068C2
:10458000D0F8A00001F0DBFB0400B3480068D0F8CD
:10459000A00001F0C0FB010001232200BB4801F094
:1045A00097FDAD480068D0F8A40001F0C8FB0400F6
:1045B000A9480068D0F8A40001F0ADFB0123220057
:1045C0000100B34801F084FDA3480068D0F8A800BA
:1045D00001F0B5FB0400A0480068D0F8A80001F085
:1045E0009AFB012322000100AA4801F071FD9A48BC
:1045F0000068D0F8AC0001F0A2FB04009648006807
:10460000D0F8AC0001F087FB012322000100A24892
:1046100001F05EFD90480068D0F8B00001F08FFB1B
:1046200004008D480068D0F8B00001F074FB01234D
:1046300022000100994801F04BFD87480068D0F83E
:10464000B40001F07CFB040083480068D0F8B4009B
:1046500001F061FB012322000100914801F038FDC7
:104660007D480068D0F8A00001F055FB04007A48AE
:104670000068D0F8A00001F062FB0121103011FAAF
:1046800000F5002674480068D0F8A00001F057FB40
:1046900016FA00F02843A0616F480068D0F8A40023
:1046A00001F039FB04006C480068D0F8A40001F068
:1046B00046FB0121103011FA00F50026664800681B
:1046C000D0F8A40001F03BFB16FA00F02843A061EB
:1046D00061480068D0F8A80001F01DFB04005E48A6
:1046E0000068D0F8A80001F02AFB0121103011FA6F
:1046F00000F5002658480068D0F8A80001F01FFB1C
:1047000016FA00F02843A06153480068D0F8AC00C6
:1047100001F001FB040050480068D0F8AC0001F043
:104720000EFB0121103011FA00F500264A480068FE
:10473000D0F8AC0001F003FB16FA00F02843A061AA
:1047400045480068D0F8B00001F0E5FA040042489E
:104750000068D0F8B00001F0F2FA0121103011FA2F
:1047600000F500263C480068D0F8B00001F0E7FAF8
:1047700016FA00F02843A06137480068D0F8B4006A
:1047800001F0C9FA040034480068D0F8B40001F020
:10479000D6FA0121103011FA00F500262E480068E3
:1047A000D0F8B40001F0CBFA16FA00F02843A0616B
:1047B0001420FEF7EEFB3020FFF7CCFC0120FEF7C3
:1047C000E8FB3020FFF7C6FC3020FFF7C3FC2020B9
:1047D000FFF7C0FC0120FEF7DCFB2020FFF7BAFC4E
:1047E0008020FFF7B7FC0120FEF7D3FB0820FFF77E
:1047F00090FD0120FEF7CDFB0120FFF78AFD02208E
:10480000FEF7C7FB0620FFF784FD0220FEF7C1FB81
:104810000C20FFF77EFD00210020FFF7C9FD214994
:10482000124800F06EFE70BD10B50400064801216C
:10483000016000210020FFF7BBFD1B48FFF7E9FDE9
:104840002000FFF7E6FD10BD705F01207CAC010881
:1048500040420F00440500204805002090A70108B1
:10486000745F01200CA00108D08E01086C5E01204D
:10487000E88E0108008F0108FC9F01082944000808
:1048800084AC01082C8801087C9701088CAC0108D5
:1048900094AC01089CAC0108A4AC0108ACAC0108C4
:1048A000B4AC0108188F0108BCAC010880B52E22F9
:1048B00073497448FEF7C0FB01BD80B501F017F9DC
:1048C0000100714801F0F4F801BD80B56F497048EE
:1048D00000F017FE01F00BF940F6765302006D4927
:1048E0006B4800F00EFE6C4A6C49694800F009FE06
:1048F0006B49674800F005FE6A4A6B49644800F05E
:1049000000FE4FF47A726949614800F0FAFD5FF4E5
:10491000E13267495E4800F0F4FD022265495C48D7
:1049200000F0EFFD644A6549594800F0EAFD644A29
:104930006449574800F0E5FD634A6449544800F073
:10494000E0FD634A6349524800F0DBFD5C4A62497E
:104950004F4800F0D6FD802260494D4800F0D1FD5F
:1049600001225F494A4800F0CCFD01225D494848D8
:1049700000F0C7FD01225C49454800F0C2FD01225C
:104980005A49434800F0BDFD01225949404800F012
:10499000B8FD012257493E4800F0B3FD00225649B8
:1049A0003B4800F0AEFD00225449394800F0A9FD13
:1049B00001225349364800F0A4FD012251493448F0
:1049C00000F09FFD0520FEF7E4FA01BD1FB54E483B
:1049D00000F026F801F0C4FD0400A0690390606AAD
:1049E000029094F82000494951F82000019094F871
:1049F0002200401E0090A36800222100444800F0DD
:104A00000FF8200001F0C0FD0400002CE5D11FBD0F
:104A100080B50B0002003F491D4800F08FFD01BD2D
:104A20000EB430B5040001F023FE002806D003AD1B
:104A300001F079FE2A00210001F085FF30BC5DF80D
:104A400010FB80B500F0FAFD01F0B5FC324801F032
:104A50009FFE32490E4800F070FCFFF736FF3049E8
:104A6000304801F0E1FB3049304801F0DDFB3049CE
:104A7000304801F0D9FB3049304801F0D5FB01BD89
:104A8000B8740108BC9D0108EC9501082871010863
:104A9000E43D0120CC9D01089CAB0108C4810108C4
:104AA000EC7A010880760108F8A50108DC9D010870
:104AB000EC9D0108E4810108406F4001FC9D010864
:104AC00000BD010500960108007A030A149601084A
:104AD00080DE80020C9E01081C9E010804820108F1
:104AE000848701082896010824820108448201086D
:104AF000988D01083C9601086482010884820108AF
:104B0000A0870108509601082078010808050020B8
:104B10009C7B010804AC0108B36400080CAC0108DC
:104B2000CB48000814AC0108AD4800081CAC0108D3
:104B3000BB48000824AC0108CD49000828A601089C
:104B400072B6FEE780B5DFF8C40302F011FBDFF8B0
:104B5000C00302F06FFB01BD10B5DFF8B803806938
:104B6000DFF8B41381610DE00021012000F0FDFFAA
:104B70003220FEF70EFA0121012000F0F6FF32206C
:104B8000FEF707FA02F0ABFB0400DFF8900302F037
:104B9000B6FB012803DB002C01D1012000E000203E
:104BA000C0B20028E0D12100012000F0DEFF642027
:104BB000FEF7EFF9E6E780B502F0E6FE02F000FE50
:104BC0006E2102F09BFF02F01BFE02F0D9FD732163
:104BD00002F094FF01BD38B5D1480068D0F88000DC
:104BE000502837D03E2000F0EAFF0400002C11D0FE
:104BF00002F006FECB480068D0F8C00B00EE900A29
:104C0000F4EE400AF1EE10FA01D5012500E000258E
:104C1000EDB210E002F0F4FDC2480068D0F8BC0B21
:104C200000EE900AF4EE400AF1EE10FA01D50125EB
:104C300000E00025EDB2AC420CD0002D01D08BA2DB
:104C400000E08BA2B849B94800F078FC29003E206A
:104C500000F08BFF31BD80B50022B5480168AC483B
:104C600002F0EFFAA822002302F070FF04BDB14861
:104C7000C0680121B0FBF1F07047AE48C0684FF446
:104C80007A71B0FBF1F0704780B50122A848016845
:104C90009F4802F0D6FAFFF78EFFFFF79CFF002334
:104CA000A54A0A21A54802F0E1FF01BD80B5002315
:104CB000A14A0A21A14802F0D9FF01BD80B53D20DB
:104CC00000F07DFF002809D095480068806801F059
:104CD000B1F902009A49954800F030FC3D2000F0FF
:104CE00035FF01BD80B500291DD13D2000F067FFD3
:104CF00000280ED18A4800688068502809D088486A
:104D00000068806801F096F902008E49874800F03B
:104D100015FC3D2000F014FF00238B4A4FF47A610C
:104D20008A4802F0A3FF01BD80B500228849894866
:104D300002F0EDFF002200210020FFF7D3FF01BDAC
:104D400038B504000D00200003F061F901F00EF900
:104D50000100280003F098FB200003F0A9F90100EE
:104D6000A81C00F09BF9280032BD70B52DED028B18
:104D700086B004000D00B0EE408A6A480068D0F8A2
:104D8000B00B00EE100A68EE008A73492800FFF7A6
:104D9000D7FF060018EE900A03F098FBCDE9040156
:104DA00018EE100A03F092FBCDE9020100962B00E9
:104DB00022006A495D4800F0C1FB06B0BDEC028BE1
:104DC00070BD38B504000D00280003F0FBF803F0B7
:104DD000A5FB0022624B03F0B9FB0022614B03F0FC
:104DE00087FC03F0A9FD00EE100A29002000FFF760
:104DF000BCFF31BD80B54B480068D0F8F81B3DA022
:104E0000FFF7DFFF47480068D0F8541C3AA0FFF7CF
:104E1000D8FF44480068D0F8581C38A0FFF7D1FFED
:104E200040480068D0F85C1C35A0FFF7CAFF3D4839
:104E30000068D0F8601C33A0FFF7C3FF3948006852
:104E4000D0F8F01130A0FFF7BCFF36480068D0F86A
:104E50008C1C4548FFF7B5FF03F0D5FD31480068CD
:104E6000D0F84C1C4148FFF780FF01BD4F4E0000B9
:104E70004F46460080B500F018FE002838D13C4966
:104E80002A4800F05AFA03F0E7FD03F043FE03F06E
:104E9000B6FE03F0D3FE03F0A1FF02F045FB04F0E1
:104EA00063F9FFF703FF00200090324B02224FF41A
:104EB00026713148FEF74AF804F0E6FA04F0FBFBED
:104EC00004F024FC02F0E0FD04F0D3FC04F0E5FD66
:104ED0002A4801681348006805F04BF82849134830
:104EE00000F02CFBFFF720FF2649274801F09CF932
:104EF00001BD000054505300434C5400494154003C
:104F00004D414600414652004D4150005816002088
:104F1000083E0020D4E800202CAC0108C452012037
:104F200048050020440500203C9E0108C051012096
:104F3000041000E03CE90020894C00089851012051
:104F4000B08D010864960108BD4C0008AC510120E9
:104F500034A60108E54C0008CC520120A47E0108CB
:104F60000000084000FEAF4034AC01083CAC010832
:104F700078960108594B0008183E00204C05002087
:104F80004C9E0108F54D000840A601082DED010AD0
:104F900000986F49884201D1012000E00020C0B292
:104FA00001B07047B5EE400AF1EE10FA01DCB1EE47
:104FB000400A7047002800D540427047F4EE400A8E
:104FC000F1EE10FA01D4B0EE600A704738B5040073
:104FD0000D00200005F040F80100002000E0401C1A
:104FE000884204DA025DEDB2AA42F8D101E05FF036
:104FF000FF3032BD38B50400200005F02DF8010067
:10500000002901D153481AE020782D2804D1601CD2
:10501000FFF7F0FF404212E00020002205E0DBB283
:10502000303B0A2505FB0030521C8A4207DA135D2B
:10503000DBB2B3F130050A2DF1D34748FFE732BDAB
:1050400010B400F20B04B1FBF2F302FB1313303384
:105050003A2B00DBDB1D641E2370B1FBF2F100294B
:10506000F1D110F10B010B1B21780170641C401C65
:105070005B1E002BF8D110BC704780B5002908D505
:105080002D230370401C4942FFF7DAFF0021017015
:1050900003E0FFF7D5FF0021017002BD80B50A22B1
:1050A000FFF7EBFF02BD000038B52DED028B0400C9
:1050B000200004F0D1FF642802D39FED240A41E0D0
:1050C0002100264803F0E0F9244C2E212000FFF7B0
:1050D0007DFF050015F1010F07D12000FFF78AFFC2
:1050E00000EE100AB8EEC00A2CE00020285520007F
:1050F000FFF780FF08EE100A2819441C200004F076
:10510000ABFF05002000FFF775FF08EE900AB7EE31
:10511000000A00240CE010EE100A03F0D7F9002278
:105120000F4B03F013FA03F007FC00EE100A641CA7
:10513000AC42F0DBF8EEC80AB8EEE81A81EE000ADD
:1051400030EE800ABDEC028B31BD0000FFFFFF7F17
:105150000000C07F3041AB00D0BE54FFE83E0120CC
:105160000000244070B504000D001600D4F8F400CF
:10517000002806D12168DFF8E40400F099FC012042
:105180001FE0200000F03DFAD4F8FC10491E28185A
:10519000814215DADFF8C814201D03F075F9216883
:1051A000201D04F074FFACA1201D04F070FF31003D
:1051B000201D04F06CFF201D00F07AFC012000E0AF
:1051C000002070BD70B504000D00002D04D1DFF883
:1051D000940400F06DFC14E0280004F03DFF06008C
:1051E0002A0031002000FFF7BDFF002809D1290067
:1051F000D4F8F80003F048F9D4F8F8003018C4F8EF
:10520000F80070BD10B50400DFF85C040023C36033
:10521000DFF8540401F097FBDFF84C04C068DFF8B6
:105220004814496800224254DFF840142000FFF778
:10523000C9FF10BDF8B504000D001600DFF83004FA
:105240000078002804D1DFF82C0400F031FC2DE0B8
:1052500002F0FDFC070002F0F1FC002F05D0320047
:1052600029002000FFF7CEFF20E000280FD12020EA
:1052700080F31188FDF75AFF320029002000FFF764
:10528000C1FFFDF762FF002080F311880EE02020AF
:1052900080F31188FDF769FF320029002000FFF735
:1052A000B1FFFDF772FF002080F31188F1BD0CB44F
:1052B00080B502AAFFF7BEFF01BC5DF80CFB80B50C
:1052C000C0B200280BD002280DD00ED304280ED077
:1052D00007D306280ED00FD307280FD011E094A0D3
:1052E00014E094A012E094A010E0AEA00EE0DFF86D
:1052F00088030BE0ACA009E0ACA007E0DFF87C037A
:1053000004E0DFF87C0300F0D3FB002002BDF8B519
:1053100004000D0016001F002900DFF86803FFF7E6
:105320007FFB2560C4F8F460C4F8FC70200000F036
:10533000DBF8D548C4F80001F1BD80B5C82310F1F1
:105340002C02FFF7E4FF01BD38B504001500200072
:10535000FFF738FFB8A12000FFF734FFB6A32A00FB
:10536000CA492000FFF7A3FF31BD10B50400012991
:1053700009D04AD303291CD010D305292FD023D319
:10538000062937D041E010EE100A03F09FF8020022
:105390000B00BF492000FFF78AFF40E010EE100A23
:1053A00003F094F802000B00BA492000FFF77FFFDA
:1053B00035E010EE100A03F089F802000B00B64940
:1053C0002000FFF774FF2AE010EE100A03F07EF8C9
:1053D00002000B00B1492000FFF769FF1FE010EE4B
:1053E000100A03F073F802000B00AD492000FFF72C
:1053F0005EFF14E010EE100A03F068F802000B00E4
:10540000A8492000FFF753FF09E010EE100A03F04F
:105410005DF802000B008FA12000FFF748FF10BDD0
:1054200038B52DED028B0400B0EE408A1500200047
:10543000FFF7C8FE80A12000FFF7C4FE2900B0EEF0
:10544000480A2000FFF791FF7BA12000FFF7BAFE7A
:10545000BDEC028B31BD00002F00000070B50400D0
:10546000200004F0F9FD05008F49904803F00CF886
:1054700004F0F2FD8D49461829003000FFF70EFEBA
:1054800006003A203070761C00203070761C260012
:10549000AE190D203070761C0A203070761C01F099
:1054A000E7F800280AD0814804F0D6FD01007F48C3
:1054B00001F05EF9311B200001F05AF970BD10B502
:1054C0000400D4F8F400FFF7C9FF200000F00CF846
:1054D00010BD80B558A27649FFF7E9FE01BD80B541
:1054E00055A1FFF76FFE01BD80B5D0F8F41000297B
:1054F00004D101686F4800F0DBFA01E0C0F8F81051
:1055000001BD0CB438B504000D002000FFF7E1FF29
:1055100004AA29002000FFF78DFE47A12000FFF715
:1055200051FE2000FFF7CBFF31BC5DF80CFB000003
:1055300052504D00545000004D4154000CB438B549
:1055400004000D002000FFF7CFFF2000FFF7C1FF90
:1055500004AA29002000FFF76DFE2000FFF7BFFF1F
:10556000200000F025F831BC5DF80CFB70B504009C
:105570000D0016002000FFF7B7FF29002000FFF7FD
:1055800021FE2DA12000FFF71DFE320032A12000D8
:10559000FFF78DFE28A12000FFF714FE200000F089
:1055A00007F870BD434C54004D4146004D4150003A
:1055B00070B50400D4F8F40004F04EFD050001F0CD
:1055C0001DF906003C4804F047FD281842F2283136
:1055D000884208DBF6B2002E01D101F024F9200048
:1055E000FFF782FF0CE0D4F8F410334804F04FFDCD
:1055F000F6B2002E01D101F016F92000FFF774FF7A
:1056000070BDD0F8F810D0F8F400081A704780B5D3
:1056100001F0F4F82849294802F036FF2648002115
:10562000017001F000F9254804F016FD002802D0B1
:105630002248FFF713FF01BD2C00000080B50023B6
:105640004FF4FA620949084804F07EFD0848012138
:10565000017001BD25660000256400004C8701082B
:1056600068870108BCA50108F03501200436012037
:1056700052BE0120C07A010864AB01086CAB01087E
:10568000808D0108D89501080939B20274AB010870
:105690007CAB010884AB0108C8A50108D4A50108AA
:1056A000E0A50108ECA501088CAB0108D43D012060
:1056B00094AB0108AC9D0108A0EF0020C8120120A6
:1056C00080B5FDF772FD202080F31188FDF74DFDB8
:1056D00004F079FDFDF759FD002080F31188FDF7F6
:1056E0007CFD00F03DF801BDEFF309806830416EAC
:1056F0003D4A11603D49096868313C4A116080F3B8
:105700000988002080F31188704780B5384800214F
:10571000016038483849016033485FF0404101601A
:105720003648006850F4700034490860EFF3148084
:1057300050F0040080F314880020E1EE100A304895
:10574000002101601021072000F0A3F84FF4007140
:105750000A2000F09EF880210B2000F09AF801BD8D
:10576000202080F3118827480068000538D5EFF322
:105770000980683880F309885FF08071C16122492F
:10578000896991F8231000290CD01F49896989681B
:105790001D4A12689268914201D2012100E0002165
:1057A000C9B20BE0184909688968174A926992687A
:1057B000914201D3012100E00021C9B2002904D0A7
:1057C00012498161F1EE101A01E011498161064927
:1057D0000968C0F8CC1051F001000349086002E0EC
:1057E000002080F31188704734EF00E038EF00E0CC
:1057F00008ED00E00CED00E00003FA0588ED00E0A4
:105800003CEF00E004ED00E0D4E80020F758000889
:105810000359000810B410F00302D2008308264C8C
:1058200054F82330FF249440A34391401943820845
:10583000214B43F822104109204A012310F01F0494
:10584000A34042F8213041091D4A012310F01F00F6
:1058500013FA00F042F8210010BC704730B410F089
:105860000301C9004209174B012410F01F05AC4089
:1058700043F822408208104B53F82220FF2313FAEA
:1058800001F132EA010180080B4A42F8201030BCD5
:10589000704710B410F00302D20083080A4C54F889
:1058A0002330FF249440A343914019438008064AC3
:1058B00042F8201010BC704700E400E080E200E0F5
:1058C00000E100E080E100E018ED00E02DE9F04F9C
:1058D0002DED108AC1F80CD0D0F80CD0BDEC108A98
:1058E000BDE8F08FFDF731FC002383F311882846D3
:1058F000A047FDF767FBFDF719FCFEF7E7FBFDF797
:1059000024FC00DF2E482E4948602D4908602C48B1
:105910005FF0FF3181602A480021C1607047F8B50F
:1059200004000D0016001F00FDF76FFC002C04D0D2
:105930003000002801D0002D04D1512221492248F5
:10594000FDF77AFB2761E6601D48006802E0816888
:105950006D1A00688168A942F9D3206041686160CE
:10596000446061680C60A5601549884202D0816876
:10597000491B8160F1BD10B50400FDF746FC002C09
:1059800004D16D220F491148FDF756FBE06800284D
:1059900002D10F48FDF753FC20680949884205D021
:1059A00020688068A168081821688860606821689C
:1059B00001602068616841600020E06010BD000067
:1059C0003CE90020E47001084C9D01085C9D010841
:1059D000B0950108BFF34F8F4648006810F4E060AF
:1059E0004549084343490860BFF34F8FFEE780B540
:1059F0000023C8224149424804F0A6FBFDF76DFB95
:105A000000F03AFBFFF71DF83E493F48FFF795FCD1
:105A10000FF23D013D4800F007FC3B4804F060FCFC
:105A200004F069FFFFF726FA05F02CF804F088FF70
:105A30003748FEF7F5FF37480121016004F0FEFD0D
:105A40000520FDF7A6FAF9E780B5FFF7C3FF01BD12
:105A500080B531492C48FFF771FD00F0B7FE0023F7
:105A60002E4A41F288312E48FFF759FF00F0CAFE56
:105A700001BD80B5BF222B492B48FDF7DDFAFEE7BB
:105A800080B5C72227492948FDF7D6FAFEE780B539
:105A9000CF2224492648FDF7CFFAFEE780B5D7226A
:105AA00020492448FDF7C8FAFEE7234800787047EC
:105AB0000EB418B5040020480078002814D1012144
:105AC000022000F052F81C48012101700C4800210E
:105AD000C16003AA21000A4800F035FF0848C068E9
