:020000040800F2
:100000000004002011360008D1380008D13800085B
:10001000D1380008D1380008D1380008D13800089C
:10002000D1380008D1380008D1380008413900081B
:10003000D1380008D1380008D1380008613A0008EA
:10004000D1380008D1380008D1380008D13800086C
:10005000D1380008D1380008D1380008D13800085C
:10006000D1380008D1380008D1380008C14701084C
:10007000014801084148010881480108C1480108B8
:100080000149010841490108C1530108B15801085B
:10009000D1580108F158010811590108D138000858
:1000A00051750108D1740108D1380008F1740108B4
:1000B0001175010831750108D1790108415C010809
:1000C000B15D0108D1380008D1380008D1380008E6
:1000D000D1380008017E0108217E0108417E010817
:1000E000D1380008D1380008D1380008D1380008CC
:1000F000D1380008D1380008D138000881490108FA
:10010000D1380008D1380008F1790108D138000849
:10011000D1380008D1380008D1380008D13800089B
:10012000C1490108014A0108414A0108814A010800
:10013000C14A0108D1380008D138000831590108F6
:1001400051590108715901089159010821680108A4
:10015000014B0108414B0108814B0108D1380008CF
:10016000D1380008D1380008D1380008D13800084B
:10017000D1380008D1380008D1380008D13800083B
:08018000D1380008D138000855
:0C0188009D070008351100084513000811
:08019400B10700084911000841
:1001A00080B584B000AF7860396041F27823C2F244
:1001B00000031B68B3F848311AB23B689A420BDA65
:1001C00043F62840C2F200004EF6C001C0F601011D
:1001D0003A6808F065F95CE0386811F0D1FB024636
:1001E00041F27823C2F200031B68D3F8883C104622
:1001F000194602F065FC034618464FF00001C4F2B0
:10020000C82102F05DFC0346184602F021FE0346B9
:10021000FB60FB68002B0BDA43F62840C2F20000BB
:100220004EF6D801C0F60101FA6808F039F930E05D
:10023000386813F01DFD02467B689B68104619461E
:1002400002F03EFC0346184602F002FE0346BB6085
:100250001AF0F6FD0346002B0CBF00230123DBB28E
:10026000002B0AD043F62840C2F200004EF6FC01F3
:10027000C0F60101FA6808F013F97B685A6840F289
:10028000B413C1F20003DB681046B968FA6812F0D3
:100290001FFB07F11007BD4680BD00BF80B586B0CB
:1002A00000AF03463960FB710FF01AF90346002BCB
:1002B00014BF00230123DBB2002B65D141F274236C
:1002C000C2F200031B68D3F830273B689A420BDC6C
:1002D0004EF60C10C0F601004EF61C11C0F60101DE
:1002E0004FF05D0203F004FD1AF0AAFD0346002B57
:1002F00007D041F27423C2F200031B6803F5E763E1
:1003000006E041F27423C2F200031B6803F61C13DB
:100310003B613868396943F62C52C2F2000212F090
:10032000CFFD43F62C53C2F200031B68002B2DD0E7
:100330001AF076FDF8604FF000037B6116E07A69F1
:1003400013464FEA43039B184FEA830343F62C52AC
:10035000C2F200029B1803F10403BB60B868F9689D
:10036000FFF71EFF7B6903F101037B6143F62C530A
:10037000C2F200031A687B699A42D4BF00230123AA
:10038000DBB2002BDBD102E000BF00E000BF07F1D1
:100390001807BD4680BD00BFB0B58AB002AF786017
:1003A00039603B68002B00F0AD8041F27823C2F247
:1003B00000031B68184613F0A3FC0346386819466F
:1003C00011F056FBB861386813F042FC034618463A
:1003D000B96902F075FB03467B6141F27823C2F2F2
:1003E00000031B681846396813F0C2FC386138698D
:1003F0004FF0000102F002FD0346002B0CD03869DB
:1004000001F0E2FE02460B46396800914EF64C10B0
:10041000C0F6010001F020FD38694FF0000102F044
:10042000F7FC0346002B6FD1386813F011FC02462D
:100430007B689B681046194602F042FB034618464B
:10044000796902F033FA03461846396902F02CFA4A
:100450000346184602F0FCFC0346184602F0DAFA9E
:100460000346FB614FF001031C46F8694FF00001A1
:1004700002F0C4FC0346002B02D14FF000031C46DF
:10048000E3B2FB6043F6E030C2F20000F96801F02D
:100490003DFBFB68002B11D0F86901F095FE024688
:1004A0000B4643F62840C2F200004EF66411C0F637
:1004B000010107F0F5FF4FF00003FB617B685D6809
:1004C000F8694FF00001C4F2C82102F0F9FA0346BE
:1004D000184602F0BDFC044638694FF00001C4F232
:1004E000C82102F0EDFA0346184602F0B1FC0246BC
:1004F00040F2B413C1F20003DB682846214612F033
:10050000E7F902E000BF00E000BF07F12007BD46A9
:10051000B0BD00BF80B586B000AF03463960FB7147
:100520001AF07EFC386141F27423C2F200031B68AA
:1005300003F530633868194643F62C52C2F20002C4
:1005400012F0BEFC43F62C53C2F200031B68002BD2
:1005500028D04FF000037B6116E07A6913464FEA1A
:1005600043039B184FEA830343F62C52C2F2000266
:100570009B1803F10403FB60F8683969FFF70CFF6F
:100580007B6903F101037B6143F62C53C2F2000344
:100590001A687B699A42D4BF00230123DBB2002B87
:1005A000DBD100E000BF07F11807BD4680BD00BFEA
:1005B00080B500AF43F62840C2F2000043F6107148
:1005C000C2F2000108F0ECF880BD00BF80B586B033
:1005D00000AF03463960FB7141F27423C2F200039D
:1005E0001B68D3F830273B689A420BDC4EF60C10A0
:1005F000C0F601004EF61C11C0F601014FF0A50235
:1006000003F076FB1AF00CFC78617B69B3F1FF3FD5
:100610000AD143F62840C2F200004EF67C11C0F623
:10062000010107F03DFF24E04FF48053CEF20003B8
:100630005B683B61FB7918463968FFF72FFEFB7951
:1006400018463968FFF766FF4FF48053CEF2000377
:100650005A683B69D31AFB60FB68002B09DDF96817
:100660000A464FEAE27343F61070C2F2000005F04A
:10067000AFFC07F11807BD4680BD00BF80B500AFD5
:100680001AF05EFBFFF794FF80BD00BF80B500AF9E
:100690004EF68C10C0F6010040F27D61C0F60001FC
:1006A00005F096FE43F62840C2F200004EF69C117B
:1006B000C0F6010107F03CFD40F2B413C1F20003A3
:1006C000DB6843F62840C2F200004EF6B011C0F6D7
:1006D00001011A4607F02CFF43F61070C2F2000029
:1006E0004EF6C411C0F6010105F04AFC0EF0F8FE0A
:1006F0000346002B14BF00230123DBB2002B09D0DB
:1007000043F62840C2F200004EF6D411C0F60101B3
:1007100007F00EFF40F2CD50C0F600004EF6FC117F
:10072000C0F601011AF01CFA80BD00BF80B500AF11
:1007300043F6E030C2F200004FF0060101F010FA7B
:100740000346042BD4BF00230123DBB2184680BD2F
:1007500080B582B000AF786039607B68012B0AD128
:100760003A684FF6FF739A4205D143F6E030C2F281
:10077000000001F04DF97B68002B0AD13A684FF672
:10078000FF739A4205D143F6E030C2F2000001F057
:1007900085F907F10807BD4680BD00BF80B500AFF1
:1007A0004FF001004FF6FF71FFF7D2FF80BD00BF91
:1007B00080B500AF4FF000004FF6FF71FFF7C8FFA4
:1007C00080BD00BF0000000000000000000000002D
:1007D00080B500AF41F27823C2F200031B681846CF
:1007E00010F056F803464EF61020C0F601001946E8
:1007F00006F056FB43F2D813C2F200034FF00A0290
:100800001A7043F2D813C2F200034FF00B025A7071
:1008100043F2D813C2F200031B784EF62020C0F634
:10082000010019464FF44062C4F202024FF0010386
:100830000CF046FE43F2D813C2F200035B784EF68A
:100840003020C0F6010019464FF44062C4F20202A3
:100850004FF002030CF034FE4EF6D160C0F60000FB
:1008600000F00AFD80BD00BF000000000000000095
:1008700080B582B000AF78604EF64020C0F601002F
:10088000796806F00DFB4FF44063C4F202037A6806
:1008900002F00102002A02D14FF4803201E04FF051
:1008A0000002796801F001010A439A6107F1080723
:1008B000BD4680BD80B582B000AF4EF65420C0F674
:1008C000010006F0EDFA4FF00100FFF7D1FF4FF005
:1008D000010003F015FE4FF0010006F039FD4FF462
:1008E000C8737B6021E07A6848F21F53C5F2EB13AE
:1008F00083FB02134FEA23114FEAE273CB1A4FF046
:10090000320101FB03F3D31A002B09D1786800F000
:1009100027FC49F2E030C0F2040003F0F1FD00E0F2
:1009200000BF7B6803F101037B607A6840F21453D7
:100930009A42CCBF00230123DBB2002BD3D14FF06E
:10094000000000F00DFC4FF0000006F001FD4FF03C
:100950000000FFF78DFF4FF0010003F0D1FD4EF6D0
:100960006420C0F6010006F09BFA07F10807BD46B7
:1009700080BD00BF80B582B000AF786040F29813B0
:10098000C1F200039A694EF67823C0F60103936121
:1009900003E04FF47A7003F0B3FD44F6E873C2F25B
:1009A00000031B68002B14BF00230123DBB2002BC4
:1009B000EFD144F6E873C2F200034FF000021A6070
:1009C000FFF778FF00BFE8E780B400AF44F6E873B4
:1009D000C2F200034FF001021A60BD4680BC7047AE
:1009E00080B586B002AF78603960386801F0DAFB14
:1009F00002460B46104619464FF000024FF0000326
:100A0000C4F2590301F05EFD02460B46104619463A
:100A100001F0F6FE03467868194611F029F8F860EF
:100A2000F86801F0D1FB02460B46CDE900234EF6F3
:100A30008020C0F6010079683A6806F031FA07F1C3
:100A40001007BD4680BD00BF80B582B002AF4EF634
:100A5000A420C0F601004FF44061C4F202014FF03F
:100A600000024FF001030CF05BFB4EF6A820C0F62D
:100A7000010040F67101C0F6000105F0B1FC4EF630
:100A8000B020C0F6010040F6C911C0F6000105F023
:100A90009FFC4EF6B420C0F6010040F6E111C0F60E
:100AA000000105F0A5FC4FF00100FFF7E1FE4FF05B
:100AB0000003009344F63050C2F200004FF42E7150
:100AC0004FF0400240F67513C0F6000303F0F0FC4F
:100AD000BD4680BD80B500AF0BF072F8FFF778FE21
:100AE00080BD00BF0000000000000000000000000A
:100AF00080B500AF45F2F400C2F200004FF00601ED
:100B000001F02EF80346042BD4BF00230123DBB2EF
:100B1000184680BD90B585B000AFF860B9607A60C6
:100B20003B607B685B68002B02D14FF0000334E030
:100B3000386801F06FFF0446FB689B68184601F0B7
:100B400069FF02467B681B691046194601F0B8FF31
:100B500003462046194602F06FF90346002B1AD0CF
:100B6000386801F057FF0446FB689B68184601F09F
:100B700051FF02467B685B691046194601F0A0FFF1
:100B800003462046194602F039F90346002B02D0ED
:100B90004FF0010301E04FF00003184607F114077E
:100BA000BD4690BD80B485B000AFF860B9607A6092
:100BB0007B685B68002B02D04FF0000312E0FB68FB
:100BC0001B78002B02D14FF001030BE0FB685A6841
:100BD000BB68D3F8143703F1FF339A42B4BF002344
:100BE0000123DBB2184607F11407BD4680BC7047ED
:100BF00080B588B000AFF860B9607A60FB707B6840
:100C00009B69002B02D0FB78002B06D17B689B6987
:100C1000002B05D1FB78012B02D04FF0010301E03E
:100C20004FF00003FB61FB69002B06D0FB685B689B
:100C300003F10102FB685A6045E0FB68DB68BA6AB1
:100C4000D31ABB61F868B9687A68FFF7ABFF03464F
:100C5000002B08D1F868B9687A68BB69FFF75AFFBA
:100C60000346002B02D04FF0010301E04FF00003D8
:100C7000002B1CD0FB685A68BB68D3F8143703F10B
:100C8000FF339A420CBF00230123DBB27B6145F2A4
:100C9000F400C2F20000796900F038FFFB684FF001
:100CA00001021A70FB684FF000025A6005E0FB6811
:100CB0005B6803F10102FB685A60FB68BA699A60DD
:100CC000FB68BA6ADA6007F12007BD4680BD00BF45
:100CD000B0B58AB000AFF860B9607A60F86812F019
:100CE00047FB4FF07C533B624FF000037B6263E0B5
:100CF000B86801F057FA02460B464FF000004FF477
:100D00000041C4F2860101F0DDFB02460B461446A9
:100D10001D46786A01F07EFE03461846396A01F0E6
:100D2000C5FD0346184601F04FFA02460B46204621
:100D3000294601F09DFA02460B461046194601F07D
:100D40005FFD0346FB61B86801F02CFA02460B46D2
:100D50004FF000004FF40041C4F2860101F0B2FBF5
:100D600002460B4614461D467B6A03F101031846F2
:100D700001F018FA02460B462046294601F078FA9F
:100D800002460B461046194601F03AFD0346BB6188
:100D9000F868F9694FF000024FF0010312F0F0FA21
:100DA000F868B9694FF000024FF0000312F0E8FA5A
:100DB0007B6A03F101037B62BA687B68D31A03F193
:100DC000FF327B6A9A42D4BF00230123DBB2002B9F
:100DD0008ED1B86801F0E6F902460B464FF00000EC
:100DE0004FF40041C4F2860101F06CFB02460B4651
:100DF00014461D46BA687B68D31A03F1FF331846C0
:100E000001F008FE03461846396A01F04FFD03461B
:100E1000184601F0D9F902460B462046294601F052
:100E200027FA02460B461046194601F0E9FC034634
:100E30007B61F86879694FF000024FF0010312F00E
:100E40009FFAF8684FF00001C4F234414FF00002FD
:100E50004FF0000312F094FA07F12807BD46B0BD29
:100E600080B586B000AFF860B9607A60FB6803F1C6
:100E70001C037B617869B9687A68FFF729FFBA6853
:100E80007B68D31A4FEA4302FB68C3F830277B69BB
:100E9000D3F810277B6903F597631046194612F0C3
:100EA000B7FA07F11807BD4680BD00BF80B582B014
:100EB00000AF7860786812F05BFA78684FF0000154
:100EC000C4F270214FF000024FF0010312F058FA03
:100ED00078684FF00001C4F252314FF000024FF039
:100EE000000312F04DFA78684FF00001C4F2D231DD
:100EF0004FF000024FF0010312F042FA78684FF40D
:100F00000041C4F21D414FF000024FF0000312F007
:100F100037FA78684FF00001C4F234414FF0000214
:100F20004FF0000312F02CFA7B684FF00402C3F874
:100F3000142707F10807BD4680BD00BF80B582B009
:100F400000AF7860786812F013FA7B684FF00A02FD
:100F5000C3F8142778684FF6EE41C4F256214FF0DB
:100F600001024FF0010312F00BFA78684CF6CD4104
:100F7000C4F2F3214FF001024FF0000312F000FA27
:100F800078684CF28F21C4F268314FF001024FF0C3
:100F9000010312F0F5F9786844F21F51C4F296315A
:100FA0004FF001024FF0000312F0EAF978684FF0B9
:100FB0000001C4F2B4314FF000024FF0010312F00F
:100FC000DFF978684EF6AC31C4F2CC314FF0010253
:100FD0004FF0010312F0D4F9786845F24431C4F2BD
:100FE000EF314FF001024FF0000312F0C9F97868B9
:100FF00040F2E121C4F213414FF001024FF001032E
:1010000012F0BEF9786844F2EC11C4F224414FF0BA
:1010100001024FF0000312F0B3F978684FF00001BD
:10102000C4F234414FF000024FF0000312F0A8F96F
:1010300007F10807BD4680BD80B584B000AF786079
:1010400039607B6803F62C43FB60FB681B68042B4C
:101050002BD801A252F823F06D1000089D10000853
:101060008F100008AB10000881100008FB689A6818
:10107000FB68DB68386811461A46FFF7F1FE20E08E
:101080003B6803F11C03184611F05AFF19E03B6856
:1010900003F11C031846FFF709FF12E03B6803F158
:1010A0001C031846FFF74AFF0BE04EF6C020C0F6BF
:1010B00001004EF6D021C0F601014FF0C10205F04B
:1010C000C7FE07F11007BD4680BD00BF80B500AF69
:1010D00044F6F070C2F200004EF6F821C0F60101AD
:1010E00007F026F880BD00BF80B582B000AF786001
:1010F00039607B68012B0AD13A684FF6FF739A4238
:1011000005D145F2F400C2F2000000F081FC7B68DA
:10111000002B0AD13A684FF6FF739A4205D145F287
:10112000F400C2F2000000F0B9FC07F10807BD4668
:1011300080BD00BF80B500AF4FF001004FF6FF71DA
:10114000FFF7D2FF80BD00BF80B500AF4FF00000B9
:101150004FF6FF71FFF7C8FF80BD00BF0000000021
:1011600080B584B000AF78607B68002B0AD143F271
:10117000D813C2F200034FF00002C7F6C072C3F8E2
:10118000182727E0786801F045FC024641F27823F1
:10119000C2F200031B68D3F8E03B1046194601F089
:1011A0008FFC034618464FF00001C4F2702101F095
:1011B0003BFD0346FB604FF4A040C4F2C370F968E6
:1011C00001F032FD03461A4643F2D813C2F200037F
:1011D000C3F8182745F23C10C2F200004EF6103159
:1011E000C0F601017A6807F05BF907F11007BD4608
:1011F00080BD00BF80B588B002AF786045F2402066
:10120000C2F2000000F004FD0346002B30D045F28E
:101210003C10C2F200004EF63831C0F6010107F072
:101220003FF941F27423C2F200031B6803F11C036F
:101230007B617B6903F10803FB607B6903F518732D
:101240003B617B69D3F810277B6903F5976307F14E
:101250000C010091786811461A464FF0020319F00C
:10126000EFFF7B684FF00002CBF68072C3F8EC29E9
:1012700007F11807BD4680BD90B58BB004AF78600C
:1012800045F23C10C2F200004EF65C31C0F601019E
:1012900006F04EFF41F27423C2F200031B6803F113
:1012A0001C037B614FF49660FFF75AFF7B6903F1E3
:1012B0000803FB607B6903F518733B617B69D3F816
:1012C00010277B6903F597644FF00203009307F141
:1012D0000C03019341F2F513C0F6000302937B68FF
:1012E00003934EF67830C0F6010043F2D811C2F2F3
:1012F000000123461AF00CF84EF68830C0F60100C3
:1013000041F26111C0F6000105F06AF807F11C070F
:10131000BD4690BD80B582B000AF786039607B6813
:10132000012B0AD13A684FF6FF739A4205D145F274
:101330004020C2F2000000F05BFC07F10807BD4648
:1013400080BD00BF80B500AF4FF001004FF6FF71C8
:10135000FFF7E0FF80BD00BF0000000000000000BC
:10136000B0B588B002AFF860B9607A607B681846A3
:1013700011F07EFD7C684FF0120011F051FA034627
:1013800020464FF001011A464FF0000311F078FD9E
:101390007C684FF0130011F043FA034620464FF0EB
:1013A00001011A464FF0000311F06AFD7C684FF00E
:1013B000140011F035FA034620464FF001011A4699
:1013C0004FF0000311F05CFD7C684FF0150011F048
:1013D00027FA034620464FF001011A464FF000035A
:1013E00011F04EFD7C684FF0120011F019FA03461F
:1013F00020464FF003011A464FF0000311F040FD64
:101400007C684FF0130011F00BFA034620464FF0B2
:1014100003011A464FF0000311F032FD7C684FF0D3
:10142000140011F0FDF9034620464FF003011A465F
:101430004FF0000311F024FD7C684FF0150011F00F
:10144000EFF9034620464FF003011A464FF0000320
:1014500011F016FD7C684FF0120011F0E1F903461F
:1014600020464FF006011A464FF0000311F008FD28
:101470007C684FF0130011F0D3F9034620464FF07B
:1014800006011A464FF0000311F0FAFC7C684FF099
:10149000140011F0C5F9034620464FF006011A4624
:1014A0004FF0000311F0ECFC7C684FF0150011F0D8
:1014B000B7F9034620464FF006011A464FF00003E5
:1014C00011F0DEFC7C684FF0120011F0A9F9034620
:1014D00020464FF008011A464FF0000311F0D0FCEF
:1014E0007C684FF0130011F09BF9034620464FF043
:1014F00008011A464FF0000311F0C2FC7C684FF05F
:10150000140011F08DF9034620464FF008011A46E9
:101510004FF0000311F0B4FC7C684FF0150011F09F
:101520007FF9034620464FF008011A464FF00003AA
:1015300011F0A6FCF868B9687A6812F069FD4FF0FE
:101540000003C4F27E337B614FF00003C4F29423A6
:101550003B617B6803F57273184611F089FC7B6868
:1015600003F572744FF00C0011F05AF903463A6912
:101570000092F868B968224612F032FC7B6803F5E5
:1015800072754FF00C0011F04BF9044638694FF0BA
:101590000001C4F2343101F089F903460093F86880
:1015A000B9682A46234612F01BFC7B6803F5727566
:1015B0004FF00C0011F034F9044638694FF0000187
:1015C000C4F2B43101F072F903460093F868B968C7
:1015D0002A46234612F004FC7B6803F572754FF02F
:1015E0000C0011F01DF9044638694FF00001C4F2F7
:1015F000074101F05BF903460093F868B9682A4691
:10160000234612F0EDFB07F11807BD46B0BD00BF41
:1016100080B48BB000AF78604FF000037B6210E0C5
:1016200040F60003C2F200037A6A53F822107B6886
:101630007A6A02F2C62243F822107B6A03F10103A0
:101640007B627B6A0F2BCCBF00230123DBB2002B14
:10165000E6D14FF000033B6210E040F64003C2F2D7
:1016600000033A6A53F822107B683A6A02F2D622E3
:1016700043F822103B6A03F101033B623B6A0F2BE4
:10168000CCBF00230123DBB2002BE6D14FF00003D7
:10169000FB6128E04FF00003BB6118E040F68003D7
:1016A000C2F20003FA694FEA0211BA698A1853F8C4
:1016B00022107B68FA694FEA0210BA69821802F5B3
:1016C000E37243F82210BB6903F10103BB61BB69FC
:1016D0000F2BCCBF00230123DBB2002BDED1FB6933
:1016E00003F10103FB61FB690F2BCCBF0023012336
:1016F000DBB2002BCED14FF000037B6112E040F64D
:101700008043C2F200037A6953F8222079687B692A
:1017100003F5D0734FEA8303CB185A607B6903F15A
:1017200001037B617B690F2BCCBF00230123DBB25C
:10173000002BE4D14FF000033B6112E040F6C043C0
:10174000C2F200033A6953F8222079683B6903F535
:10175000D8734FEA8303CB185A603B6903F1010346
:101760003B613B690F2BCCBF00230123DBB2002B75
:10177000E4D14FF00003FB602AE04FF00003BB60B0
:101780001AE040F60053C2F20003FA684FEA021171
:10179000BA688A1853F822207968FB684FEA031068
:1017A000BB68C31803F1A0034FEA8303CB185A6048
:1017B000BB6803F10103BB60BB680F2BCCBF0023E8
:1017C0000123DBB2002BDCD1FB6803F10103FB60DA
:1017D000FB680F2BCCBF00230123DBB2002BCCD145
:1017E00007F12C07BD4680BC704700BF80B588B0AC
:1017F00004AF78607B684FF00102A3F84A217B6850
:101800004FF47A72A3F84C217B6841F65832A3F862
:1018100048217B6803F5FA734FF48042C4F2035207
:10182000009248F63C62C4F2432201924FF000025B
:10183000C4F27A42029218464FF00001CCF2A01195
:101840004FF42042C4F28C6241F67843C4F2BF13D5
:1018500012F0CEFE7B684FF48042C4F24E52C3F8C1
:101860000C227B684FF00002C4F28222C3F854219C
:101870007B684FF08242C3F85C217B684FF0000226
:10188000C3F850217B684FF00002C4F2A012C3F8E5
:1018900058217B684FF00402C3F8D42B7B684FF0CB
:1018A0000202C3F8DC2B7B684FF00002C4F22F3237
:1018B000C3F8AC2B7B684FF00002C4F20C22C3F8D3
:1018C00004277B684FF00002C4F27E32C3F8AC2CD0
:1018D0007868FFF79DFE7B6840F22622A3F860211E
:1018E0007B684FF00002C4F28222C3F808274FF051
:1018F0000003FB6019E07A68FB6803F190034FEA8C
:101900008303D3184FF000025A607A68FB6803F132
:1019100098034FEA8303D3184FF00002CBF680728E
:101920005A60FB6803F10103FB60FB68072BCCBF27
:1019300000230123DBB2002BDDD17B684FF07E5208
:10194000C3F858227B684FF08142C3F878227B6845
:101950004FF42042C4F28C52C3F85C227B684FF0F3
:101960008142C3F87C227B684FF4A042C4F24362F8
:10197000C3F860227B684FF00002C3F880227B68C6
:101980004FF00102C3F82C2C7B684FF00002C3F823
:10199000302C7B684FF01402C3F8F02B7B684FF0BB
:1019A0000402C3F8F42B7B684FF00302C3F8F82B52
:1019B0007B684FF00002C3F8842C7B684FF0010273
:1019C000C3F8942C7B684FF00B02C3F88C2C7B6817
:1019D0004FF00102C3F8EC2107F11007BD4680BDAE
:1019E00080B582B000AF786039603B6803F11C02BB
:1019F0003B6803F5E763786811461A46FFF7B0FCC9
:101A000007F10807BD4680BD00000000000000008F
:101A100080B582B000AF78607B6818464FF0000157
:101A20004FF040021BF0E4FA7B684FF000021A64AA
:101A30007B684FF000025A647B68184607F108077C
:101A4000BD4680BD80B485B000AF786039603B682A
:101A50001A6C7B681A643B685A6C7B685A644FF056
:101A60000003FB600BE03B68FA6853F822107B68C8
:101A7000FA6843F82210FB6803F10103FB60FB687E
:101A80000F2BCCBF00230123DBB2002BEBD17B68F3
:101A9000184607F11407BD4680BC704780B483B078
:101AA00000AF78607B68184607F10C07BD4680BC24
:101AB000704700BF80B485B000AF786039603B6884
:101AC0001A6C7B681A643B685A6C7B685A644FF0E6
:101AD0000003FB600BE03B68FA6853F822107B6858
:101AE000FA6843F82210FB6803F10103FB60FB680E
:101AF0000F2BCCBF00230123DBB2002BEBD17B6883
:101B0000184607F11407BD4680BC704780B483B007
:101B100000AF786039607B681B6C03F101027B6861
:101B20001A647B681B6C102B14BF00230123DBB2EB
:101B3000002B03D07B684FF000021A647B681A6C9C
:101B40007B68396843F822107B685B6C03F1010203
:101B50007B685A6407F10C07BD4680BC704700BF24
:101B600080B487B000AF786039607B685A6C3B689E
:101B70009A42ACBF00230123DBB2002B02D07B686A
:101B80005B6C3B607B681B6CBB604FF000037B6150
:101B90004FF000033B6119E0BA683B69D31AFB6060
:101BA00003E0FB6803F11003FB60FB684FEAD373AB
:101BB000DBB2002BF5D17B68FA6853F822307A69E2
:101BC000D3187B613B6903F101033B613A693B68D0
:101BD0009A42ACBF00230123DBB2002BDCD17B692E
:101BE000184607F11C07BD4680BC70470000000086
:101BF00080B483B000AF78607B684FF000021A7049
:101C00007B68184607F10C07BD4680BC704700BFD3
:101C100080B584B000AF78600FF0A2FFF8607B68F9
:101C20001B781A46FB689A420ADAFB68002B0CBF45
:101C300000230123DAB27B681A704FF0010301E040
:101C40004FF00003184607F11007BD4680BD00BFE6
:101C500080B400AFBFF34F8F4FF46D42CEF200025D
:101C60004FF46D43CEF20003DB6803F4E0614FF004
:101C70000403C0F2FA530B43D360BFF34F8FFEE768
:101C800080B500AF45F24C30C2F2000045F2603141
:101C9000C2F200014FF0C8024FF0000303F020FD34
:101CA0000BF0FEF905F02CFA45F24420C2F20000D8
:101CB0004EF69031C0F6010106F03AFA4EF6983031
:101CC000C0F6010041F64551C0F6000104F080FB6A
:101CD0000AF096FA05F0ACFE0DF0D2FAFEF7FAFE25
:101CE00005F0EEFE4EF6A030C0F6010005F0D8F883
:101CF00045F24833C2F200034FF001021A6005F0CA
:101D0000DFFC4FF4FA7002F0FBFBF8E780B483B01D
:101D100000AF78607A6848F21F53C5F2EB1383FB7B
:101D200002134FEA63114FEAE273CB1A184607F128
:101D30000C07BD4680BC704780B500AFFFF788FF39
:101D400080BD00BF80B500AF45F24420C2F2000064
:101D50004EF6B431C0F6010106F0A2FB05F0B0FA70
:101D600045F22C40C2F200004AF22011C0F20701F5
:101D700041F63952C0F600024FF0000302F048F974
:101D800005F0BEFA80BD00BF80B584B000AFF8603A
:101D9000B9607A6005F07CFCF8680BF041FF45F211
:101DA0004833C2F200031B68002B10D14EF6D0302E
:101DB000C0F60100F968BA687B6805F071F848F26E
:101DC000A060C0F2010002F09BFB01F0A9FD07F149
:101DD0001007BD4680BD00BF80B500AF4EF6E430B1
:101DE000C0F601004EF6F831C0F601014FF0C20214
:101DF00001F07EFFFEE700BF80B500AF4EF6044065
:101E0000C0F601004EF6F831C0F601014FF0CA02EB
:101E100001F06EFFFEE700BF80B500AF4EF6184040
:101E2000C0F601004EF6F831C0F601014FF0D202C3
:101E300001F05EFFFEE700BF80B500AF4EF6284020
:101E4000C0F601004EF6F831C0F601014FF0DA029B
:101E500001F04EFFFEE700BF0FB480B582B000AFC7
:101E600045F22843C2F200031B78002B26D145F22D
:101E70002843C2F200034FF001021A7045F24C33BE
:101E8000C2F200034FF00002DA6007F114037B6036
:101E900045F24C30C2F2000039697A6803F090F9DB
:101EA00045F24C33C2F200035A6845F24C33C2F299
:101EB0000003DB68D3184FF000021A7007F108071F
:101EC000BD46BDE8804004B0704700BF80B400AF9D
:101ED00045F22013C0F233131846BD4680BC70474C
:101EE00080B500AF06F0BCFC01F07AFEFFF7C8FE3B
:101EF0004FF00003184680BD000000000000000005
:101F000081F0004102E000BF83F0004330B54FEAAA
:101F100041044FEA430594EA050F08BF90EA020F17
:101F20001FBF54EA000C55EA020C7FEA645C7FEAAA
:101F3000655C00F0E2804FEA5454D4EB5555B8BFCD
:101F40006D420CDD2C4480EA020281EA030382EA3E
:101F5000000083EA010180EA020281EA0303362DD0
:101F600088BF30BD11F0004F4FEA01314FF4801CA3
:101F70004CEA113102D0404261EB410113F0004FB5
:101F80004FEA03334CEA133302D0524263EB43036C
:101F900094EA050F00F0A780A4F10104D5F1200E0A
:101FA0000DDB02FA0EFC22FA05F2801841F1000165
:101FB00003FA0EF2801843FA05F359410EE0A5F139
:101FC00020050EF1200E012A03FA0EFC28BF4CF06A
:101FD000020C43FA05F3C01851EBE37101F0004520
:101FE00007D54FF0000EDCF1000C7EEB00006EEB2D
:101FF0000101B1F5801F1BD3B1F5001F0CD34908B7
:102000005FEA30004FEA3C0C04F101044FEA44520D
:1020100012F5800F80F09A80BCF1004F08BF5FEA94
:10202000500C50F1000041EB045141EA050130BD74
:102030005FEA4C0C404141EB010111F4801FA4F117
:102040000104E9D191F0000F04BF01460020B1FA6C
:1020500081F308BF2033A3F10B03B3F120020CDAA4
:102060000C3208DD02F1140CC2F10C0201FA0CF082
:1020700021FA02F10CE002F11402D8BFC2F1200CE7
:1020800001FA02F120FA0CFCDCBF41EA0C0190409D
:10209000E41AA2BF01EB0451294330BD6FEA0404E6
:1020A0001F3C1CDA0C340EDC04F11404C4F12002D1
:1020B00020FA04F001FA02F340EA030021FA04F3E3
:1020C00045EA030130BDC4F10C04C4F1200220FA3A
:1020D00002F001FA04F340EA0300294630BD21FA78
:1020E00004F0294630BD94F0000F83F4801306BF3E
:1020F00081F480110134013D4EE77FEA645C18BF32
:102100007FEA655C29D094EA050F08BF90EA020FC8
:1021100005D054EA000C04BF1946104630BD91EAC0
:10212000030F1EBF0021002030BD5FEA545C05D1C3
:102130004000494128BF41F0004130BD14F5800402
:102140003CBF01F5801130BD01F0004545F0FE4176
:1021500041F470014FF0000030BD7FEA645C1ABFAB
:10216000194610467FEA655C1CBF0B46024650EAE2
:10217000013406BF52EA033591EA030F41F400210E
:1021800030BD00BF90F0000F04BF0021704730B594
:102190004FF4806404F132044FF000054FF0000169
:1021A00050E700BF90F0000F04BF0021704730B52A
:1021B0004FF4806404F1320410F0004548BF4042FF
:1021C0004FF000013EE700BF42004FEAE2014FEA54
:1021D00031014FEA02701FBF12F07F4393F07F4F2F
:1021E00081F06051704792F0000F14BF93F07F4F61
:1021F000704730B54FF4607401F0004521F00041A4
:1022000020E700BF50EA010208BF704730B54FF029
:1022100000050AE050EA010208BF704730B511F02E
:10222000004502D5404261EB41014FF4806404F166
:1022300032045FEA915C3FF4DCAE4FF003025FEAE8
:10224000DC0C18BF03325FEADC0C18BF033202EB70
:10225000DC02C2F1200300FA03FC20FA02F001FACA
:1022600003FE40EA0E0021FA02F11444C1E600BF69
:1022700070B54FF0FF0C4CF4E06C1CEA11541DBF1C
:102280001CEA135594EA0C0F95EA0C0F00F0DEF8E7
:102290002C4481EA030621EA4C5123EA4C5350EACC
:1022A000013518BF52EA033541F4801143F480131D
:1022B00038D0A0FB02CE4FF00005E1FB02E506F0AE
:1022C0000042E0FB03E54FF00006E1FB03569CF003
:1022D000000F18BF4EF0010EA4F1FF04B6F5007F09
:1022E00064F5407404D25FEA4E0E6D4146EB06067B
:1022F00042EAC62141EA55514FEAC52040EA5E5004
:102300004FEACE2EB4F1FD0C88BFBCF5E06F1ED8AD
:10231000BEF1004F08BF5FEA500E50F1000041EBE4
:10232000045170BD06F0004646EA010140EA020091
:1023300081EA0301B4EB5C04C2BFD4EB0C0541EAB3
:10234000045170BD41F480114FF0000E013C00F3C8
:10235000AB8014F1360FDEBF002001F0004170BDEC
:10236000C4F10004203C35DA0C341BDC04F1140405
:10237000C4F1200500FA05F320FA04F001FA05F291
:1023800040EA020001F0004221F0004110EBD3705E
:1023900021FA04F642EB06015EEA430E08BF20EA8A
:1023A000D37070BDC4F10C04C4F1200500FA04F32D
:1023B00020FA05F001FA04F240EA020001F00041BF
:1023C00010EBD37041F100015EEA430E08BF20EA32
:1023D000D37070BDC4F1200500FA05F24EEA020E7A
:1023E00020FA04F301FA05F243EA020321FA04F0A9
:1023F00001F0004121FA04F220EA020000EBD37060
:102400005EEA430E08BF20EAD37070BD94F0000F5F
:102410000FD101F00046400041EB010111F4801F93
:1024200008BF013CF7D041EA060195F0000F18BF44
:10243000704703F00046520043EB030313F4801F80
:1024400008BF013DF7D043EA0603704794EA0C0F3A
:102450000CEA135518BF95EA0C0F0CD050EA410650
:1024600018BF52EA4306D1D181EA030101F00041CD
:102470004FF0000070BD50EA410606BF10461946F5
:1024800052EA430619D094EA0C0F02D150EA013601
:1024900013D195EA0C0F05D152EA03361CBF104642
:1024A00019460AD181EA030101F0004141F0FE41E1
:1024B00041F470014FF0000070BD41F0FE4141F465
:1024C000780170BD70B54FF0FF0C4CF4E06C1CEA65
:1024D00011541DBF1CEA135594EA0C0F95EA0C0F1A
:1024E00000F0A7F8A4EB050481EA030E52EA0335D5
:1024F0004FEA013100F088804FEA03334FF08055F6
:1025000045EA131343EA12634FEA022245EA111522
:1025100045EA10654FEA00260EF000419D4208BFD3
:10252000964244F1FD0404F5407402D25B084FEA80
:102530003202B61A65EB03055B084FEA32024FF42C
:1025400080104FF4002CB6EB020E75EB030E22BF89
:10255000B61A754640EA0C005B084FEA3202B6EB49
:10256000020E75EB030E22BFB61A754640EA5C00F8
:102570005B084FEA3202B6EB020E75EB030E22BF88
:10258000B61A754640EA9C005B084FEA3202B6EB89
:10259000020E75EB030E22BFB61A754640EADC0048
:1025A00055EA060E18D04FEA051545EA16754FEAAA
:1025B00006164FEAC30343EA52734FEAC2025FEAC8
:1025C0001C1CC0D111F4801F0BD141EA00014FF057
:1025D00000004FF0004CB6E711F4801F04BF014328
:1025E0000020B4F1FD0C88BFBCF5E06F3FF6AFAE44
:1025F000B5EB030C04BFB6EB020C5FEA500C50F1D4
:10260000000041EB045170BD0EF0004E4EEA113156
:1026100014EB5C04C2BFD4EB0C0541EA045170BD5D
:1026200041F480114FF0000E013C90E645EA060EA1
:102630008DE60CEA135594EA0C0F08BF95EA0C0FCF
:102640003FF43BAF94EA0C0F0AD150EA01347FF417
:1026500034AF95EA0C0F7FF425AF104619462CE7EE
:1026600095EA0C0F06D152EA03353FF4FDAE104651
:10267000194622E750EA410618BF52EA43067FF4A2
:10268000C5AE50EA41047FF40DAF52EA43057FF432
:10269000EBAE12E7000000000000000000000000A8
:1026A0004FF0FF3C06E000BF4FF0010C02E000BF1E
:1026B0004FF0010C4DF804CD4FEA410C7FEA6C5C01
:1026C0004FEA430C18BF7FEA6C5C1BD001B050EAA4
:1026D000410C0CBF52EA430C91EA030F02BF90EA8F
:1026E000020F0020704710F1000F91EA030F58BF4E
:1026F000994208BF90422CBFD8176FEAE37040F0B0
:10270000010070474FEA410C7FEA6C5C02D150EA4D
:10271000013C07D14FEA430C7FEA6C5CD6D152EA08
:10272000033CD3D05DF8040B704700BF84461046CD
:1027300062468C461946634600E000BF01B5FFF7CC
:10274000B7FF002848BF10F1000F01BD4DF808ED9C
:10275000FFF7F4FF0CBF012000205DF808FB00BF6D
:102760004DF808EDFFF7EAFF34BF012000205DF8C7
:1027700008FB00BF4DF808EDFFF7E0FF94BF012014
:1027800000205DF808FB00BF4DF808EDFFF7CEFF15
:1027900094BF012000205DF808FB00BF4DF808ED54
:1027A000FFF7C4FF34BF012000205DF808FB00BF25
:1027B0004FEA410212F5001215D211D56FF4787369
:1027C000B3EB625212D94FEAC12343F0004343EA0C
:1027D000505311F0004F23FA02F018BF40427047E7
:1027E0004FF00000704750EA013005D111F0004071
:1027F00008BF6FF0004070474FF00000704700BF07
:102800004FEA4102B2F1E04324BFB3F5001CDCF112
:10281000FE5C0DD901F0004C4FEAC0024CEA50704A
:10282000B2F1004F40EB830008BF20F00100704779
:1028300011F0804F21D113F13872BCBF01F000407C
:10284000704741F480114FEA5252C2F11802C2F1AE
:10285000200C10FA0CF320FA02F018BF40F001002F
:102860004FEAC1234FEAD32303FA0CFC40EA0C00E1
:1028700023FA02F34FEA4303CCE77FEA625307D11E
:1028800050EA01331EBF4FF0FE4040F44000704755
:1028900001F0004040F0FE4040F40000704700BFEF
:1028A00080F0004002E000BF81F0004142001FBF05
:1028B0005FEA410392EA030F7FEA226C7FEA236C0E
:1028C0006AD04FEA1262D2EB1363C1BFD218414003
:1028D00048404140B8BF5B42192B88BF704710F099
:1028E000004F40F4000020F07F4018BF404211F03C
:1028F000004F41F4000121F07F4118BF494292EAA4
:10290000030F3FD0A2F1010241FA03FC10EB0C00CF
:10291000C3F1200301FA03F100F0004302D549425C
:1029200060EB4000B0F5000F13D3B0F1807F06D309
:1029300040084FEA310102F10102FE2A51D2B1F101
:10294000004F40EBC25008BF20F0010040EA0300F6
:102950007047490040EB000010F4000FA2F10102A3
:10296000EDD1B0FA80FCACF1080CB2EB0C0200FA2D
:102970000CF0AABF00EBC25052421843BCBFD0407B
:102980001843704792F0000F81F4000106BF80F4F5
:1029900000000132013BB5E74FEA41037FEA226CB8
:1029A00018BF7FEA236C21D092EA030F04D092F083
:1029B000000F08BF0846704790EA010F1CBF0020B7
:1029C000704712F07F4F04D1400028BF40F0004014
:1029D000704712F100723CBF00F50000704700F034
:1029E000004343F0FE4040F4000070477FEA22625B
:1029F00016BF08467FEA23630146420206BF5FEA2C
:102A0000412390EA010F40F4800070474FF000032B
:102A100004E000BF10F0004348BF40425FEA000CF2
:102A200008BF704743F0964301464FF000001CE09A
:102A300050EA010208BF70474FF000030AE000BFF0
:102A400050EA010208BF704711F0004302D540422E
:102A500061EB41015FEA010C02BF844601460020A0
:102A600043F0B64308BFA3F18053A3F50003BCFABB
:102A70008CF2083AA3EBC25310DB01FA02FC634468
:102A800000FA02FCC2F12002BCF1004F20FA02F26F
:102A900043EB020008BF20F00100704702F1200262
:102AA00001FA02FCC2F1200250EA4C0021FA02F2C3
:102AB00043EB020008BF20EADC7070470000000012
:102AC0004FF0FF0C1CEAD0521EBF1CEAD15392EA11
:102AD0000C0F93EA0C0F6FD01A4480EA010C4002ED
:102AE00018BF5FEA41211ED04FF0006343EA501047
:102AF00043EA5111A0FB01310CF00040B1F5000F89
:102B00003EBF490041EAD3715B0040EA010062F137
:102B10007F02FD2A1DD8B3F1004F40EBC25008BF21
:102B200020F00100704790F0000F0CF0004C08BF3F
:102B300049024CEA502040EA51207F3AC2BFD2F10C
:102B4000FF0340EAC250704740F400004FF000031A
:102B5000013A5DDC12F1190FDCBF00F00040704754
:102B6000C2F10002410021FA02F1C2F1200200FA92
:102B700002FC5FEA310040F1000053EA4C0308BF59
:102B800020EADC70704792F0000F00F0004C02BFAA
:102B9000400010F4000F013AF9D040EA0C0093F025
:102BA000000F01F0004C02BF490011F4000F013B7F
:102BB000F9D041EA0C018FE70CEAD15392EA0C0FED
:102BC00018BF93EA0C0F0AD030F0004C18BF31F058
:102BD000004CD8D180EA010000F00040704790F02E
:102BE000000F17BF90F0004F084691F0000F91F0D2
:102BF000004F14D092EA0C0F01D142020FD193EA98
:102C00000C0F03D14B0218BF084608D180EA01001F
:102C100000F0004040F0FE4040F40000704740F0FB
:102C2000FE4040F4400070474FF0FF0C1CEAD052C9
:102C30001EBF1CEAD15392EA0C0F93EA0C0F69D025
:102C4000A2EB030280EA010C49024FEA402037D090
:102C50004FF0805343EA111143EA10130CF0004087
:102C60008B4238BF5B0042F17D024FF4000C8B4277
:102C700024BF5B1A40EA0C00B3EB510F24BFA3EB57
:102C8000510340EA5C00B3EB910F24BFA3EB910327
:102C900040EA9C00B3EBD10F24BFA3EBD10340EA81
:102CA000DC001B0118BF5FEA1C1CE0D1FD2A3FF6C7
:102CB00050AF8B4240EBC25008BF20F0010070477C
:102CC0000CF0004C4CEA50207F32C2BFD2F1FF031F
:102CD00040EAC250704740F400004FF00003013A50
:102CE00037E792F0000F00F0004C02BF400010F4F4
:102CF000000F013AF9D040EA0C0093F0000F01F008
:102D0000004C02BF490011F4000F013BF9D041EA29
:102D10000C0195E70CEAD15392EA0C0F08D142025C
:102D20007FF47DAF93EA0C0F7FF470AF084676E72F
:102D300093EA0C0F04D14B023FF44CAF08466EE708
:102D400030F0004C18BF31F0004CCAD130F00042D6
:102D50007FF45CAF31F000437FF43CAF5FE700BF2E
:102D60004FF0FF3C06E000BF4FF0010C02E000BF57
:102D70004FF0010C4DF804CD4FEA40024FEA4103F9
:102D80007FEA226C18BF7FEA236C11D001B052EAAF
:102D9000530C18BF90EA010F58BFB2EB030088BF75
:102DA000C81738BF6FEAE17018BF40F001007047E4
:102DB0007FEA226C02D15FEA402C05D17FEA236CC6
:102DC000E4D15FEA412CE1D05DF8040B704700BF0D
:102DD000844608466146FFE70FB5FFF7C9FF0028A4
:102DE00048BF10F1000F0FBD4DF808EDFFF7F4FFDD
:102DF0000CBF012000205DF808FB00BF4DF808ED76
:102E0000FFF7EAFF34BF012000205DF808FB00BF98
:102E10004DF808EDFFF7E0FF94BF012000205DF8BA
:102E200008FB00BF4DF808EDFFF7D2FF94BF01206B
:102E300000205DF808FB00BF4DF808EDFFF7C8FF64
:102E400034BF012000205DF808FB00BF0000000037
:102E50004FEA4002B2F1FE4F0FD34FF09E03B3EBA7
:102E600012620DD94FEA002343F0004310F0004FE7
:102E700023FA02F018BF404270474FF0000070473D
:102E800012F1610F01D1420205D110F0004008BFDC
:102E90006FF0004070474FF00000704700000000E6
:102EA00073B96AB9002908BF0028BCBF00204FF0E1
:102EB0000041C4BF6FF000414FF0FF3000F0C8B8D0
:102EC00082B0EC462DE9005000F092F8DDF804E005
:102ED00002B00CBC704700BF000000000000000002
:102EE00010B500210446FFF789FF20B92046BDE850
:102EF000104000F02DB804F1004000F029F84242E3
:102F000061EB41031046194610BD00BF00000000F0
:102F100038B50022002305460C46FFF721FC28B9EE
:102F200028462146BDE8384000F03AB8284604F16A
:102F3000004100F035F8424261EB4103104619466A
:102F400038BD00BF000000000000000000000000CD
:102F500070B5FFF739F900230022C3F6F053044699
:102F60000D46FFF785F900F07BF80646FFF70AF9F2
:102F700000230022C4F2F013FFF77AF902460B4651
:102F800020462946FEF7C0FF00F06AF800220243FF
:102F90001046314670BD00BF000000000000000078
:102FA000002370B50022C3F6F05304460D46FFF728
:102FB0005FF900F055F80646FFF7E4F80023002219
:102FC000C4F2F013FFF754F902460B462046294697
:102FD000FEF79AFF00F044F8002202431046314603
:102FE00070BD00BF000000000000000000000000F5
:102FF000F8B5164604460D461F4600F051F806FB8C
:1030000001F300FB0737A6FB0023FB18A21A65EBB0
:103010000303069CC4E90023F8BD00BFF8B51646BB
:1030200004460D461F4600F09BF900FB07F7A0FB86
:10303000062306FB0177FB18A21A65EB0303069C27
:10304000C4E90023F8BD00BF00000000000000003C
:10305000704700BF000000000000000000000000FA
:103060004A0011D212F5001211D20DD56FF4787307
:10307000B3EB62520ED44FEAC12343F0004343EA5C
:10308000505323FA02F070474FF00000704750EAA7
:10309000013002D14FF0FF3070474FF00000704711
:1030A00000292DE9F00F1D46C0F29D800024002D5F
:1030B000C0F2948080460F4694461E46E3BB8A4287
:1030C00055D9B2FA82F747B1C7F1200520FA05F6C3
:1030D00001FA07F1BA403143B840170CB1FBF7F6DB
:1030E000030C1FFA82FC07FB16110CFB06F543EAE2
:1030F00001439D4208D9711E9B1880F013819D42A7
:1031000040F21081023E9B18591BB1FBF7F507FBFB
:10311000151380B20CFB05FC40EA03418C4507D92E
:103120006B1E8A1880F00081944540F2FD80023DBC
:1031300045EA0641002503E08B420CD900252946CB
:103140000A462B4614B1524263EB4303104619461C
:10315000BDE8F00F7047B3FA83F5002D40F087808B
:103160008B4201D38242EAD800250121E8E712B957
:103170000126B6FBF2F2B2FA82F6002E39D18E1A8F
:10318000130C1FFA82FC0125B6FBF3F703FB176152
:103190004FEA10490CFB07F849EA0146B04506D949
:1031A000791EB61802D2B04500F2D3800F46C8EBA4
:1031B0000606B6FBF3F103FB116380B20CFB01FCC6
:1031C00040EA03439C4506D94E1E9A1802D2944504
:1031D00000F2C280314641EA0741B1E7E44352427E
:1031E00063EB430366E7404261EB41014FF0FF347C
:1031F0005DE7B240C6F1200921FA09F720FA09F586
:10320000130C01FA06F1B7FBF3F845EA01091FFABE
:1032100082FC03FB18774FEA19410CFB08F541EAE1
:103220000747B040BD420AD9BF1808F1FF3680F009
:103230008E80BD4240F28B80A8F10208BF18791B36
:10324000B1FBF3F503FB15171FFA89F90CFB05F623
:1032500049EA07418E4206D96F1E891871D28E4203
:103260006FD9023D89188E1B45EA08458CE7C5F1E8
:10327000200122FA01F306FA05F61E4327FA01F2AD
:103280004FEA164907FA05F720FA01F1B2FBF9F8FF
:103290000F433B0C1FFA86FA09FB18220AFB08FBB6
:1032A00043EA024293450CFA05FC08D9921908F149
:1032B000FF314AD2934548D9A8F102089219CBEBC5
:1032C0000203B3FBF9F109FB1132BFB20AFB01FAA9
:1032D00047EA02439A4506D94A1E9B1933D29A45BA
:1032E00031D902399B1941EA08410F0C1FFA8CF8B9
:1032F00008FB07F68AB24FEA1C4C08FB02F80CFBED
:10330000026202EB18420CFB07FC964288BF0CF5E8
:10331000803CCAEB03030CEB124C63450ED305D083
:1033200000250DE70E46EFE61D4601E71FFA88F877
:1033300000FA05F008EB0245A842F1D20139002558
:10334000FEE63D468FE71146CDE78846B7E7B04633
:1033500075E7023FB6182AE702393CE70000000093
:103360002DE9F007144605460E46002B3DD18A4252
:1033700049D9B2FA82F747B1C7F1200120FA01F228
:1033800006FA07F6BC401643BD40220CB6FBF2F02D
:103390002F0CA1B202FB106601FB00F347EA0646C0
:1033A000B34208D9471E361980F0F880B34240F284
:1033B000F58002383619F61AB6FBF2F302FB1362F7
:1033C000ADB201FB03F145EA0242914207D95E1E0C
:1033D000121980F0E580914240F2E280023B43EA1C
:1033E00000400021BDE8F00770478B4243D8B3FA94
:1033F00083F4002C42D18B4202D3824200F2DF8060
:1034000000210120EEE712B90127B7FBF2F4B4FA6C
:1034100084F2002A40F088800A1B230CA7B2012105
:10342000B2FBF3F603FB16224FEA154C07FB06F03E
:103430004CEA0242904207D9121906F1FF3C02D22F
:10344000904200F2CE806646121AB2FBF3F003FB04
:103450001023ADB207FB00F745EA03439F4207D9AB
:10346000421E1B1980F09E809F4240F29B800238D2
:1034700040EA0640B6E700210846B3E7C4F120065B
:1034800022FA06F503FA04F32B434FEA134C21FA10
:1034900006F501FA04F120FA06F6B5FBFCF746EA58
:1034A000010A1FFA83F80CFB17554FEA1A4108FB73
:1034B00007F941EA0545A94502FA04F203D97E1E3F
:1034C000ED187FD33746C9EB0501B1FBFCF60CFBC9
:1034D00016151FFA8AFA08FB06F84AEA05418845DC
:1034E00003D9751EC91873D32E4646EA0746370C12
:1034F0001FFA82FC0CFB07F5120CB3B20CFB03FCA9
:1035000002FB035303EB1C4302FB07F29D4288BFFF
:1035100002F58032C8EB010102EB134291424BD31A
:1035200042D0304600215DE79440C2F1200521FAE7
:1035300005F6230C20FA05F701FA02F1B6FBF3FCBD
:1035400039430D0CA7B203FB1C6645EA064607FB90
:103550000CF8B04500FA02F508D936190CF1FF3025
:103560003DD2B0453BD9ACF1020C3619C8EB06028E
:10357000B2FBF3F003FB10268AB242EA064207FBD5
:1035800000F1914206D9461E121926D2914224D941
:1035900002381219521A40EA0C4141E738460AE74C
:1035A00033461CE7104663E71FFA8CFC00FA04F070
:1035B0000CEB03439842B4D2701E002112E721465F
:1035C00020460FE7A9457FF67DAF023FED187AE769
:1035D000884589D9023EC91887E73046DAE784462C
:1035E000C4E7023E12192FE70000000000000000AF
:1035F000704700BFAFF30080AFF30080AFF30080EF
:10360000FEE700BFAFF30080AFF30080AFF30080B0
:1036100072B640F60004C2F2000484F309884EF644
:103620003473CEF200034FF040421A604EF68850D9
:10363000CEF20000016841F4700303604FF0000215
:10364000E1EE102A4EF63C70CEF2000002604FF020
:10365000060181F31488BFF36F8F8E4B8E4A9A4216
:103660001FD2A2F104038D48C11A21F0030240F2D7
:103670000000C2F2000010184FF05531C21AA2F13A
:103680000402C2F3800243F8041F834240F0F88032
:1036900007E003F10402596003F10803516083421B
:1036A000F7D17F4B7F48984220D2A0F10403E41A5F
:1036B000A4F1050424F0030440F20041C2F2000129
:1036C00060184FF05531C21AA2F10402C2F3800211
:1036D00043F8041F834240F0CA8007E003F104026C
:1036E000596003F1080351608342F7D114F070FC74
:1036F0006D4B6E48984225D200F104056C4C611B5D
:1037000021F003004FF0000340F60002C2F2000275
:1037100043F2E071C0F6020100F10404C0F380003E
:103720005D589D5003F10403A34240F0958009E0E9
:103730005858985003F104035858985003F1040363
:10374000A342F5D15B4B5C4A9A421ED2A2F104031C
:103750005A49C81A20F0030243F6E031C2F20001D0
:1037600050184FF00001C21AA2F10402C2F3800205
:1037700043F8041F834268D107E003F10402596053
:1037800003F1080351608342F7D1FFF731FF4C4B3F
:103790004C4898421ED2A0F10404A3F105031E1B5D
:1037A0004FEA960505F1010705F0010654F8041FDC
:1037B00088474FF00105BD423DD10BE004F10406FE
:1037C0006368984704F108047068804705F10205B2
:1037D000BD42F3D1FEF784FB3B493C4A8A421ED2EC
:1037E000A2F10404A1F105010F1B4FEA970606F1AF
:1037F000010706F0010654F8045FA8474FF00105E1
:10380000BD420ED10BE004F104066068804704F16C
:1038100008047168884705F10205BD42F3D1FFF73E
:10382000EFFE002EEFD054F8043F984705F1010554
:10383000BD42E8D1F3E7002EC0D054F8042F9047E2
:1038400005F10105BD42B9D1C4E7002A95D043F87E
:10385000041F834291D198E700283FF469AF58587C
:10386000985003F10403A3427FF462AF6AE7002A91
:103870003FF434AF43F8041F83427FF42FAF35E7A2
:10388000002A3FF406AF43F8041F83427FF401AFE0
:1038900007E700BF0004002000000020FB03002019
:1038A0000008002000040020FC1600200008002072
:1038B000FF160020B4A50120E03B0020AFA50120A9
:1038C00094010008880100089C0100089401000888
:1038D000FEE700BFAFF30080AFF30080AFF30080DE
:1038E000F8B5074645F24046C2F2000634464EF6A9
:1038F0004045C0F601050FCD0FC42B68237030463C
:10390000B9691AF05DF930464EF65441C0F601012E
:103910004FF02E0200F0ECF9F8BD00BFAFF30080CD
:1039200072B6FEE7AFF30080AFF30080AFF3008024
:1039300000F016FB00F04CFD00F0EAFA00DF00BFDB
:10394000EFF30982D2F8CC104EF63073CEF20003BA
:103950005960986800F16800986002F1680282F38B
:1039600009884FF0000383F311887047AFF300809C
:1039700008B54FF46D43CEF200034FF000029A6099
:103980004FF44070C0F2FA50D8604FF007004FF08B
:10399000100100F0F5F84FF00A004FF4007100F04C
:1039A000EFF84FF00B004FF0800100F0E9F808BD90
:1039B0004FF0200383F311884FF46D43CEF20003E0
:1039C000586810F4006F42D0EFF30983A3F1680246
:1039D00082F309884FF0807143F84C1C40F2981034
:1039E000C1F20000826992F8231059B140F2981197
:1039F000C1F20001086881689268914294BF002278
:103A000001220AE040F29810C1F2000001688868C3
:103A10009268904234BF0022012242B143F6311035
:103A2000C0F6000043F8500CF1EE10FA05E043F642
:103A30003C12C0F6000243F8502C4EF63072CEF223
:103A400000025168596641F00103536070474FF01E
:103A5000000383F311887047AFF30080AFF3008059
:103A600008B500F0D5F94FF0200383F3118800F07A
:103A700027FA00F0F5F800F0FBF94FF0000383F3AC
:103A8000118800F095F9FFF793FF08BDAFF30080B0
:103A90002DE9F04F2DED108AC1F80CD0D0F80CD0E4
:103AA000BDEC108ABDE8F08FAFF30080AFF300806B
:103AB00008B500F02DFA4FF0000383F31188284673
:103AC000A04700F075FD08BDAFF30080AFF30080A4
:103AD00070B44FEA90024FF46143CEF2000302F15A
:103AE000C00253F8226000F003044FEAC4044FF010
:103AF000FF0505FA04F526EA050501FA04F10D4370
:103B000043F822504FEA501200F01F004FF001011D
:103B100001FA00F002F1600143F8210043F82200AD
:103B200070BC7047AFF30080AFF30080AFF300804C
:103B300010B44FEA501200F01F034FF0010101FAD8
:103B400003F14FF46143CEF2000302F1200243F887
:103B500022104FEA900202F1C00253F8221000F046
:103B600003004FEAC0004FF0FF0404FA00F021EA1E
:103B7000000143F8221010BC704700BFAFF3008073
:103B800030B44FEA90024FF46D43CEF2000302F1DD
:103B9000060253F8225000F003004FEAC0004FF035
:103BA000FF0404FA00F425EA040401FA00F10C43CE
:103BB00043F8224030BC7047AFF30080AFF3008081
:103BC00040F29813C1F2000398694EF68042C0F6A5
:103BD00001028261FEE700BFAFF30080AFF3008017
:103BE00030B583B0FFF7C4FE00F082FA00F000FAAF
:103BF00001F04EF901F09CF940F20000C1F2000022
:103C00004FF0400100F0F4FB40F29815C1F20005BE
:103C1000A8614FF0010480F8204040F20043C2F256
:103C20000003C36100F0C4F94FF0000383F311886F
:103C300062B6AA694EF62071C0F601019161009347
:103C400040F25000C1F200004FF4A471224643F646
:103C5000C133C0F6000300F02BFC03B030BD00BF41
:103C60002DE9F04100F084F840F29813C1F200030E
:103C7000986990F823201AB102F1FF3180F82310DF
:103C8000436A03F10103436240F2B410C1F2000041
:103C9000C26802F10102C2600168814224D08C68CE
:103CA00004F1FF338B600C468A68EAB94FF00006D6
:103CB00040F2B415C1F200054FF02008E768E66055
:103CC00021684D6023682B6000F0D2F8334683F3FF
:103CD00011882069B847434683F3118800F0F0F853
:103CE0002C68A0680028E9D0BDE8F081AFF300801F
:103CF00070B506460D46144603F0D2FC98B945F25D
:103D00000853C2F200031D6045F21050C2F20000D9
:103D1000046045F21851C2F200010E603046294697
:103D20002246FEF731F870BDAFF30080AFF300809C
:103D300008B545F20C53C2F20003186830B945F2D9
:103D40001451C2F200010A68002A0BDC4EF69040C2
:103D5000C0F601004EF69841C0F601014FF0D202C4
:103D6000FFF7C6FF08BD00BFAFF30080AFF30080D0
:103D700008B545F20C53C2F200031868002806DBB0
:103D800045F21451C2F200010A68002A0BDC4EF61B
:103D9000B840C0F601004EF69841C0F601014FF060
:103DA000C402FFF7A5FF08BDAFF30080AFF30080AA
:103DB00008B54FF0200383F3118845F20C53C2F28B
:103DC00000031868002805DD45F21451C2F2000115
:103DD0000A685AB14EF6DC40C0F601004EF6984132
:103DE000C0F601014FF0B402FFF782FF45F20C5319
:103DF000C2F20003186800F1FF3119604FF00003B0
:103E000083F3118808BD00BFAFF30080AFF30080DB
:103E100008B54FF0200383F3118845F20C53C2F22A
:103E200000031868002805DB45F21451C2F20001B6
:103E30000A685AB14EF6E440C0F601004EF69841C9
:103E4000C0F601014FF0A602FFF752FF45F20C53F6
:103E5000C2F20003186800F1010018604FF000037F
:103E600083F3118808BD00BFAFF30080AFF300807B
:103E700008B545F20C53C2F200031868002806DDAD
:103E800045F21451C2F200010A68002A0BDC4EF61A
:103E9000EC40C0F601004EF69841C0F601014FF02B
:103EA0009902FFF725FF45F21453C2F200034FF0C9
:103EB0000000186008BD00BFAFF30080AFF30080C2
:103EC00008B545F20C53C2F200031868002805DD5E
:103ED00045F21451C2F200010A685AB14EF6F4409C
:103EE000C0F601004EF69841C0F601014FF08D0278
:103EF000FFF7FEFE45F21453C2F200034FF001003B
:103F0000186008BDAFF30080AFF30080AFF300800E
:103F100008B545F20C53C2F20003186830B945F2F7
:103F20001451C2F200010A68002A0BDC4EF614504C
:103F3000C0F601004EF69841C0F601014FF0810233
:103F4000FFF7D6FE45F21453C2F200034FF0000013
:103F5000186008BDAFF30080AFF30080AFF30080BE
:103F600008B545F20C53C2F20003186828B945F2AF
:103F70001451C2F200010A685AB14EF61C50C0F644
:103F800001004EF69841C0F601014FF07502FFF7AF
:103F9000AFFE45F21453C2F200034FF00100186067
:103FA00008BD00BFAFF30080AFF30080AFF3008027
:103FB00008B545F20C53C2F20003186828B945F25F
:103FC0001451C2F200010A685AB14EF63850C0F6D8
:103FD00001004EF69841C0F601014FF06A02FFF76A
:103FE00087FE08BDAFF30080AFF30080AFF3008021
:103FF00040F2B413C1F200035B601B604FF0FF326C
:104000009A604FF00000D860704700BFAFF30080A7
:10401000F8B505460C4616461F46FFF7A9FE0DB13A
:1040200006B15CB94EF65050C0F601004EF6605134
:10403000C0F601014FF05102FFF75AFE2F61EE600A
:1040400040F2B413C1F2000318688268944204D9A4
:10405000A41A00688268A242FAD3286041686960A5
:1040600045600D60AC6040F2B413C1F200039842A9
:1040700002D08268141B8460F8BD00BFAFF30080DB
:1040800010B50446FFF774FE5CB94EF68050C0F6DA
:1040900001004EF66051C0F601014FF06D02FFF7CE
:1040A00027FEE3685BB94EF69050C0F601004EF66D
:1040B0006051C0F601014FF07002FFF719FE206851
:1040C00040F2B412C1F20002904203D08168A368AA
:1040D000CA188260606821680160236862685A605B
:1040E0004FF00000E06010BDAFF30080AFF3008040
:1040F00040F29813C1F200035B601B604FF00002B6
:104100009A605B611B617047AFF30080AFF3008082
:1041100010B50446FFF72CFE94F820300BB10E2B9F
:104120000BD14EF6B050C0F601004EF6C451C0F6A9
:1041300001014FF05A02FFF7DBFD4FF0000084F859
:104140002000A16840F29813C1F200031B689A682E
:104150008A42FBD22360586860605C60046020463D
:1041600010BD00BFAFF30080AFF30080AFF300805D
:1041700010B504464FF0200383F31188FFF7A0FE2B
:1041800094F820300D2B1AD8DFE803F00719190E28
:1041900019131919191919191913FFF769FE4FF095
:1041A000000383F3118810BDA06A826802F1010246
:1041B0008260616823680B602068626842604FF02B
:1041C000FF31A1622046FFF7A3FFFFF751FE4FF03A
:1041D000000383F3118810BDAFF30080AFF30080BC
:1041E00038B50546FFF7A4FD40F29813C1F200036D
:1041F0009C6984F820504FF0140284F8232018683A
:10420000016819604B6098614FF0010380F820301D
:10421000ADF16402E069904202D92046FFF760FBED
:1042200040F29811C1F2000188692146FFF730FC85
:1042300038BD00BFAFF30080AFF30080AFF3008064
:1042400030B587B005460C46FFF772FDB4F1FF3F6D
:1042500015D001A8214644F27112C0F6000240F2C6
:104260009813C1F200039B69FFF7D2FE2846FFF7BF
:10427000B7FF049830B101A8FFF702FF02E028461B
:10428000FFF7AEFF40F29811C1F200018A69906A0F
:1042900007B030BDAFF30080AFF30080AFF3008014
:1042A00038B504460D46FFF743FDA56240F298136A
:1042B000C1F200039869A26881688A4203D8204647
:1042C000FFF726FF38BDFFF723FF054640F29810A1
:1042D000C1F2000084614FF0010384F82030ADF199
:1042E0006402E969914202D92846FFF7F9FA2046AB
:1042F0002946FFF7CDFB38BDAFF30080AFF3008058
:1043000010B540F29813C1F200039C691A68116855
:1043100019604B609A614FF0010082F820004FF065
:10432000140384F823302046FFF7F2FEADF1640257
:10433000E169914202D92046FFF7D2FA40F2981083
:10434000C1F2000080692146FFF7A2FB10BD00BF4B
:1043500010B540F29813C1F200039C691A68116805
:1043600019604B609A614FF0010082F820004FF015
:10437000000284F82020A1681B6898688842FBD856
:1043800023605A6862605C601460ADF16401E369A7
:104390008B4202D92046FFF7A3FA40F29810C1F2EF
:1043A000000080692146FFF773FB10BDAFF300806A
:1043B00008B5FFF7BDFC40F29813C1F200031A687C
:1043C000986991688368994201D9FFF7C1FF08BDD8
:1043D00008B540F29813C1F20003986990F82310D1
:1043E00011B9FFF78DFF08BDFFF7B2FF08BD00BF91
:1043F00010B481604FF0020280F820204FF00002DC
:1044000080F821204FF0140480F8234041640264B6
:10441000C26342624FF0010180F82210826140F2D3
:104420009812C1F200020261516941615061086154
:1044300000F12C02C26200F130014163016300F11E
:104440004C02C26110BC7047AFF30080AFF3008034
:10445000F8B504460D4616461F46FFF789FC2CB1F9
:10446000B5F59C7F02D37F2E00D85FB94EF6F05091
:10447000C0F601004EF60461C0F601014FF0A6023D
:10448000FFF736FCA5F164002118E1600F64E368D2
:10449000069A5A64E06843F6B121C0F6000101664D
:1044A00020463146FFF7A4FFF8BD00BFAFF3008000
:1044B000F0B583B007460E4615461C464FF0200364
:1044C00083F31188FFF74CFD089B00933846314673
:1044D0002A462346FFF7BCFF04464FF00001FFF7D2
:1044E000DFFEFFF715FD4FF0000383F31188204630
:1044F00003B0F0BDAFF30080AFF30080AFF30080F6
:1045000010B5044658B94EF65460C0F601004EF698
:104510000461C0F601014FF49372FFF7E9FB4FF01D
:10452000200383F31188FFF71BFD4FF0060021469F
:10453000FFF786FEFFF7ECFC4FF0000383F31188D2
:1045400010BD00BFAFF30080AFF30080AFF3008079
:1045500038B540F29813C1F200039C69A062254669
:1045600055F82C0FA84206D00168E162FFF7D0FD94
:10457000E06AA842F8D194F8210010F0030F05D1A9
:10458000636922691A612169606948614FF00E0010
:10459000FFF726FE4EF66460C0F601004EF6046199
:1045A000C0F6010140F28112FFF7A2FB38BD00BF47
:1045B00010B504464FF0200383F31188FFF7D0FCB9
:1045C0002046FFF7C5FF10BDAFF30080AFF30080BA
:1045D00038B504464FF0200383F31188FFF7C0FC81
:1045E00094F822305BB94EF6E860C0F601004EF652
:1045F000C461C0F601014FF04E02FFF779FB94F859
:10460000225005F1FF30C5B284F82250FFF780FC3C
:104610004FF0000383F3118805BB94F820100E2996
:104620001CD194F8212002F00303012B02D0022BAD
:1046300014D109E0606921690161236962695A61E5
:10464000204600F0D5FC38BD60692169016123690D
:1046500062695A61A06C214600F04AFD38BD00BF76
:1046600010B54FF0200383F31188FFF779FC40F277
:104670009813C1F200031C6994F8220000F10100B4
:1046800084F82200FFF744FC4FF0000383F3118805
:10469000204610BDAFF30080AFF30080AFF3008081
:1046A00038B505464FF0200383F31188FFF758FC17
:1046B0002C6940F29813C1F200039C4216D094F882
:1046C0002200FF280BD14EF64070C0F601004EF6D6
:1046D0005871C0F601014FF09602FFF709FB94F8FC
:1046E000221001F1010184F8221001E04FF00004D2
:1046F000FFF70EFC4FF0000383F311882846FFF705
:1047000067FF204638BD00BFAFF30080AFF30080E5
:1047100038B50D46044608B100290BDA4EF6807014
:10472000C0F601004EF69071C0F601014FF058023C
:10473000FFF7DEFA64602460A56038BDAFF3008047
:1047400010B50446FFF714FB5CB94FF24C00C0F6FD
:1047500001004EF69071C0F601014FF49972FFF717
:10476000C7FAA368002B03DB2068A04203D10EE048
:104770002168A1420BD14FF26000C0F601004EF655
:104780009071C0F601014FF49B72FFF7B1FAA26875
:1047900002F10102A260002A08DC2068036823609D
:1047A0005C604FF000018162FFF7B2FC10BD00BFFA
:1047B00010B5044658B94FF2F000C0F601004FF2B0
:1047C0000011C0F601014FF05802FFF791FA646042
:1047D00024604FF00003A36010BD00BFAFF3008062
:1047E00070B5054640F29813C1F200039C69FFF7CB
:1047F0009FFA5DB94FF22010C0F601004FF2001190
:10480000C0F601014FF07D02FFF772FAA868002898
:1048100000F08280A2688168914249D2826090F85B
:104820002020042A04D0052A1FD0002A34D03FE0DB
:10483000466802683260036841685960866A324699
:104840001268964204D0936881688B42F8D200E0E7
:10485000324602605368436050601860806A806826
:10486000A26881689142D9D322E04668016831602C
:10487000036842685A60866A32461268964204D0DB
:10488000936881688B42F8D200E032460260536838
:104890004360506018600BE04FF0010380F8203057
:1048A000426801681160036842685A60FFF730FC93
:1048B00028462B461B68984204D09968A26891420A
:1048C000F8D200E02B462360586860605C600460AA
:1048D000A5624FF00400FFF783FCAB68A3420BD046
:1048E0004FF23010C0F601004FF20011C0F6010186
:1048F0004FF0B202FFF7FCF9216CA94210D04FF241
:104900004410C0F601004FF20011C0F601014FF053
:10491000B302FFF7EDF970BDAC60206CE860256470
:1049200070BD00BFAFF30080AFF30080AFF3008035
:1049300010B504464FF0200383F31188FFF710FBF6
:104940002046FFF74DFFFFF7E3FA4FF0000383F334
:10495000118810BDAFF30080AFF30080AFF300808B
:1049600038B540F29813C1F200039D694FF020035F
:1049700083F31188FFF7F4FA286C58B94FF26C10E2
:10498000C0F601004FF20011C0F601014FF484722D
:10499000FFF7AEF9296C8A68AA420BD04FF280105B
:1049A000C0F601004FF20011C0F6010140F20B12F7
:1049B000FFF79EF92C6CE3682B642068A04219D0A5
:1049C000696C4BB11A689A4203D09068814238BF33
:1049D0000146DB68002BF5D1A960206801682160E1
:1049E0004C60A060026CE26004644FF00001FFF7CD
:1049F00057FC02E04FF00003A360FFF789FA4FF085
:104A0000000383F31188204638BD00BFAFF3008058
:104A100038B504460D46FFF7ABF95CB94FF21020EC
:104A2000C0F601004FF2D811C0F601014FF0FE02AE
:104A3000FFF75EF9E36B45EA0301E16394F82000B8
:104A4000082803D1A36A194206D138BD092809D123
:104A5000A26A11408A4205D12046FFF759FB4FF068
:104A60000001816238BD00BFAFF30080AFF300806A
:104A700070B505460E46FFF77BF95DB94FF234205D
:104A8000C0F601004FF2D811C0F601014FF0BC0290
:104A9000FFF72EF92C68A54209D0E3683343E360A1
:104AA0006068A168FFF7B4FF2468A542F5D170BD26
:104AB00010B50C4681B140F29813C1F20003996918
:104AC0008862086042684A60416011604FF00D00E2
:104AD0002146FFF7B5FB10BD4FF0FF3010BD00BF02
:104AE00010B4406000604FF0000484604161816157
:104AF000C1608A180261C361019B036210BC7047E8
:104B000070B50446FFF734F9E3686361A3614FF0C1
:104B10000000A06020682546A0420AD06FF0010680
:104B2000016821604D60FFF7F3FA86622068A842B1
:104B3000F6D170BDAFF30080AFF30080AFF300801B
:104B400038B504460D46FFF713F96369A26993422D
:104B500017D1A06878B914E0E36863612068A042C7
:104B60000CD0016821604C60FFF7D2FA4FF00002D0
:104B70008262104638BD6FF0030038BD4FF0000070
:104B800038BDA16801F10101A16003F8015B636117
:104B900022699342E0D2E1E7AFF30080AFF30080F7
:104BA00070B504460E464FF0200383F31188FFF7DB
:104BB000D7F9E3697BB1204698470CE0204631469F
:104BC000FFF776FF051E06DAFFF7A2F94FF00003A4
:104BD00083F3118814E0A0680028EFD000F1FF31C2
:104BE000A160A36913F8015BA3612269934224BF0A
:104BF000E368A361FFF78CF94FF0000383F311889A
:104C0000284670BDAFF30080AFF30080AFF30080A3
:104C10002DE9F84F04460F461D46C66992465AB91B
:104C20004FF28020C0F601004FF29421C0F601013E
:104C30004FF0E702FFF75CF84FF0200383F3118891
:104C4000FFF78EF907F10108BA444FF00007B946A3
:104C50004FF0200B76B12046B0470BE020462946A6
:104C6000FFF726FF30B1FFF753F94FF0000383F34E
:104C7000118821E0A368002BF0D003F1FF30A06081
:104C8000A16911F8012B08F8012CA161236999424F
:104C900024BFE168A161FFF73BF94B4683F311881C
:104CA00007F10107D04507D05B4683F31188FFF772
:104CB00057F908F10108CDE73846BDE8F88F00BF85
:104CC00040600060826041618161C160891801615A
:104CD000C361009B03627047AFF30080AFF30080B5
:104CE00070B50446FFF744F8E3686361A361226985
:104CF000D01AA06020682546A0420AD06FF00106B5
:104D0000016821604D60FFF703FA86622068A842BF
:104D1000F6D170BDAFF30080AFF30080AFF3008039
:104D2000F8B504460F4616464FF0200383F311886A
:104D3000FFF716F90CE020463146FFF7B9FE051ED5
:104D400006DAFFF7E5F84FF0000383F3118819E066
:104D5000A368002BEFD003F1FF30A060616901F878
:104D6000017B61612269914224BFE1686161E5696B
:104D70000DB12046A847FFF7CBF84FF0000383F3AF
:104D800011881D462846F8BDAFF30080AFF30080C0
:104D900038B50446FEF7ECFFA36962699A4214D164
:104DA000A06878B911E0E368A3612068A04207D049
:104DB000016821604C60FFF7ABF94FF0000282629E
:104DC000284638BD6FF0020038BDA16801F101012D
:104DD000A16013F8015BA36122699342E3D2E4E787
:104DE0002DE9F84F04460F469B46D0F81C80154627
:104DF0005AB94FF2B820C0F601004FF29421C0F624
:104E0000010140F29B12FEF773FF4FF0200383F382
:104E10001188FFF7A5F84FF00006B1464FF0200AC1
:104E20000BE020465946FFF743FE30B1FFF770F81C
:104E30004FF0000383F3118824E0A368002BF0D027
:104E400003F1FF30A06017F8012B616901F8012B15
:104E500061612369994224BFE1686161B8F1000F83
:104E600001D02046C047FFF753F84B4683F3118823
:104E700006F10106013D05D0534683F31188FFF783
:104E80006FF8DAE73046BDE8F88F00BFAFF3008077
:104E9000094A22F0070040F2C813C1F2000318606B
:104EA0004CF20001C2F2010121F0070240F2C410ED
:104EB000C1F2000002607047BBA50120AFF3008083
:104EC00010B50446FEF754FF04F1070323F0070171
:104ED00040F2C812C1F20002106840F2C413C1F2DD
:104EE00000031A68131A994206D8411840F2C812F2
:104EF000C1F20002116010BD4FF0000010BD00BFF4
:104F000010B504464FF0200383F31188FFF728F80B
:104F10002046FFF7D5FF0446FEF7FAFF4FF00003E7
:104F200083F31188204610BDAFF30080AFF30080FB
:104F300008B540F2D010C1F2000044F60173C0F68B
:104F4000000303604FF000018160C16000F11000B8
:104F5000FFF72EFC08BD00BFAFF30080AFF3008069
:104F600070B5064618B940F2D016C1F2000601F13C
:104F7000070525F0070506F1080406F11000FFF704
:104F8000D7FC1AE05A68954216D805F108019142FB
:104F900002D91A68226009E05A18186858505968EE
:104FA000A1F10801481B506022605D601C4644F876
:104FB000086BFFF7D5FC13E01C462368002BE1D1FA
:104FC000FFF7CEFC316849B105F108008847044677
:104FD00030B10660456004F1080401E04FF00004C0
:104FE000204670BDAFF30080AFF30080AFF30080C8
:104FF0002DE9F047074658B94FF20030C0F60100DE
:105000004FF2E021C0F601014FF0C602FEF770FE3C
:10501000A7F1080557F8080C00F1080600F1100088
:10502000FFF786FC34464FF2103AC0F6010A4FF201
:10503000E029C0F601094FF0D008AC420AD86368F5
:1050400003F10803E018854204D25046494642461F
:10505000FEF74EFEB44201D0AC4228D2216809B11D
:105060008D4224D247F8081C256057F8042C02F121
:105070000803E91857F8080C814208D1496852180A
:1050800002F1080247F8042CEB5847F8083C606826
:1050900000F10801621895420BD157F8043CC01882
:1050A00000F10800606057F8081C216001E02468E6
:1050B000C3E7FFF755FCBDE8F08700BFAFF3008002
:1050C00038B504460D46FEF753FE04B15DB94FF204
:1050D0007830C0F601004FF24031C0F601014FF0C8
:1050E0009902FEF705FE23682B60256038BD00BFDE
:1050F00038B505460C464FF0200383F31188FEF7C0
:105100002FFF28462146FFF7DBFFFEF701FF4FF098
:10511000000383F3118838BDAFF30080AFF3008044
:10512000F0B40746002B08BF0B4600F10B0007F157
:105130000A050E46B1FBF2F402FB141101F1300432
:10514000392CC8BF01F13704AC4605F80149B6FB5C
:10515000F2F1B3FBF2F3002BEBD1CCEB0002B81869
:105160006FEA0703C11801F001042A4612F8011F73
:105170003B4603F8011B834210D10DE002F101040C
:105180005278194601F8012B04F1010264785C7031
:1051900001F101038342F1D1F0BC7047002CEDD046
:1051A00012F8011F03F8011B8342E7D1F4E700BFA7
:1051B00008B54FF00003FFF7B3FF08BDAFF3008061
:1051C0002DE9F04F2DED048B8BB007460E461546AA
:1051D0004FF0000BDFED9A9A4CF6CD40CCF6CC4068
:1051E00002904FF2A033C0F601030393B04618F8C3
:1051F000011B002900F0ED81252905D03A6893684C
:10520000384698474646F1E771782D2903BF06F1E5
:10521000020801220192CDF804B098F800202E2A4D
:1052200001D0302A04D108F101084FF0300401E028
:105230004FF020044046D84610F8012B0646A2F154
:105240003003D9B2092904D92A2A07D1297805F1CE
:10525000040508EB880A01EB4A08EDE72E2A13D172
:105260000146DA4611F8012B0E46A2F13000C0B219
:10527000092804D92A2A08D1287805F104050AEB5F
:105280008A0600EB460AEDE7DA466C2A01D04C2A82
:1052900005D1307820B106F10106024600E0FFE7B3
:1052A000A2F14403342B00F21781DFE813F08100F0
:1052B00015011501150115018100150115011501D3
:1052C000150115010701150115011501150115013C
:1052D0000A0115011501350015011501150115010A
:1052E0001501150115011501150115013800810081
:1052F0001501970015011501810015011501150112
:1053000015011501070115011501150144001501CD
:105310000A011501150135004FF01002D3E02C6889
:105320000DF1280909F8184D05F104054FF0200486
:105330000DF11100E4E005F10404D5F80090B9F195
:10534000000F039D08BFA94647F6FF72BAF1000F90
:1053500008BF924699F80010002900F0C480BAF105
:10536000010F00F1C5804B4609EB0A056FEA090001
:10537000421902F0010103F10103184699F80120D6
:10538000002A40F04381B8E002F101031846527848
:10539000002A00F0B2801A4603F1010108465B784A
:1053A000002B40F04681A8E025464FF02004A7E0FE
:1053B000296805F10405002908DA4FF02D008DF861
:1053C0001000C1F100010DF1110000E004A84FF040
:1053D0000A02FFF7EDFE0DF1100991E005F1070556
:1053E00025F0070000F10805D0E90001FDF708FAF3
:1053F00009EE100AB4EEE99AF1EE10FA08D54FF072
:105400002D028DF81020B1EE499A0DF1110901E03D
:105410000DF1100919EE100AFCF7D6FE41EC180B3D
:1054200016F05EF870B94FF04E0189F800104FF099
:10543000610289F8012089F8021009F103003AE0BD
:105440000000000048F2A061C0F20101BAF1000FB3
:1054500008BF8A46BDEEC99A484619EE101A4FF0A9
:105460000A025B46FFF75CFE81464FF02E0309F807
:10547000013B19EE100AFCF795FE02460B4651EC73
:10548000180BFCF741FD41EC180B5046FCF77AFE77
:1054900002460B4651EC180BFCF7EAFEFDF788F9C3
:1054A00001460298A0FB0A2348464FF00A024FEA41
:1054B000D303FFF735FE0DF1100921E04FF008028C
:1054C00001E04FF00A02296805F1040504A8FFF77E
:1054D0006FFE0DF1100913E00DF1280909F8182DE0
:1054E0000DF111000CE0254648464FF0200407E07E
:1054F000254648464FF0200402E025464FF02004A0
:10550000C9EB000ACAEB080C2CEAEC78019B0BB93A
:10551000C8F10008B8F1000F2DDA99F800102D2914
:105520000BD1302C09D109F101093B689A68384642
:105530004FF02D0190470AF1FF3A6FEA080000F0A2
:10554000010101913B689A6838462146904718F15D
:10555000010843D136E03A689368384621469847B7
:1055600008F101083868826838462146904718F1EA
:105570000108F0D126E039680B68384649465246A2
:105580009847B8F1000F3FF431AE08F1FF3E0EF03E
:1055900001093A689368384621469847B8F10108EE
:1055A00028D123E639688B6838462146984708F1A8
:1055B000FF3838688268384621469047B8F10108BC
:1055C000F0D113E639680B68384649465246984789
:1055D0000CE60BB0BDEC048BBDE8F08F0198002801
:1055E000B9D039688B6838462146984718F10108C8
:1055F000B1D1E7E7B9F1000FD4D0386882683846F6
:1056000021469047B8F10108CCD1EFE51A46AB42EC
:105610003FF4CAAE00293FF4B7AE03F101010846DA
:105620005B78002B3FF469AF0A46A9427FF4ACAE29
:10563000BAE602F10102A9427FF4A6AEB4E600BFC9
:10564000C36882689A4208D04268D154C16801F1A7
:105650000101C1604FF0000070476FF0010070471A
:105660000369C2689A4206D04168CA5C03F101032B
:105670000361104670476FF001007047AFF3008080
:1056800038B504460369C568ED1AAA4238BF154605
:1056900042680846D1182A4617F002FC20694119D1
:1056A0002161284638BD00BFAFF30080AFF3008012
:1056B00038B50446C3688568ED1AAA4238BF154656
:1056C0004068C0182A4617F0EBFBE1684A19E2600F
:1056D000284638BDAFF30080AFF30080AFF3008001
:1056E00010B44FF2B034C0F601040460416082602F
:1056F000C3604FF00003036110BC7047AFF300803C
:1057000010B44B680A684FF00001C160C1610161CB
:1057100041610160416081604FF0FF340462C2F377
:105720004231072908BF00218161C2F3011404EB53
:10573000840102F00F0404EB4101C160C2F30031A7
:105740004FEA81046118C2F3032404EB410101F123
:10575000FF340461C2F3035101EB8104C2F303423D
:1057600002EB440101F164014161C3F3021404EB53
:10577000840203F00F0101EB42040460C3F3023220
:1057800002EB8204C3F3032101EB44024260C3F342
:10579000015404EB8404C3F380524FEA42018A1897
:1057A0004FEA820101EB4402C3F30343D118816045
:1057B00010BC7047AFF30080AFF30080AFF3008000
:1057C000F0B44FF000030B604B604269A2F1640239
:1057D0004CF6CD44CCF6CC44A4FB02454FEAD507A9
:1057E0004FEA075606F4700407EB8703A2EB430267
:1057F00044EA02470F608569002D08BF07254FEA7C
:10580000457647EA16450D60066906F101064CF635
:10581000CD43CCF6CC43A3FB06424FEAD2044FEA79
:10582000043707F4805704EB8402A6EB420647EAEC
:1058300006242C430C60C568A3FB05624FEAD20224
:105840004FEA021606F0300602EB8202A5EB420593
:105850002E4334430C608568A3FB05424FEAD20413
:105860004FEA045606F4401604EB8402A5EB420509
:1058700046EA05444C604568A3FB05624FEAD20244
:105880004FEA023606F4E04602EB8202A5EB420242
:1058900046EA022222434A600068A3FB00434FEA23
:1058A000D3034FEA031404F0700403EB8303A0EB6B
:1058B000430044EA00031A434A60F0BC704700BF4B
:1058C00010B584B00C464FF00003009301938DF89F
:1058D00008300393694604F083FA20466946FFF7CF
:1058E0000FFF04B010BD00BFAFF30080AFF3008026
:1058F00010B584B004464FF00003009301938DF877
:105900000830039308466946FFF75AFF2046694668
:1059100004F03EFA04B010BDAFF30080AFF3008096
:1059200000B58FB04FF000030A930B938DF8303021
:105930000D930AA904F054FA01A80AA9FFF7E0FEA2
:1059400001A817F0F5FC0FB000BD00BFAFF3008059
:1059500010B590B0044601914FF000030C930D93E5
:105960008DF838300F9301A803A917F091FA03A816
:105970000CA9FFF725FF20460CA904F009FA10B086
:1059800010BD00BFAFF30080AFF30080AFF3008025
:1059900070B504460E46154603680F2B0BD14FF227
:1059A000C030C0F601004FF2D431C0F601014FF013
:1059B0000D0201F04DFA206800F10102226004EBB3
:1059C00080014E6000F1100044F8205070BD00BF0F
:1059D00070B506460368002B0DDDA0F104044FF0FE
:1059E000000504F104046168206C884705F1010595
:1059F0003068A842F5DC70BDAFF30080AFF30080E3
:105A00002DE9F04106460F4690460368002B0EDD57
:105A1000A0F104054FF0000405F104056A6838465A
:105A20004146904704F101043068A042F4DCBDE82F
:105A3000F08100BFAFF30080AFF30080AFF30080D0
:105A400010B4002943DD034644184FF000006FF006
:105A5000270113F8012B504010F0800F0CBF4000BD
:105A600081EA4000C2B212F0800F0CBF520081EAFE
:105A70004202D0B210F0800F0CBF400081EA40001B
:105A8000C2B212F0800F0CBF520081EA4202D0B2C3
:105A900010F0800F0CBF400081EA4000C2B212F04B
:105AA000800F0CBF520081EA4202D0B210F0800F8A
:105AB0000CBF400081EA4000C2B212F0800F14BF58
:105AC00081EA42025200D0B2A342C2D101E04FF0BB
:105AD000000010BC704700BFAFF30080AFF3008040
