:020000040800F2
:100000000010002071300108512E0108C1EA0308D8
:10001000512E0108A1EA030881EA0308512E0108C4
:10002000512E0108512E0108512E0108A12E010860
:1000300061EA0308512E0108512E0108712E0108B2
:10004000512E010801B30008512E010841B40008E7
:10005000512E0108512E0108E1AF000821B000081F
:1000600061B00008A1B00008E1B00008E1B80008E4
:1000700041B90008A1B9000801BA000861BA000836
:10008000C1BA000821BB000891E2000831830008D2
:1000900051830008718300089183000821B1000892
:1000A000D1C9000851C90008512E010871C90008C2
:1000B00091C90008B1C90008A18E0008117B000891
:1000C000317B0008512E0108512E0108512E0108E4
:1000D000512E0108C1C40008E1C4000801C5000890
:1000E00001B2000841B3000881B30008512E010895
:1000F000C18E0008512E0108018F000881BB000845
:10010000512E0108512E0108A1C60008512E0108E8
:10011000512E0108512E0108512E0108512E0108BF
:10012000E1BB000841BC0008A1BC000801BD0008FB
:1001300061BD0008512E0108C1B30008B183000859
:10014000D1830008F18300081184000861AB000826
:10015000C1BD000821BE000881BE0008512E010863
:10016000512E0108512E0108512E0108512E01086F
:1001700001B40008512E0108512E0108512E01082A
:10018000512E0108512E0108512E0108512E01084F
:10019000512E0108512E0108512E0108512E01083F
:0C01A000512E0108512E0108512E0108BB
:1001AC00E9020008415200083175010851A001080C
:1001BC00D1AB010821D20108C1DC010891E601088C
:1001CC00A1EF0108E1F2010861000208D110020858
:1001DC00F112020871200208B1300208014B02082A
:1001EC0061590208317B0208F1900208A1A10208B2
:1001FC0001B3020821D8020831DF020811E202081B
:10020C0081240308612A0308A1360308D13E0308A0
:10021C00C14F0308D15E030801600308016803089D
:10022C00F16D0308F1890308918D0308719403089B
:10023C002198030801A40308E1A7030831B70308B8
:08024C0071CA030871D903080F
:04025400B9020008E3
:1002600008B541F6A070074BC2F200001B1A062B1E
:1002700000D808BD40F20003C0F20003002BF8D004
:100280009847F6E7A31F002008B541F6A07041F695
:10029000A073C2F20000C2F200031B1A9B1003EB12
:1002A000D373591000D108BD40F20002C0F2000221
:1002B000002AF8D09047F6E710B541F6A074C2F2D4
:1002C0000004237873B9FFF7CBFF40F20003C0F2BC
:1002D00000032BB14DF6E040C0F60400AFF3008000
:1002E0000123237010BD00BF08B540F20003C0F227
:1002F00000034BB14DF6E04041F6A471C0F6040096
:10030000C2F20001AFF3008041F6A070C2F200001B
:1003100003682BB140F20003C0F2000303B1984719
:10032000BDE80840B0E700BF00000000000000008A
:1003300081F0004102E000BF83F0004330B54FEA96
:1003400041044FEA430594EA050F08BF90EA020F03
:100350001FBF54EA000C55EA020C7FEA645C7FEA96
:10036000655C00F0E2804FEA5454D4EB5555B8BFB9
:100370006D420CDD2C4480EA020281EA030382EA2A
:10038000000083EA010180EA020281EA0303362DBC
:1003900088BF30BD11F0004F4FEA01314FF4801C8F
:1003A0004CEA113102D0404261EB410113F0004FA1
:1003B0004FEA03334CEA133302D0524263EB430358
:1003C00094EA050F00F0A780A4F10104D5F1200EF6
:1003D0000DDB02FA0EFC22FA05F2801841F1000151
:1003E00003FA0EF2801843FA05F359410EE0A5F125
:1003F00020050EF1200E012A03FA0EFC28BF4CF056
:10040000020C43FA05F3C01851EBE37101F000450B
:1004100007D54FF0000EDCF1000C7EEB00006EEB18
:100420000101B1F5801F1BD3B1F5001F0CD34908A2
:100430005FEA30004FEA3C0C04F101044FEA4452F9
:1004400012F5800F80F09A80BCF1004F08BF5FEA80
:10045000500C50F1000041EB045141EA050130BD60
:100460005FEA4C0C404141EB010111F4801FA4F103
:100470000104E9D191F0000F04BF01460020B1FA58
:1004800081F308BF2033A3F10B03B3F120020CDA90
:100490000C3208DD02F1140CC2F10C0201FA0CF06E
:1004A00021FA02F10CE002F11402D8BFC2F1200CD3
:1004B00001FA02F120FA0CFCDCBF41EA0C01904089
:1004C000E41AA2BF01EB0451294330BD6FEA0404D2
:1004D0001F3C1CDA0C340EDC04F11404C4F12002BD
:1004E00020FA04F001FA02F340EA030021FA04F3CF
:1004F00045EA030130BDC4F10C04C4F1200220FA26
:1005000002F001FA04F340EA0300294630BD21FA63
:1005100004F0294630BD94F0000F83F4801306BF29
:1005200081F480110134013D4EE77FEA645C18BF1D
:100530007FEA655C29D094EA050F08BF90EA020FB4
:1005400005D054EA000C04BF1946104630BD91EAAC
:10055000030F1EBF0021002030BD5FEA545C05D1AF
:100560004000494128BF41F0004130BD14F58004EE
:100570003CBF01F5801130BD01F0004545F0FE4162
:1005800041F470014FF0000030BD7FEA645C1ABF97
:10059000194610467FEA655C1CBF0B46024650EACE
:1005A000013406BF52EA033591EA030F41F40021FA
:1005B00030BD00BF90F0000F04BF0021704730B580
:1005C0004FF4806404F132044FF000054FF0000155
:1005D00050E700BF90F0000F04BF0021704730B516
:1005E0004FF4806404F1320410F0004548BF4042EB
:1005F0004FF000013EE700BF42004FEAE2014FEA40
:1006000031014FEA02701FBF12F07F4393F07F4F1A
:1006100081F06051704792F0000F14BF93F07F4F4C
:10062000704730B54FF4607401F0004521F000418F
:1006300020E700BF50EA010208BF704730B54FF015
:1006400000050AE050EA010208BF704730B511F01A
:10065000004502D5404261EB41014FF4806404F152
:1006600032045FEA915C3FF4DCAE4FF003025FEAD4
:10067000DC0C18BF03325FEADC0C18BF033202EB5C
:10068000DC02C2F1200300FA03FC20FA02F001FAB6
:1006900003FE40EA0E0021FA02F11444C1E600BF55
:1006A00070B54FF0FF0C4CF4E06C1CEA11541DBF08
:1006B0001CEA135594EA0C0F95EA0C0F00F0DEF8D3
:1006C0002C4481EA030621EA4C5123EA4C5350EAB8
:1006D000013518BF52EA033541F4801143F4801309
:1006E00038D0A0FB02CE4FF00005E1FB02E506F09A
:1006F0000042E0FB03E54FF00006E1FB03569CF0EF
:10070000000F18BF4EF0010EA4F1FF04B6F5007FF4
:1007100064F5407404D25FEA4E0E6D4146EB060666
:1007200042EAC62141EA55514FEAC52040EA5E50EF
:100730004FEACE2EB4F1FD0C88BFBCF5E06F1ED899
:10074000BEF1004F08BF5FEA500E50F1000041EBD0
:10075000045170BD06F0004646EA010140EA02007D
:1007600081EA0301B4EB5C04C2BFD4EB0C0541EA9F
:10077000045170BD41F480114FF0000E013C00F3B4
:10078000AB8014F1360FDEBF002001F0004170BDD8
:10079000C4F10004203C35DA0C341BDC04F11404F1
:1007A000C4F1200500FA05F320FA04F001FA05F27D
:1007B00040EA020001F0004221F0004110EBD3704A
:1007C00021FA04F642EB06015EEA430E08BF20EA76
:1007D000D37070BDC4F10C04C4F1200500FA04F319
:1007E00020FA05F001FA04F240EA020001F00041AB
:1007F00010EBD37041F100015EEA430E08BF20EA1E
:10080000D37070BDC4F1200500FA05F24EEA020E65
:1008100020FA04F301FA05F243EA020321FA04F094
:1008200001F0004121FA04F220EA020000EBD3704B
:100830005EEA430E08BF20EAD37070BD94F0000F4B
:100840000FD101F00046400041EB010111F4801F7F
:1008500008BF013CF7D041EA060195F0000F18BF30
:10086000704703F00046520043EB030313F4801F6C
:1008700008BF013DF7D043EA0603704794EA0C0F26
:100880000CEA135518BF95EA0C0F0CD050EA41063C
:1008900018BF52EA4306D1D181EA030101F00041B9
:1008A0004FF0000070BD50EA410606BF10461946E1
:1008B00052EA430619D094EA0C0F02D150EA0136ED
:1008C00013D195EA0C0F05D152EA03361CBF10462E
:1008D00019460AD181EA030101F0004141F0FE41CD
:1008E00041F470014FF0000070BD41F0FE4141F451
:1008F000780170BD70B54FF0FF0C4CF4E06C1CEA51
:1009000011541DBF1CEA135594EA0C0F95EA0C0F05
:1009100000F0A7F8A4EB050481EA030E52EA0335C0
:100920004FEA013100F088804FEA03334FF08055E1
:1009300045EA131343EA12634FEA022245EA11150E
:1009400045EA10654FEA00260EF000419D4208BFBF
:10095000964244F1FD0404F5407402D25B084FEA6C
:100960003202B61A65EB03055B084FEA32024FF418
:1009700080104FF4002CB6EB020E75EB030E22BF75
:10098000B61A754640EA0C005B084FEA3202B6EB35
:10099000020E75EB030E22BFB61A754640EA5C00E4
:1009A0005B084FEA3202B6EB020E75EB030E22BF74
:1009B000B61A754640EA9C005B084FEA3202B6EB75
:1009C000020E75EB030E22BFB61A754640EADC0034
:1009D00055EA060E18D04FEA051545EA16754FEA96
:1009E00006164FEAC30343EA52734FEAC2025FEAB4
:1009F0001C1CC0D111F4801F0BD141EA00014FF043
:100A000000004FF0004CB6E711F4801F04BF014313
:100A10000020B4F1FD0C88BFBCF5E06F3FF6AFAE2F
:100A2000B5EB030C04BFB6EB020C5FEA500C50F1BF
:100A3000000041EB045170BD0EF0004E4EEA113142
:100A400014EB5C04C2BFD4EB0C0541EA045170BD49
:100A500041F480114FF0000E013C90E645EA060E8D
:100A60008DE60CEA135594EA0C0F08BF95EA0C0FBB
:100A70003FF43BAF94EA0C0F0AD150EA01347FF403
:100A800034AF95EA0C0F7FF425AF104619462CE7DA
:100A900095EA0C0F06D152EA03353FF4FDAE10463D
:100AA000194622E750EA410618BF52EA43067FF48E
:100AB000C5AE50EA41047FF40DAF52EA43057FF41E
:100AC000EBAE12E700000000000000000000000094
:100AD0004FF0FF3C06E000BF4FF0010C02E000BF0A
:100AE0004FF0010C4DF804CD4FEA410C7FEA6C5CED
:100AF0004FEA430C18BF7FEA6C5C1BD001B050EA90
:100B0000410C0CBF52EA430C91EA030F02BF90EA7A
:100B1000020F0020704710F1000F91EA030F58BF39
:100B2000994208BF90422CBFD8176FEAE37040F09B
:100B3000010070474FEA410C7FEA6C5C02D150EA39
:100B4000013C07D14FEA430C7FEA6C5CD6D152EAF4
:100B5000033CD3D05DF8040B704700BF84461046B9
:100B600062468C461946634600E000BF01B5FFF7B8
:100B7000B7FF002848BF10F1000F01BD4DF808ED88
:100B8000FFF7F4FF0CBF012000205DF808FB00BF59
:100B90004DF808EDFFF7EAFF34BF012000205DF8B3
:100BA00008FB00BF4DF808EDFFF7E0FF94BF012000
:100BB00000205DF808FB00BF4DF808EDFFF7CEFF01
:100BC00094BF012000205DF808FB00BF4DF808ED40
:100BD000FFF7C4FF34BF012000205DF808FB00BF11
:100BE0004FEA410212F5001215D211D56FF4787355
:100BF000B3EB625212D94FEAC12343F0004343EAF8
:100C0000505311F0004F23FA02F018BF40427047D2
:100C10004FF00000704750EA013005D111F000405C
:100C200008BF6FF0004070474FF00000704700BFF2
:100C30004FEA4102B2F1E04324BFB3F5001CDCF1FE
:100C4000FE5C0DD901F0004C4FEAC0024CEA507036
:100C5000B2F1004F40EB830008BF20F00100704765
:100C600011F0804F21D113F13872BCBF01F0004068
:100C7000704741F480114FEA5252C2F11802C2F19A
:100C8000200C10FA0CF320FA02F018BF40F001001B
:100C90004FEAC1234FEAD32303FA0CFC40EA0C00CD
:100CA00023FA02F34FEA4303CCE77FEA625307D10A
:100CB00050EA01331EBF4FF0FE4040F44000704741
:100CC00001F0004040F0FE4040F40000704700BFDB
:100CD00080F0004002E000BF81F0004142001FBFF1
:100CE0005FEA410392EA030F7FEA226C7FEA236CFA
:100CF0006AD04FEA1262D2EB1363C1BFD2184140EF
:100D000048404140B8BF5B42192B88BF704710F084
:100D1000004F40F4000020F07F4018BF404211F027
:100D2000004F41F4000121F07F4118BF494292EA8F
:100D3000030F3FD0A2F1010241FA03FC10EB0C00BB
:100D4000C3F1200301FA03F100F0004302D5494248
:100D500060EB4000B0F5000F13D3B0F1807F06D3F5
:100D600040084FEA310102F10102FE2A51D2B1F1ED
:100D7000004F40EBC25008BF20F0010040EA0300E2
:100D80007047490040EB000010F4000FA2F101028F
:100D9000EDD1B0FA80FCACF1080CB2EB0C0200FA19
:100DA0000CF0AABF00EBC25052421843BCBFD04067
:100DB0001843704792F0000F81F4000106BF80F4E1
:100DC00000000132013BB5E74FEA41037FEA226CA4
:100DD00018BF7FEA236C21D092EA030F04D092F06F
:100DE000000F08BF0846704790EA010F1CBF0020A3
:100DF000704712F07F4F04D1400028BF40F0004000
:100E0000704712F100723CBF00F50000704700F01F
:100E1000004343F0FE4040F4000070477FEA226246
:100E200016BF08467FEA23630146420206BF5FEA17
:100E3000412390EA010F40F4800070474FF0000317
:100E400004E000BF10F0004348BF40425FEA000CDE
:100E500008BF704743F0964301464FF000001CE086
:100E600050EA010208BF70474FF000030AE000BFDC
:100E700050EA010208BF704711F0004302D540421A
:100E800061EB41015FEA010C02BF8446014600208C
:100E900043F0B64308BFA3F18053A3F50003BCFAA7
:100EA0008CF2083AA3EBC25310DB01FA02FC634454
:100EB00000FA02FCC2F12002BCF1004F20FA02F25B
:100EC00043EB020008BF20F00100704702F120024E
:100ED00001FA02FCC2F1200250EA4C0021FA02F2AF
:100EE00043EB020008BF20EADC70704700000000FE
:100EF00073B96AB9002908BF0028BCBF00204FF0B1
:100F00000041C4BF6FF000414FF0FF3002F048BB1A
:100F100082B0EC462DE9005000F04AF8DDF804E01C
:100F200002B00CBC704700BF0000000000000000D1
:100F300010B50021044600F0D9F820B92046BDE8DC
:100F4000104000F00DB804F1004000F009F84042F4
:100F500061EB410110BD00BF000000000000000077
:100F600070B5FFF749FB00230022C3F6F053044697
:100F70000D46FFF795FB00F04BF80646FFF71AFB0E
:100F800000230022C4F2F013FFF78AFB02460B464F
:100F900020462946FFF7D0F900F03AF80022314602
:100FA00042EA0004204670BD00000000000000007E
:100FB0002DE9F0471746804689469A46089E00F07C
:100FC000BFF8A7FB004507FB01F700FB0A721544B9
:100FD000B8EB040469EB0505C6E90045BDE8F087F8
:100FE0002DE9F8431746804689461D46089E00F0C5
:100FF00057FA00FB05F3A0FB074507FB01373D440B
:10100000B8EB040469EB0505C6E90045BDE8F883C3
:101010004A0011D212F5001211D20DD56FF4787377
:10102000B3EB62520ED44FEAC12343F0004343EACC
:10103000505323FA02F070474FF00000704750EA17
:10104000013002D14FF0FF3070474FF00000704781
:101050004FF0FF3C06E000BF4FF0010C02E000BF84
:101060004FF0010C4DF804CD4FEA40024FEA410326
:101070007FEA226C18BF7FEA236C11D001B052EADC
:10108000530C18BF90EA010F58BFB2EB030088BFA2
:10109000C81738BF6FEAE17018BF40F00100704711
:1010A0007FEA226C02D15FEA402C05D17FEA236CF3
:1010B000E4D15FEA412CE1D05DF8040B704700BF3A
:1010C000844608466146FFE70FB5FFF7C9FF0028D1
:1010D00048BF10F1000F0FBD4DF808EDFFF7F4FF0A
:1010E0000CBF012000205DF808FB00BF4DF808EDA3
:1010F000FFF7EAFF34BF012000205DF808FB00BFC6
:101100004DF808EDFFF7E0FF94BF012000205DF8E7
:1011100008FB00BF4DF808EDFFF7D2FF94BF012098
:1011200000205DF808FB00BF4DF808EDFFF7C8FF91
:1011300034BF012000205DF808FB00BF0000000064
:101140002DE9F04F444261EB410500294FF0FF3695
:10115000A2BF04460D460026002B85B0C0F2C78012
:101160002046AA469446194690462746A946002B93
:1011700058D1AA426CD9B2FA82F35BB1C3F1200212
:1011800005FA03F924FA02F20CFA03F842EA090913
:1011900004FA03F74FEA1844484621461FFA88FA32
:1011A00000F0FEFA21468346484600F027FC3A0C40
:1011B0000AFB0BF042EA014188420BD911EB08010E
:1011C0000BF1FF3305D2884284BFABF1020B4144DF
:1011D00000D89B46C0EB010921464846BFB200F04B
:1011E000DFFA21460546484600F008FC0AFB05FAEE
:1011F00047EA01418A4509D911EB080805F1FF3397
:1012000003D2C24588BF023D00D81D4645EA0B43C4
:1012100000241846214616B1404261EB410105B059
:10122000BDE8F08FAB4284BF00242346F1D8B1FA69
:1012300081F5002D40F0B580514528BF82428CBF1A
:10124000002401249CBF01232C46E2D92346E0E779
:1012500022B91146012000F0A3FA8046B8FA88F3BB
:10126000002B49D1C8EB09094FEA18451FFA88FA43
:1012700001242946484600F093FA29468346484609
:1012800000F0BCFB3A0C0AFB0BF042EA0141884239
:101290000CD911EB08010BF1FF3380F0F28088428A
:1012A00084BFABF1020B414440F2EB800A1A29469D
:1012B0001046019200F074FA019A2946BFB28146A5
:1012C000104600F09BFB0AFB09FA47EA01418A45F8
:1012D0000AD911EB080809F1FF3304D2C24588BFCF
:1012E000A9F1020900D8994649EA0B4391E7F64370
:1012F000524263EB430333E708FA03F8C3F1200BD0
:1013000029FA0BF409FA03F94FEA18452046294651
:1013100027FA0BFB9F4000F043FA29461FFA88FA90
:101320004BEA090B02462046019200F067FB019A46
:101330004FEA1B430AFB02F043EA014188420BD902
:1013400011EB080102F1FF3380F0A180884284BFD5
:10135000023A414440F29B80C0EB010929464846CD
:10136000019200F01DFA29461FFA8BFB04464846FD
:1013700000F044FB019A0AFB04F94BEA014189455C
:101380000AD911EB080104F1FF3304D2894584BF67
:10139000023C414400D81C46C9EB010944EA02441E
:1013A00067E7C5F12003A94022FA03F82AFA03FBF4
:1013B00048EA010820FA03F30AFA05FA58464FEA08
:1013C000184902FA05FC494643EA0A0ACDF80CC05E
:1013D00000F0E6F949460446584600F00FFB1FFAB4
:1013E00088F24FEA1A4E02FB04F04EEA014E7045B5
:1013F00009D91EEB080E04F1FF3146D2704584BFB7
:10140000023CC64441D9C0EB0E0C494660460192ED
:10141000CDF808C000F0C4F9DDF808C049461FFA4D
:101420008AFA8346604600F0E9FA019A02FB0BF261
:101430004AEA01418A420AD911EB08010BF1FF3057
:1014400021D28A4284BFABF1020B41441BD90398DD
:101450004BEA044B891AABFB002399420DD314BF0E
:101460000023012307FA05F494422CBF002403F063
:1014700001045B46002C3FF4CCAE0BF1FF3300249B
:10148000C7E69B4612E78346E1E70C46BBE71A46F0
:1014900062E700BF00000000000000000000000044
:1014A0002DE9F04F064683B00D46144607468846A0
:1014B000002B51D18A4264D9B2FA82F35BB1C3F1F5
:1014C000200801FA03F520FA08F802FA03F448EAC2
:1014D000050800FA03F7250C404629461FFA84FA4E
:1014E00000F05EF929468146404600F087FA3B0C41
:1014F0000AFB09F043EA014188420AD9091909F1B6
:10150000FF3205D2884284BFA9F10209091900D827
:101510009146C0EB010829464046BFB200F040F9B1
:1015200029460646404600F069FA0AFB06FA47EAF1
:1015300001418A4509D90C1906F1FF3380F0198160
:10154000A24588BF023E40F2148146EA09400026C7
:10155000314603B0BDE8F08F8B4284BF0026304691
:10156000F6D8B3FA83F4002C5AD18B4228BFB2428A
:101570008CBF002601269CBF01202646E8D93046B4
:10158000E6E722B91146012000F00AF90446B4FA50
:1015900084F3002B40F0A2802D1B4FEA14481FFA61
:1015A00084FA01264146284600F0FAF84146814671
:1015B000284600F023FA3B0C0AFB09F043EA0141FC
:1015C00088420BD9091909F1FF3280F0D480884292
:1015D00084BFA9F10209091940F2CD80C0EB010BCB
:1015E00041465846BFB200F0DBF841460546584632
:1015F00000F004FA0AFB05FA47EA01418A4509D9D5
:101600000C1905F1FF3380F0B880A24588BF023D78
:1016100040F2B38045EA0940314603B0BDE8F08F9F
:10162000C4F12001A34022FA01F825FA01F748EAA3
:101630000308384626FA01F3A5404FEA1849A240AC
:10164000494601921D4300F0ABF8494683463846AF
:1016500000F0D4F91FFA88F22F0C02FB0BF047EAD6
:101660000147B84206D917EB08070BF1FF31C0F06C
:101670008D808B463F1A49463846009200F090F81C
:101680004946ADB28246384600F0B8F9009A02FBEE
:101690000AF245EA01418A4205D911EB08010AF133
:1016A000FF306CD38246019D4AEA0B40891AA0FBA9
:1016B000052399420CD306FA04F614BF0021012138
:1016C00096422CBF002601F00106002E3FF440AFE9
:1016D00000260138314603B0BDE8F08F9C40C3F1CD
:1016E000200925FA09FA06FA03F74FEA144850468A
:1016F00041469D4000F054F8414626FA09F949EA6E
:1017000005098346504600F079F91FFA84FA4FEA3A
:1017100019430AFB0BF043EA0141884209D9091930
:101720000BF1FF333AD2884284BFABF1020B0919A7
:1017300034D90D1A414628461FFA89F900F030F8CD
:1017400041460646284600F059F90AFB06F549EAE3
:1017500001418D4209D9091906F1FF3304D28D42A6
:1017600084BF023E091900D81E464D1B46EA0B46AF
:1017700018E71E46E9E6914630E71D464AE78A42E9
:1017800084BFAAF1020A41448DD88BE7B84284BFD6
:10179000ABF1020B47443FF66DAF6AE79B46C8E7E3
:1017A0004A1E08BF7047C0F02481884240F216816B
:1017B000114200F01781B0FA80F3B1FA81F2A2EB86
:1017C0000303C3F11F0304A202EB03134FF0000253
:1017D0009F4600BFAFF30080B0EBC17F00BF42EB7C
:1017E000020228BFA0EBC170B0EB817F00BF42EBCB
:1017F000020228BFA0EB8170B0EB417F00BF42EB3B
:10180000020228BFA0EB4170B0EB017F00BF42EBAA
:10181000020228BFA0EB0170B0EBC16F00BF42EB2A
:10182000020228BFA0EBC160B0EB816F00BF42EBAA
:10183000020228BFA0EB8160B0EB416F00BF42EB1A
:10184000020228BFA0EB4160B0EB016F00BF42EB8A
:10185000020228BFA0EB0160B0EBC15F00BF42EB0A
:10186000020228BFA0EBC150B0EB815F00BF42EB8A
:10187000020228BFA0EB8150B0EB415F00BF42EBFA
:10188000020228BFA0EB4150B0EB015F00BF42EB6A
:10189000020228BFA0EB0150B0EBC14F00BF42EBEA
:1018A000020228BFA0EBC140B0EB814F00BF42EB6A
:1018B000020228BFA0EB8140B0EB414F00BF42EBDA
:1018C000020228BFA0EB4140B0EB014F00BF42EB4A
:1018D000020228BFA0EB0140B0EBC13F00BF42EBCA
:1018E000020228BFA0EBC130B0EB813F00BF42EB4A
:1018F000020228BFA0EB8130B0EB413F00BF42EBBA
:10190000020228BFA0EB4130B0EB013F00BF42EB29
:10191000020228BFA0EB0130B0EBC12F00BF42EBA9
:10192000020228BFA0EBC120B0EB812F00BF42EB29
:10193000020228BFA0EB8120B0EB412F00BF42EB99
:10194000020228BFA0EB4120B0EB012F00BF42EB09
:10195000020228BFA0EB0120B0EBC11F00BF42EB89
:10196000020228BFA0EBC110B0EB811F00BF42EB09
:10197000020228BFA0EB8110B0EB411F00BF42EB79
:10198000020228BFA0EB4110B0EB011F00BF42EBE9
:10199000020228BFA0EB0110B0EBC10F00BF42EB69
:1019A000020228BFA0EBC100B0EB810F00BF42EBE9
:1019B000020228BFA0EB8100B0EB410F00BF42EB59
:1019C000020228BFA0EB4100B0EB010F00BF42EBC9
:1019D000020228BFA0EB0100104670470CBF012097
:1019E00000207047B1FA81F2C2F11F0220FA02F022
:1019F000704708B14FF0FF3001F0D2BD0029F8D098
:101A00002DE90340FFF7CCFEBDE8064002FB00F3E2
:101A1000A1EB0301704700BF0000000000000000C0
:101A2000032A70B412D940EA01039B070FD10C4678
:101A3000034621461846043404330D680668AE4256
:101A400004D1043A1846032A2146F2D8C2B10578D7
:101A50000C78A54204BF02F1FF32002306D00CE04F
:101A600010F8015F11F8014FA54206D1934203F12E
:101A70000103F5D1002070BC7047281B70BC704773
:101A80001046F8E700000000000000000000000021
:101A90000F2AF0B445D940EA01039B0745D1A2F1D2
:101AA00010070C4603463F0900EB07161036256861
:101AB0001033103443F8105C54F80C5C43F80C5CA1
:101AC00054F8085C43F8085C54F8045C43F8045C80
:101AD000B342ECD17B1C02F00F0CBCF1030F4FEAB8
:101AE00003131944034422D90E461D46644656F892
:101AF000047B043C032C45F8047BF8D8ACF10404C7
:101B000002F0030224F0030404342344214432B1DC
:101B10000A4411F8014B914203F8014BF9D1F0BC92
:101B200070470346002AF3D1F9E70346F0E762461F
:101B3000002AEDD1F3E700BF000000000000000024
:101B40008307F0B448D0541E002A43D0CDB20346D8
:101B500002E0002C3ED0144603F8015B13F0030FA3
:101B600004F1FF32F5D1032C2DD9CDB20F2C45EA6B
:101B7000052545EA054518D9A4F1100703F110061B
:101B80001A463F0906EB07161560103242F80C5C46
:101B900042F8085C42F8045CB242F5D104F00F044C
:101BA0000137032C03EB07130DD91E462246043AD6
:101BB00046F8045B032AFAD8221F04F0030422F03B
:101BC0000302043213442CB1C9B21C4403F8011BB4
:101BD000A342FBD1F0BC704714460346C3E700BFE5
:101BE000C1F30A5C2DE9F843ACF2FF33132B064630
:101BF0000F4613DC002B40DB4FF6FF7CC0F20F0CCE
:101C00004CFA03F303EA010C5CEA000C1CD107F068
:101C10000041C2E900676046BDE8F883332B1EDC53
:101C20004FF0FF33ACF2134C23FA0CFC1CEA000318
:101C30001CD020EA0C060F460B46C2E9006732466C
:101C4000FEF77AFBBDE8F88321EA030700263B464E
:101C5000C2E900673246FEF76FFBBDE8F88307F084
:101C60000041C2E900670020BDE8F88307F00041A9
:101C7000C2E900671846BDE8F88307F000494FF055
:101C80000008C2E90089BDE8F88300BF0000000039
:101C9000830770B506461FD10368A3F1013222EA1B
:101CA000030313F0803F08BF031D15D1184653F8F6
:101CB000044BA4F1013525EA040414F0803FF5D06B
:101CC00003782BB1431C184601330478002CFAD159
:101CD00000F086F8304670BD3046F1E700000000A5
:101CE000C9B2F0B4002947D084070FD00278002A87
:101CF0003FD091423ED0431C05E013F8012B002A4F
:101D000037D0914236D09A071846F6D141EA0127DA
:101D1000036847EA0747A3F1013483EA070224EA8C
:101D20000303A2F1013424EA0202134313F0803FBB
:101D300011D1021D104652F8043B83EA0704A3F1B7
:101D40000136A4F1013526EA030325EA04042343FE
:101D500013F0803FEED00378002B3BD0994209D09E
:101D6000431C01E0914205D0184613F8012B002ACC
:101D7000F8D11046F0BC704781070DD00378002BD6
:101D8000F8D0431C02E00278002AF3D013F0030FCE
:101D9000184603F10103F6D10368A3F1013222EAE8
:101DA000030313F0803F0AD1031D184653F8042B98
:101DB000A2F1013121EA020212F0803FF5D003784E
:101DC000002BD7D0431C184601330278002AFAD1E1
:101DD000F0BC70471846CDE700000000000000008E
:101DE00080EA0102844612F0030F4FD111F0030F75
:101DF00032D14DF8044D11F0040F51F8043B0BD0D3
:101E0000A3F101329A4312F0803F04BF4CF8043B27
:101E100051F8043B16D100BF51F8044BA3F1013235
:101E20009A4312F0803FA4F101320BD14CF8043BED
:101E3000A24312F0803F04BF51F8043B4CF8044B1E
:101E4000EAD023460CF8013B13F0FF0F4FEA33238F
:101E5000F8D15DF8044B704711F0010F06D011F86E
:101E6000012B0CF8012B002A08BF704711F0020F5C
:101E7000BFD031F8022B12F0FF0F16BF2CF8022B47
:101E80008CF8002012F47F4FB3D1704711F8012B6A
:101E90000CF8012B002AF9D1704700BF00000000A8
:101EA00020F0030110F00300C0F1000051F8043BE2
:101EB00000F1040C4FEACC0C6FF000021CBF22FAB8
:101EC0000CF213434FF0010C4CEA0C2C4CEA0C4C76
:101ED000A3EB0C0222EA030212EACC1204BF51F86F
:101EE000043B0430F4D013F0FF0F1FBF013013F494
:101EF0007F4F013013F47F0F18BF0130704700BFD0
:101F0000F0B4002A4BD040EA010313F003032DD1B3
:101F1000032A2BD904680D68AC4227D1043A3ED07D
:101F2000A4F1013525EA040414F0803F3DD10C46AC
:101F300005460EE06B68054666680C46A3F101375E
:101F4000B34227EA030711D1043A28D017F0803FA3
:101F500028D1032A00F1040001F10401EAD8561E39
:101F60002AB928792279801AF0BC7047561E037866
:101F70000A7893421BD1E6B1BBB101368B1C0446F3
:101F8000314405E08B4203F101030BD00028EBD074
:101F900014F8010F13F8012C9042F3D0E3E7104638
:101FA000F0BC70470020F0BC70471846DCE71846CC
:101FB000D9E73046D8E700BF00000000000000006D
:101FC00040EA01039B0770B42BD1032A84BF0B4660
:101FD000054626D9194653F8044BA4F1013626EAE2
:101FE000040616F0803F05D1043A45F8044B032A55
:101FF0001946EFD89AB10C78013A6B1C2C703CB1A1
:102000006AB111F8014F013A03F8014B002CF7D1E6
:102010002AB11A44002103F8011B9342FBD170BC82
:1020200070470546E6E700BF000000000000000022
:1020300038B502460C46002511B909E0421C054698
:1020400010462146FFF74CFE0028F7D1284638BD40
:10205000BDE83840FFF744BE00000000000000006B
:102060004FF0010C2DE9F003644600254FF0FF36D8
:10207000631987198B420DD23F5D10F80380B84574
:102080002FD21D460124C6EB030C63198B4200EBD3
:102090000607F1D34FF0010900254C464FF0FF37FA
:1020A000C2F800C0631900EB070C99420ED91CF866
:1020B00004C010F80380E0451AD91D460124C7EB7F
:1020C00003096319994200EB070CF0D80137013678
:1020D000B74226BFC2F8009038463046BDE8F0034C
:1020E00070470CD04FF0010C2E4664466544BFE7A4
:1020F0000CD04FF001092F464C464D44D2E76445C1
:1021000004F10104B4D11D460124B1E74C4504F1AA
:102110000104C7D11D460124C4E700BF2DE9F04FDB
:10212000ADF2244D164680460D461046194607AAC4
:102130001C46FFF795FF07AB0DF21C42039043F8D6
:10214000044F9342FBD1671E002308A834B1F25C10
:10215000F91A0133A34240F82210F8D1079930460A
:10216000039A3144FFF75CFC002840F08180DDF8E1
:102170000CC02A468246671E0CF1FF3CCDF808C011
:10218000B444CDF810C0DDF80CC005460196CCF182
:10219000010CCDF814C008E025B1079A934238BF6E
:1021A000C2EB04039A44002532460AEB040608EB0E
:1021B00002000021B21A00F0DBF9002853D1002EF2
:1021C00051D008EB060308A913F8013C51F823305D
:1021D000002BE1D1039A954228BF2A46BA4212D277
:1021E000019908EB0A03985C11F802C01144844578
:1021F00006D032E011F8010F13F802C084452CD14B
:102200000132BA42F6D3039B02989D4228BF18467A
:102210001CD2DDF810C008EB0A039CF80010DDF8B2
:1022200008C013F80C20914240F08680DDF804B01D
:10223000049AAB4406E012F8019D13F801C0E14591
:1022400004D108465A4500F1FF31F4D101358542E9
:1022500074D8079DAA44651BA6E7DDF814C00025C5
:10226000E2449244A0E700200DF2244DBDE8F08F37
:10227000DDF80CC02A46DDF80CA04FF0000BCCEBCB
:1022800004030DF12009634538BF6346671E01331F
:10229000254607930CF1FF33B444CDF808C0DDF8B0
:1022A0000CC00193CCF1010CCDF810C00BEB050470
:1022B00008EB02000021A21A00F05AF90028D2D13E
:1022C000002CD0D008EB040313F8013C59F823305C
:1022D00053BBBA4508EB0B0013D2029B1A7810F8D7
:1022E0000A309A4218BF534621D1029A534605E05C
:1022F00012F8011F10F803C08C4518D10133BB42FE
:10230000F6D3019B5A1CAFD0DDF804C016F80C10B0
:1023100010F80C20914206D113F1FF33A4D3F15CE5
:10232000C25C9142F8D0079B9B442246BEE7DDF891
:1023300010C0E3449B44F8E7039887E708EB0A00E2
:1023400092E700BF2DE9F04F8046037887B00E4634
:10235000002B00F001810A789AB1844601310124F2
:1023600002E011F8012B5AB1934214BF002404F08B
:1023700001041CF8013F0D46002BF2D12B7813BB52
:102380001CB1404607B0BDE8F08F08F1010031787C
:10239000FFF7A6FCAD1B012D18BF0028074608BF9C
:1023A0000046EFD0A844474594BFC7EB080401247A
:1023B0001F2D0CD93846214632462B46FFF7AEFE7C
:1023C00007B0BDE8F08F002007B0BDE8F08F2946C8
:1023D00005AA3046FFF744FE0599314400900246B5
:1023E0003046FFF71DFB002857D1009B83468046EF
:1023F0002246013B019333440293009BC3F1010346
:10240000039308EB0504B8180021A21A00F0B0F8F5
:102410000028D8D1002CD6D0009B9B4528BF5B4616
:102420009D4214D9F918F05CF21811F8081088428E
:1024300040F08C8007EB080C06E012F8011F1CF836
:102440000300884240F0828001339D42F5D8009B12
:1024500001995B4540F28380029B07EB08091A78DB
:1024600019F801309A427AD1029B06EB0B0A06E07A
:1024700013F801CD19F80200844504D111465345E3
:1024800001F1FF32F4D10BF1010B8B4569D8059BAB
:102490009844C3EB050B2246B3E700984FF0000BBE
:1024A00022462B1A8146834238BF0346B14401338A
:1024B0000593009B38440190C3F101030293009BF4
:1024C00003F1FF389A460BEB0504B8180021A21A55
:1024D00000F04EF800287FF476AF002C3FF473AF85
:1024E000554598BF07EB0B0014D9019899F80020C7
:1024F00010F80B309A4224D14A46534607EB0B00A2
:1025000005E012F8011F10F803C08C451AD1013301
:102510009D42F6D8B8F1FF3F43463FF433AF16F87B
:10252000081010F80820914207D113F1FF33FFF48F
:1025300029AFF15CC25C9142F7D0059B9B442246D7
:10254000C1E75346029A93449B44F8E703994FF03E
:10255000000B884498449EE70D4601240EE700993D
:1025600091E707EB08000DE7000000000000000005
:102570008307C9B270B43FD0541E2AB303788B428C
:1025800023D0431C04E0FCB1057814468D421CD0D6
:1025900013F0030F184604F1FF3203F10103F2D1E7
:1025A000032C14D8651E4CB303788B420DD0421C0B
:1025B000002302E004788C4207D0AB42104603F1BE
:1025C000010302F10102F5D1002070BC704741EA1D
:1025D0000126034646EA064618460433026872405E
:1025E000A2F1013525EA020212F0803FDAD1043C63
:1025F0001846032CF0D8D5E71446D1E72046E4E787
:1026000050EA010301D102207047D0F1010338BF25
:102610000023B1F1004F08BF0028F4D021F00041A1
:102620004FF6FF72A1F58010C7F6DF72904201D815
:1026300004207047B1F5801F01D2032070470020AD
:10264000C7F6F070814214BF002003F0010070470C
:1026500030F0004001D102207047A0F50003B3F133
:10266000FE4F01D2042070474FF6FE73421EC0F2A7
:102670007F039A4201D803207047B0F1FF435842CC
:1026800058417047000000000000000000000000FA
:1026900010B40C4613460146224602205DF8044B56
:1026A00000F07EBD000000000000000000000000FF
:1026B000002200F0B7BB00BF0000000000000000D7
:1026C00001682DE9F0473B2982B0044600F2E18021
:1026D00041683B2900F29C80A168172900F2AD8077
:1026E00025690B2D00F2BE8063699A074BD148F231
:1026F0001F52D917C5F2EB12642082FB0376C1EB9F
:10270000661100FB113189B3E2681D274AF2A01659
:1027100048F21F5C002A3EDC2946C0F60406C5F2DA
:10272000EB1C64254FF4C8780AE0012B04BF38463F
:10273000194602D056F8230019460244002A4DDCFF
:102740004B1E0029F1D161694B1E63619F0740F068
:10275000BF808CFB0307D817C0EB671005FB103355
:10276000002B00F0A9801D270B23E3E703F26C7315
:102770004FF4C87182FB0302D817C0EBE21201FBD1
:102780001233002BC0D0E2681C274AF2A01648F290
:102790001F5C002AC0DDC0F60406C5F2EB1C4FF03A
:1027A00000084FF064094FF4C87A6B1C002106EB57
:1027B00085050AE068589042C0EB020210DA0C2B43
:1027C000E26023610FD001330431022BF2D1974232
:1027D000C7EB020204DAE2602361F4E72361E260FE
:1027E00002B0BDE8F0876169C4F810804B1C6361DA
:1027F000980702D01C270025D7E78CFB0375D81754
:10280000C0EB651009FB1033002B63D01D27F2E7E6
:102810003C22684600F03CFD019BA2680099002B19
:10282000B4BF3C3363601144A160BEBF01F1FF310E
:102830006360A16017297FF653AF1822684600F045
:1028400027FD019BE168009A002B25690A44A360DB
:10285000E260BFBF183302F1FF32A360E2600B2DCC
:102860007FF642AF29460C22684600F011FD9DE834
:1028700028006269002D1344B8BF05F10C026361A2
:10288000BBBF154603F1FF3325612261B8BF636109
:102890002BE73C22684600F0FBFC9DE80C006168D9
:1028A000002B1144B8BF3C336160B7BF01F1FF3169
:1028B0002360236061600CE701F26B718CFB0130D7
:1028C000CB17C3EBE01308FB131100293FF44BAF08
:1028D0001C2749E701F26D718CFB0130CB17C3EB6C
:1028E000E0130AFB1311002990D083E72DE9F84F7C
:1028F000064600F0F5FC80463046FFF7E1FE3269FF
:1029000071684AF2A013C0F60403346803EB820333
:10291000B568C1EB0111F7684FF461601B6B04EB04
:102920008104012A07F1FF3700FB054007EB030490
:10293000756902DDAB0700F0CB8005F51C5344F64A
:1029400020621033F461934200F22981462D00F396
:1029500093804ED0452D49D048F21F574523C5F2EC
:10296000EB174FF064094FF4C87A13F0030F40F2ED
:102970006D1287FB03EC4FEAE37E14D103F26C7116
:10298000CEEB6C1E4FF4B77287FB01BC4FEAE17BC4
:1029900009FB1E3ECBEBEC1BBEF1000F03D10AFB83
:1029A0001B1101B1013A013BA41AAB42DDD1AF07C3
:1029B0001CD148F21F53EA17C5F2EB13642183FBC5
:1029C00005C7C2EB671201FB1252002A40F0D88003
:1029D00005F26C724FF4C87183FB02E3D717C7EBA3
:1029E000E31301FB1322002A00F0CA8040F26D13AA
:1029F000E41A4FF4A347C0F2010707FB040700F0F5
:102A0000C7FB41F6C073C2F200031B68002B00F045
:102A1000A3807069326AD8F8043000F26C70012A21
:102A2000B4BF91464FF00109834261D000F028F90C
:102A300000285DD1B9F1010F40F08A80D8F83C0040
:102A4000074400F0A7FB42F293430434C9F2492340
:102A5000C6F8209083FB0403E2172344C2EBA303D0
:102A6000C3EBC303E31A59BFB36138460733B361FD
:102A700048BF3846BDE8F88F48F21F574623C5F2D5
:102A8000EB174FF064094FF4C87A13F0030F40F2CC
:102A90006D1287FB03EC4FEAE37E14D103F26C71F5
:102AA000CEEB6C1E4FF4B77287FB01BC4FEAE17BA3
:102AB00009FB1E3ECBEBEC1BBEF1000F03D10AFB62
:102AC0001B1101B1013A01331444AB42DDD190E74F
:102AD00048F21F53EA17C5F2EB13642183FB05B7D5
:102AE000C2EB671201FB1252002A3AD0013424E7EC
:102AF000D8F83830D8F83C20D8F82000991AD8F8FF
:102B00001CE08F42C0EB0303ACBF002101219F42B8
:102B1000B8BF002100298DD1D8F80010C2EB0E0EED
:102B200089B39F42ACBF4FF0000A4FF0010A7745CE
:102B3000B8BF4FF0000AB9F1000F04DB8AEA0909B7
:102B4000B9F1010F2FD0D146B9F1010F3FF476AFA3
:102B5000D8F82000074474E7D8F8200099460744C5
:102B60006FE705F26C724FF4C87183FB02C3D7178D
:102B7000C7EBE31301FB1322002A7FF4DEAEB5E7B7
:102B80004FF4B77334E77745B4BF4FF0000E4FF002
:102B9000010E9F42ACBFF2464EF0010ACBE74FF068
:102BA000FF30BDE8F88F821ABAF1000F00D152420F
:102BB00033683046D6F80C90174413443360FFF75F
:102BC0007FFDF368B3EB0903BDD0012BC8BF4FF005
:102BD000FF334ADDF2691C449B1822D4A90741D176
:102BE00048F21F52E917C5F2EB12642082FB05BEC2
:102BF000C1EB6E1100FB115159B905F26C754FF420
:102C0000C87182FB05C2E817C0EBE21201FB125546
:102C100045BB4FF4B7729A4221DC9B1AD146F3614F
:102C200008E76B1E980725D148F21F52D917C5F245
:102C3000EB12642082FB03BEC1EB6E1100FB11336B
:102C40005BB905F26B754FF4C87182FB05C2EB17D7
:102C5000C3EBE21301FB135565B940F26D13F36149
:102C6000D146E7E640F26D12D5E7B3F1FF3FB8BFBA
:102C70000123AFE74FF4B673F1E700BF0000000097
:102C80002DE9F04F85B0064600F02AFB40F2B17303
:102C90009E420446D8BF002040F3A18048F21F5353
:102CA000A6F26D71C5F2EB136FF4C862B2186FF43F
:102CB000F66083FB067506EB000883FB01C7F0177F
:102CC000C9174FEAA80883FB02C3C0EBE51CC0EBA1
:102CD00065100190A1EB6711019F6425A6F2B279FE
:102CE00040F26D1A4FF4C87005FB1767D2170AFB44
:102CF0000988C2EBE31300FB1C604AF20025414443
:102D0000019742F293484FF4A34701EB030BC0F63F
:102D10000405C9F24928C0F2010722460021D0F17A
:102D20000100666038BF0020029006F003000390A7
:102D3000137A4A2B5BD0442B6CD00398029B00285B
:102D400050D0D0685E001E44012805EB061664DDF5
:102D50004FEA8009A6F1080ACA44301F5B46944630
:102D600050F8042F50451344FAD16246A9F10409E2
:102D700003F1040CCDF800C0009888FB0CCA4FEAA0
:102D8000E07C56F809908244CCEBAA0CCCEBCC0C3E
:102D9000CCEB000C5069B0EB0C0C106948BF0CF187
:102DA000070C461EC6EBC606B444CC4504DB4846B9
:102DB000ACF1070C8445FBDA634496690131106A73
:102DC000022907FB0366304442F81C0FB0D1A36B05
:102DD0000120E2699A42ACBF00230123236005B0C1
:102DE000BDE8F08F019E002E18BF0123A9E75069AE
:102DF000039E00EB0B0346B9019E36B13B28D4BFBE
:102E0000002001200344013BD7E7029E002EF5D1AC
:102E10000298F7E753695B44CFE75B464FF0000940
:102E2000A6E700BF2DE9F84F0F468146904600F017
:102E300057FA44F20753D9F80020CCF22E234FF46E
:102E4000A3414FF4616CC0F2010148F68904C8F651
:102E50008804824683FB0203D0171344C0EB23434C
:102E600042F29340C9F2492001FB13224BF2C531D3
:102E7000C9F2A211002ABEBF02F5A83203F1FF3346
:102E800002F5C07281FB02B5D617191D154480FBEF
:102E900001B0C6EBE525BD60CE170CFB152208443A
:102EA0004FF4C87C4FF0640BC6EBA000C0EBC00031
:102EB00084FB0254D517081A4AF20021144448BF73
:102EC0000730002BB861C5EB64147C6048F21F50DA
:102ED000C0F60401C4EB0414C5F2EB10A2EB8402AB
:102EE00040F2B2743A6002DA3DE001349B1AA60760
:102EF0004FEAE47580FB046205D1C5EB621201263E
:102F00000BFB12424AB980FB0426C5EBE6160CFB0C
:102F10001646D6F1010638BF002601EB8602126E76
:102F20009342E2DA7200FB611644A4F26C70002254
:102F3000786136013A6101EB060B8D59AB4208DB33
:102F40005A4601265B1B3E6152F8045F01369D42E2
:102F5000F8DD0133FB60B8F1000F22D000233846C2
:102F60003B62BDE8F88F013C14F0030F80FB045274
:102F70004FEAE47505D1C5EB621201260BFB124244
:102F80004AB980FB0426C5EBE6160CFB1646D6F1C3
:102F9000010638BF002601EB8602126E9B18E2D4B0
:102FA000C0E700F0F5F841F6C073C2F200031B68F9
:102FB000002B5DD1C7F82080DAF820004BF2C53332
:102FC000C217C9F2A2134FF4616C48F689057968FB
:102FD00083FB006EBE68C8F688053C6886444FEAED
:102FE000EE2EC2EB0E03F21ABA600CFB130385FB44
:102FF0000360DE171844C6EB6010091A7960C0EB55
:103000000010A3EB8003E31A3B603B2B6FDD013123
:103010003C3B79603B603B2946DD01323C39172A55
:10302000BA60796049DDBB69183AF9690133BA6061
:10303000062B01F10101F961C8BF00233969BB61A9
:10304000FB680133FB605BF8212093420BDD01310B
:103050009B1A0C293961FB6005D17A6900233B6119
:103060000132FB617A6100F095F83846BDE8F88FCF
:10307000DAF80430A34204D02046FFF701FE00280E
:103080004DD0DAF80030002B39D0D9F80030DAF81A
:103090001C20934247DBDAF83820934243DA0123BD
:1030A0003B62DAF83C0089E70029BFBF02F1FF323A
:1030B0003C31BA607960172AB5DC002AD3DABB69E3
:1030C0001832F969013BBA6048BF0623BB61FB684F
:1030D0000139F961013BFB60002BC4D13B69013B25
:1030E00024D43B619B005BF80330FB60BBE7002B03
:1030F000BFBF01F1FF313C3379603B608BE7D9F80A
:103100000030DAF81C209342C9DADAF8382093420A
:10311000ACBF002301233B62002BC2D14CE74FF030
:10312000FF333B6248E700233B6245E77B690B22A4
:103130003A615A1E7A6194071CBF03F26B73DA1767
:1031400013D148F21F5103F26B73C5F2EB116420E7
:10315000DA1781FB0341C2EB611100FB113121B190
:1031600040F26D122C23FA61BDE748F21F514FF473
:10317000C870C5F2EB1181FB0351C2EBE11200FBF9
:103180001233D3F1010238BF002202F5B672E9E72B
:10319000704700BF704700BF000000000000000043
:1031A0002DE9F0414AF27024C0F6040484B00746C9
:1031B0002568AC6C002C45D066681F2E1CDD40F2E3
:1031C0000004C0F2000424B94FF0FF3004B0BDE8A1
:1031D000F0818C20039102920193AFF30080039958
:1031E000029A019B04460028EED0AE6C002060607D
:1031F0002660AC64C4F88800D7B1D4F888602EB3D8
:10320000D6F8008165680120022F00FA05F006EB70
:10321000850C46F8252048EA0002C6F80021CCF8C3
:10322000803002BFD6F804311843C6F8040100E02C
:103230006568AB1C00200135656044F8231004B0BC
:10324000BDE8F08105F14C04AC64B5E740F2000044
:10325000C0F200000028B7D04FF4847003910292AE
:103260000193AFF300800399029A019B0646002860
:10327000AAD00020C6F80001C6F804018046C4F8B0
:103280008860BFE7000000000000000000000000B0
:10329000F8B50C46054611462046164600F028F8BB
:1032A00031460746204600F06DF9002C08DB002966
:1032B0002846BCBF0137C6EB01012F606960F8BD2D
:1032C00000292846C4BF07F1FF3789192F606960BC
:1032D000F8BD00BF0000000000000000000000007A
:1032E00041F20460C2F20000704700BF000000001D
:1032F000002900F03E8180EA010C48BF49424A1E85
:1033000000F01F81030048BF43428B4240F21E8100
:10331000114200F02381B3FA83F2B1FA81F0A0EBFD
:103320000202C2F11F0204A000EB02124FF00000E3
:10333000974600BFAFF30080B3EBC17F00BF40EB07
:10334000000028BFA3EBC173B3EB817F00BF40EB4C
:10335000000028BFA3EB8173B3EB417F00BF40EBBC
:10336000000028BFA3EB4173B3EB017F00BF40EB2C
:10337000000028BFA3EB0173B3EBC16F00BF40EBAC
:10338000000028BFA3EBC163B3EB816F00BF40EB2C
:10339000000028BFA3EB8163B3EB416F00BF40EB9C
:1033A000000028BFA3EB4163B3EB016F00BF40EB0C
:1033B000000028BFA3EB0163B3EBC15F00BF40EB8C
:1033C000000028BFA3EBC153B3EB815F00BF40EB0C
:1033D000000028BFA3EB8153B3EB415F00BF40EB7C
:1033E000000028BFA3EB4153B3EB015F00BF40EBEC
:1033F000000028BFA3EB0153B3EBC14F00BF40EB6C
:10340000000028BFA3EBC143B3EB814F00BF40EBEB
:10341000000028BFA3EB8143B3EB414F00BF40EB5B
:10342000000028BFA3EB4143B3EB014F00BF40EBCB
:10343000000028BFA3EB0143B3EBC13F00BF40EB4B
:10344000000028BFA3EBC133B3EB813F00BF40EBCB
:10345000000028BFA3EB8133B3EB413F00BF40EB3B
:10346000000028BFA3EB4133B3EB013F00BF40EBAB
:10347000000028BFA3EB0133B3EBC12F00BF40EB2B
:10348000000028BFA3EBC123B3EB812F00BF40EBAB
:10349000000028BFA3EB8123B3EB412F00BF40EB1B
:1034A000000028BFA3EB4123B3EB012F00BF40EB8B
:1034B000000028BFA3EB0123B3EBC11F00BF40EB0B
:1034C000000028BFA3EBC113B3EB811F00BF40EB8B
:1034D000000028BFA3EB8113B3EB411F00BF40EBFB
:1034E000000028BFA3EB4113B3EB011F00BF40EB6B
:1034F000000028BFA3EB0113B3EBC10F00BF40EBEB
:10350000000028BFA3EBC103B3EB810F00BF40EB6A
:10351000000028BFA3EB8103B3EB410F00BF40EBDA
:10352000000028BFA3EB4103B3EB010F00BF40EB4A
:10353000000028BFA3EB0103BCF1000F48BF4042CD
:1035400070479CEA000F48BF4042704738BF0020D8
:1035500004BF4FEAEC7040F001007047B1FA81F20D
:10356000C2F11F02BCF1000F23FA02F048BF404233
:1035700070470028C8BF6FF00040B8BF4FF0004050
:1035800000F00EB80029F4D02DE90340FFF7B3FE98
:10359000BDE8064002FB00F3A1EB0301704700BF4A
:1035A000704700BF000000000000000000000000A5
:1035B000F8B5C1F30A57A7F2FF360246132E0B46A1
:1035C0000D468C4616DC002E31DB4FF6FF7CC0F238
:1035D0000F0C4CFA06FC0CEA010101430FD04FF42A
:1035E0000023002143FA06F62E4426EA0C0C084676
:1035F0006146F8BD332E05DDB6F5806F23D0104649
:103600001946F8BD4FF0FF30A7F21341C8401042F1
:10361000F5D0C7F5866701210237B940891828BF60
:1036200003F1010C21EA000108466146F8BD01F0F2
:10363000004C013602BF4CF07F5C00214CF4401C72
:10364000D5D00021D3E7FCF779FEF8BD00000000DB
:1036500070B58AB0054600F06BF841F23874C2F2DA
:10366000000494F900300133064609D02846FEF7DD
:10367000EFFF28B128460021FDF756FD034610B1A3
:1036800030460AB070BD4DF6D0422846C0F604025E
:1036900008930192FCF7B0FF2478CDE90401CDE94D
:1036A000020174BB4FF6FF734FF06042CCF2EF7330
:1036B000CDE9062328460021FDF70EFD78B102234F
:1036C00000939C4229D0684600F0B2F928B3089BC9
:1036D00043BBDDE90601FDF7ABFA0AB070BD022C71
:1036E0004FF00103009313D0684600F0A1F978B1C0
:1036F0004DF6D440C0F6040000F0A2F9CDE9060171
:10370000E5E700230022CFF6F073CDE90623D1E7E9
:1037100000F0EEFA21230360EAE700F0E9FA222341
:103720000360D4E700F0E4FA089B0360D1E700BF30
:1037300020F0004201462DE9F84F0346002A00F030
:10374000B0800028C0F2D380B0F1FF4F80F2CB8070
:10375000B0F5000FA8BF002706DA4FF098416FF0D0
:10376000180700F075F903464FF62030C3F316042E
:10377000C0F24A00DB1520447F3B00F400021F44E6
:1037800082F07E504FF07E51204307EBD257FDF779
:10379000A3FA04F10F03C3F316030F2B054640F3FE
:1037A00087804FF0804145F63048FDF797FACFF615
:1037B000CF78A044C4F5571404F5227444EA0808ED
:1037C0000146284600F0F8F981463846FDF73AFBF5
:1037D00049468346484600F03BF90146824600F0E0
:1037E00037F948F69701C3F61761064600F030F93D
:1037F00043F22531C3F63A61FDF770FA314600F025
:1038000027F944F62511C3F69261FDF767FA3146B0
:1038100000F01EF94AF6AB21C3F62A71FDF75EFAF5
:10382000514600F015F94DF24F01C3F61C61824676
:10383000304600F00DF948F62961C3F66361FDF7E3
:103840004DFA314600F004F94CF6CD41C3F6CC6197
:10385000FDF744FA314600F0FBF801465046FDF70B
:103860003DFAB8F1000F064640F3AF804FF07C51AF
:10387000284600F0EDF8294600F0EAF80446002F4B
:1038800059D13146FDF72AFA494600F0E1F80146E0
:103890002046FDF721FA01462846FDF71DFABDE84E
:1038A000F88F00214FF04C4000F086F9BDE8F88F0A
:1038B0000021FDF711FC08B3002F00F0838038468B
:1038C000FDF7C0FA4FF4E341C3F63171054600F04D
:1038D000BFF84FF2D171C3F217710446284600F0C9
:1038E000B7F801462046FDF7F9F9BDE8F88FFDF776
:1038F000F3F9002100F060F9BDE8F88F2946284669
:1039000000F0A6F84AF6AB21C3F6AA6104462846A1
:1039100000F09EF801464FF07C50FDF7DDF90146BE
:10392000204600F095F804466FBB28462146FDF777
:10393000D3F9BDE8F88F4FF4E3415846C3F631712F
:1039400000F086F8314607462046FDF7C7F949469C
:1039500000F07EF84FF2D171C3F217710646584657
:1039600000F076F801463046FDF7B8F901462046EA
:10397000FDF7B2F92946FDF7AFF901463846FDF7E4
:10398000ABF9BDE8F88F3846FDF75CFA4FF4E34138
:10399000C3F63171074600F05BF84FF2D171C3F204
:1039A00017710646384600F053F801462046FDF7E9
:1039B00093F92946FDF790F901463046FDF78CF959
:1039C000BDE8F88F0020BDE8F88F1FB34FF4E34146
:1039D0005846C3F6317100F03BF83146044628469C
:1039E000FDF77AF9494600F033F84FF2D171C3F28E
:1039F00017710646584600F02BF801463046FDF791
:103A00006BF92946FDF768F901462046FDF764F990
:103A1000BDE8F88F01462846FDF75EF9494600F0FB
:103A200017F801462846FDF757F9BDE8F88F00BFA3
:103A300000207047000000000000000000000000AF
:103A400000210020C7F6F871704700BF0000000099
:103A50004FF0FF0C1CEAD0521EBF1CEAD15392EA71
:103A60000C0F93EA0C0F6FD01A4480EA010C40024D
:103A700018BF5FEA41211ED04FF0006343EA5010A7
:103A800043EA5111A0FB01310CF00040B1F5000FE9
:103A90003EBF490041EAD3715B0040EA010062F198
:103AA0007F02FD2A1DD8B3F1004F40EBC25008BF82
:103AB00020F00100704790F0000F0CF0004C08BFA0
:103AC00049024CEA502040EA51207F3AC2BFD2F16D
:103AD000FF0340EAC250704740F400004FF000037B
:103AE000013A5DDC12F1190FDCBF00F000407047B5
:103AF000C2F10002410021FA02F1C2F1200200FAF3
:103B000002FC5FEA310040F1000053EA4C0308BFB9
:103B100020EADC70704792F0000F00F0004C02BF0A
:103B2000400010F4000F013AF9D040EA0C0093F085
:103B3000000F01F0004C02BF490011F4000F013BDF
:103B4000F9D041EA0C018FE70CEAD15392EA0C0F4D
:103B500018BF93EA0C0F0AD030F0004C18BF31F0B8
:103B6000004CD8D180EA010000F00040704790F08E
:103B7000000F17BF90F0004F084691F0000F91F032
:103B8000004F14D092EA0C0F01D142020FD193EAF8
:103B90000C0F03D14B0218BF084608D180EA010080
:103BA00000F0004040F0FE4040F40000704740F05C
:103BB000FE4040F4400070474FF0FF0C1CEAD0522A
:103BC0001EBF1CEAD15392EA0C0F93EA0C0F69D086
:103BD000A2EB030280EA010C49024FEA402037D0F1
:103BE0004FF0805343EA111143EA10130CF00040E8
:103BF0008B4238BF5B0042F17D024FF4000C8B42D8
:103C000024BF5B1A40EA0C00B3EB510F24BFA3EBB7
:103C1000510340EA5C00B3EB910F24BFA3EB910387
:103C200040EA9C00B3EBD10F24BFA3EBD10340EAE1
:103C3000DC001B0118BF5FEA1C1CE0D1FD2A3FF627
:103C400050AF8B4240EBC25008BF20F001007047DC
:103C50000CF0004C4CEA50207F32C2BFD2F1FF037F
:103C600040EAC250704740F400004FF00003013AB0
:103C700037E792F0000F00F0004C02BF400010F454
:103C8000000F013AF9D040EA0C0093F0000F01F068
:103C9000004C02BF490011F4000F013BF9D041EA8A
:103CA0000C0195E70CEAD15392EA0C0F08D14202BD
:103CB0007FF47DAF93EA0C0F7FF470AF084676E790
:103CC00093EA0C0F04D14B023FF44CAF08466EE769
:103CD00030F0004C18BF31F0004CCAD130F0004237
:103CE0007FF45CAF31F000437FF43CAF5FE700BF8F
:103CF00041F24463C2F200031868704700000000FC
:103D000080B485B000AF03463960FB71FB79002BAE
:103D100001D00B231CE0FA794BF2A433C2F2010369
:103D200053F82230FB60FB68002B02D0FB680022B6
:103D30001A703B68002B02D03B6800221A70FA7997
:103D40004BF2A433C2F20103396843F82210002376
:103D500018461437BD465DF8047B7047000000002C
:103D600080B596B000AFF860B9601346FB71FB6890
:103D700000221A60FB7903F01F03FB71FB7923F02B
:103D80000103DBB207F1080107F1200208461146E2
:103D90001A4602F02DFF034687F857304FF40070A3
:103DA00011F0E6FFF864FB6C002B01D111234FE109
:103DB000FB6CFB6307F11403BB6397F85730002BD0
:103DC00009D1BB6807F120021046194602F030FE07
:103DD000034687F857307B6B3B6597F85730002BCD
:103DE00005D13B6D002B02D1062387F85730FB79B4
:103DF00003F01C03002B00F0B08097F85730002B25
:103E000012D097F85730042B07D107F1200318463A
:103E100002F0EEF9034687F85730FB7943F00803C8
:103E2000FB717B6B3B6512E03B6D0B331B7803F042
:103E30001103002B03D0072387F8573007E0FB79E5
:103E400003F00403002B02D0082387F8573097F8BB
:103E50005730002B40F0A080FB7903F00803002BC3
:103E600000F09A8011F074FFB8643B6D0E33BA6CA9
:103E7000D2B21A703B6D0F33BA6C92B2120A92B280
:103E8000D2B21A703B6D1033BA6C120CD2B21A70E7
:103E90003B6D1133BA6C120ED2B21A703B6D0B33FC
:103EA00000221A703B6D1C3300221A703B6D1D33CB
:103EB00000221A703B6D1E3300221A703B6D1F33B7
:103EC00000221A703B6D15331B781B029AB23B6DB2
:103ED00014331B7813439BB29BB21A043B6D1B3304
:103EE0001B781B0299B23B6D1A331B780B439BB2B4
:103EF0009BB213437B643B6D1A3300221A703B6DF7
:103F00001B3300221A703B6D143300221A703B6D74
:103F1000153300221A703B6A01221A717B6C002B48
:103F20003AD03B6ADB6ABB643B6A1846796C01F0A5
:103F3000F7FB034687F8573097F85730002B2BD103
:103F40003B6A7A6C013ADA603B6A1846B96C04F055
:103F500047FF034687F857301FE097F85730002B8C
:103F60001BD13B6D0B331B7803F01003002B03D0E8
:103F7000042387F8573010E0FB7903F00203002B8D
:103F80000BD03B6D0B331B7803F00103002B04D0E7
:103F9000072387F8573000E000BF97F85730002B11
:103FA0000FD1FB7903F00803002B03D0FB7943F01A
:103FB0002003FB713B6ADA6AFB68DA61FB683A6DE1
:103FC0001A62F86C11F0E4FE97F85730002B3DD1DF
:103FD000FB68FA799A713B6D15331B781B029AB214
:103FE0003B6D14331B7813439BB29BB21A043B6D99
:103FF0001B331B781B0299B23B6D1A331B780B43A2
:104000009BB29BB21A43FB681A613B6D1F331B784E
:104010001A063B6D1E331B781B041A433B6D1D3380
:104020001B781B021A433B6D1C331B781A43FB6839
:10403000DA60FB6800229A60FB6800229A613A6AA3
:10404000FB681A603B6ADA88FB689A8097F85730F9
:1040500018465837BD4680BD000000000000000033
:1040600080B58CB000AFF860B9607A603B60BB6827
:104070003B623B6800221A60FB681A68FB689B88F9
:104080001046194603F064F80346FB77FB7F002BCC
:1040900001D0FB7F3EE1FB689B79DBB25BB2002B7A
:1040A00001DA022336E1FB689B7903F00103002B60
:1040B00001D107232EE1FB68DA68FB689B68D31AFD
:1040C000BB617A68BB699A4240F21E81BB697B6022
:1040D0001BE1FB689B68C3F30803002B40F0E580FD
:1040E000FB689B685B0ADAB2FB681B689B78013B44
:1040F000DBB21340FB75FB7D002B2CD1FB689B686A
:10410000002B03D1FB681B69FB6208E0FB681A689F
:10411000FB685B691046194601F062F9F862FB6AB8
:10412000012B08D8FB689B7963F07F03DAB2FB6848
:104130009A710223EEE0FB6AB3F1FF3F08D1FB68FE
:104140009B7963F07F03DAB2FB689A710123E1E0A7
:10415000FB68FA6A5A61FB681A68FB685B6910467B
:10416000194601F01DF938613B69002B08D1FB6845
:104170009B7963F07F03DAB2FB689A710223C9E08E
:10418000FB7D3A6913443B617B685B0A7B627B6A17
:10419000002B44D0FA7D7B6A1A44FB681B689B782D
:1041A0009A4206D9FB681B689B781A46FB7DD31A96
:1041B0007B62FB681B685A787B6ADBB21046396AFF
:1041C0003A6911F0FDFC0346002B08D0FB689B798F
:1041D00063F07F03DAB2FB689A7101239AE0FB680F
:1041E0009B7903F04003002B15D0FB689A693B696B
:1041F000D21A7B6A9A420ED2FB689A693B69D31A3B
:104200005B023A6A1A44FB682433104619464FF49D
:10421000007204F05DFD7B6A5B02BB625FE0FB68DD
:104220009A693B699A423DD0FB689B7903F0400351
:10423000002B20D0FB681B685978FB6803F124022F
:10424000FB689B69084611461A46012311F000FDE0
:104250000346002B08D0FB689B7963F07F03DAB23A
:10426000FB689A71012355E0FB689B7923F04003BA
:10427000DAB2FB689A71FB681B685A78FB682433D2
:10428000104619463A69012311F09AFC0346002BA7
:1042900008D0FB689B7963F07F03DAB2FB689A7100
:1042A000012337E0FB683A699A61FB689B68C3F3B6
:1042B0000803C3F50073BB62BA6A7B689A4201D9EE
:1042C0007B68BB62FB689B68C3F308032033FA6812
:1042D00013440433386A1946BA6A04F0F9FC3A6A9E
:1042E000BB6A13443B62FB689A68BB6A1A44FB686A
:1042F0009A603B681A68BB6A1A443B681A607A681D
:10430000BB6AD31A7B6000E000BF7B68002B7FF4A0
:10431000E0AE002318463037BD4680BD00000000E7
:1043200080B58AB000AFF860B9607A603B60BB6866
:10433000BB613B6800221A60FB681A68FB689B88B7
:104340001046194602F004FF0346FB75FB7D002B67
:1043500001D0FB7D6FE1FB689B79DBB25BB2002B88
:1043600001DA022367E1FB689B7903F00203002B6B
:1043700001D107235FE1FB68DA687B681A44FB68B8
:10438000DB689A4280F0408100237B603DE1FB685E
:104390009B68C3F30803002B40F00081FB689B6817
:1043A0005B0ADAB2FB681B689B78013BDBB2134007
:1043B000BB75BB7D002B3FD1FB689B68002B10D1E8
:1043C000FB681B697B627B6A002B14D1FB681B684E
:1043D0001846002101F0F4F97862FB687A6A1A61E4
:1043E0000AE0FB681A68FB685B691046194601F031
:1043F000E7F9786200E000BF7B6A002B00F00981DA
:104400007B6A012B08D1FB689B7963F07F03DAB2EA
:10441000FB689A7102230EE17B6AB3F1FF3F08D17A
:10442000FB689B7963F07F03DAB2FB689A71012322
:1044300001E1FB687A6A5A61FB689B7903F04003EB
:10444000002B20D0FB681B685978FB6803F124021D
:10445000FB689B69084611461A46012311F0F8FBD8
:104460000346002B08D0FB689B7963F07F03DAB228
:10447000FB689A710123DEE0FB689B7923F040031F
:10448000DAB2FB689A71FB681A68FB685B691046D0
:10449000194600F085FF38613B69002B08D1FB68A5
:1044A0009B7963F07F03DAB2FB689A710223C2E062
:1044B000BB7D3A6913443B617B685B0AFB61FB6926
:1044C000002B46D0BA7DFB691A44FB681B689B78B9
:1044D0009A4206D9FB681B689B781A46BB7DD31AA3
:1044E000FB61FB681B685A78FB69DBB21046B9694F
:1044F0003A6911F0ADFB0346002B08D0FB689B79AD
:1045000063F07F03DAB2FB689A71012393E0FB68E2
:104510009A693B69D21AFB699A4216D2FB6803F189
:104520002402FB6899693B69CB1A5B02B9690B44A9
:10453000104619464FF4007204F0CAFBFB689B79E1
:1045400023F04003DAB2FB689A71FB695B023B62BD
:1045500045E0FB689A693B699A421CD0FB689A68FF
:10456000FB68DB689A4216D2FB681B685A78FB68C6
:104570002433104619463A69012311F021FB034602
:10458000002B08D0FB689B7963F07F03DAB2FB68ED
:104590009A7101234FE0FB683A699A61FB689B6856
:1045A000C3F30803C3F500733B623A6A7B689A421F
:1045B00001D97B683B62FB689B68C3F30803203327
:1045C000FA68134404331846B9693A6A04F080FB68
:1045D000FB689B7943F04003DAB2FB689A71BA69D1
:1045E0003B6A1344BB61FB689A683B6A1A44FB68E8
:1045F0009A603B681A683B6A1A443B681A607A689A
:104600003B6AD31A7B6000E000BF7B68002B7FF41D
:10461000BEAEFB689A68FB68DB689A4203D9FB6808
:104620009A68FB68DA60FB689B7943F02003DAB292
:10463000FB689A71002318462837BD4680BD00BF2D
:1046400080B586B000AF78607B681A687B689B880D
:104650001046194602F07CFD0346FB75FB7D002BDE
:1046600040F0AB807B689B7903F02003002B00F0C7
:10467000A4807B689B7903F04003002B19D07B68F2
:104680001B6859787B6803F124027B689B690846A4
:1046900011461A46012311F0DBFA0346002B01D024
:1046A00001238BE07B689B7923F04003DAB27B68BF
:1046B0009A717B681A687B68DB691046194604F0BA
:1046C0008FFB0346FB75FB7D002B76D17B681B6A55
:1046D0003B613B690B333A690B32127842F020029E
:1046E000D2B21A703B691C337A68D268D2B21A709F
:1046F0003B691D337A68D26892B2120A92B2D2B282
:104700001A703B691E337A68D268120CD2B21A70E2
:104710003B691F337A68D268120ED2B21A703B69B5
:104720001A337A681269D2B21A703B691B337A68FD
:10473000126992B2120A92B2D2B21A703B69143361
:104740007A681269120CD2B21A703B6915337A6812
:104750001269120C92B2120A92B2D2B21A7011F00D
:10476000F7FAF8603B691633FA68D2B21A703B69FF
:104770001733FA6892B2120A92B2D2B21A703B6937
:104780001833FA68120CD2B21A703B691933FA68FE
:10479000120ED2B21A707B689B7923F02003DAB232
:1047A0007B689A717B681B6801221A717B681B68A1
:1047B000184600F04DFD0346FB75FB7D1846183783
:1047C000BD4680BD000000000000000000000000A9
:1047D00080B584B000AF78607868FFF731FF03469A
:1047E000FB73FB7B002B02D17B6800221A60FB7BF2
:1047F00018461037BD4680BD0000000000000000D4
:1048000080B588B000AF786039607B681A687B68D3
:104810009B881046194602F09BFC0346FB75FB7D06
:10482000002B01D0FB7D40E17B689B79DBB25BB262
:10483000002B01DA022338E17B68DA683B689A4290
:1048400008D27B689B7903F00203002B02D17B68BE
:10485000DB683B607B689B683B610023BB617B68D6
:10486000BA699A603B68002B00F0C1807B681B68C6
:104870009B785B02FB603B69002B1BD03B685A1E98
:10488000FB68B2FBF3F23B69591EFB68B1FBF3F323
:104890009A420FD33B695A1EFB685B421A407B6801
:1048A0009A607B689B683A68D31A3B607B685B6957
:1048B000FB612BE07B681B69FB61FB69002B22D14C
:1048C0007B681B681846002100F07AFFF861FB69DD
:1048D000012B08D17B689B7963F07F03DAB27B6898
:1048E0009A710223E1E0FB69B3F1FF3F08D17B68D5
:1048F0009B7963F07F03DAB27B689A710123D4E07D
:104900007B68FA691A617B68FA695A61FB69002B56
:1049100046D16CE07B689B7903F00203002B0CD03E
:104920007B681B681846F96900F04AFFF861FB696B
:10493000002B09D1FB683B6036E07B681B6818469A
:10494000F96900F04DFDF861FB69B3F1FF3F08D153
:104950007B689B7963F07F03DAB27B689A710123ED
:10496000A3E0FB69012B05D97B681B689A69FB6989
:104970009A4208D87B689B7963F07F03DAB27B6840
:104980009A71022391E07B68FA695A617B689A68A0
:10499000FB681A447B689A603A68FB68D31A3B60EC
:1049A0003A68FB689A42B5D87B689A683B681A44B3
:1049B0007B689A603B68C3F30803002B17D07B68C1
:1049C0001B681846F96900F0EBFCB861BB69002B65
:1049D00008D17B689B7963F07F03DAB27B689A71B8
:1049E000022362E03B685B0ABA691344BB617B68DF
:1049F0009B68C3F30803002B45D07B689A69BB69A9
:104A00009A4240D07B689B7903F04003002B20D072
:104A10007B681B6859787B6803F124027B689B697B
:104A2000084611461A46012311F012F90346002BDD
:104A300008D07B689B7963F07F03DAB27B689A7158
:104A4000012332E07B689B7923F04003DAB27B6874
:104A50009A717B681B685A787B6824331046194624
:104A6000BA69012311F0ACF80346002B08D07B682B
:104A70009B7963F07F03DAB27B689A71012314E0BB
:104A80007B68BA699A617B689A687B68DB689A423E
:104A90000AD97B689A687B68DA607B689B7943F007
:104AA0002003DAB27B689A71FB7D18462037BD4639
:104AB00080BD00BF000000000000000000000000FA
:104AC00080B588B000AF786039607B683A461046A0
:104AD0001946002202F08CF80346FB77FB7F002B7F
:104AE0005DD14FF4007011F043F9B861BB69002B40
:104AF00001D1112354E07B68BA69DA617B6807F160
:104B00000C029A613B687868194601F091FF0346F0
:104B1000FB77B86911F03CF9FB7F002B3AD17B6839
:104B20005B69002B28D07B685B690B331B7803F033
:104B30001003002B1ED07B685B6915331B781B02AA
:104B40009AB27B685B6914331B7813439BB29BB2A8
:104B50001A047B685B691B331B781B0299B27B6864
:104B60005B691A331B780B439BB29BB21A437B6879
:104B70009A6001E00523FB77FB7F002B0AD17B685D
:104B80001B68DA887B689A807868002100F0A8FEAC
:104B90000346FB77FB7F042B01D10523FB77FB7FCB
:104BA00018462037BD4680BD000000000000000010
:104BB00080B588B000AF786039607B681A687B6820
:104BC0009B881046194602F0C3FA0346FB77FB7F29
:104BD000002B3FD13B68002B06D17868002100F004
:104BE0007FFE0346FB7735E04FF4007011F0C0F80C
:104BF000B861BB69002B01D111232CE07B68BA6935
:104C0000DA617B6807F10C029A61786801F058FA62
:104C10000346FB77FB7F042B04D17B6800221A61DB
:104C20000023FB77FB7F002B11D17868396801F0F6
:104C300017FE7868002100F0D3FE0346FB77FB7F68
:104C4000042B04D17B6800221A610023FB77B8692A
:104C500011F09EF8FB7F18462037BD4680BD00BF8F
:104C600080B59CB000AF78603A1D07F13C03104658
:104C70001946012201F0BCFF034687F86F3097F810
:104C80006F30002B40F0B3804FF4007011F070F8DB
:104C9000B866BB6E002B01D11123AAE0BB6EBB65C9
:104CA00007F10C037B657B6807F13C02104619464F
:104CB00001F0BEFE034687F86F3097F86F30002B87
:104CC00040F092803B6D7B667B6E002B03D1062308
:104CD00087F86F3009E07B6E0B331B7803F001031C
:104CE000002B02D0072387F86F307B6E15331B78BB
:104CF0001B029AB27B6E14331B7813439BB29BB298
:104D00001A047B6E1B331B781B0299B27B6E1A331D
:104D10001B780B439BB29BB213433B6697F86F30F3
:104D2000002B3BD17B6E0B331B7803F01003002B61
:104D300034D03B6E012B03D8022387F86F302DE06F
:104D400007F1180207F13C0310461946242203F02C
:104D5000BFFF3B6E3B6207F118031846022100F0CB
:104D6000BFFD034687F86F3097F86F30002B15D1E1
:104D700007F11803184601F0A3F9034687F86F30CE
:104D800097F86F30002B02D1072387F86F3097F820
:104D90006F30042B02D1002387F86F3097F86F3003
:104DA000002B21D107F13C03184601F059FB0346C3
:104DB00087F86F3097F86F30002B15D13B6E002BC2
:104DC00007D0FB6B1846396E00F0AAFC034687F843
:104DD0006F3097F86F30002B06D1FB6B184600F050
:104DE00037FA034687F86F30B86E10F0D1FF97F8A6
:104DF0006F3018467037BD4680BD00BF0000000010
:104E000080B500AF06F084FC80BD00BF000000004C
:104E100080B483B000AF7860012318460C37BD46DC
:104E20005DF8047B704700BF000000000000000038
:104E300080B483B000AF7860002318460C37BD46BD
:104E40005DF8047B704700BF000000000000000018
:104E500080B400AFBD465DF8047B704700000000E1
:104E600080B500AF0BF0ACFD0AF0C2FF39F0E8FDF1
:104E700000F06EF80023184680BD00BF000000005F
:104E800080B400AFBFF34F8F4FF46D42CEF20002FB
:104E90004FF46D43CEF20003DB6803F4E0610423BA
:104EA000C0F2FA530B43D360BFF34F8FFEE700BF4E
:104EB00080B500AFFFF7E4FF80BD00BF0000000039
:104EC00080B500AF4BF2AC30C2F2010041F290610C
:104ED000C0F604013CF0ACF815F002FC4BF25C604B
:104EE000C2F2010041F2883144F6B162C0F600021C
:104EF00000230BF0BDF915F02BFC80BD0000000075
:104F000080B400AFBD465DF8047B70470000000030
:104F100080B500AF41F6AC63C2F200031B684BF2F0
:104F20007060C2F20100194640F6A802FCF7B0FD1D
:104F300080BD00BF00000000000000000000000075
:104F400080B500AF36F0CCF8FFF7E2FF80BD00BFC0
:104F500080B500AF4BF2B440C2F201004BF2905169
:104F6000C2F20101C82200230DF09AFE41F6B86397
:104F7000C2F200031A6841F6B463C2F200031B6870
:104F800093621CF085F9FFF7BBFF4BF27060C2F231
:104F9000010020F055FE34F0BBF84BF2AC30C2F209
:104FA000010015F0ADFD41F6B863C2F200031B68C5
:104FB000184620F06DF941F2AC60C0F6040044F6EA
:104FC000C161C0F600013AF073FF4BF2AC30C2F29F
:104FD000010036F095F841F6B863C2F200031B6891
:104FE000184612F065F94BF2AC30C2F201001BF02A
:104FF000FFFE41F6B863C2F200031B684BF2AC300F
:10500000C2F20100194630F053FE41F6B863C2F215
:1050100000031B68184612F0CBF9FFF779FF41F245
:10502000B460C0F6040015F04BFD4BF2B043C2F281
:10503000010301221A7040F2A853C1F200039B69D8
:10504000184639F0CDFC0346802BCCBF002301234A
:10505000DBB2002B06D041F2C860C0F6040000F0BD
:1050600057F81FE041F6B863C2F200031B68184608
:1050700011F0B6FA41F6B063C2F200031B68D3F830
:105080003C314FF47A7202FB03F35A1E44F6D353B9
:10509000C1F26203A3FB02139B09013318460BF014
:1050A00057F8C8E780BD00BF000000000000000006
:1050B000B0B582B000AF78604BF2C842C2F20102D4
:1050C00041F2D063C0F6040314461D460FCD0FC451
:1050D0002B6823707B689B694BF2C840C2F20100C9
:1050E0001946FCF7D5FD4BF2C840C2F2010041F26F
:1050F000E461C0F60401FF221BF0F2FF0837BD4651
:10510000B0BD00BF00000000000000000000000073
:105110000FB480B582B000AF4BF25863C2F2010306
:105120001B78002B4AD14FF44063C4F202034FF4C2
:1051300080429A6136F0A4FA4BF25863C2F201033E
:1051400001221A70386925213CF04AF90346B3F16F
:10515000FF3F14BF00230123DBB2002B10D0C72375
:105160004BF29050C2F2010039691A46FCF728FF51
:10517000C7224BF29053C2F20103002199541DE063
:105180004BF2B443C2F201030022DA6007F11403C8
:105190007B604BF2B440C2F2010039697A680CF0CE
:1051A000FFFF4BF2B443C2F201035A684BF2B4431F
:1051B000C2F20103DB68134400221A700837BD46AF
:1051C000BDE8804004B0704700000000000000000F
:1051D00080B400AF4BF61873C2F201031B78002BAA
:1051E00001D07B2303E047F6B113C0F23313184616
:1051F000BD465DF8047B7047000000000000000021
:1052000080B582B000AF786039607B68012B0ED129
:105210003A684FF6FF739A4209D14BF2AC30C2F2B2
:10522000010041F2F461C0F604013BF0A9FF083728
:10523000BD4680BD0000000000000000000000002E
:1052400080B500AF01204FF6FF71FFF7D9FF80BD99
:1052500080B584B000AF78607868002103F0C0FDAD
:105260000346FB73FB7B002B40F092807B681B782E
:10527000032B40F081807B685B79002B7CD07B68BE
:105280000022DA627B683033184600214FF4007246
:1052900003F03EFD7B68552283F82E227B68AA220C
:1052A00083F82F227B68522283F830207B685222B9
:1052B00083F831207B68612283F832207B684122A9
:1052C00083F833207B68722283F814227B68722271
:1052D00083F815227B68412283F816227B686122BD
:1052E00083F817227B681B69DAB27B6883F818227F
:1052F0007B681B699BB21B0A9BB2DAB27B6883F89E
:1053000019227B681B691B0CDAB27B6883F81A22AE
:105310007B681B691B0EDAB27B6883F81B227B68F3
:10532000DB68DAB27B6883F81C227B68DB689BB29F
:105330001B0A9BB2DAB27B6883F81D227B68DB68AC
:105340001B0CDAB27B6883F81E227B68DB681B0EBD
:10535000DAB27B6883F81F227B6859787B6803F197
:1053600030027B685B69084611461A46012310F03B
:105370006FFC7B6800225A717B685B7818460021BD
:10538000002210F0BDFC0346002B01D00123FB736B
:10539000FB7B18461037BD4680BD00BF00000000F3
:1053A00080B483B000AF786039603B68023B3B60FB
:1053B0007B689B699A1E3B689A4201D8002307E0EC
:1053C0007B689B783A6802FB03F27B689B6A134414
:1053D00018460C37BD465DF8047B7047000000009E
:1053E00080B586B000AF786039603B68012B04D986
:1053F0007B689A693B689A4201D8012392E07B68F6
:105400001B78022B45D0032B62D0012B40F0888003
:105410003B687B617B695B087A6913447B617B68CD
:105420001A6A7B695B0A13447868194603F0D8FC52
:105430000346002B74D17B69C3F308037A681344D5
:1054400093F830303B617B6901337B617B681A6A7A
:105450007B695B0A13447868194603F0C1FC034674
:10546000002B5DD17B69C3F308037A68134493F87A
:1054700030301B023A6913433B613B6803F0010380
:10548000002B02D03B691B094CE03B69C3F30B03C3
:1054900048E07B681A6A3B681B0A1344786819461F
:1054A00003F09EFC0346002B3AD13B685B0003F4FB
:1054B000FF7330337A681344FB60FB6801331B7859
:1054C0001B029AB2FB681B7813439BB29BB229E084
:1054D0007B681A6A3B68DB0913447868194603F055
:1054E0007FFC0346002B1BD13B689B0003F4FE733B
:1054F00030337A681344FB60FB6803331B781A0669
:10550000FB6802331B781B041A43FB6801331B78CA
:105510001B021A43FB681B78134323F0704301E01E
:105520004FF0FF3318461837BD4680BD000000001D
:1055300080B588B000AFF860B9607A60BB68012BB5
:1055400004D9FB689A69BB689A4202D80223FB77A8
:10555000E1E0FB681B78022B70D0032B00F09180F8
:10556000012B40F0D380BB68BB61BB695B08BA69A3
:105570001344BB61FB681A6ABB695B0A1344F86891
:10558000194603F02DFC0346FB77FB7F002B40F010
:10559000BF80BB69C3F308033033FA6813447B61EF
:1055A000BB6803F00103002B0DD07B691B78DBB2D5
:1055B00003F00F03DAB27B68DBB21B01DBB21343EB
:1055C000DBB2DBB201E07B68DBB27A691370BB69E6
:1055D0000133BB61FB6801221A71FB681A6ABB695F
:1055E0005B0A1344F868194603F0FAFB0346FB779D
:1055F000FB7F002B40F08C80BB69C3F30803303382
:10560000FA6813447B61BB6803F00103002B03D0ED
:105610007B681B09DBB20EE07B691B78DBB223F0F1
:105620000F03DAB27B681B0ADBB203F00F03DBB2B5
:105630001343DBB2DBB27A69137069E0FB681A6A64
:10564000BB681B0A1344F868194603F0C9FB0346FC
:10565000FB77FB7F002B5BD1BB685B0003F4FF7320
:105660003033FA6813447B617B68DAB27B691A7065
:105670007B6901337A6892B2120A92B2D2B21A707E
:1056800046E0FB681A6ABB68DB091344F8681946F0
:1056900003F0A6FB0346FB77FB7F002B38D1BB68EA
:1056A0009B0003F4FE733033FA6813447B617B691B
:1056B00003331B781A067B6902331B781B041A43D9
:1056C0007B6901331B781B021A437B691B781343E8
:1056D00003F070437A6813437B607B68DAB27B69BE
:1056E0001A707B6901337A6892B2120A92B2D2B20E
:1056F0001A707B6902337A68120CD2B21A707B6915
:1057000003337A68120ED2B21A7001E00223FB77DB
:10571000FB6801221A71FB7F18462037BD4680BD09
:1057200080B584B000AF786039603B68012B04D944
:105730007B689A693B689A4202D80223FB7335E082
:105740000023FB732DE078683968FFF749FEB860E5
:10575000BB68002B2AD0BB68012B02D10223FB734C
:1057600024E0BB68B3F1FF3F02D10123FB731DE0CE
:10577000786839680022FFF7DBFE0346FB73FB7B8A
:10578000002B13D17B681B69B3F1FF3F07D07B6807
:105790001B695A1C7B681A617B6801225A71BB68BD
:1057A0003B607B689A693B689A42CCD8FB7B184681
:1057B0001037BD4680BD00BF0000000000000000A3
:1057C00080B586B000AF786039603B68002B0DD1A2
:1057D0007B68DB683B613B69002B04D07B689A697E
:1057E0003B699A4216D801233B6114E07868396816
:1057F000FFF7F6FDB860BB68012B01D8012365E017
:105800007B689A69BB689A4201D9BB685EE03B68D5
:105810003B6100E000BF3B697B617B6901337B61D9
:105820007B689A697B699A4207D802237B617A690F
:105830003B699A4201D9002348E078687969FFF70B
:10584000CFFDB860BB68002B0ED0BB68B3F1FF3F43
:1058500002D0BB68012B01D1BB6837E07A693B6994
:105860009A42DAD1002331E0786879696FF07042AA
:10587000FFF75EFE0346FB73FB7B002B09D13B6801
:10588000002B06D0786839687A69FFF751FE034625
:10589000FB73FB7B002B10D17B687A69DA607B6835
:1058A0001B69B3F1FF3F10D07B681B695A1E7B68F0
:1058B0001A617B6801225A7107E0FB7B012B02D140
:1058C0004FF0FF3300E001237B617B6918461837F6
:1058D000BD4680BD00000000000000000000000088
:1058E00080B584B000AF78600B467B807B687A8897
:1058F000DA807B689B68FB60FB68012B05D07B68C6
:105900001B689A69FB689A4201D8022364E0FB682D
:10591000002B08D17B681B681B78032B03D17B68A5
:105920001B685B6AFB60FB68002B14D17B68FA681C
:10593000DA607B681B681B897A889A4201D302234C
:105940004AE07B681B685A6A7B881B099BB21A4431
:105950007B681A6135E07B681B689B781B017B8143
:105960001BE07B681B681846F968FFF739FDF86093
:10597000FB68B3F1FF3F01D101232DE0FB68012B50
:1059800005D97B681B689A69FB689A4201D8022393
:1059900022E07A887B89D31A7B807A887B899A4235
:1059A000DFD27B68FA68DA607B681B681846F968A2
:1059B000FFF7F6FC02467B881B099BB21A447B6802
:1059C0001A617B681A687B8803F00F035B01303330
:1059D0001A447B685A61002318461037BD4680BDC3
:1059E00090B585B000AF786039607B68DB880133A3
:1059F0003B813B89002B03D07B681B69002B01D1C5
:105A00000423BCE03B8903F00F039BB2002B40F062
:105A1000A8807B681B695A1C7B681A617B68DB68FD
:105A2000002B08D17B681B681B893A899A42C0F019
:105A300098800423A3E03B891B099BB21A467B682C
:105A40001B689B78013B1340002B40F08A807B68E9
:105A50001A687B68DB6810461946FFF7C1FCF860DE
:105A6000FB68012B01D8022389E0FB68B3F1FF3FFB
:105A700001D1012383E07B681B689A69FB689A4225
:105A800063D83B68002B01D1042378E07B681A6857
:105A90007B68DB6810461946FFF792FEF860FB68EA
:105AA000002B01D107236AE0FB68012B01D10223FF
:105AB00065E0FB68B3F1FF3F01D101235FE07B6844
:105AC0001B681846002103F08BF90346002B01D018
:105AD000012354E07B681B683033184600214FF4E3
