:020000040800F2
:100000000004002071010008B1020008B1020008DC
:10001000B1020008B1020008B1020008B1020008F4
:10002000B1020008B1020008B1020008D1020008C4
:10003000B1020008B1020008B1020008B1030008D3
:10004000B1020008B1020008B1020008B1020008C4
:10005000B1020008B1020008B1020008B1020008B4
:10006000B1020008B1020008B1020008B1020008A4
:10007000B1020008B1020008B1020008B102000894
:10008000B1020008B1020008B1020008B102000884
:10009000B1020008B1020008B1020008B102000874
:1000A000B1020008B1020008B1020008B102000864
:1000B000B1020008B1020008B1020008B102000854
:1000C000B1020008B1020008B1020008B102000844
:1000D000B1020008B1020008D1110008B102000805
:0C00E000B1020008B1020008B1020008E3
:1000F00000B583B000F04CFE00F0CAF940F6841061
:10010000C2F20000002100F0CBFE4FF48050C4F298
:1001100001004FF40051062201F012F8002240F6CF
:10012000002041F2D1330092C2F20000C0F6000379
:100130004FF4A871402200F0C3FB4FF4FA7000F0B6
:1001400007FCFAE7AFF30080AFF30080AFF3008065
:10015000704700BFAFF30080AFF30080AFF30080C3
:10016000FEE700BFAFF30080AFF30080AFF3008085
:1001700072B640F60000C2F2000080F30988022344
:1001800083F31488BFF36F8F40F2000340F2004204
:10019000C2F20003C2F2000293420BD2D9431144CF
:1001A00021F0030119444FF05532043B43F8042F6A
:1001B0008B42FBD140F20043C2F2000383420CD2D7
:1001C00037491A1D891A21F0030119444FF055329D
:1001D000043B43F8042F8B42FBD101F0E9F840F6D1
:1001E000000140F60003C2F20001C2F2000399428E
:1001F0000ED2CC431C4424F0030441F2D840043412
:10020000C0F600000023C258CA500433A342FAD1FA
:1002100040F6000340F65032C2F20003C2F2000280
:1002200093420AD2D943114421F003011944002218
:10023000043B43F8042F8B42FBD1FFF789FF40F2C8
:10024000EC0540F2EC03C0F60005C0F600039D4249
:100250000BD2EE431E44B6080136043D002401349F
:1002600055F8043F9847B442F9D1FFF741FF40F2F7
:10027000EC0540F2EC03C0F60005C0F600039D4219
:100280000BD2EE431E44B6080136043D002401346F
:1002900055F8043F9847B442F9D1FFF761FF00BF1A
:1002A00003080020AFF30080AFF30080AFF30080BD
:1002B000FEE700BFAFF30080AFF30080AFF3008034
:1002C00000F0BEFA00DF00BFAFF30080AFF30080A4
:1002D000EFF30983203383F30988002383F3118824
:1002E000704700BFAFF30080AFF30080AFF3008032
:1002F00008B54FF440724FF46D43CEF20003C0F2E4
:10030000FA52002199600720DA60102100F098F875
:100310000A20202100F094F8BDE808400B2080213D
:1003200000F08EB8AFF30080AFF30080AFF3008031
:10033000202383F311884FF46D43CEF200035B68F2
:1003400013F400631FD0EFF309824FF0807342F87B
:10035000043CA2F1200383F3098840F63813C2F26B
:1003600000039969C87F88B118688B6881689942D1
:1003700094BF0023012393B140F2C123C0F60003D0
:1003800042F8083C704783F31188704718688B68FF
:100390008168994234BF00230123002BECD140F245
:1003A000C423C0F6000342F8083C7047AFF3008056
:1003B00008B5202383F3118800F0A2F8002383F30B
:1003C0001188BDE80840FFF7B3BF00BFAFF300805E
:1003D0002DE9F04FC1F80CD0D0F80CD0BDE8F08F6B
:1003E000002383F311882846A04700F0E9FA7047FC
:1003F00000F0030330B4DB00FF259D40994001224B
:1004000000F01F039A4020F0030404F1604404F557
:100410006144D4F800334009800023EA050300F169
:10042000604000F561400B43C4F80033C0F8802100
:1004300030BC0260704700BFAFF30080AFF30080B4
:1004400000F00303DB00FF229A40994020F00300F4
:1004500000F1604000F56D40836923EA02030B431D
:1004600083617047AFF30080AFF30080AFF300808B
:1004700040F63813C2F200039A6941F21043C0F605
:1004800000039361FEE700BFAFF30080AFF300808D
:1004900010B582B0FFF72CFF00F0EAF800F068F822
:1004A00000F02EFC00F064FC40F600004021C2F297
:1004B000000000F0D5F940F63813C2F20003012223
:1004C00098610277002383F3118862B640F63813EF
:1004D000C2F200039C6941F22042C0F600020021F2
:1004E00040F6480040F27143A261C0F6000300915B
:1004F0000122E021C2F2000000F0E2F902B010BDDA
:1005000070B540F63813C2F200039B69DA7F0AB176
:10051000013ADA771A6A40F628110132C2F2000174
:100520001A62CB680A6801338A42CB6019D0966898
:10053000013E9660AEB90D461068D4680860D6607A
:100540000023416083F311881069A047202383F3BF
:1005500011882A6840F628119368C2F20001002B26
:10056000EAD070BDAFF30080AFF30080AFF300803E
:1005700040F62813C2F200034FF0FF3100225B6007
:100580001B609960DA607047AFF30080AFF30080C2
:1005900070B440F62816C2F200063468A5680361FC
:1005A000A942C26004D92468491BA5688D42FAD3C8
:1005B0006368B442046043606060186081601EBF7D
:1005C000A368C1EB0301A16070BC7047AFF300806A
:1005D000036840F62812C2F2000293421FBF9968D6
:1005E000826852189A6042680021136003685A605A
:1005F000C1607047AFF30080AFF30080AFF30080BD
:1006000010B4202383F31188037F0D2B11D8DFE86A
:1006100003F029101007100B101010101010100B01
:10062000436A9A6801329A6090E80C001A60026886
:1006300053604FF0FF34002340F638128168446263
:100640000377C2F20002126893688B42FBD25168B2
:100650000023026041605060086083F311885DF8F8
:10066000044B7047002383F311885DF8044B7047F7
:1006700040F63813C2F2000300225B601B605B612E
:100680001B619A60704700BFAFF30080AFF300803A
:10069000002240F63813816810B4C2F20003044609
:1006A00002771B689A688A42FBD25A682046236008
:1006B00062605C6014605DF8044B7047AFF30080CB
:1006C00040F63813C2F2000370B41A6899691468CE
:1006D000142601250877CE77636015771C601046D5
:1006E00070BC9A61FFF774BEAFF30080AFF3008077
:1006F00030B54B1C87B0054617D040F63814C2F20F
:10070000000440F20162A36901A8C0F60002FFF7ED
:100710003FFF2846FFF7D4FF049B13B101A8FFF762
:1007200057FFA369586A07B030BDFFF7C9FF40F60D
:100730003814C2F20004A369586A07B030BD00BF84
:10074000F0B440F63817C2F20007D7F818C0856831
:10075000DCF808400646A54241620DD800223B461F
:1007600002771B689A689542FBD95A6833607260B9
:100770005E601660F0BC704700238CF81C303B466E
:100780001B689A689442FBD95A680124CCF800305F
:10079000CCF80420C3F804C0C2F800C03477304657
:1007A000BE616146F0BCFFF713BE00BFAFF300802F
:1007B00040F63812C2F200021068F0B4036895697E
:1007C000012714260021AC6813605A60077703469E
:1007D0009061EE77297700E01B689A68A242FBD20D
:1007E0005A6829462B606A605D601560F0BCFFF7AF
:1007F000EFBD00BFAFF30080AFF30080AFF3008028
:1008000040F63812C2F20002106870B403689569AD
:1008100001260021AC6813605A6006770346906198
:10082000297700E01B689A68A242FBD85A682946DB
:100830002B606A605D60156070BCFFF7C9BD00BFCA
:1008400040F63813C2F200039B69DB7F0BB1FFF760
:10085000D7BFFFF7ADBF00BFAFF30080AFF300809D
:100860002DE9F00340F63812C2F200025569002467
:1008700000F12C064FF002094FF0140800F1280790
:100880004FF0010C45610261816080F81C9080F896
:100890001F804477C463846304628461016450618F
:1008A00080F81EC0286187620663C662BDE8F00357
:1008B000704700BFAFF30080AFF30080AFF300805C
:1008C0002DE9F0479E460446202383F3118840F625
:1008D0003816A1F124031844C2F20006776940F2E9
:1008E000E131E06044F803E0089B002504F12C0EA0
:1008F00004F1280CC0F600014FF0020A4FF0140971
:100900004FF0010843600162A260266167612264C2
:1009100084F81CA084F81F9084F81E8065777461A9
:10092000E563A5632562A56120463C612946C4F8BC
:1009300028C0C4F830E0C4F82CE0FFF701FF2B46D4
:1009400083F311882046BDE8F08700BFAFF3008035
:1009500008B50146202383F311880620FFF7C8FE5F
:10096000002383F3118808BDAFF30080AFF300804C
:1009700038B540F63813C2F200039C69254655F895
:10098000283F6062AB4207D01A681846A262FFF7A0
:100990007FFEA36AAB42F7D1637F9B0704D1226934
:1009A00063691A61226953610E20BDE83840FFF780
:1009B00087BE00BFAFF30080AFF30080AFF30080CD
:1009C000202383F31188FFF7D3BF00BFAFF300806C
:1009D0000023406000608360704700BFAFF3008079
:1009E00008B5826B037F1143082B81630BD0092B61
:1009F00000D008BD436A19408B42FAD1FFF748FE88
:100A00000023436208BD436A1942F7D108BD00BF05
:100A100070B504680546A0420E4609D0E3686068D8
:100A20003343E360A168FFF7DBFF2468A542F5D1FB
:100A300070BD00BFAFF30080AFF30080AFF3008064
:100A400010B4024679B140F63813C2F200039B6934
:100A50000D205A62546883E81400536023605DF8E7
:100A6000044BFFF745BE4FF0FF305DF8044B704775
:100A700030B4029C00250A44856004620261406033
:100A8000006041618161C160C36130BC704700BFDB
:100A900003464269806910B582429C681BD0501C95
:100AA000013458619C60117059691A6991420BD2E6
:100AB000186898420DD002681A605360FFF7E8FD8D
:100AC00000234362184610BD1868DA6898425A61DC
:100AD000F1D1002010BD002CE1D06FF0030010BD5B
:100AE00070B5202304460E4683F31188C3692BB1E9
:100AF000984703E0FFF7A4FF002815DBA568204610
:100B00003146002DF6D0A2692169531C8B42A361A6
:100B100005F1FF3528BFE368A560107828BFA36101
:100B2000002383F3118870BD2B4683F3118870BDB9
:100B30002DE9F0471E460446D0F81C80202383F39D
:100B400011884FF0000901EB020A4F1CB8F1000FA9
:100B500005D02046C04702E0FFF772FFF0B9A56854
:100B600020463146002DF7D0A369013D5A1CA261F1
:100B7000A5601B7807F8013C2369A2699A4224BF4B
:100B8000E368A361002383F31188574509F1010944
:100B900007D0202383F311880137D7E72B4683F34F
:100BA00011884846BDE8F087AFF30080AFF30080BE
:100BB00030B4029C8D180561046240600060826060
:100BC00041618161C160C36130BC7047AFF3008097
:100BD000F8B504460F461646202383F3118803E038
:100BE000FFF72EFF002819DBA56820463146002DAF
:100BF000F6D06369013D5A1C6261A5601F702369CC
:100C000062699A4224BFE3686361E3690BB12046DD
:100C10009847002383F311880020F8BD2B4683F307
:100C20001188F8BDAFF30080AFF30080AFF3008010
:100C30008269416910B591420346846816D01869EB
:100C40000134511C9C609961814214780BD2186860
:100C5000984206D002681A605360FFF719FD00231E
:100C60004362204610BDDA689A61F0E7002CE6D0B6
:100C70006FF0020010BD00BFAFF30080AFF3008043
:100C80002DE9F84F9A4604460E461746D0F81C90B8
:100C9000202383F311884FF00008A56806F1010BAB
:100CA00020466B1EDDB16269A360531C636133781B
:100CB0001370236962699A4224BFE3686361B9F1E2
:100CC000000F00D0C847002383F31188013F08F1CB
:100CD00001080DD0202383F311885E46DDE720460E
:100CE0005146FFF7ADFE0028D7D02B4683F311887D
:100CF0004046BDE8F88F00BFAFF30080AFF300803F
:100D000045F200010848C2F2000140F6541240F6D4
:100D1000581321F00701C2F2000220F00700C2F2CE
:100D20000003116018607047570B0020AFF300807C
:100D3000202383F3118840F6581340F65412C2F270
:100D40000003C2F2000219681268073020F00700A1
:100D5000521A90429BBF401818600020084600239A
:100D600083F31188704700BFAFF30080AFF30080BA
:100D700040F66013C2F2000340F631520021C0F683
:100D8000000203F110001A609960D960FFF720BEDD
:100D900008B500F005F900F0DBF841F29040C0F62C
:100DA000000000F08DF900F04BF8BDE8084000F0BD
:100DB00007BB00BFAFF30080AFF30080AFF300804C
:100DC0000C30FFF7B5BE00BFAFF30080AFF300807B
:100DD0000C304FF0FF33FFF7ABBE00BFAFF3008026
:100DE0003030FFF74DBF00BFAFF30080AFF300809E
:100DF00030304FF0FF33FFF743BF00BFAFF3008049
:100E00000C30FFF76DBE00BFAFF30080AFF3008082
:100E10000C304FF0FF31FFF763BE00BFAFF300802F
:100E20003030FFF7D5BE00BFAFF30080AFF30080D6
:100E300030304FF0FF32FFF7CBBE00BFAFF3008082
:100E400000F05EBAAFF30080AFF30080AFF3008034
:100E500070B541F24045C0F60005044682B040F846
:100E6000045B012600940B461546606004F15401B2
:100E700004F10C0026721022FFF7FAFD00942B46B5
:100E800004F1300004F164011022FFF791FE02B07A
:100E900070BD00BFAFF30080AFF30080AFF3008000
:100EA00010B52023044683F3118800F041FA022391
:100EB0002372002383F3118810BD00BFAFF30080BD
:100EC00038B5436904460D463BB1294604F10C0090
:100ED000FFF7DEFD00280BDB38BD04300421FFF7EF
:100EE00097FD294604F10C00FFF7D2FD0028F3DA44
:100EF000201D8021BDE83840FFF78ABDAFF3008098
:100F00004FF48053CEF200035B688360704700BFEC
:100F10004FF48053CEF2000340F680125B68816884
:100F2000C2F2000210B414685B1AC2681B1B934221
:100F3000836088BFC36003D80269934238BF0361EE
:100F40005DF8044B704700BFAFF30080AFF3008043
:100F500010B540F6801486B0C2F2000400224FF0B3
:100F6000FF314FF48053226004920591CEF20003CA
:100F7000596840F6017240F61173C0F60002C0F6DF
:100F8000000301A8029303910192FFF7C1FF039BA5
:100F9000236006B010BD00BFAFF30080AFF3008048
:100FA0004FF48053F0B4C4F2020300214FF0FF3439
:100FB0004EF210021869CEF200021C614BF67F3629
:100FC000196107254EF6F050DF68CEF20000DC60B4
:100FD000D960566091601560C2684FF4805142F04C
:100FE0008072C260CEF2000108684FF4E04240F027
:100FF00001000860D969C4F2000241F08051D96152
:10100000D969F0BC41F00061D961136843F4807381
:1010100013607047AFF30080AFF30080AFF3008040
:101020004FF48053C4F202031A68194642F00102D9
:101030001A600A684FF480539007C4F20203F8D58F
:101040005A68194622F003025A605A685A604B687F
:101050004FF4805213F00C03C4F20202F7D110686F
:10106000114600F0F90010605360536843F42013F8
:101070005360136843F0807313600A684FF4805321
:101080009201C4F20203F8D54FF4C8414FF4005264
:10109000C0F26801C4F20202112059601060596860
:1010A0001A4641F002015960536803F00C03082B03
:1010B000FAD17047AFF30080AFF30080AFF3008048
:1010C0004FF48053C4F202039A6910B442F07D02D7
:1010D0009A6103684FF40062C4F20102D360816830
:1010E0004FF4406351604168C4F201031160C2686B
:1010F0004FF48051DA604269C4F201015A60046918
:101100004FF4A0521C608369C4F20102CB60046AF0
:101110004FF4C0534C60C469C4F201030C60416ACF
:101120005DF8044BD160C16A5160816A1160026B45
:10113000DA60826B5A60426B1A607047AFF30080CE
:10114000032AF0B408BF016102D0042A08BF41613C
:1011500041F26043C0F600039F5C00231C461A4620
:101160001D46082611F0800F4FEA02124FEA0313C2
:101170004FEA05154FEA04140CBF42F00F023B433F
:1011800011F4004F0CBF45F00F053C43013E4FEA00
:101190004101E7D141680D402C4344600168F0BC37
:1011A0000A40134303607047AFF30080AFF3008041
:1011B0004FF48843C4F200039A8992B242F080024D
:1011C0009A817047AFF30080AFF30080AFF30080E7
:1011D000F8B540F68416C2F20006756FAF892C8808
:1011E000BFB2A4B2E20557D4202383F3118814F0D0
:1011F0002F0F09D12EE0A988A00689B21ED42C8811
:10120000A4B214F02F0F25D02307F4D014F0080F48
:1012100014BF80210021E00748BF41F02001A20750
:1012200048BF41F04001630748BF41F48071324834
:10123000FFF7EEFBA988A00689B2E0D540F684103E
:10124000C9B2C2F20000FFF73BFE2C88A4B214F032
:101250002F0FD9D1002383F31188390601D5220637
:1012600029D4630614D5202383F31188726CB36CE0
:1012700040F684109A42C2F200002BD04FF6BF73A2
:101280003B404FF6BF72AB8100232A8083F3118865
:10129000BDE8F840FFF74CB8202383F311884FF4E2
:1012A0000071301DFFF7B4FB002383F311884FF664
:1012B000FF632B8098E7202383F311880F48FFF703
:1012C000B7FC0028A4BF80B2A8800BDB002383F307
:1012D0001188C6E7836B002BD0D004301021FFF7B4
:1012E00097FBCBE704480821FFF792FB27F0C003E8
:1012F00043F04003AB81E9E788090020B4090020EE
:1013000010B540F68414C2F2000441F2B112204636
:10131000C0F600020021FFF79BFD4FF48843C4F2A2
:101320000003636710BD00BFAFF30080AFF3008020
:1013300038B541F28044037AC0F60004002918BF92
:101340000C46012B05461FD021684FF45852C0F2BD
:101350006E126B6FB2FBF1F292B21A81A288E18831
:10136000208942F4045241F0400442F02C0240F043
:10137000010092B2A4B280B200211C8298829A81AC
:1013800019801A889B8838BD40F68413C2F2000386
:101390009842D9D14FF48053C4F20203DA6926206F
:1013A00042F40032DA61C021FFF722F8CCE700BF37
:1013B000FFF736BEAFF30080AFF30080AFF30080DD
:1013C000704700BFAFF30080AFF30080AFF3008041
:1013D00008B540F63813C2F200039A6941F2D043CF
:1013E000C0F600034FF480544FF400559361C4F2EB
:1013F00001042E4666611E20FFF7AAFA25611E2011
:10140000FFF7A6FAF6E700BFAFF30080AFF3008066
:1014100069646C650000000000000000000000002E
:101420006D61696E00168811040448080C101418C8
:10143000001C1D1E1F200000000000000000000016
:10144000F10D0008D10D0008310E0008110E000842
:10145000210E0008010E0008E10D0008C10D000872
:101460000402040808000307080808080808080818
:101470000B0F000000000000000000000000000052
:101480000096000000000040000000000000000086
:10149000DFBFFFFF884B388888888888FFFFFFFF01
:1014A0008888888888888888FFFFFFFF88888888E0
:1014B00088884888FFFFFFFF448888888888888854
:1014C000FFFFFFFF888888888888888800000000E0
:0814D000626C696E6B6572002D
:04000005080001717D
:00000001FF
