:020000040800F2
:1000000000100020813B0008F13C0008E1C4010819
:10001000F13C0008C1C40108A1C40108F13C00087A
:10002000F13C0008F13C0008F13C0008213D0008CB
:1000300081C40108F13C0008F13C0008213E0008A1
:10004000F13C000841950008F13C00088196000849
:10005000F13C0008F13C00080193000831930008CE
:100060006193000891930008C1930008318700084C
:1000700071870008B1870008F187000831880008FF
:1000800071880008B1880008E1900008519A0008C2
:10009000719A0008919A0008B19A0008F19300083B
:1000A00071B90008F1B80008F13C000811B9000866
:1000B00031B9000851B90008C1BC0008F1A100081D
:1000C00031A30008F13C0008F13C0008F13C0008B5
:1000D000F13C000851C1000871C1000891C100083D
:1000E0009194000881950008C1950008F13C000832
:1000F00051BD0008F13C000881BD0008F1880008EE
:10010000F13C0008F13C000841B70008F13C000850
:10011000F13C0008F13C0008F13C0008F13C00080B
:100120003189000871890008B1890008F189000847
:10013000318A0008F13C000801960008D19A0008B5
:10014000F19A0008119B0008319B000821AF0008BC
:10015000718A0008B18A0008F18A0008F13C0008A1
:10016000F13C0008F13C0008F13C0008F13C0008BB
:1001700041960008F13C0008F13C0008F13C000801
:10018000F13C0008F13C0008F13C0008F13C00089B
:10019000F13C0008F13C0008F13C0008F13C00088B
:0C01A000F13C0008F13C0008F13C0008B4
:1001AC0051020008D1020008F102000811030008F6
:1001BC005103000891030008C1030008E103000883
:1001CC00010400082104000861040008A1040008CF
:1001DC00C1040008610500087105000891050008BC
:1001EC00B1050008F10500081106000831060008E9
:1001FC0081060008E1060008110700083107000815
:10020C00B1070008D107000891080008B1080008E0
:10021C00D1080008210900084109000881090008DB
:10022C00D1090008710C0008C10C0008A10E0008CF
:0C023C007110000891100008F11000087B
:1002500070B543F29014C2F2000442F620612046C9
:10026000C2F2000126F0A4F943F29401201DC2F26B
:10027000000126F09DF942F6807104F10800C2F2F7
:10028000000126F095F943F28403C2F200032668C8
:100290006568A4681E6042F6207042F630211A4656
:1002A0005D609C60C2F20001C2F2000015F0F0FB3C
:1002B00043F27C00C2F2000026F052F943F28003C0
:1002C000C2F2000300221A705A709A7070BD00BF0B
:1002D00010B543F2A814C2F20004204615F040FD08
:1002E00004F11800BDE8104015F03ABDAFF30080EE
:1002F00008B544F25810C2F2000012F029F943F296
:10030000E010C2F20000BDE808400EF029BD00BFB9
:1003100038B544F2D01044F6F874C2F20004002557
:10032000C2F2000026F01CF9204629464FF48072E4
:10033000C4F8005102F0FCFE4023C4F80451C4F894
:100340000831C4F8045138BDAFF30080AFF300802A
:1003500038B545F2041045F21814C2F20004002525
:10036000C2F2000015F004FE204629464FF48072C8
:10037000C4F8005102F0DCFE4023C4F80451C4F874
:100380000831C4F8045138BDAFF30080AFF30080EA
:1003900010B545F22424C2F20004204615F0E8FD11
:1003A00004F1100015F0E4FD04F12000BDE8104058
:1003B00015F0DEBDAFF30080AFF30080AFF3008037
:1003C00045F298204BF6146145F2D422C2F20000A7
:1003D000C0F60201C2F2000241F2883325F0D0B922
:1003E00046F274604BF62471C2F20000C0F60201BE
:1003F00025F0DEB9AFF30080AFF30080AFF30080EB
:10040000044B002103F5DC7243F8581C5833934227
:10041000FAD17047D8670020AFF30080AFF30080B7
:10042000F8B546F678460024C2F20006402746F6A4
:100430002C45C2F2000521463A463046B46402F02B
:1004400077FE3A462846214634647464AC6402F070
:100450006FFE2C646C64F8BDAFF30080AFF30080D6
:10046000F8B546F610560024C2F20006402746F6BC
:10047000C445C2F2000521463A463046B46402F053
:1004800057FE3A462846214634647464AC6402F050
:100490004FFE2C646C64F8BDAFF30080AFF30080B6
:1004A00046F6645042F63031C2F20000C0F6030155
:1004B00025F07EB9AFF30080AFF30080AFF300808A
:1004C00046F67460C2F2000047F2B40110B4002294
:1004D000C2F200014FF0FF3481608161816281636B
:1004E000816481650260426002614261026242622F
:1004F000026342630264426402654265C460C4618F
:10050000C462C463C464C46500F1740300F5B270CE
:1005100043F80C1C43F8142C43F8102C43F8084CF7
:1005200043F8042C14338342F2D10A4B002203F126
:10053000F0044FF0FF3043F80C1C43F8142C43F840
:10054000102C03E905001433A342F4D15DF8044BE9
:10055000704700BFD86F0020AFF30080AFF300807A
:1005600047F2B800C2F2000015F06ABDAFF3008098
:1005700047F2FC304FF66811C2F20000C0F60201EB
:1005800025F016B9AFF30080AFF30080AFF3008021
:1005900047F2A0504FF6BC31C2F20000C0F6020193
:1005A00025F006B9AFF30080AFF30080AFF3008011
:1005B00038B50D4C04F50065204625F0B1F904F17D
:1005C0007C0004F5807425F0ABF9AC42F4D147F619
:1005D0009034C2F20004201D00214FF4006202F0AA
:1005E000A7FD0023236038BD9C7B0020AFF3008073
:1005F00048F220704FF65061C2F20000C0F60201CE
:1006000025F0D6B8AFF30080AFF30080AFF30080E1
:1006100049F2A00040F24C01C2F20000C0F6030112
:1006200025F0C6B8AFF30080AFF30080AFF30080D1
:1006300008B549F2CC5040F28C2149F2E4224FF443
:10064000FA73C0F60301C2F20002C2F2000025F004
:1006500097F849F2DC4041F2C471C2F20001C2F2E3
:10066000000019F0A5FF49F2F41041F26871C2F2DE
:100670000000C2F20001BDE8084019F099BF00BFB8
:1006800049F60C1040F2706138B5C0F60301C2F2B1
:10069000000015F05DFC49F6201549F68810C2F2FD
:1006A0000005C2F2000015F063FC49F6501428461C
:1006B00015F056FBC2F2000405F1180015F050FBCE
:1006C000204615F04DFB04F11800BDE8384015F048
:1006D00047BB00BFAFF30080AFF30080AFF30080F3
:1006E00008B549F6A85040F63401C2F20000C0F641
:1006F000030125F05DF849F69450C2F20000BDE810
:10070000084015F035BC00BFAFF30080AFF30080A8
:100710004AF2B80040F6B871C2F20000C0F6030118
:1007200025F046B8AFF30080AFF30080AFF3008050
:100730004EF6A46041F2B4214EF6F80208B5C2F2BA
:1007400000024FF4AF63C0F60301C2F2000025F0CF
:1007500017F84EF6E46041F2C021C0F60301C2F280
:10076000000025F025F84EF2F84041F2CC21C0F609
:100770000301C2F2000025F01BF84EF2E840C2F27D
:10078000000015F0F5FB4EF67060C2F2000015F0A7
:10079000EFFB4EF68060C2F2000015F0E9FB4EF66A
:1007A0009060C2F20000BDE8084015F0E1BB00BF58
:1007B00041F2001041F29461C2F20100C0F603015F
:1007C00024F0F6BFAFF30080AFF30080AFF30080FA
:1007D00010B541F21C2082B0C2F2010026F058FB95
:1007E0004CF2AE73C4F236330024009341F234204D
:1007F00047F6E12200232146CCF2D402C4F2A00342
:10080000C2F2010026F04CFB41F20C204DF6100222
:10081000002300944FF07C51C4F2B622C4F240038E
:10082000C2F2010026F03CFB0023C4F248330093DF
:1008300041F22420002321462246C4F2A003C2F242
:10084000010026F02DFB0023C4F28233009341F215
:100850001420002321464FF08242C4F2A003C2F2CA
:10086000010026F01DFB0023C4F2C823009341F2CF
:100870002C20002322464FF07C51C4F29003C2F298
:10088000010026F00DFB02B010BD00BFAFF30080E9
:1008900041F2E86042F6405141F20032C2F20100FA
:1008A000C0F60301C2F201024FF47A7324F068BF6C
:1008B00041F2487042F68051C2F20100C0F60301D5
:1008C00024F076BFAFF30080AFF30080AFF3008079
:1008D00038B541F6201042F6902141F6A805C0F641
:1008E0000301C2F20105C2F2010015F031FB41F62D
:1008F000E004284615F034FAC2F2010405F11800AC
:1009000015F02EFA204615F02BFA04F11800BDE878
:10091000384015F025BA00BFAFF30080AFF3008078
:1009200041F6704043F29811C2F20100C0F6030193
:1009300024F03EBFAFF30080AFF30080AFF3008040
:1009400042F2F03008B5C2F2010015F011FB42F29C
:100950009800C2F2010015F07BF841F68850C2F20F
:1009600001001BF025FB42F20440C2F20100BDE889
:10097000084012F085BB00BFAFF30080AFF30080EA
:1009800010B542F2307082B0C2F2010015F060F88A
:1009900042F21C70C2F2010015F0EAFA00244FF096
:1009A0007E5100220091C4F2B42442F20070002172
:1009B00013460194C4F22011C2F2010027F0C8FFCF
:1009C00002B010BDAFF30080AFF30080AFF3008042
:1009D0002DE9F04142F69864C2F20104002142F68A
:1009E000FC27C2F201070A46204642F6E06814F0EE
:1009F0004FFEC2F201082146384614F0D1FD42F6FE
:100A0000B435396840460722C2F2010514F050FEA1
:100A100043F2CC4239682846C0F6030242F62C6401
:100A2000C2F2010414F034FE43F2D4423968204685
:100A3000C0F6030242F64446C2F2010614F028FE54
:100A400043F2E04239683046C0F6030214F020FE5B
:100A500042F6785041460822C2F2010014F028FE06
:100A600042F6746041460922C2F2010014F020FEF1
:100A700042F6506029460A22C2F2010014F018FE24
:100A800042F60C3029460B22C2F2010014F010FE8F
:100A900042F68C4029460D22C2F2010014F008FEF5
:100AA00042F6902029460E22C2F2010014F000FE08
:100AB00042F60C5029461022C2F2010014F0F8FD53
:100AC00042F66C7029460C22C2F2010014F0F0FDCF
:100AD00042F6305029461422C2F2010014F0E8FD1B
:100AE00042F6487029461122C2F2010014F0E0FDDE
:100AF00042F6247029461222C2F2010014F0D8FDF9
:100B000042F6E45043F2E84240F2F1432146C0F697
:100B10000302C0F60203C2F2010014F0A9FD42F67E
:100B2000204043F2F44243F231232146C0F603024F
:100B3000C0F60203C2F2010014F09AFD42F608600A
:100B400043F2005243F2C123C0F602032146C0F62D
:100B50000302C2F2010014F08BFD42F66C3043F246
:100B60000C522146C0F60302C2F2010014F090FDBF
:100B700042F6903043F218522146C0F60302C2F208
:100B8000010014F085FD42F6483043F2245221461C
:100B9000C0F60302C2F2010014F07AFD42F6D8302A
:100BA00043F230522146C0F60302C2F2010014F0B3
:100BB0006FFD42F6684043F23C522146C0F6030204
:100BC000C2F2010014F064FD42F6D82043F24C5208
:100BD0002146C0F60302C2F2010014F059FD42F6AC
:100BE000B04043F25C522146C0F60302C2F201005B
:100BF00014F04EFD42F6D44043F26C522146C0F64A
:100C00000302C2F2010014F043FD42F65450314693
:100C10000122C2F2010014F04BFD42F6B42031462D
:100C20000222C2F2010014F043FD42F6BC603146DC
:100C30000322C2F2010014F03BFD42F6C0503146DF
:100C40000422C2F2010014F033FD42F6FC303146BA
:100C50000522C2F2010014F02BFD42F69C503146F1
:100C6000C2F201000622BDE8F04114F021BD00BF30
:100C700043F2B42043F2407108B5C0F60301C2F25A
:100C8000010024F095FD41F68810C1F2000014F037
:100C90008FF843F2B8300949C2F2010014F078FA33
:100CA00042F6B870C2F2010025F01AFC43F2B020FF
:100CB000C2F20100BDE8084025F052BC6864001093
:100CC0002DE9F00F48F24400C2F2010082B047F66D
:100CD0009872C2F201020168019047F6687347F604
:100CE0007470C2F201031160C2F2010040F68C413F
:100CF0000090C0F60301062047F6807AC2F2010A8E
:100D0000916050601A6043F64C32C0F6030248F21C
:100D10002C09C2F2010958609A60CAF8003040F20A
:100D200000030720C0F6030347F6F078C2F201087B
:100D3000CAF80830CAF80400C9F800A043F6503ACF
:100D4000C0F6030AC9F80400C9F808A0C8F8009062
:100D500048F2380C4FF00809C2F2010CC8F80490B0
:100D600043F65439C0F60309C8F80890CCF800805F
:100D700047F65C774FF00908C2F20107CCF804800F
:100D800043F65838C0F6030847F6A476C2F20106C7
:100D9000CCF80880C7F800C047F6FC754FF00A0C85
:100DA00043F65C38C2F20105C7F804C0C0F6030878
:100DB00048F2200443F6603CC2F20104C7F8088000
:100DC0003760C0F6030C0B2743F664387760C6F82B
:100DD00008C02E60C0F603080C2643F6B8476E60C4
:100DE000C5F808802560C0F603070325656043F653
:100DF000683CA7600098C0F6030C052704604760B4
:100E0000C0F808C048F2140B0198C2F2010B47F673
:100E10005071C2F20101C0F800B048F248020098D7
:100E200048F2080347F68C7A43F66C36C2F20103A7
:100E3000C2F2010AC2F20102C0F60306022443F61E
:100E4000703843F6743543F6783743F67C3CC0F689
:100E50000308C0F60305C0F60307C0F6030C4FF005
:100E6000040908604C600D200E248E600F2682E875
:100E70000202C2F808801A6058609D60CAF800300B
:100E8000CBF800A0CAF80440CAF80870CBF8046098
:100E9000CBF808C002B0BDE8F00F7047AFF3008098
:100EA00049F21C2044F23C1238B5C0F6030264211A
:100EB000C2F2010025F044FC49F2EC2041F61C523C
:100EC000C0F603026A21C2F2010025F039FC49F2A2
:100ED0001C5041F23012C0F603026B21C2F2010035
:100EE00025F02EFC49F2D42041F27412C0F6030220
:100EF0006D21C2F2010025F023FC49F2342042F6B4
:100F00003042C0F603026621C2F2010025F018FC4F
:100F100049F20C2043F68472C0F603026521C2F246
:100F2000010025F00DFC49F2045043F69462C0F62E
:100F300003026E21C2F2010025F002FC49F24020BA
:100F400043F68C72C0F603026821C2F2010025F05C
:100F5000F7FB48F2E41043F69C72C0F603026921E5
:100F6000C2F2010025F0ECFB48F6002043F6AC721B
:100F7000C0F603026721C2F2010025F0E1FB48F64A
:100F8000F41043F64C72C0F603026F21C2F2010066
:100F900025F0D6FB48F25800C2F2010049F2F824CD
:100FA00025F0EEFBC2F2010404F500752046103472
:100FB00025F0D6FBAC42F9D149F2F84049F2F821CC
:100FC000C2F20100C2F20101202248F2F41425F01D
:100FD00097FEC2F2010404F500652046103425F0A6
:100FE000BFFBAC42F9D149F2282048F2F411C2F219
:100FF0000100C2F20101802248F60C2425F080FE97
:10100000C2F2010404F500652046103425F0A8FB67
:10101000AC42F9D149F2E02048F60C21C2F20100BD
:10102000C2F2010180220F4C25F06AFE04F5E06552
:101030002046703414F00CFDAC42F9D149F24C203A
:10104000C2F2010048F2E40425F09AFBC2F2010466
:1010500004F580752046103414F08AFFAC42F9D1B3
:1010600038BD00BFA0C10010AFF30080AFF3008017
:1010700008B5054827F044FC4CF6A000C1F200007A
:1010800027F03EFC08BD00BFF0DA0010AFF300808F
:101090002DE9F04149F274570024C2F201074FF0E4
:1010A000400849F22856C2F2010621464246384617
:1010B00049F2C055C2F20105BC6402F039F821467C
:1010C000424630463C647C64B46402F031F84246E7
:1010D0002846214634647464AC6402F029F82C6418
:1010E0006C64BDE8F08100BFAFF30080AFF3008017
:1010F00049F20C6044F26031C2F20100C0F6030113
:1011000024F056BBAFF30080AFF30080AFF3008054
:1011100008B504F06DFC02F033FF1BF0A9F927F0CD
:101120008FFE002008BD00BFAFF30080AFF300804A
:1011300050EA010301D102207047D0F1010338BF0A
:101140000023B1F1004F08BF0028F4D021F0004186
:101150004FF6FF72A1F58010C7F6DF72904201D8FA
:1011600004207047B1F5801F01D203207047002092
:10117000C7F6F070814214BF002003F001007047F1
:10118000C1F30A5C2DE9F843ACF2FF33132B06469A
:101190000F4613DC002B40DB4FF6FF7CC0F20F0C38
:1011A0004CFA03F303EA010C5CEA000C1CD107F0D3
:1011B0000041C2E900676046BDE8F883332B1EDCBE
:1011C0004FF0FF33ACF2134C23FA0CFC1CEA000383
:1011D0001CD020EA0C060F460B46C2E900673246D7
:1011E00000F09AFABDE8F88321EA030700263B469F
:1011F000C2E90067324600F08FFABDE8F88307F0D5
:101200000041C2E900670020BDE8F88307F0004113
:10121000C2E900671846BDE8F88307F000494FF0BF
:101220000008C2E90089BDE8F88300BF00000000A3
:10123000F8B5C1F30A57A7F2FF360246132E0B4644
:101240000D468C4616DC002E31DB4FF6FF7CC0F2DB
:101250000F0C4CFA06FC0CEA010101430FD04FF4CD
:101260000023002143FA06F62E4426EA0C0C084619
:101270006146F8BD332E05DDB6F5806F23D01046EC
:101280001946F8BD4FF0FF30A7F21341C840104295
:10129000F5D0C7F5866701210237B940891828BF04
:1012A00003F1010C21EA000108466146F8BD01F096
:1012B000004C013602BF4CF07F5C00214CF4401C16
:1012C000D5D00021D3E700F029FAF8BD00000000D6
:1012D00070B58AB0054600F06BF841F20064C2F2C6
:1012E000000494F900300133064609D0284600F086
:1012F000EFF928B12846002101F0A6F9034610B104
:1013000030460AB070BD44F270322846C0F603027F
:101310000893019200F060FB2478CDE90401CDE947
:10132000020174BB4FF6FF734FF06042CCF2EF73D3
:10133000CDE906232846002101F05EF978B10223A9
:1013400000939C4229D0684600F0B2F928B3089B6C
:1013500043BBDDE9060100F05BFE0AB070BD022C64
:101360004FF00103009313D0684600F0A1F978B163
:1013700043F6E410C0F6030000F0A2F9CDE906013F
:10138000E5E700230022CFF6F073CDE90623D1E78D
:1013900001F06EFE21230360EAE701F069FE2223DB
:1013A0000360D4E701F064FE089B0360D1E700BF4F
:1013B00020F0004201462DE9F84F0346002A00F0D4
:1013C000B0800028C0F2D380B0F1FF4F80F2CB8014
:1013D000B0F5000FA8BF002706DA4FF098416FF074
:1013E000180700F075FF03464FF62030C3F31604CC
:1013F000C0F24A00DB1520447F3B00F400021F448A
:1014000082F07E504FF07E51204307EBD25700F020
:1014100053FE04F10F03C3F316030F2B054640F3ED
:1014200087804FF0804145F6304800F047FECFF608
:10143000CF78A044C4F5571404F5227444EA080890
:101440000146284600F0F8FF8146384600F0EAFEE3
:1014500049468346484600F03BFF0146824600F07D
:1014600037FF48F69701C3F61761064600F030FFD4
:1014700043F22531C3F63A6100F020FE314600F018
:1014800027FF44F62511C3F6926100F017FE31469E
:1014900000F01EFF4AF6AB21C3F62A7100F00EFEE3
:1014A000514600F015FF4DF24F01C3F61C61824614
:1014B000304600F00DFF48F62961C3F6636100F085
:1014C000FDFD314600F004FF4CF6CD41C3F6CC6182
:1014D00000F0F4FD314600F0FBFE0146504600F0FE
:1014E000EDFDB8F1000F064640F3AF804FF07C51A0
:1014F000284600F0EDFE294600F0EAFE0446002FE3
:1015000059D1314600F0DAFD494600F0E1FE0146CE
:10151000204600F0D1FD0146284600F0CDFDBDE893
:10152000F88F00214FF04C4000F086FFBDE8F88FA7
:10153000002101F061F808B3002F00F083803846E5
:1015400000F070FE4FF4E341C3F63171054600F040
:10155000BFFE4FF2D171C3F217710446284600F066
:10156000B7FE0146204600F0A9FDBDE8F88F00F067
:10157000A3FD002100F060FFBDE8F88F2946284652
:1015800000F0A6FE4AF6AB21C3F6AA61044628463F
:1015900000F09EFE01464FF07C5000F08DFD0146AC
:1015A000204600F095FE04466FBB2846214600F019
:1015B00083FDBDE8F88F4FF4E3415846C3F631711F
:1015C00000F086FE31460746204600F077FD49468A
:1015D00000F07EFE4FF2D171C3F2177106465846F5
:1015E00000F076FE0146304600F068FD01462046D8
:1015F00000F062FD294600F05FFD0146384600F02C
:101600005BFDBDE8F88F384600F00CFE4FF4E34177
:10161000C3F63171074600F05BFE4FF2D171C3F2A1
:1016200017710646384600F053FE0146204600F08A
:1016300043FD294600F040FD0146304600F03CFDE8
:10164000BDE8F88F0020BDE8F88F1FB34FF4E341E9
:101650005846C3F6317100F03BFE31460446284639
:1016600000F02AFD494600F033FE4FF2D171C3F27B
:1016700017710646584600F02BFE0146304600F032
:101680001BFD294600F018FD0146204600F014FD20
:10169000BDE8F88F0146284600F00EFD494600F0EF
:1016A00017FE0146284600F007FDBDE8F88F00BF91
:1016B0000020704700000000000000000000000053
:1016C00000210020C7F6F871704700BF000000003D
:1016D00030F0004001D102207047A0F50003B3F1C3
:1016E000FE4F01D2042070474FF6FE73421EC0F237
:1016F0007F039A4201D803207047B0F1FF4358425C
:101700005841704700000000000000000000000089
:1017100081F0004102E000BF83F0004330B54FEAA2
:1017200041044FEA430594EA050F08BF90EA020F0F
:101730001FBF54EA000C55EA020C7FEA645C7FEAA2
:10174000655C00F0E2804FEA5454D4EB5555B8BFC5
:101750006D420CDD2C4480EA020281EA030382EA36
:10176000000083EA010180EA020281EA0303362DC8
:1017700088BF30BD11F0004F4FEA01314FF4801C9B
:101780004CEA113102D0404261EB410113F0004FAD
:101790004FEA03334CEA133302D0524263EB430364
:1017A00094EA050F00F0A780A4F10104D5F1200E02
:1017B0000DDB02FA0EFC22FA05F2801841F100015D
:1017C00003FA0EF2801843FA05F359410EE0A5F131
:1017D00020050EF1200E012A03FA0EFC28BF4CF062
:1017E000020C43FA05F3C01851EBE37101F0004518
:1017F00007D54FF0000EDCF1000C7EEB00006EEB25
:101800000101B1F5801F1BD3B1F5001F0CD34908AE
:101810005FEA30004FEA3C0C04F101044FEA445205
:1018200012F5800F80F09A80BCF1004F08BF5FEA8C
:10183000500C50F1000041EB045141EA050130BD6C
:101840005FEA4C0C404141EB010111F4801FA4F10F
:101850000104E9D191F0000F04BF01460020B1FA64
:1018600081F308BF2033A3F10B03B3F120020CDA9C
:101870000C3208DD02F1140CC2F10C0201FA0CF07A
:1018800021FA02F10CE002F11402D8BFC2F1200CDF
:1018900001FA02F120FA0CFCDCBF41EA0C01904095
:1018A000E41AA2BF01EB0451294330BD6FEA0404DE
:1018B0001F3C1CDA0C340EDC04F11404C4F12002C9
:1018C00020FA04F001FA02F340EA030021FA04F3DB
:1018D00045EA030130BDC4F10C04C4F1200220FA32
:1018E00002F001FA04F340EA0300294630BD21FA70
:1018F00004F0294630BD94F0000F83F4801306BF36
:1019000081F480110134013D4EE77FEA645C18BF29
:101910007FEA655C29D094EA050F08BF90EA020FC0
:1019200005D054EA000C04BF1946104630BD91EAB8
:10193000030F1EBF0021002030BD5FEA545C05D1BB
:101940004000494128BF41F0004130BD14F58004FA
:101950003CBF01F5801130BD01F0004545F0FE416E
:1019600041F470014FF0000030BD7FEA645C1ABFA3
:10197000194610467FEA655C1CBF0B46024650EADA
:10198000013406BF52EA033591EA030F41F4002106
:1019900030BD00BF90F0000F04BF0021704730B58C
:1019A0004FF4806404F132044FF000054FF0000161
:1019B00050E700BF90F0000F04BF0021704730B522
:1019C0004FF4806404F1320410F0004548BF4042F7
:1019D0004FF000013EE700BF42004FEAE2014FEA4C
:1019E00031014FEA02701FBF12F07F4393F07F4F27
:1019F00081F06051704792F0000F14BF93F07F4F59
:101A0000704730B54FF4607401F0004521F000419B
:101A100020E700BF50EA010208BF704730B54FF021
:101A200000050AE050EA010208BF704730B511F026
:101A3000004502D5404261EB41014FF4806404F15E
:101A400032045FEA915C3FF4DCAE4FF003025FEAE0
:101A5000DC0C18BF03325FEADC0C18BF033202EB68
:101A6000DC02C2F1200300FA03FC20FA02F001FAC2
:101A700003FE40EA0E0021FA02F11444C1E600BF61
:101A800070B54FF0FF0C4CF4E06C1CEA11541DBF14
:101A90001CEA135594EA0C0F95EA0C0F00F0DEF8DF
:101AA0002C4481EA030621EA4C5123EA4C5350EAC4
:101AB000013518BF52EA033541F4801143F4801315
:101AC00038D0A0FB02CE4FF00005E1FB02E506F0A6
:101AD0000042E0FB03E54FF00006E1FB03569CF0FB
:101AE000000F18BF4EF0010EA4F1FF04B6F5007F01
:101AF00064F5407404D25FEA4E0E6D4146EB060673
:101B000042EAC62141EA55514FEAC52040EA5E50FB
:101B10004FEACE2EB4F1FD0C88BFBCF5E06F1ED8A5
:101B2000BEF1004F08BF5FEA500E50F1000041EBDC
:101B3000045170BD06F0004646EA010140EA020089
:101B400081EA0301B4EB5C04C2BFD4EB0C0541EAAB
:101B5000045170BD41F480114FF0000E013C00F3C0
:101B6000AB8014F1360FDEBF002001F0004170BDE4
:101B7000C4F10004203C35DA0C341BDC04F11404FD
:101B8000C4F1200500FA05F320FA04F001FA05F289
:101B900040EA020001F0004221F0004110EBD37056
:101BA00021FA04F642EB06015EEA430E08BF20EA82
:101BB000D37070BDC4F10C04C4F1200500FA04F325
:101BC00020FA05F001FA04F240EA020001F00041B7
:101BD00010EBD37041F100015EEA430E08BF20EA2A
:101BE000D37070BDC4F1200500FA05F24EEA020E72
:101BF00020FA04F301FA05F243EA020321FA04F0A1
:101C000001F0004121FA04F220EA020000EBD37057
:101C10005EEA430E08BF20EAD37070BD94F0000F57
:101C20000FD101F00046400041EB010111F4801F8B
:101C300008BF013CF7D041EA060195F0000F18BF3C
:101C4000704703F00046520043EB030313F4801F78
:101C500008BF013DF7D043EA0603704794EA0C0F32
:101C60000CEA135518BF95EA0C0F0CD050EA410648
:101C700018BF52EA4306D1D181EA030101F00041C5
:101C80004FF0000070BD50EA410606BF10461946ED
:101C900052EA430619D094EA0C0F02D150EA0136F9
:101CA00013D195EA0C0F05D152EA03361CBF10463A
:101CB00019460AD181EA030101F0004141F0FE41D9
:101CC00041F470014FF0000070BD41F0FE4141F45D
:101CD000780170BD70B54FF0FF0C4CF4E06C1CEA5D
:101CE00011541DBF1CEA135594EA0C0F95EA0C0F12
:101CF00000F0A7F8A4EB050481EA030E52EA0335CD
:101D00004FEA013100F088804FEA03334FF08055ED
:101D100045EA131343EA12634FEA022245EA11151A
:101D200045EA10654FEA00260EF000419D4208BFCB
:101D3000964244F1FD0404F5407402D25B084FEA78
:101D40003202B61A65EB03055B084FEA32024FF424
:101D500080104FF4002CB6EB020E75EB030E22BF81
:101D6000B61A754640EA0C005B084FEA3202B6EB41
:101D7000020E75EB030E22BFB61A754640EA5C00F0
:101D80005B084FEA3202B6EB020E75EB030E22BF80
:101D9000B61A754640EA9C005B084FEA3202B6EB81
:101DA000020E75EB030E22BFB61A754640EADC0040
:101DB00055EA060E18D04FEA051545EA16754FEAA2
:101DC00006164FEAC30343EA52734FEAC2025FEAC0
:101DD0001C1CC0D111F4801F0BD141EA00014FF04F
:101DE00000004FF0004CB6E711F4801F04BF014320
:101DF0000020B4F1FD0C88BFBCF5E06F3FF6AFAE3C
:101E0000B5EB030C04BFB6EB020C5FEA500C50F1CB
:101E1000000041EB045170BD0EF0004E4EEA11314E
:101E200014EB5C04C2BFD4EB0C0541EA045170BD55
:101E300041F480114FF0000E013C90E645EA060E99
:101E40008DE60CEA135594EA0C0F08BF95EA0C0FC7
:101E50003FF43BAF94EA0C0F0AD150EA01347FF40F
:101E600034AF95EA0C0F7FF425AF104619462CE7E6
:101E700095EA0C0F06D152EA03353FF4FDAE104649
:101E8000194622E750EA410618BF52EA43067FF49A
:101E9000C5AE50EA41047FF40DAF52EA43057FF42A
:101EA000EBAE12E7000000000000000000000000A0
:101EB0004FF0FF3C06E000BF4FF0010C02E000BF16
:101EC0004FF0010C4DF804CD4FEA410C7FEA6C5CF9
:101ED0004FEA430C18BF7FEA6C5C1BD001B050EA9C
:101EE000410C0CBF52EA430C91EA030F02BF90EA87
:101EF000020F0020704710F1000F91EA030F58BF46
:101F0000994208BF90422CBFD8176FEAE37040F0A7
:101F1000010070474FEA410C7FEA6C5C02D150EA45
:101F2000013C07D14FEA430C7FEA6C5CD6D152EA00
:101F3000033CD3D05DF8040B704700BF84461046C5
:101F400062468C461946634600E000BF01B5FFF7C4
:101F5000B7FF002848BF10F1000F01BD4DF808ED94
:101F6000FFF7F4FF0CBF012000205DF808FB00BF65
:101F70004DF808EDFFF7EAFF34BF012000205DF8BF
:101F800008FB00BF4DF808EDFFF7E0FF94BF01200C
:101F900000205DF808FB00BF4DF808EDFFF7CEFF0D
:101FA00094BF012000205DF808FB00BF4DF808ED4C
:101FB000FFF7C4FF34BF012000205DF808FB00BF1D
:101FC0004FEA410212F5001215D211D56FF4787361
:101FD000B3EB625212D94FEAC12343F0004343EA04
:101FE000505311F0004F23FA02F018BF40427047DF
:101FF0004FF00000704750EA013005D111F0004069
:1020000008BF6FF0004070474FF00000704700BFFE
:102010004FEA4102B2F1E04324BFB3F5001CDCF10A
:10202000FE5C0DD901F0004C4FEAC0024CEA507042
:10203000B2F1004F40EB830008BF20F00100704771
:1020400011F0804F21D113F13872BCBF01F0004074
:10205000704741F480114FEA5252C2F11802C2F1A6
:10206000200C10FA0CF320FA02F018BF40F0010027
:102070004FEAC1234FEAD32303FA0CFC40EA0C00D9
:1020800023FA02F34FEA4303CCE77FEA625307D116
:1020900050EA01331EBF4FF0FE4040F4400070474D
:1020A00001F0004040F0FE4040F40000704700BFE7
:1020B00080F0004002E000BF81F0004142001FBFFD
:1020C0005FEA410392EA030F7FEA226C7FEA236C06
:1020D0006AD04FEA1262D2EB1363C1BFD2184140FB
:1020E00048404140B8BF5B42192B88BF704710F091
:1020F000004F40F4000020F07F4018BF404211F034
:10210000004F41F4000121F07F4118BF494292EA9B
:10211000030F3FD0A2F1010241FA03FC10EB0C00C7
:10212000C3F1200301FA03F100F0004302D5494254
:1021300060EB4000B0F5000F13D3B0F1807F06D301
:1021400040084FEA310102F10102FE2A51D2B1F1F9
:10215000004F40EBC25008BF20F0010040EA0300EE
:102160007047490040EB000010F4000FA2F101029B
:10217000EDD1B0FA80FCACF1080CB2EB0C0200FA25
:102180000CF0AABF00EBC25052421843BCBFD04073
:102190001843704792F0000F81F4000106BF80F4ED
:1021A00000000132013BB5E74FEA41037FEA226CB0
:1021B00018BF7FEA236C21D092EA030F04D092F07B
:1021C000000F08BF0846704790EA010F1CBF0020AF
:1021D000704712F07F4F04D1400028BF40F000400C
:1021E000704712F100723CBF00F50000704700F02C
:1021F000004343F0FE4040F4000070477FEA226253
:1022000016BF08467FEA23630146420206BF5FEA23
:10221000412390EA010F40F4800070474FF0000323
:1022200004E000BF10F0004348BF40425FEA000CEA
:1022300008BF704743F0964301464FF000001CE092
:1022400050EA010208BF70474FF000030AE000BFE8
:1022500050EA010208BF704711F0004302D5404226
:1022600061EB41015FEA010C02BF84460146002098
:1022700043F0B64308BFA3F18053A3F50003BCFAB3
:102280008CF2083AA3EBC25310DB01FA02FC634460
:1022900000FA02FCC2F12002BCF1004F20FA02F267
:1022A00043EB020008BF20F00100704702F120025A
:1022B00001FA02FCC2F1200250EA4C0021FA02F2BB
:1022C00043EB020008BF20EADC707047000000000A
:1022D0004FF0FF0C1CEAD0521EBF1CEAD15392EA09
:1022E0000C0F93EA0C0F6FD01A4480EA010C4002E5
:1022F00018BF5FEA41211ED04FF0006343EA50103F
:1023000043EA5111A0FB01310CF00040B1F5000F80
:102310003EBF490041EAD3715B0040EA010062F12F
:102320007F02FD2A1DD8B3F1004F40EBC25008BF19
:1023300020F00100704790F0000F0CF0004C08BF37
:1023400049024CEA502040EA51207F3AC2BFD2F104
:10235000FF0340EAC250704740F400004FF0000312
:10236000013A5DDC12F1190FDCBF00F0004070474C
:10237000C2F10002410021FA02F1C2F1200200FA8A
:1023800002FC5FEA310040F1000053EA4C0308BF51
:1023900020EADC70704792F0000F00F0004C02BFA2
:1023A000400010F4000F013AF9D040EA0C0093F01D
:1023B000000F01F0004C02BF490011F4000F013B77
:1023C000F9D041EA0C018FE70CEAD15392EA0C0FE5
:1023D00018BF93EA0C0F0AD030F0004C18BF31F050
:1023E000004CD8D180EA010000F00040704790F026
:1023F000000F17BF90F0004F084691F0000F91F0CA
:10240000004F14D092EA0C0F01D142020FD193EA8F
:102410000C0F03D14B0218BF084608D180EA010017
:1024200000F0004040F0FE4040F40000704740F0F3
:10243000FE4040F4400070474FF0FF0C1CEAD052C1
:102440001EBF1CEAD15392EA0C0F93EA0C0F69D01D
:10245000A2EB030280EA010C49024FEA402037D088
:102460004FF0805343EA111143EA10130CF000407F
:102470008B4238BF5B0042F17D024FF4000C8B426F
:1024800024BF5B1A40EA0C00B3EB510F24BFA3EB4F
:10249000510340EA5C00B3EB910F24BFA3EB91031F
:1024A00040EA9C00B3EBD10F24BFA3EBD10340EA79
:1024B000DC001B0118BF5FEA1C1CE0D1FD2A3FF6BF
:1024C00050AF8B4240EBC25008BF20F00100704774
:1024D0000CF0004C4CEA50207F32C2BFD2F1FF0317
:1024E00040EAC250704740F400004FF00003013A48
:1024F00037E792F0000F00F0004C02BF400010F4EC
:10250000000F013AF9D040EA0C0093F0000F01F0FF
:10251000004C02BF490011F4000F013BF9D041EA21
:102520000C0195E70CEAD15392EA0C0F08D1420254
:102530007FF47DAF93EA0C0F7FF470AF084676E727
:1025400093EA0C0F04D14B023FF44CAF08466EE700
:1025500030F0004C18BF31F0004CCAD130F00042CE
:102560007FF45CAF31F000437FF43CAF5FE700BF26
:102570004FF0FF3C06E000BF4FF0010C02E000BF4F
:102580004FF0010C4DF804CD4FEA40024FEA4103F1
:102590007FEA226C18BF7FEA236C11D001B052EAA7
:1025A000530C18BF90EA010F58BFB2EB030088BF6D
:1025B000C81738BF6FEAE17018BF40F001007047DC
:1025C0007FEA226C02D15FEA402C05D17FEA236CBE
:1025D000E4D15FEA412CE1D05DF8040B704700BF05
:1025E000844608466146FFE70FB5FFF7C9FF00289C
:1025F00048BF10F1000F0FBD4DF808EDFFF7F4FFD5
:102600000CBF012000205DF808FB00BF4DF808ED6D
:10261000FFF7EAFF34BF012000205DF808FB00BF90
:102620004DF808EDFFF7E0FF94BF012000205DF8B2
:1026300008FB00BF4DF808EDFFF7D2FF94BF012063
:1026400000205DF808FB00BF4DF808EDFFF7C8FF5C
:1026500034BF012000205DF808FB00BF000000002F
:102660004BB942B9002908BF002802D04FF0FF3112
:10267000084600F065B882B0EC462DE9005000F045
:1026800047F8DDF804E002B00CBC70470000000021
:1026900070B5FFF7A1F900230022C3F6F0530446FA
:1026A0000D46FFF7EDF900F053F80646FFF772F913
:1026B00000230022C4F2F013FFF7E2F902460B46B2
:1026C00020462946FFF728F800F042F8002231465C
:1026D00042EA0004204670BD000000000000000037
:1026E0002DE9F0471746804689469A46089E00F035
:1026F0004FF8A7FB004507FB01F700FB0A721544E2
:10270000B8EB040469EB0505C6E90045BDE8F087B0
:102710002DE9F8431746804689461D46089E00F07D
:10272000E7F900FB05F3A0FB074507FB01373D4434
:10273000B8EB040469EB0505C6E90045BDE8F8837C
:10274000704700BF00000000000000000000000013
:102750004A0011D212F5001211D20DD56FF4787320
:10276000B3EB62520ED44FEAC12343F0004343EA75
:10277000505323FA02F070474FF00000704750EAC0
:10278000013002D14FF0FF3070474FF0000070472A
:102790002DE9F04F444261EB410500294FF0FF362F
:1027A000A2BF04460D460026002B85B0C0F2C780AC
:1027B0002046AA469446194690462746A946002B2D
:1027C00058D1AA426CD9B2FA82F35BB1C3F12002AC
:1027D00005FA03F924FA02F20CFA03F842EA0909AD
:1027E00004FA03F74FEA1844484621461FFA88FACC
:1027F00000F0FEFA21468346484600F027FC3A0CDA
:102800000AFB0BF042EA014188420BD911EB0801A7
:102810000BF1FF3305D2884284BFABF1020B414478
:1028200000D89B46C0EB010921464846BFB200F0E4
:10283000DFFA21460546484600F008FC0AFB05FA87
:1028400047EA01418A4509D911EB080805F1FF3330
:1028500003D2C24588BF023D00D81D4645EA0B435E
:1028600000241846214616B1404261EB410105B0F3
:10287000BDE8F08FAB4284BF00242346F1D8B1FA03
:1028800081F5002D40F0B580514528BF82428CBFB4
:10289000002401249CBF01232C46E2D92346E0E713
:1028A00022B91146012000F0A3FA8046B8FA88F355
:1028B000002B49D1C8EB09094FEA18451FFA88FADD
:1028C00001242946484600F093FA294683464846A3
:1028D00000F0BCFB3A0C0AFB0BF042EA01418842D3
:1028E0000CD911EB08010BF1FF3380F0F280884224
:1028F00084BFABF1020B414440F2EB800A1A294637
:102900001046019200F074FA019A2946BFB281463E
:10291000104600F09BFB0AFB09FA47EA01418A4591
:102920000AD911EB080809F1FF3304D2C24588BF68
:10293000A9F1020900D8994649EA0B4391E7F64309
:10294000524263EB430333E708FA03F8C3F1200B69
:1029500029FA0BF409FA03F94FEA184520462946EB
:1029600027FA0BFB9F4000F043FA29461FFA88FA2A
:102970004BEA090B02462046019200F067FB019AE0
:102980004FEA1B430AFB02F043EA014188420BD99C
:1029900011EB080102F1FF3380F0A180884284BF6F
:1029A000023A414440F29B80C0EB01092946484667
:1029B000019200F01DFA29461FFA8BFB0446484697
:1029C00000F044FB019A0AFB04F94BEA01418945F6
:1029D0000AD911EB080104F1FF3304D2894584BF01
:1029E000023C414400D81C46C9EB010944EA0244B8
:1029F00067E7C5F12003A94022FA03F82AFA03FB8E
:102A000048EA010820FA03F30AFA05FA58464FEAA1
:102A1000184902FA05FC494643EA0A0ACDF80CC0F7
:102A200000F0E6F949460446584600F00FFB1FFA4D
:102A300088F24FEA1A4E02FB04F04EEA014E70454E
:102A400009D91EEB080E04F1FF3146D2704584BF50
:102A5000023CC64441D9C0EB0E0C49466046019287
:102A6000CDF808C000F0C4F9DDF808C049461FFAE7
:102A70008AFA8346604600F0E9FA019A02FB0BF2FB
:102A80004AEA01418A420AD911EB08010BF1FF30F1
:102A900021D28A4284BFABF1020B41441BD9039877
:102AA0004BEA044B891AABFB002399420DD314BFA8
:102AB0000023012307FA05F494422CBF002403F0FD
:102AC00001045B46002C3FF4CCAE0BF1FF33002435
:102AD000C7E69B4612E78346E1E70C46BBE71A468A
:102AE00062E700BF000000000000000000000000DE
:102AF0002DE9F04F064683B00D461446074688463A
:102B0000002B51D18A4264D9B2FA82F35BB1C3F18E
:102B1000200801FA03F520FA08F802FA03F448EA5B
:102B2000050800FA03F7250C404629461FFA84FAE7
:102B300000F05EF929468146404600F087FA3B0CDA
:102B40000AFB09F043EA014188420AD9091909F14F
:102B5000FF3205D2884284BFA9F10209091900D8C1
:102B60009146C0EB010829464046BFB200F040F94B
:102B700029460646404600F069FA0AFB06FA47EA8B
:102B800001418A4509D90C1906F1FF3380F01981FA
:102B9000A24588BF023E40F2148146EA0940002661
:102BA000314603B0BDE8F08F8B4284BF002630462B
:102BB000F6D8B3FA83F4002C5AD18B4228BFB24224
:102BC0008CBF002601269CBF01202646E8D930464E
:102BD000E6E722B91146012000F00AF90446B4FAEA
:102BE00084F3002B40F0A2802D1B4FEA14481FFAFB
:102BF00084FA01264146284600F0FAF8414681460B
:102C0000284600F023FA3B0C0AFB09F043EA014195
:102C100088420BD9091909F1FF3280F0D48088422B
:102C200084BFA9F10209091940F2CD80C0EB010B64
:102C300041465846BFB200F0DBF8414605465846CB
:102C400000F004FA0AFB05FA47EA01418A4509D96E
:102C50000C1905F1FF3380F0B880A24588BF023D12
:102C600040F2B38045EA0940314603B0BDE8F08F39
:102C7000C4F12001A34022FA01F825FA01F748EA3D
:102C80000308384626FA01F3A5404FEA1849A24046
:102C9000494601921D4300F0ABF849468346384649
:102CA00000F0D4F91FFA88F22F0C02FB0BF047EA70
:102CB0000147B84206D917EB08070BF1FF31C0F006
:102CC0008D808B463F1A49463846009200F090F8B6
:102CD0004946ADB28246384600F0B8F9009A02FB88
:102CE0000AF245EA01418A4205D911EB08010AF1CD
:102CF000FF306CD38246019D4AEA0B40891AA0FB43
:102D0000052399420CD306FA04F614BF00210121D1
:102D100096422CBF002601F00106002E3FF440AF82
:102D200000260138314603B0BDE8F08F9C40C3F166
:102D3000200925FA09FA06FA03F74FEA1448504623
:102D400041469D4000F054F8414626FA09F949EA07
:102D500005098346504600F079F91FFA84FA4FEAD4
:102D600019430AFB0BF043EA0141884209D90919CA
:102D70000BF1FF333AD2884284BFABF1020B091941
:102D800034D90D1A414628461FFA89F900F030F867
:102D900041460646284600F059F90AFB06F549EA7D
:102DA00001418D4209D9091906F1FF3304D28D4240
:102DB00084BF023E091900D81E464D1B46EA0B4649
:102DC00018E71E46E9E6914630E71D464AE78A4283
:102DD00084BFAAF1020A41448DD88BE7B84284BF70
:102DE000ABF1020B47443FF66DAF6AE79B46C8E77D
:102DF0004A1E08BF7047C0F02481884240F2168105
:102E0000114200F01781B0FA80F3B1FA81F2A2EB1F
:102E10000303C3F11F0304A202EB03134FF00002EC
:102E20009F4600BFAFF30080B0EBC17F00BF42EB15
:102E3000020228BFA0EBC170B0EB817F00BF42EB64
:102E4000020228BFA0EB8170B0EB417F00BF42EBD4
:102E5000020228BFA0EB4170B0EB017F00BF42EB44
:102E6000020228BFA0EB0170B0EBC16F00BF42EBC4
:102E7000020228BFA0EBC160B0EB816F00BF42EB44
:102E8000020228BFA0EB8160B0EB416F00BF42EBB4
:102E9000020228BFA0EB4160B0EB016F00BF42EB24
:102EA000020228BFA0EB0160B0EBC15F00BF42EBA4
:102EB000020228BFA0EBC150B0EB815F00BF42EB24
:102EC000020228BFA0EB8150B0EB415F00BF42EB94
:102ED000020228BFA0EB4150B0EB015F00BF42EB04
:102EE000020228BFA0EB0150B0EBC14F00BF42EB84
:102EF000020228BFA0EBC140B0EB814F00BF42EB04
:102F0000020228BFA0EB8140B0EB414F00BF42EB73
:102F1000020228BFA0EB4140B0EB014F00BF42EBE3
:102F2000020228BFA0EB0140B0EBC13F00BF42EB63
:102F3000020228BFA0EBC130B0EB813F00BF42EBE3
:102F4000020228BFA0EB8130B0EB413F00BF42EB53
:102F5000020228BFA0EB4130B0EB013F00BF42EBC3
:102F6000020228BFA0EB0130B0EBC12F00BF42EB43
:102F7000020228BFA0EBC120B0EB812F00BF42EBC3
:102F8000020228BFA0EB8120B0EB412F00BF42EB33
:102F9000020228BFA0EB4120B0EB012F00BF42EBA3
:102FA000020228BFA0EB0120B0EBC11F00BF42EB23
:102FB000020228BFA0EBC110B0EB811F00BF42EBA3
:102FC000020228BFA0EB8110B0EB411F00BF42EB13
:102FD000020228BFA0EB4110B0EB011F00BF42EB83
:102FE000020228BFA0EB0110B0EBC10F00BF42EB03
:102FF000020228BFA0EBC100B0EB810F00BF42EB83
:10300000020228BFA0EB8100B0EB410F00BF42EBF2
:10301000020228BFA0EB4100B0EB010F00BF42EB62
:10302000020228BFA0EB0100104670470CBF012030
:1030300000207047B1FA81F2C2F11F0220FA02F0BB
:10304000704708B14FF0FF30FFF77ABB0029F8D086
:103050002DE90340FFF7CCFEBDE8064002FB00F37C
:10306000A1EB0301704700BF00000000000000005A
:1030700041F20463C2F200031868704700000000C8
:103080000F2AF0B445D940EA01039B0745D1A2F1CC
:1030900010070C4603463F0900EB0716103625685B
:1030A0001033103443F8105C54F80C5C43F80C5C9B
:1030B00054F8085C43F8085C54F8045C43F8045C7A
:1030C000B342ECD17B1C02F00F0CBCF1030F4FEAB2
:1030D00003131944034422D90E461D46644656F88C
:1030E000047B043C032C45F8047BF8D8ACF10404C1
:1030F00002F0030224F0030404342344214432B1D7
:103100000A4411F8014B914203F8014BF9D1F0BC8C
:1031100070470346002AF3D1F9E70346F0E7624619
:10312000002AEDD1F3E700BF00000000000000001E
:103130008307F0B448D0541E002A43D0CDB20346D2
:1031400002E0002C3ED0144603F8015B13F0030F9D
:1031500004F1FF32F5D1032C2DD9CDB20F2C45EA65
:10316000052545EA054518D9A4F1100703F1100615
:103170001A463F0906EB07161560103242F80C5C40
:1031800042F8085C42F8045CB242F5D104F00F0446
:103190000137032C03EB07130DD91E462246043AD0
:1031A00046F8045B032AFAD8221F04F0030422F035
:1031B0000302043213442CB1C9B21C4403F8011BAE
:1031C000A342FBD1F0BC704714460346C3E700BFDF
:1031D000C9B2F0B4002947D084070FD00278002A82
:1031E0003FD091423ED0431C05E013F8012B002A4A
:1031F00037D0914236D09A071846F6D141EA0127D6
:10320000036847EA0747A3F1013483EA070224EA87
:103210000303A2F1013424EA0202134313F0803FB6
:1032200011D1021D104652F8043B83EA0704A3F1B2
:103230000136A4F1013526EA030325EA04042343F9
:1032400013F0803FEED00378002B3BD0994209D099
:10325000431C01E0914205D0184613F8012B002AC7
:10326000F8D11046F0BC704781070DD00378002BD1
:10327000F8D0431C02E00278002AF3D013F0030FC9
:10328000184603F10103F6D10368A3F1013222EAE3
:10329000030313F0803F0AD1031D184653F8042B93
:1032A000A2F1013121EA020212F0803FF5D0037849
:1032B000002BD7D0431C184601330278002AFAD1DC
:1032C000F0BC70471846CDE7000000000000000089
:1032D00080EA0102844612F0030F4FD111F0030F70
:1032E00032D14DF8044D11F0040F51F8043B0BD0CE
:1032F000A3F101329A4312F0803F04BF4CF8043B23
:1033000051F8043B16D100BF51F8044BA3F1013230
:103310009A4312F0803FA4F101320BD14CF8043BE8
:10332000A24312F0803F04BF51F8043B4CF8044B19
:10333000EAD023460CF8013B13F0FF0F4FEA33238A
:10334000F8D15DF8044B704711F0010F06D011F869
:10335000012B0CF8012B002A08BF704711F0020F57
:10336000BFD031F8022B12F0FF0F16BF2CF8022B42
:103370008CF8002012F47F4FB3D1704711F8012B65
:103380000CF8012B002AF9D1704700BF00000000A3
:1033900020F0030110F00300C0F1000051F8043BDD
:1033A00000F1040C4FEACC0C6FF000021CBF22FAB3
:1033B0000CF213434FF0010C4CEA0C2C4CEA0C4C71
:1033C000A3EB0C0222EA030212EACC1204BF51F86A
:1033D000043B0430F4D013F0FF0F1FBF013013F48F
:1033E0007F4F013013F47F0F18BF0130704700BFCB
:1033F000F0B4002A4BD040EA010313F003032DD1AF
:10340000032A2BD904680D68AC4227D1043A3ED078
:10341000A4F1013525EA040414F0803F3DD10C46A7
:1034200005460EE06B68054666680C46A3F1013759
:10343000B34227EA030711D1043A28D017F0803F9E
:1034400028D1032A00F1040001F10401EAD8561E34
:103450002AB928792279801AF0BC7047561E037861
:103460000A7893421BD1E6B1BBB101368B1C0446EE
:10347000314405E08B4203F101030BD00028EBD06F
:1034800014F8010F13F8012C9042F3D0E3E7104633
:10349000F0BC70470020F0BC70471846DCE71846C7
:1034A000D9E73046D8E700BF000000000000000068
:1034B00040EA01039B0770B42BD1032A84BF0B465B
:1034C000054626D9194653F8044BA4F1013626EADD
:1034D000040616F0803F05D1043A45F8044B032A50
:1034E0001946EFD89AB10C78013A6B1C2C703CB19C
:1034F0006AB111F8014F013A03F8014B002CF7D1E2
:103500002AB11A44002103F8011B9342FBD170BC7D
:1035100070470546E6E700BF00000000000000001D
:1035200038B502460C46002511B909E0421C054693
:1035300010462146FFF74CFE0028F7D1284638BD3B
:10354000BDE83840FFF744BE000000000000000066
:103550004FF0010C2DE9F003644600254FF0FF36D3
:10356000631987198B420DD23F5D10F80380B8456F
:103570002FD21D460124C6EB030C63198B4200EBCE
:103580000607F1D34FF0010900254C464FF0FF37F5
:10359000C2F800C0631900EB070C99420ED91CF861
:1035A00004C010F80380E0451AD91D460124C7EB7A
:1035B00003096319994200EB070CF0D80137013673
:1035C000B74226BFC2F8009038463046BDE8F00347
:1035D00070470CD04FF0010C2E4664466544BFE79F
:1035E0000CD04FF001092F464C464D44D2E76445BC
:1035F00004F10104B4D11D460124B1E74C4504F1A6
:103600000104C7D11D460124C4E700BF2DE9F04FD6
:10361000ADF2244D164680460D461046194607AABF
:103620001C46FFF795FF07AB0DF21C42039043F8D1
:10363000044F9342FBD1671E002308A834B1F25C0B
:10364000F91A0133A34240F82210F8D10799304605
:10365000039A314400F04CFA002840F08180DDF8F4
:103660000CC02A468246671E0CF1FF3CCDF808C00C
:10367000B444CDF810C0DDF80CC005460196CCF17D
:10368000010CCDF814C008E025B1079A934238BF69
:10369000C2EB04039A44002532460AEB040608EB09
:1036A00002000021B21A00F0DBF9002853D1002EED
:1036B00051D008EB060308A913F8013C51F8233058
:1036C000002BE1D1039A954228BF2A46BA4212D272
:1036D000019908EB0A03985C11F802C01144844573
:1036E00006D032E011F8010F13F802C084452CD146
:1036F0000132BA42F6D3039B02989D4228BF184676
:103700001CD2DDF810C008EB0A039CF80010DDF8AD
:1037100008C013F80C20914240F08680DDF804B018
:10372000049AAB4406E012F8019D13F801C0E1458C
:1037300004D108465A4500F1FF31F4D101358542E4
:1037400074D8079DAA44651BA6E7DDF814C00025C0
:10375000E2449244A0E700200DF2244DBDE8F08F32
:10376000DDF80CC02A46DDF80CA04FF0000BCCEBC6
:1037700004030DF12009634538BF6346671E01331A
:10378000254607930CF1FF33B444CDF808C0DDF8AB
:103790000CC00193CCF1010CCDF810C00BEB05046B
:1037A00008EB02000021A21A00F05AF90028D2D139
:1037B000002CD0D008EB040313F8013C59F8233057
:1037C00053BBBA4508EB0B0013D2029B1A7810F8D2
:1037D0000A309A4218BF534621D1029A534605E057
:1037E00012F8011F10F803C08C4518D10133BB42F9
:1037F000F6D3019B5A1CAFD0DDF804C016F80C10AC
:1038000010F80C20914206D113F1FF33A4D3F15CE0
:10381000C25C9142F8D0079B9B442246BEE7DDF88C
:1038200010C0E3449B44F8E7039887E708EB0A00DD
:1038300092E700BF2DE9F04F8046037887B00E462F
:10384000002B00F001810A789AB1844601310124ED
:1038500002E011F8012B5AB1934214BF002404F086
:1038600001041CF8013F0D46002BF2D12B7813BB4D
:103870001CB1404607B0BDE8F08F08F10100317877
:10388000FFF7A6FCAD1B012D18BF0028074608BF97
:103890000046EFD0A844474594BFC7EB0804012475
:1038A0001F2D0CD93846214632462B46FFF7AEFE77
:1038B00007B0BDE8F08F002007B0BDE8F08F2946C3
:1038C00005AA3046FFF744FE0599314400900246B0
:1038D000304600F00DF9002857D1009B8346804602
:1038E0002246013B019333440293009BC3F1010341
:1038F000039308EB0504B8180021A21A00F0B0F8F1
:103900000028D8D1002CD6D0009B9B4528BF5B4611
:103910009D4214D9F918F05CF21811F80810884289
:1039200040F08C8007EB080C06E012F8011F1CF831
:103930000300884240F0828001339D42F5D8009B0D
:1039400001995B4540F28380029B07EB08091A78D6
:1039500019F801309A427AD1029B06EB0B0A06E075
:1039600013F801CD19F80200844504D111465345DE
:1039700001F1FF32F4D10BF1010B8B4569D8059BA6
:103980009844C3EB050B2246B3E700984FF0000BB9
:1039900022462B1A8146834238BF0346B144013385
:1039A0000593009B38440190C3F101030293009BEF
:1039B00003F1FF389A460BEB0504B8180021A21A50
:1039C00000F04EF800287FF476AF002C3FF473AF80
:1039D000554598BF07EB0B0014D9019899F80020C2
:1039E00010F80B309A4224D14A46534607EB0B009D
:1039F00005E012F8011F10F803C08C451AD10133FD
:103A00009D42F6D8B8F1FF3F43463FF433AF16F876
:103A1000081010F80820914207D113F1FF33FFF48A
:103A200029AFF15CC25C9142F7D0059B9B442246D2
:103A3000C1E75346029A93449B44F8E703994FF039
:103A4000000B884498449EE70D4601240EE7009938
:103A500091E707EB08000DE7000000000000000000
:103A60008307C9B270B43FD0541E2AB303788B4287
:103A700023D0431C04E0FCB1057814468D421CD0D1
:103A800013F0030F184604F1FF3203F10103F2D1E2
:103A9000032C14D8651E4CB303788B420DD0421C06
:103AA000002302E004788C4207D0AB42104603F1B9
:103AB000010302F10102F5D1002070BC704741EA18
:103AC0000126034646EA0646184604330268724059
:103AD000A2F1013525EA020212F0803FDAD1043C5E
:103AE0001846032CF0D8D5E71446D1E72046E4E782
:103AF000032A70B412D940EA01039B070FD10C4688
:103B0000034621461846043404330D680668AE4265
:103B100004D1043A1846032A2146F2D8C2B10578E6
:103B20000C78A54204BF02F1FF32002306D00CE05E
:103B300010F8015F11F8014FA54206D1934203F13D
:103B40000103F5D1002070BC7047281B70BC704782
:103B50001046F8E700000000000000000000000030
:103B6000704700BFAFF30080AFF30080AFF3008079
:103B7000FEE700BFAFF30080AFF30080AFF300803B
:103B800072B641F20060C2F2000080F309884EF67E
:103B90003472CEF200024EF68853CEF200034FF09C
:103BA000404111601A6842F470021A600023E1EE8D
:103BB000103A4EF63C73CEF2000300221A60062340
:103BC00083F31488BFF36F8F40F2000341F20002C9
:103BD000C2F20003C2F2000293420BD2D943114455
:103BE00021F0030119444FF05532043B43F8042FF0
:103BF0008B42FBD141F20003C2F2000383420CD29C
:103C000037491A1D891A21F0030119444FF0553222
:103C1000043B43F8042F8B42FBD108F079FB41F2BF
:103C2000006141F63C13C2F20001C2F20003994266
:103C30000ED2CC431C4424F0030444F280300434FC
:103C4000C0F603000023C258CA500433A342FAD17D
:103C500041F640134AF27812C2F20003C2F20102A6
:103C600093420AD2D943114421F00301194400229E
:103C7000043B43F8042F8B42FBD1FFF771FF40F266
:103C8000AC1540F24823C0F60005C0F600039D4283
:103C90000BD2EE431E44B6080136043D0024013425
:103CA00055F8043F9847B442F9D1FDF731FA40F294
:103CB000482540F24823C0F60005C0F600039D42A7
:103CC0000BD2EE431E44B6080136043D00240134F5
:103CD00055F8043F9847B442F9D1FFF749FF00BFB8
:103CE00003160020AFF30080AFF30080AFF3008035
:103CF000FEE700BFAFF30080AFF30080AFF30080BA
:103D000072B6FEE7AFF30080AFF30080AFF3008040
:103D100000F0DEF900F02CFD00F0FAF900DF00BF42
:103D20004EF63073CEF200035A6822F001025A6058
:103D3000EFF30983683383F30988002383F3118841
:103D4000704700BFAFF30080AFF30080AFF3008097
:103D500008B54FF46D43CEF200034FF44072C0F249
:103D6000FA52002199600720DA60102100F0E0F893
:103D70000A20202100F0DCF80B206021BDE808407B
:103D800000F0D6B8AFF30080AFF30080AFF300804F
:103D9000202383F311884FF46D43CEF200035B6858
:103DA00013F4006329D0F1EE10FAEFF309834EF615
:103DB0003072CEF200024FF08071D26843F84C1C92
:103DC00043F8082CA3F1680282F3098840F2A85254
:103DD000C1F20002916991F8220088B110688A68E6
:103DE0008168914294BF0022012292B143F61152A0
:103DF000C0F6000243F8502C704783F311887047D7
:103E000010688A688168914234BF00220122002A2A
:103E1000ECD143F61C52C0F6000243F8502C704718
:103E200008B500F0DDF9202383F3118800F090F944
:103E300000F0EEF800F0ACF9002383F3118800F0F5
:103E4000FFF9BDE80840FFF7A3BF00BFAFF3008054
:103E50002DE9F04F2DED108AC1F80CD0D0F80CD020
:103E6000BDEC108ABDE8F08FAFF30080AFF30080A7
:103E700008B500F04DF9002383F311882846A047C8
:103E800000F08EFD08BD00BFAFF30080AFF30080EF
:103E900020F0030303F1604303F56143F0B400F045
:103EA00003024409D3F80053D200FF26A400964031
:103EB00004F1604404F5614425EA060501279140B8
:103EC00000F01F0007FA00F045EA0102C3F80023E2
:103ED000C4F880012060F0BC704700BFAFF30080E1
:103EE00041094FF4614230B4203100F01F04012534
:103EF000CEF2000220F0030305FA04F403F160435C
:103F000042F8214003F5614300F00300D3F8002399
:103F1000C000FF2101FA00F022EA0000C3F800030C
:103F200030BC7047AFF30080AFF30080AFF3008088
:103F300020F0030303F1604303F56D4300F0030039
:103F400010B4C0009A69FF24844022EA0402814030
:103F50000A439A615DF8044B704700BFAFF30080DD
:103F600040F2A852C1F2000248F680739269C0F68E
:103F700002039361FEE700BFAFF30080AFF3008060
:103F800010B582B0FFF7E4FE00F07AFA00F000FA14
:103F900001F03EF901F08CF900F0BAF940F20000AE
:103FA0004021C1F2000000F0F3FB41F2000240F2B8
:103FB000A8530121C2F20002C1F2000380F82010D0
:103FC000C261986100F064F8002383F3118862B63F
:103FD00040F2A853C1F2000349F260129C69C0F696
:103FE0000202002140F2500043F66173A261C0F664
:103FF0000003009101224FF4AB61C1F2000000F018
:1040000057FC02B010BD00BFAFF30080AFF30080DB
:10401000F8B500F03DF940F2A853C1F200039A69E7
:1040200092F8223013B1013B82F82230516A40F2FB
:10403000C453C1F2000301315162DA681C680132D5
:104040009C42DA601DD0A768013FA760CFB91E4629
:104050002268E568E76053601A6000F099F8002371
:1040600083F311882069A847202383F3118800F087
:104070006FF83468A26840F2C453C1F20003002A0A
:10408000E6D0F8BDAFF30080AFF30080AFF300805F
:1040900041F64013C2F200031B682BB941F64C53A2
:1040A000C2F200031B685BB148F6C07048F6987115
:1040B000C0F60200C0F602014FF48C721EF0E8BB9D
:1040C000704700BFAFF30080AFF30080AFF3008014
:1040D00041F64013C2F2000310B51B6841F64C5480
:1040E000C2F200040BB923685BB148F6C87048F609
:1040F0009871C0F60200C0F602014FF48C721EF0F7
:10410000C7FB0123236010BDAFF30080AFF3008035
:1041100041F64013C2F2000310B51B6841F64C543F
:10412000C2F200042BB92368002B02DD00232360B8
:1041300010BD48F6E47048F69871C0F60200C0F66B
:1041400002014FF48C721EF0A3FB0023236010BD0C
:1041500041F64013C2F2000310B51B6841F64C54FF
:10416000002BC2F2000401DD23685BB148F6EC705D
:1041700048F69871C0F60200C0F602014FF48C7246
:104180001EF086FB0123236010BD00BFAFF300804B
:1041900041F64013C2F2000310B51B6841F64C54BF
:1041A000002BC2F2000405DD2368002B02DD002392
:1041B000236010BD49F20C0048F69871C0F6020069
:1041C000C0F602014FF48C721EF062FB00232360E4
:1041D00010BD00BFAFF30080AFF30080AFF30080ED
:1041E00010B5202383F3118841F64014C2F2000475
:1041F0002268002A05DB41F64C53C2F200031B681B
:1042000063B149F2140048F698714FF48C72C0F60D
:104210000200C0F602011EF03BFB226848F2AC33FC
:10422000C2F200030132196822608A42C8BF1A60D4
:10423000002383F3118810BDAFF30080AFF300803B
:1042400010B5202383F3118841F64014C2F2000414
:104250002268002A05DD41F64C53C2F200031B68B8
:1042600063B149F21C0048F698714FF48C72C0F6A5
:104270000200C0F602011EF00BFB2268013A226028
:10428000002383F3118810BDAFF30080AFF30080EB
:1042900041F64013C2F200031B68002B07DB41F616
:1042A0004C53C2F200031B68002B00DD704749F23B
:1042B000240048F69871C0F60200C0F602014FF4DF
:1042C0008C721EF0E5BA00BFAFF30080AFF3008040
:1042D00041F64013C2F200031B683BB941F64C5350
:1042E000C2F200031B68002B00DD704749F2480052
:1042F00048F69871C0F60200C0F602014FF48C72C5
:104300001EF0C6BAAFF30080AFF30080AFF30080B9
:1043100041F64413C2F200031A46402142F8081B3A
:104320005A607047AFF30080AFF30080AFF30080B6
:1043300010B441F6441340F2C45440F2A851C2F202
:104340000003C1F20004C1F200015A68E4688969FF
:1043500014605160816A916090F8204002F1100170
:1043600003F58160814214732ABF03F1080259608A
:104370005A605DF8044B7047AFF30080AFF30080E4
:1043800048F69871C0F602014FF48C721EF080BAA4
:1043900040F2C453C1F200034FF0FF3100225B60D2
:1043A0001B609960DA607047AFF30080AFF3008064
:1043B000F8B5054616460C461F46FFF769FF002E66
:1043C00018BF002D1CD0DCB140F2C451C1F2000175
:1043D0002F610B68EE609A68944204D91B68A41A96
:1043E0009A68A242FAD35A682B606A608B425D6079
:1043F0001560AC601EBF9A68C4EB02049C60F8BDF7
:1044000049F2500049F26001C0F60200C0F6020114
:1044100051221EF03DFAD7E7AFF30080AFF30080E2
:1044200010B50446FFF734FF9CB1E368EBB1236895
:1044300040F2C452C1F2000293421FBF9968A268C1
:1044400052189A6062681360236800215A60E16024
:1044500010BD49F2800049F26001C0F60200C0F6CA
:1044600002016D221EF014FADFE749F29000C0F657
:104470000200FFF785FFDAE7AFF30080AFF30080BB
:1044800040F2A853C1F2000300225B601B605B6135
:104490001B619A60704700BFAFF30080AFF30080EC
:1044A00010B50446FFF7F4FE94F82030002B18BF37
:1044B0000E2B12D0002240F2A853A16884F82020CD
:1044C000C1F200031B689A688A42FBD25A682360D3
:1044D000626020465C60146010BD49F2B000C0F616
:1044E0000200FFF74DFFE5E7AFF30080AFF3008078
:1044F00038B50446202383F31188FFF729FE94F88A
:104500002050032D0ED00D2D10D0ADB14FF0FF3344
:10451000A3622046FFF7C4FFFFF73AFE002383F3B0
:10452000118838BDA36A9A6801329A6094E80C0039
:104530001A6022685360E9E7FFF72AFE2B4683F3EF
:10454000118838BDAFF30080AFF30080AFF3008077
:1045500070B540F2A854C1F200040646FFF7B8FE59
:104560002368A5691A6885F820600121142085F860
:1045700022005460284683F820102260A361FFF7D0
:10458000D7FE284617F05CFF002805DBA069294606
:10459000BDE87040FFF75CBC284624F0F1FBA06941
:1045A0002946BDE87040FFF753BC00BFAFF3008061
:1045B00070B50D4686B00646FFF78AFE6B1C18D014
:1045C00040F2A854C1F2000444F2F142A369294622
:1045D00001A8C0F60002FFF7EBFE3046FFF7B8FF78
:1045E000049B13B101A8FFF71BFFA369986A06B0EB
:1045F00070BD40F2A854C1F200043046FFF7A8FF96
:10460000A369986A06B070BDAFF30080AFF3008075
:1046100070B540F2A855C1F2000504460E46FFF7FA
:1046200057FEA869A3688268A662934213D9FFF770
:1046300037FF0123064684F82030AC61FFF778FE8F
:10464000304617F0FDFE00280ADB20463146BDE863
:104650007040FFF7FDBB2046BDE87040FFF720BF6C
:10466000304624F08DFBF0E7AFF30080AFF300801D
:1046700070B540F2A854C1F2000414212368A56962
:104680001A6801265460284683F8206085F82210B5
:104690002260A361FFF704FF2846FFF749FE284682
:1046A00017F0CEFE002805DBA0692946BDE8704062
:1046B000FFF7CEBB284624F063FBA0692946BDE87E
:1046C0007040FFF7C5BB00BFAFF30080AFF30080C1
:1046D00070B540F2A856C1F2000601203268B569F3
:1046E0001368AC68336000215E6082F820001346D6
:1046F000B26185F8201000E01B689A68A242FBD8DE
:104700005A682B606A6028465D601560FFF710FEEE
:10471000284617F095FE002805DBB0692946BDE85C
:104720007040FFF795BB284624F02AFBB069294664
:10473000BDE87040FFF78CBBAFF30080AFF30080A3
:1047400008B5FFF7C5FD40F2A853C1F200031A688F
:104750009B6992689B689A4200D808BDBDE80840F2
:10476000FFF7B6BFAFF30080AFF30080AFF3008078
:1047700040F2A853C1F200039B6993F822300BB1B9
:10478000FFF7A6BFFFF774BFAFF30080AFF3008061
:104790002DE9F00140F2A852C1F20002002455694F
:1047A00080F8214000F12C064FF0020800F14C0780
:1047B0004FF0140C45610261816080F82080C46371
:1047C0008463446284610164506180F822C028617E
:1047D000C7610663C662BDE8F0017047AFF30080B1
:1047E000884203D200F8012B8842FBD1704700BFFA
:1047F0002DE9F84F99460D4604469046FFF748FDCF
:10480000B5F5AC7F2CBF00230123002C08BF43F07B
:1048100001034BB9D9F1010338BF0023B8F17F0F71
:1048200088BF43F0010353B149F2D00049F2E401DB
:10483000C0F60200C0F60201A6221EF029F840F2DE
:10484000A856C1F20006A5F1640121440A9F7369CC
:10485000E16043F671600025C0F600004FF0020BE6
:104860004FF0140A0866C1F840904F6404F12C021E
:1048700004F14C0C84F820B084F8215084F822A074
:10488000C4F8088026616361C4F840807461E56300
:10489000A5636562A56120461C612263E262C4F8DB
:1048A0001CC0BDE8F88F00BFAFF30080AFF30080FD
:1048B0002DE9F04F83B080460C9F894693469A4677
:1048C00000F14C050446FF2604F8016BA542FBD11C
:1048D00008EB0904A54204D2552605F8016BA54250
:1048E000FBD1202383F31188FFF7F2FB53465A468E
:1048F000494600974046FFF77BFF00210446FFF73B
:1049000087FEFFF705FC002383F31188204603B0E0
:10491000BDE8F08FAFF30080AFF30080AFF300800D
:1049200010B5044658B949F2341049F2E401C0F612
:104930000200C0F602014FF493721DF0A9FF20237C
:1049400083F31188FFF7C4FB21460620FFF730FEF2
:10495000FFF7DEFB002383F3118810BDAFF3008067
:1049600008B540F2A853C1F200039B6993F82120D7
:104970009862920701BF5A69196911611B694FF06A
:104980000E0008BF5A61FFF7E3FD49F24410C0F67C
:104990000200BDE80840FFF7F3BC00BFAFF30080A2
:1049A00010B52023044683F31188FFF791FB2046BE
:1049B000BDE81040FFF7D4BFAFF30080AFF3008035
:1049C00010B5202383F31188FFF782FB40F2A85330
:1049D000C1F200031C69FFF79BFB002383F31188DE
:1049E000204610BDAFF30080AFF30080AFF300802E
:1049F00010B52023044683F31188FFF769FB24696F
:104A000040F2A853C1F200039C4208BF0024FFF704
:104A10007FFB002383F31188204610BDAFF3008095
:104A200038B5D0F1010338BF002353EAD1730446EF
:104A30000D460AD049F2801049F29011C0F60200EA
:104A4000C0F6020158221DF023FF64602460A560B7
:104A500038BD00BFAFF30080AFF30080AFF300803C
:104A600038B504460D46FFF733FC5CB3A3682268F3
:104A7000002B0EDBA2420ED049F21020C0F602003D
:104A8000FFF77EFCA268531E002BA36008DB00200A
:104A900038BDA242F0D01A46531E002BA360F6DAAE
:104AA000E5B140F2A853C1F2000329469B699C621C
:104AB00062681C605A60032063601360BDE8384080
:104AC000FFF776BD49F2F81049F29011C0F60200E6
:104AD000C0F60201FD221DF0DBFEC7E7A2604FF029
:104AE000FF3038BDAFF30080AFF30080AFF300803C
:104AF00010B50446FFF7CCFB14B3A3682268002B63
:104B00000DDBA24206D049F26020C0F60200FFF79A
:104B100037FCA3680133002BA36006DD10BDA24261
:104B2000F1D00133002BA360F8DC23681A68002160
:104B30002260546099621846BDE81040FFF7B0BC8F
:104B400049F24C2049F29011C0F60200C0F6020171
:104B50004FF499721DF09CFECFE700BFAFF30080C9
:104B600010B5044620B1002364602460A36010BD2A
:104B700049F2B02049F2C021C0F60200C0F602019D
:104B800058221DF085FEEEE7AFF30080AFF3008002
:104B9000F8B540F2A853C1F2000305469C69FFF73F
:104BA00097FB002D5BD0A868002848D0A1688368D7
:104BB0008B421ED290F820308160002B44D0042B11
:104BC00017D103684268866A1360076833467A60C3
:104BD00002E09A688A4202D31B689E42F9D15A6861
:104BE0000360426058601060B068A16883688B42BF
:104BF000E0D32B4603E09968A268914202D31B6878
:104C00009D42F8D15A682360626004205C601460A1
:104C1000A562FFF79DFCAB68A34205D049F2F020E6
:104C2000C0F60200FFF7ACFBE36BAB420BD049F2DE
:104C30000430C0F60200BDE8F840FFF7A1BBE36B0B
:104C4000AC60EB60E563F8BD90E80C00012180F8F2
:104C500020101A6002685360FFF722FCC9E749F28E
:104C6000E02049F2C021C0F60200C0F602017D2218
:104C70001DF00EFE97E700BFAFF30080AFF300809A
:104C800010B52023044683F31188FFF721FA20464C
:104C9000FFF77EFFFFF73CFA002383F3118810BD76
:104CA00040F2A852C1F2000270B52023956983F347
:104CB0001188FFF70DFAEC6B002C30D0A368AB42E3
:104CC00006D049F24030C0F60200FFF759FBEC6B0A
:104CD0002668E368A642EB631ED0296C4BB11A68C4
:104CE0009A4203D09268914238BF1146DB68002B8C
:104CF000F5D1F26B3368A9603046236000215C6017
:104D0000A660E260F463FFF783FCFFF701FA00237B
:104D100083F31188204670BD0023A360F5E749F2B4
:104D20002C30C0F60200FFF72BFBEC6BC6E700BF90
:104D3000002918BF0028F8B505460C4617460AD1C9
:104D400049F2803049F29831C0F60200C0F6020103
:104D500057221DF09DFD202383F31188FFF7B8F93A
:104D600040F2A853C1F200032A689B692260002622
:104D70002C606360A760E660FFF7CAF9334683F3EF
:104D80001188F8BDAFF30080AFF30080AFF300806F
:104D900038B504460D46FFF77BFAC4B1A26B94F810
:104DA000203045EA0201082BA1630CD0092B00D06A
:104DB00038BDA36A19408B42FAD12046FFF770FB39
:104DC0000023836238BDA36A1942F6D138BD49F287
:104DD000D03049F29831C0F60200C0F60201FE223E
:104DE0001DF056FDDAE700BFAFF30080AFF300809F
:104DF00070B505460E46FFF74BFA65B12C68A54223
:104E000008D0201D0BC83343E360FFF7C1FF2468BF
:104E1000A542F6D170BD49F2E43049F29831C0F6AE
:104E20000200C0F60201BC221DF032FDE6E700BF21
:104E300003460022C068DA60704700BFAFF300800D
:104E400010B4024679B140F2A853C1F200030D201C
:104E50009B699A62546883E81400536023605DF88C
:104E6000044BFFF7A5BB4FF0FF305DF8044B7047D4
:104E700030B4029C406000250A44856004620261EF
:104E8000006041618161C160C36130BC704700BF97
:104E900038B50446FFF7FCF92068E3680022A04219
:104EA0006361A260A3610AD06FF00105036823600B
:104EB0005C60FFF7F5FA85622068A042F6D138BD44
:104EC00038B504460D46FFF7E3F96369A269A168A6
:104ED00093421BD05A1C01316261A1601D7062694E
:104EE00023699A420BD22068A0420DD00368236048
:104EF0005C60FFF7D5FA00238362184638BD20684E
:104F0000E368A0426361F1D1002038BD0029E1D0FF
:104F10006FF0030038BD00BFAFF30080AFF3008037
:104F2000F8B504460E46202383F31188FFF7D0F826
:104F3000E36933B12046984703E0FFF781FF071E7E
:104F400018DBA56820463146002DF6D0A2692169FC
:104F5000531C8B42A36105F1FF3528BFE368A560B0
:104F6000177828BFA361FFF7D3F8002383F31188D4
:104F70003846F8BDFFF7CCF82B4683F31188384646
:104F8000F8BD00BFAFF30080AFF30080AFF3008047
:104F90002DE9F047044615460F461E46D0F81C8002
:104FA000002A3DD0202383F31188FFF791F807EB07
:104FB000050A4FF000090137B8F1000F05D020466F
:104FC000C04702E0FFF73CFF10BBA5682046314612
:104FD000002DF7D0A369013D5A1CA261A5601B7882
:104FE00007F8013C2369A2699A4224BFE368A361E0
:104FF000FFF78EF8002383F31188574509F1010963
:105000000BD0202383F31188FFF762F80137D3E731
:10501000FFF77EF82B4683F311884846BDE8F087FA
:1050200049F2404049F25441C0F60200C0F6020184
:10503000E7221DF02DFCB5E7AFF30080AFF3008051
:1050400030B4029C40608D1805610462006082608B
:1050500041618161C160C36130BC7047AFF30080C2
:1050600038B50446FFF714F9E368226920686361E4
:10507000D21AA042A361A2600AD06FF001050368B2
:1050800023605C60FFF70CFA85622068A042F6D1CD
:1050900038BD00BFAFF30080AFF30080AFF30080F6
:1050A0002DE9F041202304468846164683F31188F3
:1050B000FFF70EF803E0FFF7C3FE071E1DDBA56830
:1050C00020463146002DF6D06369013D5A1C6261CD
:1050D000A56083F80080236962699A4224BFE3686F
:1050E0006361E3690BB120469847FFF711F800238D
:1050F00083F311880020BDE8F081FFF709F82B4603
:1051000083F311883846BDE8F08100BFAFF300801B
:1051100038B50446FFF7BCF8A3696269A0689A42F3
:1051200016D021695A1C0130A060A2618A421D7804
:105130000BD22068A04206D0036823605C60FFF7B2
:10514000AFF900238362284638BDE368A361F0E726
:105150000028E6D06FF0020038BD00BFAFF300803A
:105160002DE9F84F044617460E469B46D0F81CA082
:10517000002A3AD0202383F31188FEF7A9FF4FF0CD
:105180000009A56806F1010820466A1EFDB16369A1
:10519000A2605A1C626132781A70236962699A426D
:1051A00024BFE3686361BAF1000F00D0D047FEF777
:1051B000AFFF002383F31188013F09F1010911D0EA
:1051C000202383F31188FEF783FF4646D9E7204664
:1051D0005946FFF735FE0028D3D0FEF799FF2B463E
:1051E00083F311884846BDE8F88F49F2784049F2C8
:1051F0005441C0F60200C0F6020140F29B121DF0BD
:1052000047FBB7E7AFF30080AFF30080AFF3008058
:105210004CF2000140F2D45240F2D8530648C2F298
:105220000101C1F20002C1F2000321F0070120F0E8
:1052300007001160186070477FA10120AFF3008064
:1052400010B50446FFF724F840F2D85340F2D45288
:10525000C1F20003C1F2000219681268E01D20F0DB
:105260000700521A90429DBF40181860084600205F
:1052700010BD00BFAFF30080AFF30080AFF300803C
:1052800010B52023044683F31188FEF721FF204642
:10529000FFF7D6FF0446FEF73BFF002383F3118898
:1052A000204610BDAFF30080AFF30080AFF3008065
:1052B00040F2E053C1F2000345F281220021C0F622
:1052C000000203F110001A609960D960FFF748BC32
:1052D000F8B540F2E056C1F20006002818BF0646B5
:1052E000073106F1100021F0070506F10804FFF769
:1052F000C7FC03E05A68954211D91C462368002B6D
:10530000F8D1FFF7CDFC33681BB305F108009847CF
:10531000F8B10660456000F108042046F8BD05F1CB
:105320000801914208D91A6822601C4644F8086BAB
:10533000FFF7B6FC2046F8BD4FF6F870CFF6FF70C9
:10534000401B5F180244186858507A6027605D60FF
:10535000EBE70024E1E700BFAFF30080AFF300808C
:10536000F8B5074600285AD057F8086C06F1100027
:10537000FFF786FC08363446A7F10805AC4204D88E
:105380006368083323449D420BD3B44211D0AC422E
:105390000FD32468AC42F8D86368083323449D4295
:1053A000F3D249F2D040C0F60200FEF7E9FFB44262
:1053B000EDD123681BB19D4201D31C46DEE757F8AF
:1053C000042C47F8083C256002F1080357F8080C44
:1053D000E918814209D0636803F10802224495422A
:1053E00011D0BDE8F840FFF75BBC4968EB580A44B0
:1053F000083247F8042C47F8083C636803F10802B8
:1054000022449542EDD157F8041C57F8082C0B4460
:10541000083384E80C00BDE8F840FFF741BC49F2CE
:10542000C04049F2A041C0F60200C0F60201C62207
:105430001DF02EFA98E700BFAFF30080AFF30080B5
:10544000F0B4002B08BF0B4600F10B0700F10A0572
:10545000B1FBF2F602FB161101F13004392CC8BF82
:1054600001F13704E4B2B3FBF2F331462E4605F8FE
:105470000149002BECD1BA1B3346024401E013F87A
:10548000014F00F8014B9042F9D1F0BC704700BFCA
:105490002DE9F04717469846064600220023384675
:1054A0004146DDF82090FCF763FD60B12D2408F142
:1054B00000483846414606F8014B00220023FCF71D
:1054C00057FD0028F3D138464146FBF731FE00284E
:1054D0003CD0B9F1000F34D04CF6CD4ACCF6CC4AD2
:1054E000AAFB093A4FEADA0A41463846FCF768FD5A
:1054F000044621460A2230460023FFF7A1FF064654
:105500002E2306F8013B2046FCF754FA02460B46D0
:1055100038464146FCF700F9044648460D46FCF77C
:1055200039FA02460B4620462946FCF7A9FAFCF751
:1055300047FD534601460A223046BDE8F047FFF7D3
:105540007FBF4FF00A0A4FF06409CDE74E23612276
:105550003370B3707270F01CBDE8F087AFF3008059
:105560002DE9F04F40F2A853C1F200038DB0074679
:1055700098690C46164616F063FF402840F35C819C
:105580000DF119000DF1180B49F2F0430390C0F62C
:105590000203CBEB0000059004932178631C51B10A
:1055A00025290BD03A681C469268384690472178E6
:1055B000631C0029F4D10DB0BDE8F08F62782D2A6C
:1055C00003BFA278A31C4FF0010C4FF0000C2E2A51
:1055D00018BF302A03BF5A7801334FF030084FF01C
:1055E00020081C46002506E03378043605EB8505C7
:1055F000227803EB4505A2F13003DBB2092B04F15D
:105600000104F3D92A2AEFD02E2A4FF0000949D0FD
:1056100002F0DF034C2B03D123780BB101341A467F
:10562000A2F14403342B00F2EF80DFE813F0D50041
:10563000ED00ED00ED00ED00D500ED00ED00ED001A
:10564000ED00ED00EB00ED00ED00ED00ED00ED00F4
:105650004500ED00ED00E900ED00ED00ED00ED008E
:10566000ED00ED00ED00ED00ED00ED00CB00D5000C
:10567000ED009C00ED00ED00D500ED00ED00ED002B
:10568000ED00ED00EB00ED00ED00ED007800ED0029
:105690004500ED00ED00E9003378043609EB890997
:1056A00003EB490914F8012BA2F13003DBB2092BFB
:1056B000F4D92A2AF0D0ABE70A22316858460023F1
:1056C000FFF7BEFE0436DA46CBEB0009C9EB050551
:1056D00025EAE575BCF1000F0DD16D425DB19AF878
:1056E00000102D2900F096803B6838469B684146A3
:1056F00098470135F8D1B9F1000F05DD3B685146F7
:105700004A461B6838469847002D3FF446AF3B6831
:1057100038469B6841469847013DF8D13DE7D6F8A9
:1057200000A0049BBAF1000F08BF9A4647F6FF722B
:105730009AF800300436B9F1000F08BF9146002BEB
:1057400000F083800AEB0902D14601E091456ED05A
:1057500099F8013009F10109002BF7D1CAEB0909C9
:105760004FF02008B2E7073626F00706D6E9000119
:10577000CDF808C0FCF74CFC07EE900AF5EEC07AB5
:10578000F1EE10FADDF808C044BFF1EE677A2D2380
:1057900017EE900A4ABF0DF1190ADA468DF8183053
:1057A000CDF808C0FCF718F9CDF8009002460B467A
:1057B0005046FFF76DFE0836DA46CBEB0009DDF800
:1057C00008C083E73368DDF814908DF8183004368C
:1057D0004FF02008DA4679E731680029BFBF2D2055
:1057E0008DF8180049420DF11900A8BF58460A2249
:1057F0000023FFF725FE0436DA46CBEB000965E708
:1058000010225AE7082258E78DF81820DDF8149086
:10581000DA465BE7B8F1300F7FF466AF3B68384695
:105820009B6898470AF1010A09F1FF395CE7CAEB66
:1058300002094FF0200849E749F2F840C0F602009B
:1058400023F0BEFA0DB0BDE8F08F99464FF0200866
:105850003CE700BFAFF30080AFF30080AFF3008000
:10586000C36882689A421FBF4268D154C36801333B
:105870001ABFC36000206FF001007047AFF30080D3
:105880000269C168914218BF416803461DBF885C28
:1058900001321A616FF00100704700BFAFF3008062
:1058A00038B5044608462369E5686168ED1AAA42DE
:1058B00038BF154619442A46FDF7E2FB23692B44FD
:1058C0002361284638BD00BFAFF30080AFF30080EE
:1058D00038B5C36885680446ED1A4068AA4238BFE7
:1058E000154618442A46FDF7CBFBE3682B44E360DA
:1058F000284638BDAFF30080AFF30080AFF30080DF
:1059000030B449F21054C0F6020400250460056169
:1059100041608260C36030BC704700BFAFF300805D
:10592000002910B41CDD02464418002012F8011BA7
:105930000823484010F0800F4FEA40001CBF80F061
:105940002700C04303F1FF3314BF00F0FE00C0B2D4
:1059500013F0FF03EED1A242E8D15DF8044B70478B
:105960000020FAE7AFF30080AFF30080AFF30080D0
:1059700010B4A1B149F220540144C0F602044FF022
:10598000FF3310F8012B5A40D2B2884254F822203B
:1059900082EA1323F5D1D8435DF8044B70470846DB
:1059A000FAE700BFAFF30080AFF30080AFF30080F1
:1059B0002DE9F04104461E468846174619F008F9BD
:1059C000E368054613B12046FEF72AFD204641460E
:1059D0003A463346FEF7ECFC0DB1BDE8F081BDE878
:1059E000F04119F01DB900BFAFF30080AFF30080A4
:1059F00008B503F07DF94AF69040C0F6020004F0C5
:105A0000B7FA00F045F800F0C3F800F0D9F900F05B
:105A100017FA00F0A5FA00F0B3FA01F059F801F016
:105A2000FFF801F08DFB01F083FD00F0D1FD01F0E6
:105A30003FFA01F095F8BDE8084006F081BC00BFD0
:105A40004FF48053CEF2000310B45A681C46104441
:105A5000824263680BD2984294BF002101219A428E
:105A600088BF00210029F3D15DF8044B70479A42AA
:105A70008CBF00210121984288BF41F0010100291B
:105A8000E6D1F1E7AFF30080AFF30080AFF3008021
:105A900003F01EBAAFF30080AFF30080AFF30080D5
:105AA00000230122027043608360C360036143618D
:105AB0001830FFF755B800BFAFF30080AFF3008098
:105AC00038B504460D46D8B1202383F31188FEF77C
:105AD000FFFA2378013BDBB2012B05D949F64C10C4
