:020000040800F2
:1000000000100020813B0008F13C000841B60108C7
:10001000F13C000821B6010801B60108F13C0008D6
:10002000F13C0008F13C0008F13C0008213D0008CB
:10003000E1B50108F13C0008F13C0008213E000850
:10004000F13C0008518E0008F13C0008918F000837
:10005000F13C0008F13C0008118C0008418C0008BC
:10006000718C0008A18C0008D18C0008B1800008B8
:10007000F18000083181000871810008B181000819
:10008000F181000831820008218A0008619300088C
:1000900081930008A1930008C1930008018D000816
:1000A000A1B1000821B10008F13C000841B10008ED
:1000B00061B1000881B10008B1B40008F19A0008EC
:1000C000319C0008F13C0008F13C0008F13C0008BC
:1000D000F13C000831B9000851B9000871B90008B5
:1000E000A18D0008918E0008D18E0008F13C000817
:1000F00041B50008F13C000871B5000871820008A4
:10010000F13C0008F13C000881AF0008F13C000818
:10011000F13C0008F13C0008F13C0008F13C00080B
:10012000B1820008F1820008318300087183000861
:10013000B1830008F13C0008118F0008E19300082A
:10014000019400082194000841940008D1A70008F8
:10015000F18300083184000871840008F13C000834
:10016000F13C0008F13C0008F13C0008F13C0008BB
:10017000518F0008F13C0008F13C0008F13C0008F8
:10018000F13C0008F13C0008F13C0008F13C00089B
:10019000F13C0008F13C0008F13C0008F13C00088B
:0C01A000F13C0008F13C0008F13C0008B4
:1001AC0051020008D1020008F102000811030008F6
:1001BC005103000891030008C1030008E103000883
:1001CC00010400082104000861040008A1040008CF
:1001DC00C1040008610500087105000891050008BC
:1001EC00B1050008F10500081106000831060008E9
:1001FC0081060008E1060008110700083107000815
:10020C00B1070008D107000891080008B1080008E0
:10021C00D1080008210900084109000881090008DB
:10022C00D1090008710C0008C10C0008A10E0008CF
:0C023C007110000891100008F11000087B
:1002500070B542F68054C2F2000442F610212046E6
:10026000C2F2000125F0ACF942F68441201DC2F231
:10027000000125F0A5F942F6703104F10800C2F240
:10028000000125F09DF942F67443C2F2000326688E
:100290006568A4681E6042F6103042F220611A467A
:1002A0005D609C60C2F20001C2F2000014F018FE12
:1002B00042F66C40C2F2000025F05AF942F6704353
:1002C000C2F2000300221A705A709A7070BD00BF0B
:1002D00010B542F69854C2F20004204614F028FFEC
:1002E00004F11800BDE8104014F022BFAFF3008005
:1002F00008B543F64850C2F2000011F0D1FB42F6B7
:10030000D050C2F20000BDE808400EF0F9B800BFBE
:1003100038B543F6C05044F6E834C2F20004002574
:10032000C2F2000025F024F9204629464FF48072DD
:10033000C4F8005102F0FCFE4023C4F80451C4F894
:100340000831C4F8045138BDAFF30080AFF300802A
:1003500038B544F6F44044F60854C2F200040025CF
:10036000C2F2000014F0D4FF204629464FF48072F8
:10037000C4F8005102F0DCFE4023C4F80451C4F874
:100380000831C4F8045138BDAFF30080AFF30080EA
:1003900010B544F61464C2F20004204614F0B8FF0D
:1003A00004F1100014F0B4FF04F12000BDE8104087
:1003B00014F0AEBFAFF30080AFF30080AFF3008066
:1003C00044F688604AF2742144F6C462C2F2000026
:1003D000C0F60201C2F2000241F2883324F018B9DB
:1003E00046F264204AF25031C2F20000C0F6020127
:1003F00024F026B9AFF30080AFF30080AFF30080A4
:10040000044B002103F5DC7243F8581C5833934227
:10041000FAD17047C8630020AFF30080AFF30080CB
:10042000F8B546F660060024C2F20006402746F6FC
:100430001405C2F2000521463A463046B46402F083
:1004400077FE3A462846214634647464AC6402F070
:100450006FFE2C646C64F8BDAFF30080AFF30080D6
:10046000F8B546F6F8060024C2F20006402746F624
:10047000AC05C2F2000521463A463046B46402F0AB
:1004800057FE3A462846214634647464AC6402F050
:100490004FFE2C646C64F8BDAFF30080AFF30080B6
:1004A00046F64C1040F68031C2F20000C0F603015F
:1004B00024F0C6B8AFF30080AFF30080AFF3008044
:1004C00046F65C20C2F2000046F69C4110B40022C1
:1004D000C2F200014FF0FF3481608161816281636B
:1004E000816481650260426002614261026242622F
:1004F000026342630264426402654265C460C4618F
:10050000C462C463C464C46500F1740300F5B270CE
:1005100043F80C1C43F8142C43F8102C43F8084CF7
:1005200043F8042C14338342F2D10A4B002203F126
:10053000F0044FF0FF3043F80C1C43F8142C43F840
:10054000102C03E905001433A342F4D15DF8044BE9
:10055000704700BFC06B0020AFF30080AFF3008096
:1005600046F6A040C2F2000014F022BFAFF30080B4
:1005700046F6DC704DF63841C2F20000C0F60201CA
:1005800024F05EB8AFF30080AFF30080AFF30080DB
:1005900047F280104DF66061C2F20000C0F6020121
:1005A00024F04EB8AFF30080AFF30080AFF30080CB
:1005B00038B50D4C04F50065204624F0E9F804F147
:1005C0007C0004F5807424F0E3F8AC42F4D147F2E7
:1005D0006874C2F20004201D00214FF4006202F092
:1005E000A7FD0023236038BD74770020AFF300809F
:1005F00048F2F0204EF29001C2F20000C0F6020173
:1006000024F01EB8AFF30080AFF30080AFF300809A
:1006100048F668404EF28C21C2F20000C0F602019A
:1006200024F00EB8AFF30080AFF30080AFF300808A
:1006300008B549F294104EF2E84148F6AC624FF426
:10064000FA73C0F60201C2F20002C2F2000023F007
:10065000DFFF49F2A40041F2C471C2F20001C2F20C
:10066000000019F0A5F848F6BC5041F26871C2F2DA
:100670000000C2F20001BDE8084019F099B800BFBF
:1006800049F2CC404EF6400138B5C0F60201C2F244
:10069000000014F02DFE49F2E04549F24850C2F244
:1006A0000005C2F2000014F033FE49F2105428464F
:1006B00014F03EFDC2F2000405F1180014F038FDFC
:1006C000204614F035FD04F11800BDE8384014F060
:1006D0002FBD00BFAFF30080AFF30080AFF3008009
:1006E00008B549F660104EF60421C2F20000C0F6CB
:1006F000020123F0A5FF49F64C10C2F20000BDE84C
:10070000084014F005BE00BFAFF30080AFF30080D7
:1007100049F670404FF28811C2F20000C0F60201A3
:1007200023F08EBFAFF30080AFF30080AFF3008003
:100730004EF64C204FF284414EF2A04208B5C2F270
:1007400000024FF4AF63C0F60201C2F2000023F0D2
:100750005FFF4EF68C204FF29041C0F60201C2F2CC
:10076000000023F06DFF4EF2A8004FF29C41C0F64E
:100770000201C2F2000023F063FF4EF29800C2F2C1
:10078000000014F0C5FD4EF61820C2F2000014F06F
:10079000BFFD4EF62820C2F2000014F0B9FD4EF65F
:1007A0003820C2F20000BDE8084014F0B1BD00BF1F
:1007B00040F698404FF2CC71C2F20100C0F602013F
:1007C00023F03EBFAFF30080AFF30080AFF30080B3
:1007D00010B540F6B45082B0C2F2010025F0A8FB7B
:1007E0004CF2AE73C4F236330024009340F6CC5082
:1007F00047F6E12200232146CCF2D402C4F2A00342
:10080000C2F2010025F09CFB40F6A4504DF6100208
:10081000002300944FF07C51C4F2B622C4F240038E
:10082000C2F2010025F08CFB0023C4F24833009390
:1008300040F6BC50002321462246C4F2A003C2F277
:10084000010025F07DFB0023C4F28233009340F6C3
:10085000AC50002321464FF08242C4F2A003C2F202
:10086000010025F06DFB0023C4F2C823009340F67D
:10087000C450002322464FF07C51C4F29003C2F2D0
:10088000010025F05DFB02B010BD00BFAFF300809A
:1008900041F2802040F6905140F69862C2F2010089
:1008A000C0F60301C2F201024FF47A7323F0B0BE26
:1008B00041F2E02040F6D051C2F20100C0F603013F
:1008C00023F0BEBEAFF30080AFF30080AFF3008033
:1008D00038B541F2B84040F6E02141F24045C0F65B
:1008E0000301C2F20105C2F2010014F001FD41F260
:1008F0007844284614F01CFCC2F2010405F11800EB
:1009000014F016FC204614F013FC04F11800BDE8A6
:10091000384014F00DBC00BFAFF30080AFF300808F
:1009200041F6000041F2C011C2F20100C0F603011D
:1009300023F086BEAFF30080AFF30080AFF30080FA
:1009400041F6707008B5C2F2010014F0E1FC41F606
:100950002040C2F2010014F0A3FA41F61810C2F2CE
:1009600001001AF0FDFB41F68470C2F20100BDE8FF
:10097000084011F0CDBD00BFAFF30080AFF30080A1
:1009800010B542F2A82082B0C2F2010014F088FA39
:1009900042F29420C2F2010014F0BAFC00244FF09D
:1009A0007E5100220091C4F2B42442F2782000214A
:1009B00013460194C4F22011C2F2010026F068FF30
:1009C00002B010BDAFF30080AFF30080AFF3008042
:1009D0002DE9F04142F60824C2F20104002142F25E
:1009E0006C67C2F201070A46204642F6502814F00E
:1009F000BFF8C2F201082146384614F041F842F22D
:100A00002475396840460722C2F2010514F0C0F887
:100A100041F2DC4239682846C0F6030242F69C14D3
:100A2000C2F2010414F0A4F841F2E442396820460D
:100A3000C0F6030242F2B476C2F2010614F098F84E
:100A400041F2F04239683046C0F6030214F090F8E3
:100A500042F6E80041460822C2F2010014F098F87C
:100A600042F6E41041460922C2F2010014F090F867
:100A700042F6C01029460A22C2F2010014F088F89A
:100A800042F27C6029460B22C2F2010014F080F889
:100A900042F2FC7029460D22C2F2010014F078F8EF
:100AA00042F2006029460E22C2F2010014F070F8F2
:100AB00042F67C0029461022C2F2010014F068F8C8
:100AC00042F6DC2029460C22C2F2010014F060F844
:100AD00042F6A00029461422C2F2010014F058F890
:100AE00042F6B82029461122C2F2010014F050F853
:100AF00042F6942029461222C2F2010014F048F86E
:100B000042F6541041F2F8424FF251532146C0F6DA
:100B10000302C0F60103C2F2010014F019F842F218
:100B2000907041F2045242F241232146C0F6030282
:100B3000C0F60203C2F2010014F00AF842F678107F
:100B400041F2105242F2D123C0F602032146C0F610
:100B50000302C2F2010013F0FBFF42F2DC6041F23B
:100B60001C522146C0F60302C2F2010014F000F844
:100B700042F2007041F228522146C0F60302C2F24E
:100B8000010013F0F5FF42F2B86041F23452214601
:100B9000C0F60302C2F2010013F0EAFF42F248700D
:100BA00041F240522146C0F60302C2F2010013F0A6
:100BB000DFFF42F2D87041F24C522146C0F60302E8
:100BC000C2F2010013F0D4FF42F2486041F25C52DD
:100BD0002146C0F60302C2F2010013F0C9FF42F63B
:100BE000200041F26C522146C0F60302C2F201001D
:100BF00013F0BEFF42F6440041F27C522146C0F69B
:100C00000302C2F2010013F0B3FF42F6C400314602
:100C10000122C2F2010013F0BBFF42F22460314610
:100C20000222C2F2010013F0B3FF42F62C2031463B
:100C30000322C2F2010013F0ABFF42F6301031463E
:100C40000422C2F2010013F0A3FF42F26C7031469D
:100C50000522C2F2010013F09BFF42F60C10314650
:100C6000C2F201000622BDE8F04113F091BF00BFBF
:100C700042F61C6041F2447108B5C0F60301C2F2AD
:100C8000010023F0DDFC41F67810C1F2000013F002
:100C9000EFFA42F620700949C2F2010013F0D8FCC5
:100CA00042F62830C2F2010024F022FC42F618601D
:100CB000C2F20100BDE8084024F05ABC586400109C
:100CC0002DE9F00F47F6AC30C2F2010082B047F6D2
:100CD0000032C2F201020168019047F6D02347F6C4
:100CE000DC20C2F201031160C2F201004EF65C6129
:100CF0000090C0F60201062047F6E82AC2F2010A77
:100D0000916050601A6041F68422C0F6030247F6F3
:100D10009439C2F2010958609A60CAF800304EF264
:100D200040230720C0F6020347F65838C2F20108F4
:100D3000CAF80830CAF80400C9F800A041F6882AA9
:100D4000C0F6030AC9F80400C9F808A0C8F8009062
:100D500047F6A03C4FF00809C2F2010CC8F8049015
:100D600041F68C29C0F60309C8F80890CCF8008039
:100D700047F6C4274FF00908C2F20107CCF80480F7
:100D800041F69028C0F6030847F60C36C2F2010679
:100D9000CCF80880C7F800C047F664354FF00A0C5D
:100DA00041F69428C2F20105C7F804C0C0F6030852
:100DB00047F6883441F6982CC2F20104C7F808803F
:100DC0003760C0F6030C0B2741F69C287760C6F805
:100DD00008C02E60C0F603080C2641F6D8376E60B6
:100DE000C5F808802560C0F603070325656041F655
:100DF000A02CA7600098C0F6030C0527046047608C
:100E0000C0F808C047F67C3B0198C2F2010B47F6D8
:100E1000B821C2F20101C0F800B047F6B032009824
:100E200047F6703347F6F42A41F6A426C2F20103CE
:100E3000C2F2010AC2F20102C0F60306022441F620
:100E4000A82841F6AC2541F6B02741F6B42CC0F6EF
:100E50000308C0F60305C0F60307C0F6030C4FF005
:100E6000040908604C600D200E248E600F2682E875
:100E70000202C2F808801A6058609D60CAF800300B
:100E8000CBF800A0CAF80440CAF80870CBF8046098
:100E9000CBF808C002B0BDE8F00F7047AFF3008098
:100EA00048F6845049F6781238B5C0F6020264213B
:100EB000C2F2010024F04CFC48F654604FF66C522C
:100EC000C0F602026A21C2F2010024F041FC49F29C
:100ED00084004FF20032C0F602026B21C2F2010020
:100EE00024F036FC48F63C604FF24432C0F6020271
:100EF0006D21C2F2010024F02BFC48F69C5040F614
:100F00008042C0F603026621C2F2010024F020FCF8
:100F100048F6745041F6A462C0F603026521C2F29D
:100F2000010024F015FC49F26C0041F6B452C0F601
:100F300003026E21C2F2010024F00AFC48F6A85018
:100F400041F6AC62C0F603026821C2F2010024F04F
:100F5000FFFB47F64C5041F6BC62C0F60302692124
:100F6000C2F2010024F0F4FB48F2685041F6CC6272
:100F7000C0F603026721C2F2010024F0E9FB48F247
:100F80005C5041F66C62C0F603026F21C2F20100B0
:100F900024F0DEFB47F6C030C2F2010048F6606480
:100FA00024F0F6FBC2F2010404F50075204610346B
:100FB00024F0DEFBAC42F9D149F2600048F66061F2
:100FC000C2F20100C2F20101202247F65C5424F073
:100FD00077FEC2F2010404F500652046103424F0C7
:100FE000C7FBAC42F9D148F6905047F65C51C2F2CB
:100FF0000100C2F20101802248F2745424F060FE24
:10100000C2F2010404F500652046103424F0B0FB60
:10101000AC42F9D148F6486048F27451C2F201007E
:10102000C2F2010180220F4C24F04AFE04F5E06573
:101030002046703413F034FFAC42F9D148F6B45076
:10104000C2F2010047F64C4424F0A2FBC2F20104B4
:1010500004F580752046103414F05AF9AC42F9D1E9
:1010600038BD00BF90C10010AFF30080AFF3008027
:1010700008B5054826F0E4FB4CF69000C1F20000EC
:1010800026F0DEFB08BD00BFE0DA0010AFF3008001
:101090002DE9F04149F2DC070024C2F201074FF0CC
:1010A000400849F29006C2F20106214642463846FF
:1010B00049F22815C2F20105BC6402F039F8214654
:1010C000424630463C647C64B46402F031F84246E7
:1010D0002846214634647464AC6402F029F82C6418
:1010E0006C64BDE8F08100BFAFF30080AFF3008017
:1010F00049F2741042F2E811C2F20100C0F6030195
:1011000023F09EBAAFF30080AFF30080AFF300800E
:1011100008B504F0CDFA02F033FF1AF059FA26F0C0
:10112000BFFD002008BD00BFAFF30080AFF300801B
:1011300050EA010301D102207047D0F1010338BF0A
:101140000023B1F1004F08BF0028F4D021F0004186
:101150004FF6FF72A1F58010C7F6DF72904201D8FA
:1011600004207047B1F5801F01D203207047002092
:10117000C7F6F070814214BF002003F001007047F1
:10118000C1F30A5C2DE9F843ACF2FF33132B06469A
:101190000F4613DC002B40DB4FF6FF7CC0F20F0C38
:1011A0004CFA03F303EA010C5CEA000C1CD107F0D3
:1011B0000041C2E900676046BDE8F883332B1EDCBE
:1011C0004FF0FF33ACF2134C23FA0CFC1CEA000383
:1011D0001CD020EA0C060F460B46C2E900673246D7
:1011E00000F09AFABDE8F88321EA030700263B469F
:1011F000C2E90067324600F08FFABDE8F88307F0D5
:101200000041C2E900670020BDE8F88307F0004113
:10121000C2E900671846BDE8F88307F000494FF0BF
:101220000008C2E90089BDE8F88300BF00000000A3
:10123000F8B5C1F30A57A7F2FF360246132E0B4644
:101240000D468C4616DC002E31DB4FF6FF7CC0F2DB
:101250000F0C4CFA06FC0CEA010101430FD04FF4CD
:101260000023002143FA06F62E4426EA0C0C084619
:101270006146F8BD332E05DDB6F5806F23D01046EC
:101280001946F8BD4FF0FF30A7F21341C840104295
:10129000F5D0C7F5866701210237B940891828BF04
:1012A00003F1010C21EA000108466146F8BD01F096
:1012B000004C013602BF4CF07F5C00214CF4401C16
:1012C000D5D00021D3E700F029FAF8BD00000000D6
:1012D00070B58AB0054600F06BF841F20064C2F2C6
:1012E000000494F900300133064609D0284600F086
:1012F000EFF928B12846002101F0A6F9034610B104
:1013000030460AB070BD42F2F0122846C0F6030221
:101310000893019200F060FB2478CDE90401CDE947
:10132000020174BB4FF6FF734FF06042CCF2EF73D3
:10133000CDE906232846002101F05EF978B10223A9
:1013400000939C4229D0684600F0B2F928B3089B6C
:1013500043BBDDE9060100F05BFE0AB070BD022C64
:101360004FF00103009313D0684600F0A1F978B163
:1013700041F64810C0F6030000F0A2F9CDE90601DD
:10138000E5E700230022CFF6F073CDE90623D1E78D
:1013900001F06EFE21230360EAE701F069FE2223DB
:1013A0000360D4E701F064FE089B0360D1E700BF4F
:1013B00020F0004201462DE9F84F0346002A00F0D4
:1013C000B0800028C0F2D380B0F1FF4F80F2CB8014
:1013D000B0F5000FA8BF002706DA4FF098416FF074
:1013E000180700F075FF03464FF62030C3F31604CC
:1013F000C0F24A00DB1520447F3B00F400021F448A
:1014000082F07E504FF07E51204307EBD25700F020
:1014100053FE04F10F03C3F316030F2B054640F3ED
:1014200087804FF0804145F6304800F047FECFF608
:10143000CF78A044C4F5571404F5227444EA080890
:101440000146284600F0F8FF8146384600F0EAFEE3
:1014500049468346484600F03BFF0146824600F07D
:1014600037FF48F69701C3F61761064600F030FFD4
:1014700043F22531C3F63A6100F020FE314600F018
:1014800027FF44F62511C3F6926100F017FE31469E
:1014900000F01EFF4AF6AB21C3F62A7100F00EFEE3
:1014A000514600F015FF4DF24F01C3F61C61824614
:1014B000304600F00DFF48F62961C3F6636100F085
:1014C000FDFD314600F004FF4CF6CD41C3F6CC6182
:1014D00000F0F4FD314600F0FBFE0146504600F0FE
:1014E000EDFDB8F1000F064640F3AF804FF07C51A0
:1014F000284600F0EDFE294600F0EAFE0446002FE3
:1015000059D1314600F0DAFD494600F0E1FE0146CE
:10151000204600F0D1FD0146284600F0CDFDBDE893
:10152000F88F00214FF04C4000F086FFBDE8F88FA7
:10153000002101F061F808B3002F00F083803846E5
:1015400000F070FE4FF4E341C3F63171054600F040
:10155000BFFE4FF2D171C3F217710446284600F066
:10156000B7FE0146204600F0A9FDBDE8F88F00F067
:10157000A3FD002100F060FFBDE8F88F2946284652
:1015800000F0A6FE4AF6AB21C3F6AA61044628463F
:1015900000F09EFE01464FF07C5000F08DFD0146AC
:1015A000204600F095FE04466FBB2846214600F019
:1015B00083FDBDE8F88F4FF4E3415846C3F631711F
:1015C00000F086FE31460746204600F077FD49468A
:1015D00000F07EFE4FF2D171C3F2177106465846F5
:1015E00000F076FE0146304600F068FD01462046D8
:1015F00000F062FD294600F05FFD0146384600F02C
:101600005BFDBDE8F88F384600F00CFE4FF4E34177
:10161000C3F63171074600F05BFE4FF2D171C3F2A1
:1016200017710646384600F053FE0146204600F08A
:1016300043FD294600F040FD0146304600F03CFDE8
:10164000BDE8F88F0020BDE8F88F1FB34FF4E341E9
:101650005846C3F6317100F03BFE31460446284639
:1016600000F02AFD494600F033FE4FF2D171C3F27B
:1016700017710646584600F02BFE0146304600F032
:101680001BFD294600F018FD0146204600F014FD20
:10169000BDE8F88F0146284600F00EFD494600F0EF
:1016A00017FE0146284600F007FDBDE8F88F00BF91
:1016B0000020704700000000000000000000000053
:1016C00000210020C7F6F871704700BF000000003D
:1016D00030F0004001D102207047A0F50003B3F1C3
:1016E000FE4F01D2042070474FF6FE73421EC0F237
:1016F0007F039A4201D803207047B0F1FF4358425C
:101700005841704700000000000000000000000089
:1017100081F0004102E000BF83F0004330B54FEAA2
:1017200041044FEA430594EA050F08BF90EA020F0F
:101730001FBF54EA000C55EA020C7FEA645C7FEAA2
:10174000655C00F0E2804FEA5454D4EB5555B8BFC5
:101750006D420CDD2C4480EA020281EA030382EA36
:10176000000083EA010180EA020281EA0303362DC8
:1017700088BF30BD11F0004F4FEA01314FF4801C9B
:101780004CEA113102D0404261EB410113F0004FAD
:101790004FEA03334CEA133302D0524263EB430364
:1017A00094EA050F00F0A780A4F10104D5F1200E02
:1017B0000DDB02FA0EFC22FA05F2801841F100015D
:1017C00003FA0EF2801843FA05F359410EE0A5F131
:1017D00020050EF1200E012A03FA0EFC28BF4CF062
:1017E000020C43FA05F3C01851EBE37101F0004518
:1017F00007D54FF0000EDCF1000C7EEB00006EEB25
:101800000101B1F5801F1BD3B1F5001F0CD34908AE
:101810005FEA30004FEA3C0C04F101044FEA445205
:1018200012F5800F80F09A80BCF1004F08BF5FEA8C
:10183000500C50F1000041EB045141EA050130BD6C
:101840005FEA4C0C404141EB010111F4801FA4F10F
:101850000104E9D191F0000F04BF01460020B1FA64
:1018600081F308BF2033A3F10B03B3F120020CDA9C
:101870000C3208DD02F1140CC2F10C0201FA0CF07A
:1018800021FA02F10CE002F11402D8BFC2F1200CDF
:1018900001FA02F120FA0CFCDCBF41EA0C01904095
:1018A000E41AA2BF01EB0451294330BD6FEA0404DE
:1018B0001F3C1CDA0C340EDC04F11404C4F12002C9
:1018C00020FA04F001FA02F340EA030021FA04F3DB
:1018D00045EA030130BDC4F10C04C4F1200220FA32
:1018E00002F001FA04F340EA0300294630BD21FA70
:1018F00004F0294630BD94F0000F83F4801306BF36
:1019000081F480110134013D4EE77FEA645C18BF29
:101910007FEA655C29D094EA050F08BF90EA020FC0
:1019200005D054EA000C04BF1946104630BD91EAB8
:10193000030F1EBF0021002030BD5FEA545C05D1BB
:101940004000494128BF41F0004130BD14F58004FA
:101950003CBF01F5801130BD01F0004545F0FE416E
:1019600041F470014FF0000030BD7FEA645C1ABFA3
:10197000194610467FEA655C1CBF0B46024650EADA
:10198000013406BF52EA033591EA030F41F4002106
:1019900030BD00BF90F0000F04BF0021704730B58C
:1019A0004FF4806404F132044FF000054FF0000161
:1019B00050E700BF90F0000F04BF0021704730B522
:1019C0004FF4806404F1320410F0004548BF4042F7
:1019D0004FF000013EE700BF42004FEAE2014FEA4C
:1019E00031014FEA02701FBF12F07F4393F07F4F27
:1019F00081F06051704792F0000F14BF93F07F4F59
:101A0000704730B54FF4607401F0004521F000419B
:101A100020E700BF50EA010208BF704730B54FF021
:101A200000050AE050EA010208BF704730B511F026
:101A3000004502D5404261EB41014FF4806404F15E
:101A400032045FEA915C3FF4DCAE4FF003025FEAE0
:101A5000DC0C18BF03325FEADC0C18BF033202EB68
:101A6000DC02C2F1200300FA03FC20FA02F001FAC2
:101A700003FE40EA0E0021FA02F11444C1E600BF61
:101A800070B54FF0FF0C4CF4E06C1CEA11541DBF14
:101A90001CEA135594EA0C0F95EA0C0F00F0DEF8DF
:101AA0002C4481EA030621EA4C5123EA4C5350EAC4
:101AB000013518BF52EA033541F4801143F4801315
:101AC00038D0A0FB02CE4FF00005E1FB02E506F0A6
:101AD0000042E0FB03E54FF00006E1FB03569CF0FB
:101AE000000F18BF4EF0010EA4F1FF04B6F5007F01
:101AF00064F5407404D25FEA4E0E6D4146EB060673
:101B000042EAC62141EA55514FEAC52040EA5E50FB
:101B10004FEACE2EB4F1FD0C88BFBCF5E06F1ED8A5
:101B2000BEF1004F08BF5FEA500E50F1000041EBDC
:101B3000045170BD06F0004646EA010140EA020089
:101B400081EA0301B4EB5C04C2BFD4EB0C0541EAAB
:101B5000045170BD41F480114FF0000E013C00F3C0
:101B6000AB8014F1360FDEBF002001F0004170BDE4
:101B7000C4F10004203C35DA0C341BDC04F11404FD
:101B8000C4F1200500FA05F320FA04F001FA05F289
:101B900040EA020001F0004221F0004110EBD37056
:101BA00021FA04F642EB06015EEA430E08BF20EA82
:101BB000D37070BDC4F10C04C4F1200500FA04F325
:101BC00020FA05F001FA04F240EA020001F00041B7
:101BD00010EBD37041F100015EEA430E08BF20EA2A
:101BE000D37070BDC4F1200500FA05F24EEA020E72
:101BF00020FA04F301FA05F243EA020321FA04F0A1
:101C000001F0004121FA04F220EA020000EBD37057
:101C10005EEA430E08BF20EAD37070BD94F0000F57
:101C20000FD101F00046400041EB010111F4801F8B
:101C300008BF013CF7D041EA060195F0000F18BF3C
:101C4000704703F00046520043EB030313F4801F78
:101C500008BF013DF7D043EA0603704794EA0C0F32
:101C60000CEA135518BF95EA0C0F0CD050EA410648
:101C700018BF52EA4306D1D181EA030101F00041C5
:101C80004FF0000070BD50EA410606BF10461946ED
:101C900052EA430619D094EA0C0F02D150EA0136F9
:101CA00013D195EA0C0F05D152EA03361CBF10463A
:101CB00019460AD181EA030101F0004141F0FE41D9
:101CC00041F470014FF0000070BD41F0FE4141F45D
:101CD000780170BD70B54FF0FF0C4CF4E06C1CEA5D
:101CE00011541DBF1CEA135594EA0C0F95EA0C0F12
:101CF00000F0A7F8A4EB050481EA030E52EA0335CD
:101D00004FEA013100F088804FEA03334FF08055ED
:101D100045EA131343EA12634FEA022245EA11151A
:101D200045EA10654FEA00260EF000419D4208BFCB
:101D3000964244F1FD0404F5407402D25B084FEA78
:101D40003202B61A65EB03055B084FEA32024FF424
:101D500080104FF4002CB6EB020E75EB030E22BF81
:101D6000B61A754640EA0C005B084FEA3202B6EB41
:101D7000020E75EB030E22BFB61A754640EA5C00F0
:101D80005B084FEA3202B6EB020E75EB030E22BF80
:101D9000B61A754640EA9C005B084FEA3202B6EB81
:101DA000020E75EB030E22BFB61A754640EADC0040
:101DB00055EA060E18D04FEA051545EA16754FEAA2
:101DC00006164FEAC30343EA52734FEAC2025FEAC0
:101DD0001C1CC0D111F4801F0BD141EA00014FF04F
:101DE00000004FF0004CB6E711F4801F04BF014320
:101DF0000020B4F1FD0C88BFBCF5E06F3FF6AFAE3C
:101E0000B5EB030C04BFB6EB020C5FEA500C50F1CB
:101E1000000041EB045170BD0EF0004E4EEA11314E
:101E200014EB5C04C2BFD4EB0C0541EA045170BD55
:101E300041F480114FF0000E013C90E645EA060E99
:101E40008DE60CEA135594EA0C0F08BF95EA0C0FC7
:101E50003FF43BAF94EA0C0F0AD150EA01347FF40F
:101E600034AF95EA0C0F7FF425AF104619462CE7E6
:101E700095EA0C0F06D152EA03353FF4FDAE104649
:101E8000194622E750EA410618BF52EA43067FF49A
:101E9000C5AE50EA41047FF40DAF52EA43057FF42A
:101EA000EBAE12E7000000000000000000000000A0
:101EB0004FF0FF3C06E000BF4FF0010C02E000BF16
:101EC0004FF0010C4DF804CD4FEA410C7FEA6C5CF9
:101ED0004FEA430C18BF7FEA6C5C1BD001B050EA9C
:101EE000410C0CBF52EA430C91EA030F02BF90EA87
:101EF000020F0020704710F1000F91EA030F58BF46
:101F0000994208BF90422CBFD8176FEAE37040F0A7
:101F1000010070474FEA410C7FEA6C5C02D150EA45
:101F2000013C07D14FEA430C7FEA6C5CD6D152EA00
:101F3000033CD3D05DF8040B704700BF84461046C5
:101F400062468C461946634600E000BF01B5FFF7C4
:101F5000B7FF002848BF10F1000F01BD4DF808ED94
:101F6000FFF7F4FF0CBF012000205DF808FB00BF65
:101F70004DF808EDFFF7EAFF34BF012000205DF8BF
:101F800008FB00BF4DF808EDFFF7E0FF94BF01200C
:101F900000205DF808FB00BF4DF808EDFFF7CEFF0D
:101FA00094BF012000205DF808FB00BF4DF808ED4C
:101FB000FFF7C4FF34BF012000205DF808FB00BF1D
:101FC0004FEA410212F5001215D211D56FF4787361
:101FD000B3EB625212D94FEAC12343F0004343EA04
:101FE000505311F0004F23FA02F018BF40427047DF
:101FF0004FF00000704750EA013005D111F0004069
:1020000008BF6FF0004070474FF00000704700BFFE
:102010004FEA4102B2F1E04324BFB3F5001CDCF10A
:10202000FE5C0DD901F0004C4FEAC0024CEA507042
:10203000B2F1004F40EB830008BF20F00100704771
:1020400011F0804F21D113F13872BCBF01F0004074
:10205000704741F480114FEA5252C2F11802C2F1A6
:10206000200C10FA0CF320FA02F018BF40F0010027
:102070004FEAC1234FEAD32303FA0CFC40EA0C00D9
:1020800023FA02F34FEA4303CCE77FEA625307D116
:1020900050EA01331EBF4FF0FE4040F4400070474D
:1020A00001F0004040F0FE4040F40000704700BFE7
:1020B00080F0004002E000BF81F0004142001FBFFD
:1020C0005FEA410392EA030F7FEA226C7FEA236C06
:1020D0006AD04FEA1262D2EB1363C1BFD2184140FB
:1020E00048404140B8BF5B42192B88BF704710F091
:1020F000004F40F4000020F07F4018BF404211F034
:10210000004F41F4000121F07F4118BF494292EA9B
:10211000030F3FD0A2F1010241FA03FC10EB0C00C7
:10212000C3F1200301FA03F100F0004302D5494254
:1021300060EB4000B0F5000F13D3B0F1807F06D301
:1021400040084FEA310102F10102FE2A51D2B1F1F9
:10215000004F40EBC25008BF20F0010040EA0300EE
:102160007047490040EB000010F4000FA2F101029B
:10217000EDD1B0FA80FCACF1080CB2EB0C0200FA25
:102180000CF0AABF00EBC25052421843BCBFD04073
:102190001843704792F0000F81F4000106BF80F4ED
:1021A00000000132013BB5E74FEA41037FEA226CB0
:1021B00018BF7FEA236C21D092EA030F04D092F07B
:1021C000000F08BF0846704790EA010F1CBF0020AF
:1021D000704712F07F4F04D1400028BF40F000400C
:1021E000704712F100723CBF00F50000704700F02C
:1021F000004343F0FE4040F4000070477FEA226253
:1022000016BF08467FEA23630146420206BF5FEA23
:10221000412390EA010F40F4800070474FF0000323
:1022200004E000BF10F0004348BF40425FEA000CEA
:1022300008BF704743F0964301464FF000001CE092
:1022400050EA010208BF70474FF000030AE000BFE8
:1022500050EA010208BF704711F0004302D5404226
:1022600061EB41015FEA010C02BF84460146002098
:1022700043F0B64308BFA3F18053A3F50003BCFAB3
:102280008CF2083AA3EBC25310DB01FA02FC634460
:1022900000FA02FCC2F12002BCF1004F20FA02F267
:1022A00043EB020008BF20F00100704702F120025A
:1022B00001FA02FCC2F1200250EA4C0021FA02F2BB
:1022C00043EB020008BF20EADC707047000000000A
:1022D0004FF0FF0C1CEAD0521EBF1CEAD15392EA09
:1022E0000C0F93EA0C0F6FD01A4480EA010C4002E5
:1022F00018BF5FEA41211ED04FF0006343EA50103F
:1023000043EA5111A0FB01310CF00040B1F5000F80
:102310003EBF490041EAD3715B0040EA010062F12F
:102320007F02FD2A1DD8B3F1004F40EBC25008BF19
:1023300020F00100704790F0000F0CF0004C08BF37
:1023400049024CEA502040EA51207F3AC2BFD2F104
:10235000FF0340EAC250704740F400004FF0000312
:10236000013A5DDC12F1190FDCBF00F0004070474C
:10237000C2F10002410021FA02F1C2F1200200FA8A
:1023800002FC5FEA310040F1000053EA4C0308BF51
:1023900020EADC70704792F0000F00F0004C02BFA2
:1023A000400010F4000F013AF9D040EA0C0093F01D
:1023B000000F01F0004C02BF490011F4000F013B77
:1023C000F9D041EA0C018FE70CEAD15392EA0C0FE5
:1023D00018BF93EA0C0F0AD030F0004C18BF31F050
:1023E000004CD8D180EA010000F00040704790F026
:1023F000000F17BF90F0004F084691F0000F91F0CA
:10240000004F14D092EA0C0F01D142020FD193EA8F
:102410000C0F03D14B0218BF084608D180EA010017
:1024200000F0004040F0FE4040F40000704740F0F3
:10243000FE4040F4400070474FF0FF0C1CEAD052C1
:102440001EBF1CEAD15392EA0C0F93EA0C0F69D01D
:10245000A2EB030280EA010C49024FEA402037D088
:102460004FF0805343EA111143EA10130CF000407F
:102470008B4238BF5B0042F17D024FF4000C8B426F
:1024800024BF5B1A40EA0C00B3EB510F24BFA3EB4F
:10249000510340EA5C00B3EB910F24BFA3EB91031F
:1024A00040EA9C00B3EBD10F24BFA3EBD10340EA79
:1024B000DC001B0118BF5FEA1C1CE0D1FD2A3FF6BF
:1024C00050AF8B4240EBC25008BF20F00100704774
:1024D0000CF0004C4CEA50207F32C2BFD2F1FF0317
:1024E00040EAC250704740F400004FF00003013A48
:1024F00037E792F0000F00F0004C02BF400010F4EC
:10250000000F013AF9D040EA0C0093F0000F01F0FF
:10251000004C02BF490011F4000F013BF9D041EA21
:102520000C0195E70CEAD15392EA0C0F08D1420254
:102530007FF47DAF93EA0C0F7FF470AF084676E727
:1025400093EA0C0F04D14B023FF44CAF08466EE700
:1025500030F0004C18BF31F0004CCAD130F00042CE
:102560007FF45CAF31F000437FF43CAF5FE700BF26
:102570004FF0FF3C06E000BF4FF0010C02E000BF4F
:102580004FF0010C4DF804CD4FEA40024FEA4103F1
:102590007FEA226C18BF7FEA236C11D001B052EAA7
:1025A000530C18BF90EA010F58BFB2EB030088BF6D
:1025B000C81738BF6FEAE17018BF40F001007047DC
:1025C0007FEA226C02D15FEA402C05D17FEA236CBE
:1025D000E4D15FEA412CE1D05DF8040B704700BF05
:1025E000844608466146FFE70FB5FFF7C9FF00289C
:1025F00048BF10F1000F0FBD4DF808EDFFF7F4FFD5
:102600000CBF012000205DF808FB00BF4DF808ED6D
:10261000FFF7EAFF34BF012000205DF808FB00BF90
:102620004DF808EDFFF7E0FF94BF012000205DF8B2
:1026300008FB00BF4DF808EDFFF7D2FF94BF012063
:1026400000205DF808FB00BF4DF808EDFFF7C8FF5C
:1026500034BF012000205DF808FB00BF000000002F
:102660004BB942B9002908BF002802D04FF0FF3112
:10267000084600F065B882B0EC462DE9005000F045
:1026800047F8DDF804E002B00CBC70470000000021
:1026900070B5FFF7A1F900230022C3F6F0530446FA
:1026A0000D46FFF7EDF900F053F80646FFF772F913
:1026B00000230022C4F2F013FFF7E2F902460B46B2
:1026C00020462946FFF728F800F042F8002231465C
:1026D00042EA0004204670BD000000000000000037
:1026E0002DE9F0471746804689469A46089E00F035
:1026F0004FF8A7FB004507FB01F700FB0A721544E2
:10270000B8EB040469EB0505C6E90045BDE8F087B0
:102710002DE9F8431746804689461D46089E00F07D
:10272000E7F900FB05F3A0FB074507FB01373D4434
:10273000B8EB040469EB0505C6E90045BDE8F8837C
:10274000704700BF00000000000000000000000013
:102750004A0011D212F5001211D20DD56FF4787320
:10276000B3EB62520ED44FEAC12343F0004343EA75
:10277000505323FA02F070474FF00000704750EAC0
:10278000013002D14FF0FF3070474FF0000070472A
:102790002DE9F04F444261EB410500294FF0FF362F
:1027A000A2BF04460D460026002B85B0C0F2C780AC
:1027B0002046AA469446194690462746A946002B2D
:1027C00058D1AA426CD9B2FA82F35BB1C3F12002AC
:1027D00005FA03F924FA02F20CFA03F842EA0909AD
:1027E00004FA03F74FEA1844484621461FFA88FACC
:1027F00000F0FEFA21468346484600F027FC3A0CDA
:102800000AFB0BF042EA014188420BD911EB0801A7
:102810000BF1FF3305D2884284BFABF1020B414478
:1028200000D89B46C0EB010921464846BFB200F0E4
:10283000DFFA21460546484600F008FC0AFB05FA87
:1028400047EA01418A4509D911EB080805F1FF3330
:1028500003D2C24588BF023D00D81D4645EA0B435E
:1028600000241846214616B1404261EB410105B0F3
:10287000BDE8F08FAB4284BF00242346F1D8B1FA03
:1028800081F5002D40F0B580514528BF82428CBFB4
:10289000002401249CBF01232C46E2D92346E0E713
:1028A00022B91146012000F0A3FA8046B8FA88F355
:1028B000002B49D1C8EB09094FEA18451FFA88FADD
:1028C00001242946484600F093FA294683464846A3
:1028D00000F0BCFB3A0C0AFB0BF042EA01418842D3
:1028E0000CD911EB08010BF1FF3380F0F280884224
:1028F00084BFABF1020B414440F2EB800A1A294637
:102900001046019200F074FA019A2946BFB281463E
:10291000104600F09BFB0AFB09FA47EA01418A4591
:102920000AD911EB080809F1FF3304D2C24588BF68
:10293000A9F1020900D8994649EA0B4391E7F64309
:10294000524263EB430333E708FA03F8C3F1200B69
:1029500029FA0BF409FA03F94FEA184520462946EB
:1029600027FA0BFB9F4000F043FA29461FFA88FA2A
:102970004BEA090B02462046019200F067FB019AE0
:102980004FEA1B430AFB02F043EA014188420BD99C
:1029900011EB080102F1FF3380F0A180884284BF6F
:1029A000023A414440F29B80C0EB01092946484667
:1029B000019200F01DFA29461FFA8BFB0446484697
:1029C00000F044FB019A0AFB04F94BEA01418945F6
:1029D0000AD911EB080104F1FF3304D2894584BF01
:1029E000023C414400D81C46C9EB010944EA0244B8
:1029F00067E7C5F12003A94022FA03F82AFA03FB8E
:102A000048EA010820FA03F30AFA05FA58464FEAA1
:102A1000184902FA05FC494643EA0A0ACDF80CC0F7
:102A200000F0E6F949460446584600F00FFB1FFA4D
:102A300088F24FEA1A4E02FB04F04EEA014E70454E
:102A400009D91EEB080E04F1FF3146D2704584BF50
:102A5000023CC64441D9C0EB0E0C49466046019287
:102A6000CDF808C000F0C4F9DDF808C049461FFAE7
:102A70008AFA8346604600F0E9FA019A02FB0BF2FB
:102A80004AEA01418A420AD911EB08010BF1FF30F1
:102A900021D28A4284BFABF1020B41441BD9039877
:102AA0004BEA044B891AABFB002399420DD314BFA8
:102AB0000023012307FA05F494422CBF002403F0FD
:102AC00001045B46002C3FF4CCAE0BF1FF33002435
:102AD000C7E69B4612E78346E1E70C46BBE71A468A
:102AE00062E700BF000000000000000000000000DE
:102AF0002DE9F04F064683B00D461446074688463A
:102B0000002B51D18A4264D9B2FA82F35BB1C3F18E
:102B1000200801FA03F520FA08F802FA03F448EA5B
:102B2000050800FA03F7250C404629461FFA84FAE7
:102B300000F05EF929468146404600F087FA3B0CDA
:102B40000AFB09F043EA014188420AD9091909F14F
:102B5000FF3205D2884284BFA9F10209091900D8C1
:102B60009146C0EB010829464046BFB200F040F94B
:102B700029460646404600F069FA0AFB06FA47EA8B
:102B800001418A4509D90C1906F1FF3380F01981FA
:102B9000A24588BF023E40F2148146EA0940002661
:102BA000314603B0BDE8F08F8B4284BF002630462B
:102BB000F6D8B3FA83F4002C5AD18B4228BFB24224
:102BC0008CBF002601269CBF01202646E8D930464E
:102BD000E6E722B91146012000F00AF90446B4FAEA
:102BE00084F3002B40F0A2802D1B4FEA14481FFAFB
:102BF00084FA01264146284600F0FAF8414681460B
:102C0000284600F023FA3B0C0AFB09F043EA014195
:102C100088420BD9091909F1FF3280F0D48088422B
:102C200084BFA9F10209091940F2CD80C0EB010B64
:102C300041465846BFB200F0DBF8414605465846CB
:102C400000F004FA0AFB05FA47EA01418A4509D96E
:102C50000C1905F1FF3380F0B880A24588BF023D12
:102C600040F2B38045EA0940314603B0BDE8F08F39
:102C7000C4F12001A34022FA01F825FA01F748EA3D
:102C80000308384626FA01F3A5404FEA1849A24046
:102C9000494601921D4300F0ABF849468346384649
:102CA00000F0D4F91FFA88F22F0C02FB0BF047EA70
:102CB0000147B84206D917EB08070BF1FF31C0F006
:102CC0008D808B463F1A49463846009200F090F8B6
:102CD0004946ADB28246384600F0B8F9009A02FB88
:102CE0000AF245EA01418A4205D911EB08010AF1CD
:102CF000FF306CD38246019D4AEA0B40891AA0FB43
:102D0000052399420CD306FA04F614BF00210121D1
:102D100096422CBF002601F00106002E3FF440AF82
:102D200000260138314603B0BDE8F08F9C40C3F166
:102D3000200925FA09FA06FA03F74FEA1448504623
:102D400041469D4000F054F8414626FA09F949EA07
:102D500005098346504600F079F91FFA84FA4FEAD4
:102D600019430AFB0BF043EA0141884209D90919CA
:102D70000BF1FF333AD2884284BFABF1020B091941
:102D800034D90D1A414628461FFA89F900F030F867
:102D900041460646284600F059F90AFB06F549EA7D
:102DA00001418D4209D9091906F1FF3304D28D4240
:102DB00084BF023E091900D81E464D1B46EA0B4649
:102DC00018E71E46E9E6914630E71D464AE78A4283
:102DD00084BFAAF1020A41448DD88BE7B84284BF70
:102DE000ABF1020B47443FF66DAF6AE79B46C8E77D
:102DF0004A1E08BF7047C0F02481884240F2168105
:102E0000114200F01781B0FA80F3B1FA81F2A2EB1F
:102E10000303C3F11F0304A202EB03134FF00002EC
:102E20009F4600BFAFF30080B0EBC17F00BF42EB15
:102E3000020228BFA0EBC170B0EB817F00BF42EB64
:102E4000020228BFA0EB8170B0EB417F00BF42EBD4
:102E5000020228BFA0EB4170B0EB017F00BF42EB44
:102E6000020228BFA0EB0170B0EBC16F00BF42EBC4
:102E7000020228BFA0EBC160B0EB816F00BF42EB44
:102E8000020228BFA0EB8160B0EB416F00BF42EBB4
:102E9000020228BFA0EB4160B0EB016F00BF42EB24
:102EA000020228BFA0EB0160B0EBC15F00BF42EBA4
:102EB000020228BFA0EBC150B0EB815F00BF42EB24
:102EC000020228BFA0EB8150B0EB415F00BF42EB94
:102ED000020228BFA0EB4150B0EB015F00BF42EB04
:102EE000020228BFA0EB0150B0EBC14F00BF42EB84
:102EF000020228BFA0EBC140B0EB814F00BF42EB04
:102F0000020228BFA0EB8140B0EB414F00BF42EB73
:102F1000020228BFA0EB4140B0EB014F00BF42EBE3
:102F2000020228BFA0EB0140B0EBC13F00BF42EB63
:102F3000020228BFA0EBC130B0EB813F00BF42EBE3
:102F4000020228BFA0EB8130B0EB413F00BF42EB53
:102F5000020228BFA0EB4130B0EB013F00BF42EBC3
:102F6000020228BFA0EB0130B0EBC12F00BF42EB43
:102F7000020228BFA0EBC120B0EB812F00BF42EBC3
:102F8000020228BFA0EB8120B0EB412F00BF42EB33
:102F9000020228BFA0EB4120B0EB012F00BF42EBA3
:102FA000020228BFA0EB0120B0EBC11F00BF42EB23
:102FB000020228BFA0EBC110B0EB811F00BF42EBA3
:102FC000020228BFA0EB8110B0EB411F00BF42EB13
:102FD000020228BFA0EB4110B0EB011F00BF42EB83
:102FE000020228BFA0EB0110B0EBC10F00BF42EB03
:102FF000020228BFA0EBC100B0EB810F00BF42EB83
:10300000020228BFA0EB8100B0EB410F00BF42EBF2
:10301000020228BFA0EB4100B0EB010F00BF42EB62
:10302000020228BFA0EB0100104670470CBF012030
:1030300000207047B1FA81F2C2F11F0220FA02F0BB
:10304000704708B14FF0FF30FFF77ABB0029F8D086
:103050002DE90340FFF7CCFEBDE8064002FB00F37C
:10306000A1EB0301704700BF00000000000000005A
:1030700041F20463C2F200031868704700000000C8
:103080000F2AF0B445D940EA01039B0745D1A2F1CC
:1030900010070C4603463F0900EB0716103625685B
:1030A0001033103443F8105C54F80C5C43F80C5C9B
:1030B00054F8085C43F8085C54F8045C43F8045C7A
:1030C000B342ECD17B1C02F00F0CBCF1030F4FEAB2
:1030D00003131944034422D90E461D46644656F88C
:1030E000047B043C032C45F8047BF8D8ACF10404C1
:1030F00002F0030224F0030404342344214432B1D7
:103100000A4411F8014B914203F8014BF9D1F0BC8C
:1031100070470346002AF3D1F9E70346F0E7624619
:10312000002AEDD1F3E700BF00000000000000001E
:103130008307F0B448D0541E002A43D0CDB20346D2
:1031400002E0002C3ED0144603F8015B13F0030F9D
:1031500004F1FF32F5D1032C2DD9CDB20F2C45EA65
:10316000052545EA054518D9A4F1100703F1100615
:103170001A463F0906EB07161560103242F80C5C40
:1031800042F8085C42F8045CB242F5D104F00F0446
:103190000137032C03EB07130DD91E462246043AD0
:1031A00046F8045B032AFAD8221F04F0030422F035
:1031B0000302043213442CB1C9B21C4403F8011BAE
:1031C000A342FBD1F0BC704714460346C3E700BFDF
:1031D000C9B2F0B4002947D084070FD00278002A82
:1031E0003FD091423ED0431C05E013F8012B002A4A
:1031F00037D0914236D09A071846F6D141EA0127D6
:10320000036847EA0747A3F1013483EA070224EA87
:103210000303A2F1013424EA0202134313F0803FB6
:1032200011D1021D104652F8043B83EA0704A3F1B2
:103230000136A4F1013526EA030325EA04042343F9
:1032400013F0803FEED00378002B3BD0994209D099
:10325000431C01E0914205D0184613F8012B002AC7
:10326000F8D11046F0BC704781070DD00378002BD1
:10327000F8D0431C02E00278002AF3D013F0030FC9
:10328000184603F10103F6D10368A3F1013222EAE3
:10329000030313F0803F0AD1031D184653F8042B93
:1032A000A2F1013121EA020212F0803FF5D0037849
:1032B000002BD7D0431C184601330278002AFAD1DC
:1032C000F0BC70471846CDE7000000000000000089
:1032D00080EA0102844612F0030F4FD111F0030F70
:1032E00032D14DF8044D11F0040F51F8043B0BD0CE
:1032F000A3F101329A4312F0803F04BF4CF8043B23
:1033000051F8043B16D100BF51F8044BA3F1013230
:103310009A4312F0803FA4F101320BD14CF8043BE8
:10332000A24312F0803F04BF51F8043B4CF8044B19
:10333000EAD023460CF8013B13F0FF0F4FEA33238A
:10334000F8D15DF8044B704711F0010F06D011F869
:10335000012B0CF8012B002A08BF704711F0020F57
:10336000BFD031F8022B12F0FF0F16BF2CF8022B42
:103370008CF8002012F47F4FB3D1704711F8012B65
:103380000CF8012B002AF9D1704700BF00000000A3
:1033900020F0030110F00300C0F1000051F8043BDD
:1033A00000F1040C4FEACC0C6FF000021CBF22FAB3
:1033B0000CF213434FF0010C4CEA0C2C4CEA0C4C71
:1033C000A3EB0C0222EA030212EACC1204BF51F86A
:1033D000043B0430F4D013F0FF0F1FBF013013F48F
:1033E0007F4F013013F47F0F18BF0130704700BFCB
:1033F000F0B4002A4BD040EA010313F003032DD1AF
:10340000032A2BD904680D68AC4227D1043A3ED078
:10341000A4F1013525EA040414F0803F3DD10C46A7
:1034200005460EE06B68054666680C46A3F1013759
:10343000B34227EA030711D1043A28D017F0803F9E
:1034400028D1032A00F1040001F10401EAD8561E34
:103450002AB928792279801AF0BC7047561E037861
:103460000A7893421BD1E6B1BBB101368B1C0446EE
:10347000314405E08B4203F101030BD00028EBD06F
:1034800014F8010F13F8012C9042F3D0E3E7104633
:10349000F0BC70470020F0BC70471846DCE71846C7
:1034A000D9E73046D8E700BF000000000000000068
:1034B00040EA01039B0770B42BD1032A84BF0B465B
:1034C000054626D9194653F8044BA4F1013626EADD
:1034D000040616F0803F05D1043A45F8044B032A50
:1034E0001946EFD89AB10C78013A6B1C2C703CB19C
:1034F0006AB111F8014F013A03F8014B002CF7D1E2
:103500002AB11A44002103F8011B9342FBD170BC7D
:1035100070470546E6E700BF00000000000000001D
:1035200038B502460C46002511B909E0421C054693
:1035300010462146FFF74CFE0028F7D1284638BD3B
:10354000BDE83840FFF744BE000000000000000066
:103550004FF0010C2DE9F003644600254FF0FF36D3
:10356000631987198B420DD23F5D10F80380B8456F
:103570002FD21D460124C6EB030C63198B4200EBCE
:103580000607F1D34FF0010900254C464FF0FF37F5
:10359000C2F800C0631900EB070C99420ED91CF861
:1035A00004C010F80380E0451AD91D460124C7EB7A
:1035B00003096319994200EB070CF0D80137013673
:1035C000B74226BFC2F8009038463046BDE8F00347
:1035D00070470CD04FF0010C2E4664466544BFE79F
:1035E0000CD04FF001092F464C464D44D2E76445BC
:1035F00004F10104B4D11D460124B1E74C4504F1A6
:103600000104C7D11D460124C4E700BF2DE9F04FD6
:10361000ADF2244D164680460D461046194607AABF
:103620001C46FFF795FF07AB0DF21C42039043F8D1
:10363000044F9342FBD1671E002308A834B1F25C0B
:10364000F91A0133A34240F82210F8D10799304605
:10365000039A314400F04CFA002840F08180DDF8F4
:103660000CC02A468246671E0CF1FF3CCDF808C00C
:10367000B444CDF810C0DDF80CC005460196CCF17D
:10368000010CCDF814C008E025B1079A934238BF69
:10369000C2EB04039A44002532460AEB040608EB09
:1036A00002000021B21A00F0DBF9002853D1002EED
:1036B00051D008EB060308A913F8013C51F8233058
:1036C000002BE1D1039A954228BF2A46BA4212D272
:1036D000019908EB0A03985C11F802C01144844573
:1036E00006D032E011F8010F13F802C084452CD146
:1036F0000132BA42F6D3039B02989D4228BF184676
:103700001CD2DDF810C008EB0A039CF80010DDF8AD
:1037100008C013F80C20914240F08680DDF804B018
:10372000049AAB4406E012F8019D13F801C0E1458C
:1037300004D108465A4500F1FF31F4D101358542E4
:1037400074D8079DAA44651BA6E7DDF814C00025C0
:10375000E2449244A0E700200DF2244DBDE8F08F32
:10376000DDF80CC02A46DDF80CA04FF0000BCCEBC6
:1037700004030DF12009634538BF6346671E01331A
:10378000254607930CF1FF33B444CDF808C0DDF8AB
:103790000CC00193CCF1010CCDF810C00BEB05046B
:1037A00008EB02000021A21A00F05AF90028D2D139
:1037B000002CD0D008EB040313F8013C59F8233057
:1037C00053BBBA4508EB0B0013D2029B1A7810F8D2
:1037D0000A309A4218BF534621D1029A534605E057
:1037E00012F8011F10F803C08C4518D10133BB42F9
:1037F000F6D3019B5A1CAFD0DDF804C016F80C10AC
:1038000010F80C20914206D113F1FF33A4D3F15CE0
:10381000C25C9142F8D0079B9B442246BEE7DDF88C
:1038200010C0E3449B44F8E7039887E708EB0A00DD
:1038300092E700BF2DE9F04F8046037887B00E462F
:10384000002B00F001810A789AB1844601310124ED
:1038500002E011F8012B5AB1934214BF002404F086
:1038600001041CF8013F0D46002BF2D12B7813BB4D
:103870001CB1404607B0BDE8F08F08F10100317877
:10388000FFF7A6FCAD1B012D18BF0028074608BF97
:103890000046EFD0A844474594BFC7EB0804012475
:1038A0001F2D0CD93846214632462B46FFF7AEFE77
:1038B00007B0BDE8F08F002007B0BDE8F08F2946C3
:1038C00005AA3046FFF744FE0599314400900246B0
:1038D000304600F00DF9002857D1009B8346804602
:1038E0002246013B019333440293009BC3F1010341
:1038F000039308EB0504B8180021A21A00F0B0F8F1
:103900000028D8D1002CD6D0009B9B4528BF5B4611
:103910009D4214D9F918F05CF21811F80810884289
:1039200040F08C8007EB080C06E012F8011F1CF831
:103930000300884240F0828001339D42F5D8009B0D
:1039400001995B4540F28380029B07EB08091A78D6
:1039500019F801309A427AD1029B06EB0B0A06E075
:1039600013F801CD19F80200844504D111465345DE
:1039700001F1FF32F4D10BF1010B8B4569D8059BA6
:103980009844C3EB050B2246B3E700984FF0000BB9
:1039900022462B1A8146834238BF0346B144013385
:1039A0000593009B38440190C3F101030293009BEF
:1039B00003F1FF389A460BEB0504B8180021A21A50
:1039C00000F04EF800287FF476AF002C3FF473AF80
:1039D000554598BF07EB0B0014D9019899F80020C2
:1039E00010F80B309A4224D14A46534607EB0B009D
:1039F00005E012F8011F10F803C08C451AD10133FD
:103A00009D42F6D8B8F1FF3F43463FF433AF16F876
:103A1000081010F80820914207D113F1FF33FFF48A
:103A200029AFF15CC25C9142F7D0059B9B442246D2
:103A3000C1E75346029A93449B44F8E703994FF039
:103A4000000B884498449EE70D4601240EE7009938
:103A500091E707EB08000DE7000000000000000000
:103A60008307C9B270B43FD0541E2AB303788B4287
:103A700023D0431C04E0FCB1057814468D421CD0D1
:103A800013F0030F184604F1FF3203F10103F2D1E2
:103A9000032C14D8651E4CB303788B420DD0421C06
:103AA000002302E004788C4207D0AB42104603F1B9
:103AB000010302F10102F5D1002070BC704741EA18
:103AC0000126034646EA0646184604330268724059
:103AD000A2F1013525EA020212F0803FDAD1043C5E
:103AE0001846032CF0D8D5E71446D1E72046E4E782
:103AF000032A70B412D940EA01039B070FD10C4688
:103B0000034621461846043404330D680668AE4265
:103B100004D1043A1846032A2146F2D8C2B10578E6
:103B20000C78A54204BF02F1FF32002306D00CE05E
:103B300010F8015F11F8014FA54206D1934203F13D
:103B40000103F5D1002070BC7047281B70BC704782
:103B50001046F8E700000000000000000000000030
:103B6000704700BFAFF30080AFF30080AFF3008079
:103B7000FEE700BFAFF30080AFF30080AFF300803B
:103B800072B641F20060C2F2000080F309884EF67E
:103B90003472CEF200024EF68853CEF200034FF09C
:103BA000404111601A6842F470021A600023E1EE8D
:103BB000103A4EF63C73CEF2000300221A60062340
:103BC00083F31488BFF36F8F40F2000341F20002C9
:103BD000C2F20003C2F2000293420BD2D943114455
:103BE00021F0030119444FF05532043B43F8042FF0
:103BF0008B42FBD141F20003C2F2000383420CD29C
:103C000037491A1D891A21F0030119444FF0553222
:103C1000043B43F8042F8B42FBD107F069FF41F2CC
:103C2000006141F63C13C2F20001C2F20003994266
:103C30000ED2CC431C4424F0030442F2002004348E
:103C4000C0F603000023C258CA500433A342FAD17D
:103C500041F6401349F61842C2F20003C2F20102D3
:103C600093420AD2D943114421F00301194400229E
:103C7000043B43F8042F8B42FBD1FFF771FF40F266
:103C8000AC1540F24823C0F60005C0F600039D4283
:103C90000BD2EE431E44B6080136043D0024013425
:103CA00055F8043F9847B442F9D1FDF731FA40F294
:103CB000482540F24823C0F60005C0F600039D42A7
:103CC0000BD2EE431E44B6080136043D00240134F5
:103CD00055F8043F9847B442F9D1FFF749FF00BFB8
:103CE00003160020AFF30080AFF30080AFF3008035
:103CF000FEE700BFAFF30080AFF30080AFF30080BA
:103D000072B6FEE7AFF30080AFF30080AFF3008040
:103D100000F0CEF900F06CFC00F0EAF900DF00BF23
:103D20004EF63073CEF200035A6822F001025A6058
:103D3000EFF30983683383F30988002383F3118841
:103D4000704700BFAFF30080AFF30080AFF3008097
:103D500008B54FF46D43CEF200034FF44072C0F249
:103D6000FA52002199600720DA60102100F0E0F893
:103D70000A20202100F0DCF80B206021BDE808407B
:103D800000F0D6B8AFF30080AFF30080AFF300804F
:103D9000202383F311884FF46D43CEF200035B6858
:103DA00013F4006328D0F1EE10FAEFF309834EF616
:103DB0003072CEF200024FF08071D26843F84C1C92
:103DC00043F8082CA3F1680282F3098840F2985264
:103DD000C1F200029169887F88B110688A688168A1
:103DE000914294BF0022012292B143F61152C0F6D3
:103DF000000243F8502C704783F311887047106815
:103E00008A688168914234BF00220122002AECD1E5
:103E100043F61C52C0F6000243F8502C704700BF16
:103E200008B500F0CDF9202383F3118800F080F964
:103E300000F0E6F800F09CF9002383F3118800F00D
:103E4000EFF9BDE80840FFF7A3BF00BFAFF3008064
:103E50002DE9F04F2DED108AC1F80CD0D0F80CD020
:103E6000BDEC108ABDE8F08FAFF30080AFF30080A7
:103E700008B500F03DF9002383F311882846A047D8
:103E800000F09EFC08BD00BFAFF30080AFF30080E0
:103E900020F0030303F1604303F56143F0B400F045
:103EA00003024409D3F80053D200FF26A400964031
:103EB00004F1604404F5614425EA060501279140B8
:103EC00000F01F0007FA00F045EA0102C3F80023E2
:103ED000C4F880012060F0BC704700BFAFF30080E1
:103EE00041094FF4614230B4203100F01F04012534
:103EF000CEF2000220F0030305FA04F403F160435C
:103F000042F8214003F5614300F00300D3F8002399
:103F1000C000FF2101FA00F022EA0000C3F800030C
:103F200030BC7047AFF30080AFF30080AFF3008088
:103F300020F0030303F1604303F56D4300F0030039
:103F400010B4C0009A69FF24844022EA0402814030
:103F50000A439A615DF8044B704700BFAFF30080DD
:103F600040F29852C1F2000247F640639269C0F6EF
:103F700002039361FEE700BFAFF30080AFF3008060
:103F800010B582B0FFF7E4FE00F022FA00F0B0F9BD
:103F900000F0CEFF01F01CF840F200004021C1F219
:103FA000000000F035FB40F298530122C1F20003FB
:103FB0000277986100F05CF8002383F3118862B601
:103FC00040F29853C1F2000347F6B0729C69C0F604
:103FD0000202002140F2480043F66173A261C0F67C
:103FE0000003009101224FF4AA61C1F2000000F029
:103FF00087FB02B010BD00BFAFF30080AFF30080BD
:10400000F8B500F035F940F29853C1F200039B690E
:104010009A7F0AB1013A9A7740F2B453C1F2000391
:10402000DA681C6801329C42DA601DD0A768013F43
:10403000A760CFB91E462268E568E76053601A6042
:1040400000F096F8002383F311882069A847202305
:1040500083F3118800F06CF83468A26840F2B4531E
:10406000C1F20003002AE6D0F8BD00BFAFF3008024
:1040700041F64013C2F200031B682BB941F644130A
:10408000C2F200031B685BB147F6806047F65861D7
:10409000C0F60200C0F602014FF48C721DF028BC7D
:1040A000704700BFAFF30080AFF30080AFF3008034
:1040B00041F64013C2F2000310B51B6841F64414E8
:1040C000C2F200040BB923685BB147F6886047F67B
:1040D0005861C0F60200C0F602014FF48C721DF068
:1040E00007FC0123236010BDAFF30080AFF3008015
:1040F00041F64013C2F2000310B51B6841F64414A8
:10410000C2F200042BB92368002B02DD00232360D8
:1041100010BD47F6A46047F65861C0F60200C0F62D
:1041200002014FF48C721DF0E3FB0023236010BDED
:1041300041F64013C2F2000310B51B6841F6441467
:10414000002BC2F2000401DD23685BB147F6AC60CE
:1041500047F65861C0F60200C0F602014FF48C72B7
:104160001DF0C6FB0123236010BD00BFAFF300802C
:1041700041F64013C2F2000310B51B6841F6441427
:10418000002BC2F2000405DD2368002B02DD0023B2
:10419000236010BD47F6CC6047F65861C0F60200B8
:1041A000C0F602014FF48C721DF0A2FB00232360C5
:1041B00010BD00BFAFF30080AFF30080AFF300800D
:1041C00010B5202383F3118841F64014C2F2000495
:1041D0002268002A05DB41F64413C2F200031B6883
:1041E00063B147F6D46047F658614FF48C72C0F65D
:1041F0000200C0F602011DF07BFB226847F68473C3
:10420000C2F200030132196822608A42C8BF1A60F4
:10421000002383F3118810BDAFF30080AFF300805B
:1042200010B5202383F3118841F64014C2F2000434
:104230002268002A05DD41F64413C2F200031B6820
:1042400063B147F6DC6047F658614FF48C72C0F6F4
:104250000200C0F602011DF04BFB2268013A226009
:10426000002383F3118810BDAFF30080AFF300800B
:1042700041F64013C2F200031B68002B07DB41F636
:104280004413C2F200031B68002B00DD704747F6A1
:10429000E46047F65861C0F60200C0F602014FF430
:1042A0008C721DF025BB00BFAFF30080AFF3008020
:1042B00041F64013C2F200031B683BB941F64413B8
:1042C000C2F200031B68002B00DD704747F6087040
:1042D00047F65861C0F60200C0F602014FF48C7236
:1042E0001DF006BBAFF30080AFF30080AFF300809A
:1042F00040F2B453C1F200034FF0FF3100225B6083
:104300001B609960DA607047AFF30080AFF3008004
:10431000F8B5054616460C461F46FFF7A9FF002EC6
:1043200018BF002D1CD0DCB140F2B451C1F2000125
:104330002F610B68EE609A68944204D91B68A41A36
:104340009A68A242FAD35A682B606A608B425D6019
:104350001560AC601EBF9A68C4EB02049C60F8BD97
:1043600047F6107047F62071C0F60200C0F6020151
:1043700051221DF0BDFAD7E7AFF30080AFF3008004
:1043800010B50446FFF774FF8CB1236840F2B452B5
:10439000C1F2000293421FBF9968A26852189A6046
:1043A00062681360236800215A60E16010BD47F61F
:1043B000407047F62071C0F60200C0F602016D227F
:1043C0001DF096FAE1E700BFAFF30080AFF3008085
:1043D00040F29853C1F2000300225B601B605B61F6
:1043E0001B619A60704700BFAFF30080AFF300809D
:1043F00010B50446FFF73CFF00232377A16840F285
:104400009853C1F200031B689A688A42FBD25A682B
:104410002360626020465C60146010BDAFF30080D2
:1044200038B50446202383F31188FFF781FE257FEA
:10443000032D0ED00D2D10D0ADB14FF0FF33236200
:104440002046FFF7D5FFFFF793FE002383F3118883
:1044500038BD236A9A6801329A6094E80C001A60A9
:1044600022685360E9E7FFF783FE2B4683F3118848
:1044700038BD00BFAFF30080AFF30080AFF3008022
:1044800070B50546FFF714FF40F29853C1F20003E0
:1044900014261A68996914680D7701258E77636070
:1044A00015771C601046BDE870409A61FFF7D0BCDC
:1044B00070B50D4686B00646FFF7FAFE6B1C18D0A5
:1044C00040F29854C1F2000444F22142A369294603
:1044D00001A8C0F60002FFF71BFF3046FFF7D0FF30
:1044E000049B13B101A8FFF74BFFA369186A06B03C
:1044F00070BD40F29854C1F200043046FFF7C0FF8F
:10450000A369186A06B070BDAFF30080AFF30080F6
:1045100070B540F29855C1F2000504460E46FFF70B
:10452000C7FEA869A3688268266293420AD9FFF78A
:104530005FFF012323770146AC612046BDE8704050
:10454000FFF786BC2046BDE87040FFF751BF00BFB3
:1045500070B540F29854C1F2000414212368A56993
:104560001A680126546028461E77A9772260A36145
:10457000FFF73EFF2946A069BDE87040FFF768BC21
:1045800040F29852C1F2000270B410689569036855
:10459000AC681360012600215A60067703469061DB
:1045A000297700E01B689A68A242FBD85A682B6002
:1045B0006A6029465D60156070BCFFF749BC00BFAA
:1045C00008B5FFF775FE40F29853C1F200031A6870
:1045D0009B6992689B689A4200D808BDBDE8084074
:1045E000FFF7CEBFAFF30080AFF30080AFF30080E2
:1045F00040F29853C1F200039B699B7F0BB1FFF718
:10460000BFBFFFF7A5BF00BFAFF30080AFF30080CF
:10461000F0B440F29852C1F2000200245569447788
:1046200000F1240614274FF0020C456102618160FD
:1046300087774463046384618163506180F81CC0A0
:10464000286186624662F0BC704700BFAFF300800D
:104650002DE9F04799460E4604461746FFF708FE37
:10466000B6F5A87F2CBF00230123002C08BF43F020
:10467000010343B9D9F1010338BF00237F2F88BF5D
:1046800043F0010353B147F6507047F66471C0F62A
:104690000200C0F60201A6221DF02AF940F2985548
:1046A000C1F20005A6F164012144089B6A69E1603A
:1046B00043F671600026C0F600004FF0020A4FF08A
:1046C000140C0866C1F840904B6404F1240884F887
:1046D0001CA0667784F81EC0A76025616261A7638D
:1046E0006C6166632663A66120461461C4F8288065
:1046F000C4F82480BDE8F087AFF30080AFF30080FA
:104700002DE9F04182B01D4680460F461646089CB2
:10471000202383F31188FFF7CBFC2B46324600940D
:1047200039464046FFF794FF00210446FFF7F0FEAC
:10473000FFF7DEFC002383F31188204602B0BDE8BA
:10474000F08100BFAFF30080AFF30080AFF30080D3
:1047500010B5044658B947F6A07047F66471C0F624
:104760000200C0F602014FF493721DF0C1F820233D
:1047700083F31188FFF79CFC21460620FFF798FE83
:10478000FFF7B6FC002383F3118810BDAFF3008060
:1047900040F29853C1F200039B695A7F1862920756
:1047A00001BF5A69196911611B694FF00E0008BFFA
:1047B0005A61FFF765BE00BFAFF30080AFF3008022
:1047C00010B52023044683F31188FFF771FC2046BF
:1047D000BDE81040FFF7DCBFAFF30080AFF300800F
:1047E00038B5D0F1010338BF002353EAD173044632
:1047F0000D460AD047F6D07047F6E071C0F60200C9
:10480000C0F6020158221DF073F864602460A560B0
:1048100038BD00BFAFF30080AFF30080AFF300807E
:1048200038B504460D46FFF743FDC4B1A268531ED8
:10483000002BA36001DB002038BDE5B140F29853A6
:10484000C1F2000329469B691C6262681C605A60C1
:10485000032063601360BDE83840FFF729BE48F2CB
:10486000200047F6E071C0F60200C0F60201FD220A
:104870001DF03EF8DAE7A2604FF0FF3038BD00BF10
:1048800010B50446FFF7F4FC84B1A3680133002B94
:10489000A36000DD10BD23681A6800212260546007
:1048A00019621846BDE81040FFF7A2BD48F2480063
:1048B00047F6E071C0F60200C0F602014FF49972AB
:1048C0001DF016F8E1E700BFAFF30080AFF3008002
:1048D00010B5044620B1002364602460A36010BDBD
:1048E00048F2800048F29001C0F60200C0F60201D2
:1048F00058221CF0FDFFEEE7AFF30080AFF300801D
:10490000F8B540F29853C1F2000305469C69FFF7E1
:10491000CFFC002D45D0A86800283DD0A168836851
:1049200099421DD9037F8160002B2DD0042B17D114
:1049300003684268066A1360076833467A6002E0DB
:104940009A688A4202D31B689E42F9D15A68036072
:10495000426058601060B068A16883688B42E1D300
:104960002B4603E09968A268914202D31B689D42DE
:10497000F8D15A68236062605C601460256204208C
:10498000BDE8F840FFF77CBD90E80C001A600268B3
:104990005360FFF72DFDE3E7636BAC60EB6065638D
:1049A000F8BD48F2B00048F29001C0F60200C0F62F
:1049B00002017D221CF09CFFADE700BFAFF3008039
:1049C00010B52023044683F31188FFF771FB2046BE
:1049D000FFF796FFFFF78CFB002383F3118810BDD0
:1049E00040F29852C1F2000270B52023966983F319
:1049F0001188FFF75DFB746B2568E368A54273635C
:104A00001ED0B16B4BB11A689A4203D092689142A2
:104A100038BF1146DB68002BF5D16A6B2B68B1609B
:104A20002846236000215C60A560E2606C63FFF7AC
:104A30006FFDFFF75DFB002383F31188204670BDF7
:104A40000023A360F5E700BFAFF30080AFF3008061
:104A5000002918BF0028F8B505460C4617460AD1AC
:104A600048F2E00048F2F801C0F60200C0F6020188
:104A700057221CF03DFF202383F31188FFF718FB1A
:104A800040F29853C1F200032A689B692260002615
:104A90002C606360A760E660FFF72AFB334683F370
:104AA0001188F8BDAFF30080AFF30080AFF3008052
:104AB00038B504460D46FFF7DBFBBCB1226B237F04
:104AC00045EA0201082B21630CD0092B00D038BD28
:104AD000236A19408B42FAD12046FFF789FC002354
:104AE000036238BD236A1942F6D138BD48F230104E
:104AF00048F2F801C0F60200C0F60201FE221CF0E6
:104B0000F7FEDBE7AFF30080AFF30080AFF3008088
:104B100070B505460E46FFF7ABFB65B12C68A542A4
:104B200008D0201D0BC83343E360FFF7C1FF2468A2
:104B3000A542F6D170BD48F2441048F2F801C0F623
:104B40000200C0F60201BC221CF0D2FEE6E700BF64
:104B500003460022C068DA60704700BFAFF30080F0
:104B600010B4024679B140F29853C1F200030D200F
:104B70009B691A62546883E81400536023605DF8EF
:104B8000044BFFF795BC4FF0FF305DF8044B7047C6
:104B900030B4029C406000250A44856004620261D2
:104BA000006041618161C160C36130BC704700BF7A
:104BB00038B50446FFF75CFB2068E3680022A0429A
:104BC0006361A260A3610AD06FF0010503682360EE
:104BD0005C60FFF70DFC05622068A042F6D138BD8D
:104BE00038B504460D46FFF743FB6369A269A16827
:104BF00093421BD05A1C01316261A1601D70626931
:104C000023699A420BD22068A0420DD0036823602A
:104C10005C60FFF7EDFB00230362184638BD206897
:104C2000E368A0426361F1D1002038BD0029E1D0E2
:104C30006FF0030038BD00BFAFF30080AFF300801A
:104C4000F8B504460E46202383F31188FFF730FAA7
:104C5000E36933B12046984703E0FFF781FF071E61
:104C600018DBA56820463146002DF6D0A2692169DF
:104C7000531C8B42A36105F1FF3528BFE368A56093
:104C8000177828BFA361FFF733FA002383F3118855
:104C90003846F8BDFFF72CFA2B4683F311883846C7
:104CA000F8BD00BFAFF30080AFF30080AFF300802A
:104CB0002DE9F047044615460F461E46D0F81C80E5
:104CC000002A3DD0202383F31188FFF7F1F907EB89
:104CD000050A4FF000090137B8F1000F05D0204652
:104CE000C04702E0FFF73CFF10BBA56820463146F5
:104CF000002DF7D0A369013D5A1CA261A5601B7865
:104D000007F8013C2369A2699A4224BFE368A361C2
:104D1000FFF7EEF9002383F31188574509F10109E4
:104D20000BD0202383F31188FFF7C2F90137D3E7B3
:104D3000FFF7DEF92B4683F311884846BDE8F0877C
:104D400048F2801048F29411C0F60200C0F6020149
:104D5000E7221CF0CDFDB5E7AFF30080AFF3008094
:104D600030B4029C40608D1805610462006082606E
:104D700041618161C160C36130BC7047AFF30080A5
:104D800038B50446FFF774FAE36822692068636166
:104D9000D21AA042A361A2600AD06FF00105036895
:104DA00023605C60FFF724FB05622068A042F6D117
:104DB00038BD00BFAFF30080AFF30080AFF30080D9
:104DC0002DE9F041202304468846164683F31188D6
:104DD000FFF76EF903E0FFF7C3FE071E1DDBA568B2
:104DE00020463146002DF6D06369013D5A1C6261B0
:104DF000A56083F80080236962699A4224BFE36852
:104E00006361E3690BB120469847FFF771F900230E
:104E100083F311880020BDE8F081FFF769F92B4684
:104E200083F311883846BDE8F08100BFAFF30080FE
:104E300038B50446FFF71CFAA3696269A0689A4274
:104E400016D021695A1C0130A060A2618A421D78E7
:104E50000BD22068A04206D0036823605C60FFF795
:104E6000C7FA00230362284638BDE368A361F0E770
:104E70000028E6D06FF0020038BD00BFAFF300801D
:104E80002DE9F84F044617460E469B46D0F81CA065
:104E9000002A3AD0202383F31188FFF709F94FF055
:104EA0000009A56806F1010820466A1EFDB1636984
:104EB000A2605A1C626132781A70236962699A4250
:104EC00024BFE3686361BAF1000F00D0D047FFF759
:104ED0000FF9002383F31188013F09F1010911D073
:104EE000202383F31188FFF7E3F84646D9E72046ED
:104EF0005946FFF735FE0028D3D0FFF7F9F82B46C7
:104F000083F311884846BDE8F88F48F2B81048F29C
:104F10009411C0F60200C0F6020140F29B121CF090
:104F2000E7FCB7E7AFF30080AFF30080AFF300809A
:104F30004CF2000140F2C45240F2C8530648C2F29B
:104F40000101C1F20002C1F2000321F0070120F0CB
:104F500007001160186070471F9C0120AFF30080AC
:104F600010B50446FFF784F940F2C85340F2C4522A
:104F7000C1F20003C1F2000219681268E01D20F0BE
:104F80000700521A90429DBF401818600846002042
:104F900010BD00BFAFF30080AFF30080AFF300801F
:104FA00010B52023044683F31188FFF781F82046CB
:104FB000FFF7D6FF0446FFF79BF8002383F3118821
:104FC000204610BDAFF30080AFF30080AFF3008048
:104FD00040F2D053C1F2000344F6A1720021C0F6A2
:104FE000000203F110001A609960D960FFF770BCED
:104FF000F8B540F2D056C1F20006002818BF0646A8
:10500000073106F1100021F0070506F10804FFF74B
:10501000D7FC03E05A68954211D91C462368002B3F
:10502000F8D1FFF7DDFC33681BB305F108009847A2
:10503000F8B10660456000F108042046F8BD05F1AE
:105040000801914208D91A6822601C4644F8086B8E
:10505000FFF7C6FC2046F8BD4FF6F870CFF6FF709C
:10506000401B5F180244186858507A6027605D60E2
:10507000EBE70024E1E700BFAFF30080AFF300806F
:1050800070B50546002846D055F8080C00F1080414
:105090001030FFF795FCA5F108012346A34204D088
:1050A0008B4202D31B68A342FAD11A681AB191420B
:1050B00001D31346F2E755F8040C45F8082C1960A3
:1050C00000F1080255F8086C8C18B44209D05A68EF
:1050D00002F108001844814211D0BDE87040FFF78A
:1050E0007FBC64688A582044083045F8040C45F8B1
:1050F000082C5A6802F1080018448142EDD155F895
:10510000040C55F8081C0244083283E80600BDE888
:105110007040FFF765BC48F2002048F2E011C0F68D
:105120000200C0F60201C6221CF0E2FBACE700BFA1
:10513000F0B4002B08BF0B4600F10B0700F10A0585
:10514000B1FBF2F602FB161101F13004392CC8BF95
:1051500001F13704E4B2B3FBF2F331462E4605F811
:105160000149002BECD1BA1B3346024401E013F88D
:10517000014F00F8014B9042F9D1F0BC704700BFDD
:105180002DE9F04717469846064600220023384688
:105190004146DDF82090FCF7EBFE60B12D2408F1CC
:1051A00000483846414606F8014B00220023FCF730
:1051B000DFFE0028F3D138464146FBF7B9FF00284F
:1051C0003CD0B9F1000F34D04CF6CD4ACCF6CC4AE5
:1051D000AAFB093A4FEADA0A41463846FCF7F0FEE4
:1051E000044621460A2230460023FFF7A1FF064667
:1051F0002E2306F8013B2046FCF7DCFB02460B465B
:1052000038464146FCF788FA044648460D46FCF706
:10521000C1FB02460B4620462946FCF731FCFCF751
:10522000CFFE534601460A223046BDE8F047FFF75D
:105230007FBF4FF00A0A4FF06409CDE74E23612289
:105240003370B3707270F01CBDE8F087AFF300806C
:105250002DE9F04F8DB00DF1190303930746039824
:105260000DF1180B48F21023CBEB0000C0F602033F
:105270000C461646059004932178631C51B12529EC
:105280000BD03A681C469268384690472178631CD8
:105290000029F4D10DB0BDE8F08F62782D2A03BF4C
:1052A000A278A31C4FF0010C4FF0000C2E2A18BF5F
:1052B000302A03BF5A7801334FF030084FF02008EE
:1052C0001C46002506E03378043605EB8505227878
:1052D00003EB4505A2F13003DBB2092B04F1010415
:1052E000F3D92A2AEFD02E2A4FF0000949D002F034
:1052F000DF034C2B03D123780BB101341A46A2F102
:105300004403342B00F2EE80DFE813F07A00EC0067
:10531000EC00EC00EC007A00EC00EC00EC00EC009F
:10532000EC007800EC00EC00EC00EC00EC00450038
:10533000EC00EC00EA00EC00EC00EC00EC00EC000F
:10534000EC00EC00EC00EC00EC00E0007A00EC007B
:10535000B100EC00EC007A00EC00EC00EC00EC009A
:10536000EC007800EC00EC00EC008E00EC00450056
:10537000EC00EC00EA003378043609EB890903EB12
:10538000490914F8012BA2F13003DBB2092BF4D93F
:105390002A2AF0D0ABE70A22316858460023FFF7EB
:1053A000C7FE0436DA46CBEB0009C9EB050525EA52
:1053B000E575BCF1000F0DD16D425DB19AF800109A
:1053C0002D2900F095803B6838469B6841469847F8
:1053D0000135F8D1B9F1000F05DD3B6851464A4669
:1053E0001B6838469847002D3FF446AF3B68384667
:1053F0009B6841469847013DF8D13DE70822CBE73D
:1054000031680029BFBF2D208DF8180049420DF1E9
:105410001900A8BF58460A220023FFF789FE043668
:10542000DA46CBEB0009C0E7D6F800A0049BBAF13E
:10543000000F08BF9A4647F6FF729AF8003004360C
:10544000B9F1000F08BF9146002B63D00AEB0902A7
:10545000D14601E0914558D099F8013009F1010990
:10546000002BF7D1CAEB09094FF020089DE707365A
:1054700026F00706D6E90001CDF808C0FCF7C8FD04
:1054800007EE900AF5EEC07AF1EE10FADDF808C0EA
:1054900044BFF1EE677A2D2317EE900A4ABF0DF153
:1054A000190ADA468DF81830CDF808C0FCF794FADE
:1054B000CDF8009002460B465046FFF761FE0836D5
:1054C000DA46CBEB0009DDF808C06EE73368DDF89B
:1054D00014908DF8183004364FF02008DA4664E74F
:1054E000102259E78DF81820DDF81490DA465CE7B1
:1054F000B8F1300F7FF467AF3B6838469B68984738
:105500000AF1010A09F1FF395DE7CAEB02094FF020
:1055100020084AE799464FF0200846E7AFF300809D
:10552000C36882689A421FBF4268D154C36801337E
:105530001ABFC36000206FF001007047AFF3008016
:105540000269C168914218BF416803461DBF885C6B
:1055500001321A616FF00100704700BFAFF30080A5
:1055600038B5044608462369E5686168ED1AAA4221
:1055700038BF154619442A46FDF782FD23692B449E
:105580002361284638BD00BFAFF30080AFF3008031
:1055900038B5C36885680446ED1A4068AA4238BF2A
:1055A000154618442A46FDF76BFDE3682B44E3607B
:1055B000284638BDAFF30080AFF30080AFF3008022
:1055C00030B448F22024C0F60204002504600561CE
:1055D00041608260C36030BC704700BFAFF30080A1
:1055E000002910B41CDD02464418002012F8011BEB
:1055F0000823484010F0800F4FEA40001CBF80F0A5
:105600002700C04303F1FF3314BF00F0FE00C0B217
:1056100013F0FF03EED1A242E8D15DF8044B7047CE
:105620000020FAE7AFF30080AFF30080AFF3008013
:1056300010B4A1B148F230240144C0F602044FF086
:10564000FF3310F8012B5A40D2B2884254F822207E
:1056500082EA1323F5D1D8435DF8044B704708461E
:10566000FAE700BFAFF30080AFF30080AFF3008034
:105670002DE9F04104461E468846174618F050FBB7
:10568000E368054613B12046FEF77AFE2046414600
:105690003A463346FEF73CFE0DB1BDE8F081BDE869
:1056A000F04118F065BB00BFAFF30080AFF300809E
:1056B00008B502F0CDFF49F2A020C0F6020004F0C8
:1056C000D7F800F045F800F0ABF800F099F900F0D9
:1056D000CFF900F03DFA00F04BFA00F071FF01F055
:1056E00007F801F085FA01F0FBFB00F019FD01F06D
:1056F0003FF900F09DFFBDE8084006F011BA00BF79
:105700004FF48053CEF2000310B45A681C46104484
:10571000824263680BD2984294BF002101219A42D1
:1057200088BF00210029F3D15DF8044B70479A42ED
:105730008CBF00210121984288BF41F0010100295E
:10574000E6D1F1E7AFF30080AFF30080AFF3008064
:1057500003F06EB8AFF30080AFF30080AFF30080CA
:1057600000230122027043608360C36003614361D0
:105770001830FFF7ADB800BFAFF30080AFF3008083
:1057800038B504460D4680B1202383F31188FEF717
:105790008FFC2046656003F07BF802232370FEF740
:1057A000A7FC002383F3118838BD48F2306048F22B
:1057B0004061C0F60200C0F6020171221CF098F8A8
:1057C000E2E700BFAFF30080AFF30080AFF30080EB
:1057D000F8B504460E4617461D46FEF749FD002E55
:1057E00018BF002C04D01FB1012D0CD0EB070AD537
:1057F00048F2686048F24061C0F60200C0F602015B
:10580000C3221CF075F80323A760E56026612370AE
:105810002046BDE8F84003F093B800BFAFF3008026
:1058200003F01EBEAFF30080AFF30080AFF3008043
:1058300038B5012300250446037045602946083029
:10584000FEF7CEFF294604F11400FEF7C9FF04F16C
:10585000200504F1240004F1280104F12C0204F1D4
:10586000300325626062A162E262236338BD00BF3B
:1058700038B504460D4610B3202383F31188FEF794
:1058800017FC2378022B06D106200121FEF710FE1B
:105890002378022BF8D0012B05D0FEF729FC00233A
:1058A00083F3118838BD2046656003F0F9FD0323BA
:1058B0002370FEF71DFC002383F3118838BD48F2E6
:1058C000E06048F2F061C0F60200C0F602016D220D
:1058D0001CF00EF8D0E700BFAFF30080AFF30080FC
:1058E0002DE9F043002A18BF002883B004469146F2
:1058F0000E46984620D003291ED8202383F3118812
:10590000FEF7D6FB04F108072578042D3146204622
:1059100002D003F025FED8B938464146FEF780FF95
:105920000028F1D00190FEF7E3FB002383F31188F8
:10593000019803B0BDE8F08348F2187048F2F061B6
:10594000C0F60200C0F60201AF221BF0D1FFD4E77F
:10595000204631464A4603F023FEFEF7C9FB0023EA
:1059600083F31188002003B0BDE8F083AFF300801B
:105970002DE9F043002A18BF002883B00446914661
:105980000E46984601D001290AD948F2287048F2FB
:10599000F061C0F60200C0F60201DC221BF0A8FF95
:1059A000202383F31188FEF783FB04F11407257885
:1059B000042D3146204602D003F032FE78B9384635
:1059C0004146FEF72DFF0028F1D00190FEF790FB35
:1059D000002383F31188019803B0BDE8F0832046CB
:1059E00031464A4603F03CFEFEF782FB002383F378
:1059F0001188002003B0BDE8F08300BFAFF3008042
:105A000003F096BEAFF30080AFF30080AFF30080E9
:105A10000122002302704360704700BFAFF3008093
:105A2000002918BF002838B504460D460AD148F2AF
:105A3000607048F27071C0F60200C0F60201622286
:105A40001BF056FF202383F31188FEF731FB20461D
:105A5000656003F0EDFE02232370FEF749FB00238F
:105A600083F3118838BD00BFAFF30080AFF300802F
:105A700005F0AEBAAFF30080AFF30080AFF3008063
:105A80000122002302704360704700BFAFF3008023
:105A9000002918BF002838B504460D460AD148F23F
:105AA000E07048F2F071C0F60200C0F60201602218
:105AB0001BF01EFF202383F31188FEF7F9FA20461E
:105AC000656005F095FA02232370FEF711FB0023B1
:105AD00083F3118838BD00BFAFF30080AFF30080BF
