:020000040800F2
:10000000001000205116010831140108D1A5030881
:1000100031140108B1A5030891A5030831140108A2
:100020003114010831140108311401088114010848
:1000300071A5030831140108311401085114010895
:100040003114010841A100083114010881A20008FF
:100050003114010831140108219E0008619E000836
:10006000A19E0008E19E0008219F0008D1A600087B
:1000700031A7000891A70008F1A7000851A80008BF
:10008000B1A8000811A90008F1CD0008A14E000890
:10009000C14E0008E14E0008014F0008619F0008B2
:1000A000C1B7000841B700083114010861B7000862
:1000B00081B70008A1B7000881830008317B0008E0
:1000C000517B000831140108311401083114010872
:1000D00031140108B1B20008D1B20008F1B2000831
:1000E00041A0000881A10008C1A100083114010845
:1000F000A183000831140108E183000871A90008F8
:10010000311401083114010891B4000831140108B8
:1001100031140108311401083114010831140108A7
:10012000D1A9000831AA000891AA0008F1AA000884
:1001300051AB00083114010801A20008214F00084A
:10014000414F0008614F0008814F0008C16E000850
:10015000B1AB000811AC000871AC00083114010803
:100160003114010831140108311401083114010857
:1001700041A20008311401083114010831140108AA
:100180003114010831140108311401083114010837
:100190003114010831140108311401083114010827
:0C01A00031140108311401083114010869
:1001AC00D9020008314C0008C1500108B17801088F
:1001BC00F1830108A1A7010831B10108B1BA010806
:1001CC0051C30108C1D00108A1E00108C1E2010836
:1001DC0061F00108C1FE0108711F020841450208C7
:1001EC00D1590208D15F0208A1670208D177020831
:1001FC00F18B020811B50208D1B70208A1CD020893
:10020C0081D30208C1E30208F1F3020821070308B5
:10021C00F10C0308F11E0308B1290308C1360308C9
:10022C00613B0308913C030831430308E156030882
:10023C00815A0308915F0308816F0308C18B03087F
:04024C00A9020008FB
:1002500008B541F65870074BC2F200001B1A062B76
:1002600000D808BD40F20003C0F20003002BF8D014
:100270009847F6E75B1F002008B541F6587041F635
:100280005873C2F20000C2F200031B1A9B1003EB6A
:10029000D373591000D108BD40F20002C0F2000231
:1002A000002AF8D09047F6E710B541F65874C2F22C
:1002B0000004237873B9FFF7CBFF40F20003C0F2CC
:1002C00000032BB147F24050C0F60400AFF30080AA
:1002D0000123237010BD00BF08B540F20003C0F237
:1002E00000034BB147F2405041F65C71C0F6040088
:1002F000C2F20001AFF3008041F65870C2F2000074
:1003000003682BB140F20003C0F2000303B1984729
:10031000BDE80840B0E700BF00000000000000009A
:1003200081F0004102E000BF83F0004330B54FEAA6
:1003300041044FEA430594EA050F08BF90EA020F13
:100340001FBF54EA000C55EA020C7FEA645C7FEAA6
:10035000655C00F0E2804FEA5454D4EB5555B8BFC9
:100360006D420CDD2C4480EA020281EA030382EA3A
:10037000000083EA010180EA020281EA0303362DCC
:1003800088BF30BD11F0004F4FEA01314FF4801C9F
:100390004CEA113102D0404261EB410113F0004FB1
:1003A0004FEA03334CEA133302D0524263EB430368
:1003B00094EA050F00F0A780A4F10104D5F1200E06
:1003C0000DDB02FA0EFC22FA05F2801841F1000161
:1003D00003FA0EF2801843FA05F359410EE0A5F135
:1003E00020050EF1200E012A03FA0EFC28BF4CF066
:1003F000020C43FA05F3C01851EBE37101F000451C
:1004000007D54FF0000EDCF1000C7EEB00006EEB28
:100410000101B1F5801F1BD3B1F5001F0CD34908B2
:100420005FEA30004FEA3C0C04F101044FEA445209
:1004300012F5800F80F09A80BCF1004F08BF5FEA90
:10044000500C50F1000041EB045141EA050130BD70
:100450005FEA4C0C404141EB010111F4801FA4F113
:100460000104E9D191F0000F04BF01460020B1FA68
:1004700081F308BF2033A3F10B03B3F120020CDAA0
:100480000C3208DD02F1140CC2F10C0201FA0CF07E
:1004900021FA02F10CE002F11402D8BFC2F1200CE3
:1004A00001FA02F120FA0CFCDCBF41EA0C01904099
:1004B000E41AA2BF01EB0451294330BD6FEA0404E2
:1004C0001F3C1CDA0C340EDC04F11404C4F12002CD
:1004D00020FA04F001FA02F340EA030021FA04F3DF
:1004E00045EA030130BDC4F10C04C4F1200220FA36
:1004F00002F001FA04F340EA0300294630BD21FA74
:1005000004F0294630BD94F0000F83F4801306BF39
:1005100081F480110134013D4EE77FEA645C18BF2D
:100520007FEA655C29D094EA050F08BF90EA020FC4
:1005300005D054EA000C04BF1946104630BD91EABC
:10054000030F1EBF0021002030BD5FEA545C05D1BF
:100550004000494128BF41F0004130BD14F58004FE
:100560003CBF01F5801130BD01F0004545F0FE4172
:1005700041F470014FF0000030BD7FEA645C1ABFA7
:10058000194610467FEA655C1CBF0B46024650EADE
:10059000013406BF52EA033591EA030F41F400210A
:1005A00030BD00BF90F0000F04BF0021704730B590
:1005B0004FF4806404F132044FF000054FF0000165
:1005C00050E700BF90F0000F04BF0021704730B526
:1005D0004FF4806404F1320410F0004548BF4042FB
:1005E0004FF000013EE700BF42004FEAE2014FEA50
:1005F00031014FEA02701FBF12F07F4393F07F4F2B
:1006000081F06051704792F0000F14BF93F07F4F5C
:10061000704730B54FF4607401F0004521F000419F
:1006200020E700BF50EA010208BF704730B54FF025
:1006300000050AE050EA010208BF704730B511F02A
:10064000004502D5404261EB41014FF4806404F162
:1006500032045FEA915C3FF4DCAE4FF003025FEAE4
:10066000DC0C18BF03325FEADC0C18BF033202EB6C
:10067000DC02C2F1200300FA03FC20FA02F001FAC6
:1006800003FE40EA0E0021FA02F11444C1E600BF65
:1006900070B54FF0FF0C4CF4E06C1CEA11541DBF18
:1006A0001CEA135594EA0C0F95EA0C0F00F0DEF8E3
:1006B0002C4481EA030621EA4C5123EA4C5350EAC8
:1006C000013518BF52EA033541F4801143F4801319
:1006D00038D0A0FB02CE4FF00005E1FB02E506F0AA
:1006E0000042E0FB03E54FF00006E1FB03569CF0FF
:1006F000000F18BF4EF0010EA4F1FF04B6F5007F05
:1007000064F5407404D25FEA4E0E6D4146EB060676
:1007100042EAC62141EA55514FEAC52040EA5E50FF
:100720004FEACE2EB4F1FD0C88BFBCF5E06F1ED8A9
:10073000BEF1004F08BF5FEA500E50F1000041EBE0
:10074000045170BD06F0004646EA010140EA02008D
:1007500081EA0301B4EB5C04C2BFD4EB0C0541EAAF
:10076000045170BD41F480114FF0000E013C00F3C4
:10077000AB8014F1360FDEBF002001F0004170BDE8
:10078000C4F10004203C35DA0C341BDC04F1140401
:10079000C4F1200500FA05F320FA04F001FA05F28D
:1007A00040EA020001F0004221F0004110EBD3705A
:1007B00021FA04F642EB06015EEA430E08BF20EA86
:1007C000D37070BDC4F10C04C4F1200500FA04F329
:1007D00020FA05F001FA04F240EA020001F00041BB
:1007E00010EBD37041F100015EEA430E08BF20EA2E
:1007F000D37070BDC4F1200500FA05F24EEA020E76
:1008000020FA04F301FA05F243EA020321FA04F0A4
:1008100001F0004121FA04F220EA020000EBD3705B
:100820005EEA430E08BF20EAD37070BD94F0000F5B
:100830000FD101F00046400041EB010111F4801F8F
:1008400008BF013CF7D041EA060195F0000F18BF40
:10085000704703F00046520043EB030313F4801F7C
:1008600008BF013DF7D043EA0603704794EA0C0F36
:100870000CEA135518BF95EA0C0F0CD050EA41064C
:1008800018BF52EA4306D1D181EA030101F00041C9
:100890004FF0000070BD50EA410606BF10461946F1
:1008A00052EA430619D094EA0C0F02D150EA0136FD
:1008B00013D195EA0C0F05D152EA03361CBF10463E
:1008C00019460AD181EA030101F0004141F0FE41DD
:1008D00041F470014FF0000070BD41F0FE4141F461
:1008E000780170BD70B54FF0FF0C4CF4E06C1CEA61
:1008F00011541DBF1CEA135594EA0C0F95EA0C0F16
:1009000000F0A7F8A4EB050481EA030E52EA0335D0
:100910004FEA013100F088804FEA03334FF08055F1
:1009200045EA131343EA12634FEA022245EA11151E
:1009300045EA10654FEA00260EF000419D4208BFCF
:10094000964244F1FD0404F5407402D25B084FEA7C
:100950003202B61A65EB03055B084FEA32024FF428
:1009600080104FF4002CB6EB020E75EB030E22BF85
:10097000B61A754640EA0C005B084FEA3202B6EB45
:10098000020E75EB030E22BFB61A754640EA5C00F4
:100990005B084FEA3202B6EB020E75EB030E22BF84
:1009A000B61A754640EA9C005B084FEA3202B6EB85
:1009B000020E75EB030E22BFB61A754640EADC0044
:1009C00055EA060E18D04FEA051545EA16754FEAA6
:1009D00006164FEAC30343EA52734FEAC2025FEAC4
:1009E0001C1CC0D111F4801F0BD141EA00014FF053
:1009F00000004FF0004CB6E711F4801F04BF014324
:100A00000020B4F1FD0C88BFBCF5E06F3FF6AFAE3F
:100A1000B5EB030C04BFB6EB020C5FEA500C50F1CF
:100A2000000041EB045170BD0EF0004E4EEA113152
:100A300014EB5C04C2BFD4EB0C0541EA045170BD59
:100A400041F480114FF0000E013C90E645EA060E9D
:100A50008DE60CEA135594EA0C0F08BF95EA0C0FCB
:100A60003FF43BAF94EA0C0F0AD150EA01347FF413
:100A700034AF95EA0C0F7FF425AF104619462CE7EA
:100A800095EA0C0F06D152EA03353FF4FDAE10464D
:100A9000194622E750EA410618BF52EA43067FF49E
:100AA000C5AE50EA41047FF40DAF52EA43057FF42E
:100AB000EBAE12E7000000000000000000000000A4
:100AC0004FF0FF3C06E000BF4FF0010C02E000BF1A
:100AD0004FF0010C4DF804CD4FEA410C7FEA6C5CFD
:100AE0004FEA430C18BF7FEA6C5C1BD001B050EAA0
:100AF000410C0CBF52EA430C91EA030F02BF90EA8B
:100B0000020F0020704710F1000F91EA030F58BF49
:100B1000994208BF90422CBFD8176FEAE37040F0AB
:100B2000010070474FEA410C7FEA6C5C02D150EA49
:100B3000013C07D14FEA430C7FEA6C5CD6D152EA04
:100B4000033CD3D05DF8040B704700BF84461046C9
:100B500062468C461946634600E000BF01B5FFF7C8
:100B6000B7FF002848BF10F1000F01BD4DF808ED98
:100B7000FFF7F4FF0CBF012000205DF808FB00BF69
:100B80004DF808EDFFF7EAFF34BF012000205DF8C3
:100B900008FB00BF4DF808EDFFF7E0FF94BF012010
:100BA00000205DF808FB00BF4DF808EDFFF7CEFF11
:100BB00094BF012000205DF808FB00BF4DF808ED50
:100BC000FFF7C4FF34BF012000205DF808FB00BF21
:100BD0004FEA410212F5001215D211D56FF4787365
:100BE000B3EB625212D94FEAC12343F0004343EA08
:100BF000505311F0004F23FA02F018BF40427047E3
:100C00004FF00000704750EA013005D111F000406C
:100C100008BF6FF0004070474FF00000704700BF02
:100C20004FEA4102B2F1E04324BFB3F5001CDCF10E
:100C3000FE5C0DD901F0004C4FEAC0024CEA507046
:100C4000B2F1004F40EB830008BF20F00100704775
:100C500011F0804F21D113F13872BCBF01F0004078
:100C6000704741F480114FEA5252C2F11802C2F1AA
:100C7000200C10FA0CF320FA02F018BF40F001002B
:100C80004FEAC1234FEAD32303FA0CFC40EA0C00DD
:100C900023FA02F34FEA4303CCE77FEA625307D11A
:100CA00050EA01331EBF4FF0FE4040F44000704751
:100CB00001F0004040F0FE4040F40000704700BFEB
:100CC00080F0004002E000BF81F0004142001FBF01
:100CD0005FEA410392EA030F7FEA226C7FEA236C0A
:100CE0006AD04FEA1262D2EB1363C1BFD2184140FF
:100CF00048404140B8BF5B42192B88BF704710F095
:100D0000004F40F4000020F07F4018BF404211F037
:100D1000004F41F4000121F07F4118BF494292EA9F
:100D2000030F3FD0A2F1010241FA03FC10EB0C00CB
:100D3000C3F1200301FA03F100F0004302D5494258
:100D400060EB4000B0F5000F13D3B0F1807F06D305
:100D500040084FEA310102F10102FE2A51D2B1F1FD
:100D6000004F40EBC25008BF20F0010040EA0300F2
:100D70007047490040EB000010F4000FA2F101029F
:100D8000EDD1B0FA80FCACF1080CB2EB0C0200FA29
:100D90000CF0AABF00EBC25052421843BCBFD04077
:100DA0001843704792F0000F81F4000106BF80F4F1
:100DB00000000132013BB5E74FEA41037FEA226CB4
:100DC00018BF7FEA236C21D092EA030F04D092F07F
:100DD000000F08BF0846704790EA010F1CBF0020B3
:100DE000704712F07F4F04D1400028BF40F0004010
:100DF000704712F100723CBF00F50000704700F030
:100E0000004343F0FE4040F4000070477FEA226256
:100E100016BF08467FEA23630146420206BF5FEA27
:100E2000412390EA010F40F4800070474FF0000327
:100E300004E000BF10F0004348BF40425FEA000CEE
:100E400008BF704743F0964301464FF000001CE096
:100E500050EA010208BF70474FF000030AE000BFEC
:100E600050EA010208BF704711F0004302D540422A
:100E700061EB41015FEA010C02BF8446014600209C
:100E800043F0B64308BFA3F18053A3F50003BCFAB7
:100E90008CF2083AA3EBC25310DB01FA02FC634464
:100EA00000FA02FCC2F12002BCF1004F20FA02F26B
:100EB00043EB020008BF20F00100704702F120025E
:100EC00001FA02FCC2F1200250EA4C0021FA02F2BF
:100ED00043EB020008BF20EADC707047000000000E
:100EE0004BB942B9002908BF002802D04FF0FF31AA
:100EF000084601F095BB82B0EC462DE9005000F0A9
:100F000047F8DDF804E002B00CBC704700000000B8
:100F100070B5FFF769FB00230022C3F6F0530446C7
:100F20000D46FFF7B5FB00F04BF80646FFF73AFB1E
:100F300000230022C4F2F013FFF7AAFB02460B467F
:100F400020462946FFF7F0F900F03AF80022314632
:100F500042EA0004204670BD0000000000000000CE
:100F60002DE9F0471746804689469A46089E00F0CC
:100F700047F8A7FB004507FB01F700FB0A72154481
:100F8000B8EB040469EB0505C6E90045BDE8F08748
:100F90002DE9F8431746804689461D46089E00F015
:100FA000DFF900FB05F3A0FB074507FB01373D44D4
:100FB000B8EB040469EB0505C6E90045BDE8F88314
:100FC0004A0011D212F5001211D20DD56FF47873C8
:100FD000B3EB62520ED44FEAC12343F0004343EA1D
:100FE000505323FA02F070474FF00000704750EA68
:100FF000013002D14FF0FF3070474FF000007047D2
:101000002DE9F04F444261EB410500294FF0FF36D6
:10101000A2BF04460D460026002B85B0C0F2C78053
:101020002046AA469446194690462746A946002BD4
:1010300058D1AA426CD9B2FA82F35BB1C3F1200253
:1010400005FA03F924FA02F20CFA03F842EA090954
:1010500004FA03F74FEA1844484621461FFA88FA73
:1010600000F0FEFA21468346484600F027FC3A0C81
:101070000AFB0BF042EA014188420BD911EB08014F
:101080000BF1FF3305D2884284BFABF1020B414420
:1010900000D89B46C0EB010921464846BFB200F08C
:1010A000DFFA21460546484600F008FC0AFB05FA2F
:1010B00047EA01418A4509D911EB080805F1FF33D8
:1010C00003D2C24588BF023D00D81D4645EA0B4306
:1010D00000241846214616B1404261EB410105B09B
:1010E000BDE8F08FAB4284BF00242346F1D8B1FAAB
:1010F00081F5002D40F0B580514528BF82428CBF5C
:10110000002401249CBF01232C46E2D92346E0E7BA
:1011100022B91146012000F0A3FA8046B8FA88F3FC
:10112000002B49D1C8EB09094FEA18451FFA88FA84
:1011300001242946484600F093FA2946834648464A
:1011400000F0BCFB3A0C0AFB0BF042EA014188427A
:101150000CD911EB08010BF1FF3380F0F2808842CB
:1011600084BFABF1020B414440F2EB800A1A2946DE
:101170001046019200F074FA019A2946BFB28146E6
:10118000104600F09BFB0AFB09FA47EA01418A4539
:101190000AD911EB080809F1FF3304D2C24588BF10
:1011A000A9F1020900D8994649EA0B4391E7F643B1
:1011B000524263EB430333E708FA03F8C3F1200B11
:1011C00029FA0BF409FA03F94FEA18452046294693
:1011D00027FA0BFB9F4000F043FA29461FFA88FAD2
:1011E0004BEA090B02462046019200F067FB019A88
:1011F0004FEA1B430AFB02F043EA014188420BD944
:1012000011EB080102F1FF3380F0A180884284BF16
:10121000023A414440F29B80C0EB0109294648460E
:10122000019200F01DFA29461FFA8BFB044648463E
:1012300000F044FB019A0AFB04F94BEA014189459D
:101240000AD911EB080104F1FF3304D2894584BFA8
:10125000023C414400D81C46C9EB010944EA02445F
:1012600067E7C5F12003A94022FA03F82AFA03FB35
:1012700048EA010820FA03F30AFA05FA58464FEA49
:10128000184902FA05FC494643EA0A0ACDF80CC09F
:1012900000F0E6F949460446584600F00FFB1FFAF5
:1012A00088F24FEA1A4E02FB04F04EEA014E7045F6
:1012B00009D91EEB080E04F1FF3146D2704584BFF8
:1012C000023CC64441D9C0EB0E0C4946604601922F
:1012D000CDF808C000F0C4F9DDF808C049461FFA8F
:1012E0008AFA8346604600F0E9FA019A02FB0BF2A3
:1012F0004AEA01418A420AD911EB08010BF1FF3099
:1013000021D28A4284BFABF1020B41441BD903981E
:101310004BEA044B891AABFB002399420DD314BF4F
:101320000023012307FA05F494422CBF002403F0A4
:1013300001045B46002C3FF4CCAE0BF1FF330024DC
:10134000C7E69B4612E78346E1E70C46BBE71A4631
:1013500062E700BF00000000000000000000000085
:101360002DE9F04F064683B00D46144607468846E1
:10137000002B51D18A4264D9B2FA82F35BB1C3F136
:10138000200801FA03F520FA08F802FA03F448EA03
:10139000050800FA03F7250C404629461FFA84FA8F
:1013A00000F05EF929468146404600F087FA3B0C82
:1013B0000AFB09F043EA014188420AD9091909F1F7
:1013C000FF3205D2884284BFA9F10209091900D869
:1013D0009146C0EB010829464046BFB200F040F9F3
:1013E00029460646404600F069FA0AFB06FA47EA33
:1013F00001418A4509D90C1906F1FF3380F01981A2
:10140000A24588BF023E40F2148146EA0940002608
:10141000314603B0BDE8F08F8B4284BF00263046D2
:10142000F6D8B3FA83F4002C5AD18B4228BFB242CB
:101430008CBF002601269CBF01202646E8D93046F5
:10144000E6E722B91146012000F00AF90446B4FA91
:1014500084F3002B40F0A2802D1B4FEA14481FFAA2
:1014600084FA01264146284600F0FAF841468146B2
:10147000284600F023FA3B0C0AFB09F043EA01413D
:1014800088420BD9091909F1FF3280F0D4808842D3
:1014900084BFA9F10209091940F2CD80C0EB010B0C
:1014A00041465846BFB200F0DBF841460546584673
:1014B00000F004FA0AFB05FA47EA01418A4509D916
:1014C0000C1905F1FF3380F0B880A24588BF023DBA
:1014D00040F2B38045EA0940314603B0BDE8F08FE1
:1014E000C4F12001A34022FA01F825FA01F748EAE5
:1014F0000308384626FA01F3A5404FEA1849A240EE
:10150000494601921D4300F0ABF8494683463846F0
:1015100000F0D4F91FFA88F22F0C02FB0BF047EA17
:101520000147B84206D917EB08070BF1FF31C0F0AD
:101530008D808B463F1A49463846009200F090F85D
:101540004946ADB28246384600F0B8F9009A02FB2F
:101550000AF245EA01418A4205D911EB08010AF174
:10156000FF306CD38246019D4AEA0B40891AA0FBEA
:10157000052399420CD306FA04F614BF0021012179
:1015800096422CBF002601F00106002E3FF440AF2A
:1015900000260138314603B0BDE8F08F9C40C3F10E
:1015A000200925FA09FA06FA03F74FEA14485046CB
:1015B00041469D4000F054F8414626FA09F949EAAF
:1015C00005098346504600F079F91FFA84FA4FEA7C
:1015D00019430AFB0BF043EA0141884209D9091972
:1015E0000BF1FF333AD2884284BFABF1020B0919E9
:1015F00034D90D1A414628461FFA89F900F030F80F
:1016000041460646284600F059F90AFB06F549EA24
:1016100001418D4209D9091906F1FF3304D28D42E7
:1016200084BF023E091900D81E464D1B46EA0B46F0
:1016300018E71E46E9E6914630E71D464AE78A422A
:1016400084BFAAF1020A41448DD88BE7B84284BF17
:10165000ABF1020B47443FF66DAF6AE79B46C8E724
:101660004A1E08BF7047C0F02481884240F21681AC
:10167000114200F01781B0FA80F3B1FA81F2A2EBC7
:101680000303C3F11F0304A202EB03134FF0000294
:101690009F4600BFAFF30080B0EBC17F00BF42EBBD
:1016A000020228BFA0EBC170B0EB817F00BF42EB0C
:1016B000020228BFA0EB8170B0EB417F00BF42EB7C
:1016C000020228BFA0EB4170B0EB017F00BF42EBEC
:1016D000020228BFA0EB0170B0EBC16F00BF42EB6C
:1016E000020228BFA0EBC160B0EB816F00BF42EBEC
:1016F000020228BFA0EB8160B0EB416F00BF42EB5C
:10170000020228BFA0EB4160B0EB016F00BF42EBCB
:10171000020228BFA0EB0160B0EBC15F00BF42EB4B
:10172000020228BFA0EBC150B0EB815F00BF42EBCB
:10173000020228BFA0EB8150B0EB415F00BF42EB3B
:10174000020228BFA0EB4150B0EB015F00BF42EBAB
:10175000020228BFA0EB0150B0EBC14F00BF42EB2B
:10176000020228BFA0EBC140B0EB814F00BF42EBAB
:10177000020228BFA0EB8140B0EB414F00BF42EB1B
:10178000020228BFA0EB4140B0EB014F00BF42EB8B
:10179000020228BFA0EB0140B0EBC13F00BF42EB0B
:1017A000020228BFA0EBC130B0EB813F00BF42EB8B
:1017B000020228BFA0EB8130B0EB413F00BF42EBFB
:1017C000020228BFA0EB4130B0EB013F00BF42EB6B
:1017D000020228BFA0EB0130B0EBC12F00BF42EBEB
:1017E000020228BFA0EBC120B0EB812F00BF42EB6B
:1017F000020228BFA0EB8120B0EB412F00BF42EBDB
:10180000020228BFA0EB4120B0EB012F00BF42EB4A
:10181000020228BFA0EB0120B0EBC11F00BF42EBCA
:10182000020228BFA0EBC110B0EB811F00BF42EB4A
:10183000020228BFA0EB8110B0EB411F00BF42EBBA
:10184000020228BFA0EB4110B0EB011F00BF42EB2A
:10185000020228BFA0EB0110B0EBC10F00BF42EBAA
:10186000020228BFA0EBC100B0EB810F00BF42EB2A
:10187000020228BFA0EB8100B0EB410F00BF42EB9A
:10188000020228BFA0EB4100B0EB010F00BF42EB0A
:10189000020228BFA0EB0100104670470CBF0120D8
:1018A00000207047B1FA81F2C2F11F0220FA02F063
:1018B000704708B14FF0FF3000F0B2BE0029F8D0F9
:1018C0002DE90340FFF7CCFEBDE8064002FB00F324
:1018D000A1EB0301704700BF000000000000000002
:1018E0000F2AF0B445D940EA01039B0745D1A2F184
:1018F00010070C4603463F0900EB07161036256813
:101900001033103443F8105C54F80C5C43F80C5C52
:1019100054F8085C43F8085C54F8045C43F8045C31
:10192000B342ECD17B1C02F00F0CBCF1030F4FEA69
:1019300003131944034422D90E461D46644656F843
:10194000047B043C032C45F8047BF8D8ACF1040478
:1019500002F0030224F0030404342344214432B18E
:101960000A4411F8014B914203F8014BF9D1F0BC44
:1019700070470346002AF3D1F9E70346F0E76246D1
:10198000002AEDD1F3E700BF0000000000000000D6
:101990008307F0B448D0541E002A43D0CDB203468A
:1019A00002E0002C3ED0144603F8015B13F0030F55
:1019B00004F1FF32F5D1032C2DD9CDB20F2C45EA1D
:1019C000052545EA054518D9A4F1100703F11006CD
:1019D0001A463F0906EB07161560103242F80C5CF8
:1019E00042F8085C42F8045CB242F5D104F00F04FE
:1019F0000137032C03EB07130DD91E462246043A88
:101A000046F8045B032AFAD8221F04F0030422F0EC
:101A10000302043213442CB1C9B21C4403F8011B65
:101A2000A342FBD1F0BC704714460346C3E700BF96
:101A3000C1F30A5C2DE9F843ACF2FF33132B0646E1
:101A40000F4613DC002B40DB4FF6FF7CC0F20F0C7F
:101A50004CFA03F303EA010C5CEA000C1CD107F01A
:101A60000041C2E900676046BDE8F883332B1EDC05
:101A70004FF0FF33ACF2134C23FA0CFC1CEA0003CA
:101A80001CD020EA0C060F460B46C2E9006732461E
:101A9000FEF74AFCBDE8F88321EA030700263B462F
:101AA000C2E900673246FEF73FFCBDE8F88307F065
:101AB0000041C2E900670020BDE8F88307F000415B
:101AC000C2E900671846BDE8F88307F000494FF007
:101AD0000008C2E90089BDE8F88300BF00000000EB
:101AE000830770B506461FD10368A3F1013222EACD
:101AF000030313F0803F08BF031D15D1184653F8A8
:101B0000044BA4F1013525EA040414F0803FF5D01C
:101B100003782BB1431C184601330478002CFAD10A
:101B200000F086F8304670BD3046F1E70000000056
:101B3000C9B2F0B4002947D084070FD00278002A38
:101B40003FD091423ED0431C05E013F8012B002A00
:101B500037D0914236D09A071846F6D141EA01278C
:101B6000036847EA0747A3F1013483EA070224EA3E
:101B70000303A2F1013424EA0202134313F0803F6D
:101B800011D1021D104652F8043B83EA0704A3F169
:101B90000136A4F1013526EA030325EA04042343B0
:101BA00013F0803FEED00378002B3BD0994209D050
:101BB000431C01E0914205D0184613F8012B002A7E
:101BC000F8D11046F0BC704781070DD00378002B88
:101BD000F8D0431C02E00278002AF3D013F0030F80
:101BE000184603F10103F6D10368A3F1013222EA9A
:101BF000030313F0803F0AD1031D184653F8042B4A
:101C0000A2F1013121EA020212F0803FF5D00378FF
:101C1000002BD7D0431C184601330278002AFAD192
:101C2000F0BC70471846CDE700000000000000003F
:101C300080EA0102844612F0030F4FD111F0030F26
:101C400032D14DF8044D11F0040F51F8043B0BD084
:101C5000A3F101329A4312F0803F04BF4CF8043BD9
:101C600051F8043B16D100BF51F8044BA3F10132E7
:101C70009A4312F0803FA4F101320BD14CF8043B9F
:101C8000A24312F0803F04BF51F8043B4CF8044BD0
:101C9000EAD023460CF8013B13F0FF0F4FEA332341
:101CA000F8D15DF8044B704711F0010F06D011F820
:101CB000012B0CF8012B002A08BF704711F0020F0E
:101CC000BFD031F8022B12F0FF0F16BF2CF8022BF9
:101CD0008CF8002012F47F4FB3D1704711F8012B1C
:101CE0000CF8012B002AF9D1704700BF000000005A
:101CF00020F0030110F00300C0F1000051F8043B94
:101D000000F1040C4FEACC0C6FF000021CBF22FA69
:101D10000CF213434FF0010C4CEA0C2C4CEA0C4C27
:101D2000A3EB0C0222EA030212EACC1204BF51F820
:101D3000043B0430F4D013F0FF0F1FBF013013F445
:101D40007F4F013013F47F0F18BF0130704700BF81
:101D5000F0B4002A4BD040EA010313F003032DD165
:101D6000032A2BD904680D68AC4227D1043A3ED02F
:101D7000A4F1013525EA040414F0803F3DD10C465E
:101D800005460EE06B68054666680C46A3F1013710
:101D9000B34227EA030711D1043A28D017F0803F55
:101DA00028D1032A00F1040001F10401EAD8561EEB
:101DB0002AB928792279801AF0BC7047561E037818
:101DC0000A7893421BD1E6B1BBB101368B1C0446A5
:101DD000314405E08B4203F101030BD00028EBD026
:101DE00014F8010F13F8012C9042F3D0E3E71046EA
:101DF000F0BC70470020F0BC70471846DCE718467E
:101E0000D9E73046D8E700BF00000000000000001E
:101E100040EA01039B0770B42BD1032A84BF0B4611
:101E2000054626D9194653F8044BA4F1013626EA93
:101E3000040616F0803F05D1043A45F8044B032A06
:101E40001946EFD89AB10C78013A6B1C2C703CB152
:101E50006AB111F8014F013A03F8014B002CF7D198
:101E60002AB11A44002103F8011B9342FBD170BC34
:101E700070470546E6E700BF0000000000000000D4
:101E800038B502460C46002511B909E0421C05464A
:101E900010462146FFF74CFE0028F7D1284638BDF2
:101EA000BDE83840FFF744BE00000000000000001D
:101EB0004FF0010C2DE9F003644600254FF0FF368A
:101EC000631987198B420DD23F5D10F80380B84526
:101ED0002FD21D460124C6EB030C63198B4200EB85
:101EE0000607F1D34FF0010900254C464FF0FF37AC
:101EF000C2F800C0631900EB070C99420ED91CF818
:101F000004C010F80380E0451AD91D460124C7EB30
:101F100003096319994200EB070CF0D80137013629
:101F2000B74226BFC2F8009038463046BDE8F003FD
:101F300070470CD04FF0010C2E4664466544BFE755
:101F40000CD04FF001092F464C464D44D2E7644572
:101F500004F10104B4D11D460124B1E74C4504F15C
:101F60000104C7D11D460124C4E700BF2DE9F04F8D
:101F7000ADF2244D164680460D461046194607AA76
:101F80001C46FFF795FF07AB0DF21C42039043F888
:101F9000044F9342FBD1671E002308A834B1F25CC2
:101FA000F91A0133A34240F82210F8D107993046BC
:101FB000039A314400F04CFA002840F08180DDF8AB
:101FC0000CC02A468246671E0CF1FF3CCDF808C0C3
:101FD000B444CDF810C0DDF80CC005460196CCF134
:101FE000010CCDF814C008E025B1079A934238BF20
:101FF000C2EB04039A44002532460AEB040608EBC0
:1020000002000021B21A00F0DBF9002853D1002EA3
:1020100051D008EB060308A913F8013C51F823300E
:10202000002BE1D1039A954228BF2A46BA4212D228
:10203000019908EB0A03985C11F802C01144844529
:1020400006D032E011F8010F13F802C084452CD1FC
:102050000132BA42F6D3039B02989D4228BF18462C
:102060001CD2DDF810C008EB0A039CF80010DDF864
:1020700008C013F80C20914240F08680DDF804B0CF
:10208000049AAB4406E012F8019D13F801C0E14543
:1020900004D108465A4500F1FF31F4D1013585429B
:1020A00074D8079DAA44651BA6E7DDF814C0002577
:1020B000E2449244A0E700200DF2244DBDE8F08FE9
:1020C000DDF80CC02A46DDF80CA04FF0000BCCEB7D
:1020D00004030DF12009634538BF6346671E0133D1
:1020E000254607930CF1FF33B444CDF808C0DDF862
:1020F0000CC00193CCF1010CCDF810C00BEB050422
:1021000008EB02000021A21A00F05AF90028D2D1EF
:10211000002CD0D008EB040313F8013C59F823300D
:1021200053BBBA4508EB0B0013D2029B1A7810F888
:102130000A309A4218BF534621D1029A534605E00D
:1021400012F8011F10F803C08C4518D10133BB42AF
:10215000F6D3019B5A1CAFD0DDF804C016F80C1062
:1021600010F80C20914206D113F1FF33A4D3F15C97
:10217000C25C9142F8D0079B9B442246BEE7DDF843
:1021800010C0E3449B44F8E7039887E708EB0A0094
:1021900092E700BF2DE9F04F8046037887B00E46E6
:1021A000002B00F001810A789AB1844601310124A4
:1021B00002E011F8012B5AB1934214BF002404F03D
:1021C00001041CF8013F0D46002BF2D12B7813BB04
:1021D0001CB1404607B0BDE8F08F08F1010031782E
:1021E000FFF7A6FCAD1B012D18BF0028074608BF4E
:1021F0000046EFD0A844474594BFC7EB080401242C
:102200001F2D0CD93846214632462B46FFF7AEFE2D
:1022100007B0BDE8F08F002007B0BDE8F08F294679
:1022200005AA3046FFF744FE059931440090024666
:10223000304600F00DF9002857D1009B83468046B8
:102240002246013B019333440293009BC3F10103F7
:10225000039308EB0504B8180021A21A00F0B0F8A7
:102260000028D8D1002CD6D0009B9B4528BF5B46C8
:102270009D4214D9F918F05CF21811F80810884240
:1022800040F08C8007EB080C06E012F8011F1CF8E8
:102290000300884240F0828001339D42F5D8009BC4
:1022A00001995B4540F28380029B07EB08091A788D
:1022B00019F801309A427AD1029B06EB0B0A06E02C
:1022C00013F801CD19F80200844504D11146534595
:1022D00001F1FF32F4D10BF1010B8B4569D8059B5D
:1022E0009844C3EB050B2246B3E700984FF0000B70
:1022F00022462B1A8146834238BF0346B14401333C
:102300000593009B38440190C3F101030293009BA5
:1023100003F1FF389A460BEB0504B8180021A21A06
:1023200000F04EF800287FF476AF002C3FF473AF36
:10233000554598BF07EB0B0014D9019899F8002078
:1023400010F80B309A4224D14A46534607EB0B0053
:1023500005E012F8011F10F803C08C451AD10133B3
:102360009D42F6D8B8F1FF3F43463FF433AF16F82D
:10237000081010F80820914207D113F1FF33FFF441
:1023800029AFF15CC25C9142F7D0059B9B44224689
:10239000C1E75346029A93449B44F8E703994FF0F0
:1023A000000B884498449EE70D4601240EE70099EF
:1023B00091E707EB08000DE70000000000000000B7
:1023C0008307C9B270B43FD0541E2AB303788B423E
:1023D00023D0431C04E0FCB1057814468D421CD088
:1023E00013F0030F184604F1FF3203F10103F2D199
:1023F000032C14D8651E4CB303788B420DD0421CBD
:10240000002302E004788C4207D0AB42104603F16F
:10241000010302F10102F5D1002070BC704741EACE
:102420000126034646EA064618460433026872400F
:10243000A2F1013525EA020212F0803FDAD1043C14
:102440001846032CF0D8D5E71446D1E72046E4E738
:10245000032A70B412D940EA01039B070FD10C463E
:10246000034621461846043404330D680668AE421C
:1024700004D1043A1846032A2146F2D8C2B105789D
:102480000C78A54204BF02F1FF32002306D00CE015
:1024900010F8015F11F8014FA54206D1934203F1F4
:1024A0000103F5D1002070BC7047281B70BC704739
:1024B0001046F8E7000000000000000000000000E7
:1024C00050EA010301D102207047D0F1010338BF67
:1024D0000023B1F1004F08BF0028F4D021F00041E3
:1024E0004FF6FF72A1F58010C7F6DF72904201D857
:1024F00004207047B1F5801F01D2032070470020EF
:10250000C7F6F070814214BF002003F0010070474D
:1025100010B40C4613460146224602205DF8044BD7
:1025200000F006B8000000000000000000000000FD
:102530002DE9F04144F21034C0F6040484B007469B
:102540002568AC6C002C45D066681F2E1CDD40F25F
:102550000004C0F2000424B94FF0FF3004B0BDE81D
:10256000F0818C20039102920193AFF300800399D4
:10257000029A019B04460028EED0AE6C00206060F9
:102580002660AC64C4F88800D7B1D4F888602EB354
:10259000D6F8008165680120022F00FA05F006EBED
:1025A000850C46F8252048EA0002C6F80021CCF840
:1025B000803002BFD6F804311843C6F8040100E0A9
:1025C0006568AB1C00200135656044F8231004B039
:1025D000BDE8F08105F14C04AC64B5E740F20000C1
:1025E000C0F200000028B7D04FF48470039102922B
:1025F0000193AFF300800399029A019B06460028DD
:10260000AAD00020C6F80001C6F804018046C4F82C
:102610008860BFE70000000000000000000000002C
:10262000704700BF00000000000000000000000034
:10263000F8B5C1F30A57A7F2FF360246132E0B4630
:102640000D468C4616DC002E31DB4FF6FF7CC0F2C7
:102650000F0C4CFA06FC0CEA010101430FD04FF4B9
:102660000023002143FA06F62E4426EA0C0C084605
:102670006146F8BD332E05DDB6F5806F23D01046D8
:102680001946F8BD4FF0FF30A7F21341C840104281
:10269000F5D0C7F5866701210237B940891828BFF0
:1026A00003F1010C21EA000108466146F8BD01F082
:1026B000004C013602BF4CF07F5C00214CF4401C02
:1026C000D5D00021D3E7FDF731FEF8BD00000000B2
:1026D00070B58AB0054600F06BF841F2F864C2F2BA
:1026E000000494F900300133064609D0284600F072
:1026F000EFF928B12846002100F0C6FB034610B1CF
:1027000030460AB070BD47F230522846C0F6040287
:1027100008930192FDF768FF2478CDE90401CDE923
:10272000020174BB4FF6FF734FF06042CCF2EF73BF
:10273000CDE906232846002100F07EFB78B1022374
:1027400000939C4229D0684600F0B2F928B3089B58
:1027500043BBDDE90601FEF763FA0AB070BD022C47
:102760004FF00103009313D0684600F0A1F978B14F
:1027700047F23450C0F6040000F0A2F9CDE906019A
:10278000E5E700230022CFF6F073CDE90623D1E779
:1027900000F086FB21230360EAE700F081FB22239F
:1027A0000360D4E700F07CFB089B0360D1E700BF27
:1027B00020F0004201462DE9F84F0346002A00F0C0
:1027C000B0800028C0F2D380B0F1FF4F80F2CB8000
:1027D000B0F5000FA8BF002706DA4FF098416FF060
:1027E000180700F095F903464FF62030C3F316049E
:1027F000C0F24A00DB1520447F3B00F400021F4476
:1028000082F07E504FF07E51204307EBD257FEF707
:102810005BFA04F10F03C3F316030F2B054640F3D5
:1028200087804FF0804145F63048FEF74FFACFF6EB
:10283000CF78A044C4F5571404F5227444EA08087C
:102840000146284600F018FA81463846FEF7F2FAAB
:1028500049468346484600F05BF90146824600F04F
:1028600057F948F69701C3F61761064600F050F98C
:1028700043F22531C3F63A61FEF728FA314600F0FB
:1028800047F944F62511C3F69261FEF71FFA314667
:1028900000F03EF94AF6AB21C3F62A71FEF716FAAC
:1028A000514600F035F94DF24F01C3F61C618246E6
:1028B000304600F02DF948F62961C3F66361FEF752
:1028C00005FA314600F024F94CF6CD41C3F6CC614F
:1028D000FEF7FCF9314600F01BF901465046FEF7C1
:1028E000F5F9B8F1000F064640F3AF804FF07C5188
:1028F000284600F00DF9294600F00AF90446002F99
:1029000059D13146FEF7E2F9494600F001F9014696
:102910002046FEF7D9F901462846FEF7D5F9BDE86D
:10292000F88F00214FF04C4000F0A6F9BDE8F88F79
:10293000002100F081FA08B3002F00F083803846B0
:10294000FEF778FA4FF4E341C3F63171054600F023
:10295000DFF84FF2D171C3F217710446284600F038
:10296000D7F801462046FEF7B1F9BDE8F88FFEF72B
:10297000ABF9002100F080F9BDE8F88F2946284620
:1029800000F0C6F84AF6AB21C3F6AA610446284611
:1029900000F0BEF801464FF07C50FEF795F9014675
:1029A000204600F0B5F804466FBB28462146FEF7E6
:1029B0008BF9BDE8F88F4FF4E3415846C3F6317107
:1029C00000F0A6F8314607462046FEF77FF9494653
:1029D00000F09EF84FF2D171C3F2177106465846C7
:1029E00000F096F801463046FEF770F901462046A1
:1029F000FEF76AF92946FEF767F901463846FEF701
:102A000063F9BDE8F88F3846FEF714FA4FF4E34156
:102A1000C3F63171074600F07BF84FF2D171C3F273
:102A200017710646384600F073F801462046FEF757
:102A30004BF92946FEF748F901463046FEF744F9BE
:102A4000BDE8F88F0020BDE8F88F1FB34FF4E341D5
:102A50005846C3F6317100F05BF83146044628460B
:102A6000FEF732F9494600F053F84FF2D171C3F244
:102A700017710646584600F04BF801463046FEF7FF
:102A800023F92946FEF720F901462046FEF71CF9F6
:102A9000BDE8F88F01462846FEF716F9494600F0D2
:102AA00037F801462846FEF70FF9BDE8F88F00BF5A
:102AB000002070470000000000000000000000003F
:102AC00000210020C7F6F871704700BF0000000029
:102AD00030F0004001D102207047A0F50003B3F1AF
:102AE000FE4F01D2042070474FF6FE73421EC0F223
:102AF0007F039A4201D803207047B0F1FF43584248
:102B00005841704700000000000000000000000075
:102B10004FF0FF0C1CEAD0521EBF1CEAD15392EAC0
:102B20000C0F93EA0C0F6FD01A4480EA010C40029C
:102B300018BF5FEA41211ED04FF0006343EA5010F6
:102B400043EA5111A0FB01310CF00040B1F5000F38
:102B50003EBF490041EAD3715B0040EA010062F1E7
:102B60007F02FD2A1DD8B3F1004F40EBC25008BFD1
:102B700020F00100704790F0000F0CF0004C08BFEF
:102B800049024CEA502040EA51207F3AC2BFD2F1BC
:102B9000FF0340EAC250704740F400004FF00003CA
:102BA000013A5DDC12F1190FDCBF00F00040704704
:102BB000C2F10002410021FA02F1C2F1200200FA42
:102BC00002FC5FEA310040F1000053EA4C0308BF09
:102BD00020EADC70704792F0000F00F0004C02BF5A
:102BE000400010F4000F013AF9D040EA0C0093F0D5
:102BF000000F01F0004C02BF490011F4000F013B2F
:102C0000F9D041EA0C018FE70CEAD15392EA0C0F9C
:102C100018BF93EA0C0F0AD030F0004C18BF31F007
:102C2000004CD8D180EA010000F00040704790F0DD
:102C3000000F17BF90F0004F084691F0000F91F081
:102C4000004F14D092EA0C0F01D142020FD193EA47
:102C50000C0F03D14B0218BF084608D180EA0100CF
:102C600000F0004040F0FE4040F40000704740F0AB
:102C7000FE4040F4400070474FF0FF0C1CEAD05279
:102C80001EBF1CEAD15392EA0C0F93EA0C0F69D0D5
:102C9000A2EB030280EA010C49024FEA402037D040
:102CA0004FF0805343EA111143EA10130CF0004037
:102CB0008B4238BF5B0042F17D024FF4000C8B4227
:102CC00024BF5B1A40EA0C00B3EB510F24BFA3EB07
:102CD000510340EA5C00B3EB910F24BFA3EB9103D7
:102CE00040EA9C00B3EBD10F24BFA3EBD10340EA31
:102CF000DC001B0118BF5FEA1C1CE0D1FD2A3FF677
:102D000050AF8B4240EBC25008BF20F0010070472B
:102D10000CF0004C4CEA50207F32C2BFD2F1FF03CE
:102D200040EAC250704740F400004FF00003013AFF
:102D300037E792F0000F00F0004C02BF400010F4A3
:102D4000000F013AF9D040EA0C0093F0000F01F0B7
:102D5000004C02BF490011F4000F013BF9D041EAD9
:102D60000C0195E70CEAD15392EA0C0F08D142020C
:102D70007FF47DAF93EA0C0F7FF470AF084676E7DF
:102D800093EA0C0F04D14B023FF44CAF08466EE7B8
:102D900030F0004C18BF31F0004CCAD130F0004286
:102DA0007FF45CAF31F000437FF43CAF5FE700BFDE
:102DB0004FF0FF3C06E000BF4FF0010C02E000BF07
:102DC0004FF0010C4DF804CD4FEA40024FEA4103A9
:102DD0007FEA226C18BF7FEA236C11D001B052EA5F
:102DE000530C18BF90EA010F58BFB2EB030088BF25
:102DF000C81738BF6FEAE17018BF40F00100704794
:102E00007FEA226C02D15FEA402C05D17FEA236C75
:102E1000E4D15FEA412CE1D05DF8040B704700BFBC
:102E2000844608466146FFE70FB5FFF7C9FF002853
:102E300048BF10F1000F0FBD4DF808EDFFF7F4FF8C
:102E40000CBF012000205DF808FB00BF4DF808ED25
:102E5000FFF7EAFF34BF012000205DF808FB00BF48
:102E60004DF808EDFFF7E0FF94BF012000205DF86A
:102E700008FB00BF4DF808EDFFF7D2FF94BF01201B
:102E800000205DF808FB00BF4DF808EDFFF7C8FF14
:102E900034BF012000205DF808FB00BF00000000E7
:102EA00041F20463C2F2000318687047000000009A
:102EB00080B58AB000AF786039603B681B683B61C1
:102EC00002E03B6901333B613B691B782F2BF8D053
:102ED0003B691B785C2BF4D07B68DB69FB600023CB
:102EE0007B617B69BB61BB695A1CBA613A69134457
:102EF0001B78BB84BB8C1F2B32D9BB8C2F2B2FD0C4
:102F0000BB8C5C2B2CD07B69FE2B01D906237DE189
:102F1000BB8CDBB2BB84BB8C1846012102F018FCD1
:102F20000346BB84BB8C002B01D106236EE1BB8C16
:102F30007F2B0CD8BB8C4CF2B000C0F603001946B6
:102F400002F0E6FC0346002B01D006235EE17B691C
:102F50005A1C7A615B00FA681344BA8C1A80C2E783
:102F60003A69BB691A443B681A60BB8C1F2B01D8B5
:102F7000042300E0002387F8263011E07B6903F189
:102F80000043013B5B00FA6813441B88BB84BB8C85
:102F9000202B02D0BB8C2E2B05D17B69013B7B61A2
:102FA0007B69002BEAD17B69002B01D106232DE13F
:102FB0007B695B00FA68134400221A807B689B6976
:102FC000184620210B2202F05BFC0023BB6102E0CB
:102FD000BB690133BB61BB695B00FA6813441B88A2
:102FE000202BF5D0BB695B00FA6813441B882E2B9D
:102FF000EED0BB69002B0AD097F8263043F00303CC
:1030000087F8263004E07B69013B7B6100E000BF6C
:103010007B69002B09D07B6903F10043013B5B0016
:10302000FA6813441B882E2BEDD100233B6200234A
:1030300087F827300823FB61BB695A1CBA615B0023
:10304000FA6813441B88BB84BB8C002B00F096806D
:10305000BB8C202B06D0BB8C2E2B0AD1BA697B6986
:103060009A4206D097F8263043F0030387F82630BB
:10307000E2E73A6AFB699A4203D2BA697B699A42EB
:1030800023D1FB690B2B06D197F8263043F00303BD
:1030900087F8263072E0BA697B699A4205D097F8C2
:1030A000263043F0030387F82630BA697B699A42D9
:1030B00064D87B69BB6108233B620B23FB6197F8F3
:1030C00027309B0087F82730B6E7BB8C7F2B18D9B9
:1030D000BB8C1846002102F03BFB0346BB84BB8C33
:1030E000002B08D0BB8CA3F1800247F2A033C0F6BE
:1030F00004039B5CBB8497F8263043F0020387F8F7
:103100002630BB8C002B0AD0BB8C4CF2BC00C0F626
:103110000300194602F0FCFB0346002B08D05F2396
:10312000BB8497F8263043F0030387F826301BE072
:10313000BB8C402B09D9BB8C5A2B06D897F827306B
:1031400043F0020387F827300EE0BB8C602B0BD9CD
:10315000BB8C7A2B08D897F8273043F0010387F807
:103160002730BB8C203BBB847B689A693B6A591C27
:1031700039621344BA8CD2B21A705DE77B689B69DE
:103180001B78E52B03D17B689B6905221A70FB69CC
:10319000082B04D197F827309B0087F8273097F841
:1031A000273003F00C030C2B05D097F8273003F0E1
:1031B0000303032B05D197F8263043F0020387F869
:1031C000263097F8263003F00203002B17D197F82A
:1031D000273003F00303012B05D197F8263043F085
:1031E000100387F8263097F8273003F00C03042BE0
:1031F00005D197F8263043F0080387F826307B681E
:103200009B690B3397F826201A700023184628373D
:10321000BD4680BD0000000000000000000000006E
:1032200080B58AB000AF786039603B6809333B6293
:103230007B681B69002B00F08F807B685B697B617A
:103240007B691B7BFB7400237B6222E07A697B6ACB
:1032500013441B78FB77FB7F202B1DD0FB7F052BB6
:1032600001D1E523FB77FB7C03F00803002B08D09A
:10327000FB7F402B05D9FB7F5A2B02D8FB7F2033E5
:10328000FB773B6A5A1C3A62FA7F1A707B6A0133F9
:103290007B627B6A072BD9D97B6908331B78202B8B
:1032A00028D03B6A5A1C3A622E221A7008237B628D
:1032B0001DE07A697B6A13441B78FB77FB7F202B28
:1032C00018D0FB7C03F01003002B08D0FB7F402BB1
:1032D00005D9FB7F5A2B02D8FB7F2033FB773B6A53
:1032E0005A1C3A62FA7F1A707B6A01337B627B6AEE
:1032F0000A2BDED97B69DA7A3B681A727B691F3345
:103300001B781A067B691E331B781B041A437B69E2
:103310001D331B781B021A437B691C331B781A432D
:103320003B681A607B6919331B781B029AB27B6970
:1033300018331B7813439BB29AB23B689A807B691F
:1033400017331B781B029AB27B6916331B78134321
:103350009BB29AB23B68DA803B6A00221A703B68E3
:103360009B69002B41D03B68DB69002B3DD03B685B
:103370009B69FB6000237B627B681B69002B2FD05D
:103380007B681A8C4FF6FF739A4229D07B68DB6901
:10339000BB611DE07B891846002102F0D9F9034684
:1033A0007B817B89002B02D100237B6218E03B6884
:1033B000DB695A1E7B6A9A4202D800237B620FE0C7
:1033C0007B6A5A1C7A62FA6813447A89D2B21A70FC
:1033D000BB699A1CBA611B887B817B89002BD9D180
:1033E000FA687B6A134400221A702837BD4680BDF4
:1033F00080B584B000AF786039603B681B782F2BB4
:1034000003D03B681B785C2B02D13B6801333B60E7
:103410007B6800229A603B681B781F2B09D878686C
:10342000002102F03DFE0346FB737B6800225A61D7
:103430004EE03B4678681946FFF73AFD0346FB73BA
:10344000FB7B002B44D1786803F072F90346FB73D1
:103450007B689B69DB7ABB73FB7B002B0AD0FB7B11
:10346000042B35D1BB7B03F00403002B2FD10523A4
:10347000FB732DE0BB7B03F00403002B28D17B689A
:103480005B69BB60BB680B331B7803F01003002B38
:1034900002D10523FB731BE0BB6815331B781B02AD
:1034A0009AB2BB6814331B7813439BB29BB21A04C5
:1034B000BB681B331B781B0299B2BB681A331B789D
:1034C0000B439BB29BB21A437B689A60B1E700BF83
:1034D000FB7B18461037BD4680BD00BF00000000D2
:1034E00080B582B000AF786039607B685A787B68BD
:1034F0003033104619463A68012310F0C9F90346E3
:10350000002B01D003234BE07B6893F82F321B0282
:103510009AB27B6893F82E3213439BB21AB24AF6E2
:103520005523CFF6FF739A4201D0022338E07B681F
:1035300093F869301A067B6893F868301B041A43C5
:103540007B6893F867301B021A437B6893F86630F8
:10355000134323F07F4244F24613C0F254039A42CD
:1035600001D100231CE07B6893F885301A067B6844
:1035700093F884301B041A437B6893F883301B0252
:103580001A437B6893F88230134323F07F4244F25E
:103590004613C0F254039A4201D1002300E00123F4
:1035A00018460837BD4680BD00000000000000003E
:1035B00080B592B000AFF860B9601346FB71FB684C
:1035C0001B68FB62FB6A1B78303B3B643B6C092B3E
:1035D0000BD8FB6A01331B783A2B06D1FB6A023306
:1035E000FB62FB68FA6A1A6001E000233B643B6CF3
:1035F000002B01D00B2380E249F67443C2F2010391
:103600003A6C53F82230BB62BB68BA6A1A60BB6A74
:10361000002B01D10C2370E2BB6A1B78002B1AD05F
:10362000BB6A5B78184610F003F9034687F8273029
:1036300097F8273003F00103002B0CD1FB79002B06
:1036400007D097F8273003F00403002B01D00A239A
:1036500053E2002351E2BB6A00221A703B6CDAB2DB
:10366000BB6A5A70BB6A5B78184610F0B1F8034623
:1036700087F8273097F8273003F00103002B01D09B
:1036800003233AE2FB79002B07D097F8273003F0A9
:103690000403002B01D00A232FE20023FB63B86A46
:1036A000F96BFFF71DFF034687F8473097F847305F
:1036B000012B33D1002387F8463097F84630002B92
:1036C00004D097F84630013B87F8463097F84630EB
:1036D0001B0103F5DF733033BA6A13443B623B6A64
:1036E00004331B78002B19D03B6A0B331B781A0666
:1036F0003B6A0A331B781B041A433B6A09331B7865
:103700001B021A433B6A08331B781343FB63B86AF6
:10371000F96BFFF7E5FE034687F8473097F8473027
:10372000032B01D10123E8E197F84730002B01D0AA
:103730000D23E2E1BB6A93F83C301B029AB2BB6AEC
:1037400093F83B3013439BB21BB2B3F5007F01D01B
:103750000D23D2E1BB6A93F847301B029AB2BB6AD1
:1037600093F8463013439BB29BB2BB63BB6B002BF9
:1037700012D1BB6A93F857301A06BB6A93F85630D9
:103780001B041A43BB6A93F855301B021A43BB6AE9
:1037900093F854301343BB63BB6ABA6BDA61BB6AFC
:1037A00093F84030FB77BB6AFA7FDA70FB7F012B1E
:1037B00004D0FB7F022B01D00D239EE1FA7FBB6B6F
:1037C00002FB03F3BB63BB6A93F83D30FB77BB6A34
:1037D000FA7F9A70FB7F002B05D0FA7FFB7F013BBD
:1037E0001340002B01D00D2387E1BB6A93F84230D0
:1037F0001B029AB2BB6A93F8413013439BB29AB250
:10380000BB6A1A81BB6A1B8903F00F039BB2002BB2
:1038100001D00D2371E1BB6A93F844301B029AB2C8
:10382000BB6A93F8433013439BB29BB27B637B6BC1
:10383000002B12D1BB6A93F853301A06BB6A93F877
:1038400052301B041A43BB6A93F851301B021A43CF
:10385000BB6A93F8503013437B63BB6A93F83F30E5
:103860001B029AB2BB6A93F83E3013439BB2BB83F0
:10387000BB8B002B01D10D233FE1BA8BBB6B1A44EC
:10388000BB6A1B891B099BB21344BB617A6BBB6982
:103890009A4201D20D2330E17A6BBB69D21ABB6A1E
:1038A0009B78B2FBF3F37B617B69002B01D10D2385
:1038B00023E1012387F847307A6940F6F5739A428D
:1038C00002D9022387F847307A694FF6F5739A4296
:1038D00002D9032387F847307B699A1CBB6A9A6137
:1038E000FA6BBB691A44BB6A9A62BA8BFB6B1A44C7
:1038F000BB6A1A6297F84730032B1ED1BB6A1B893B
:10390000002B01D00D23F8E0BB6A93F85F301A0654
:10391000BB6A93F85E301B041A43BB6A93F85D30B0
:103920001B021A43BB6A93F85C301A43BB6A5A62A3
:10393000BB6A9B699B003B631FE0BB6A1B89002B32
:1039400001D10D23D9E0BB6A1A6ABB6B1A44BB6A6A
:103950005A6297F84730022B03D1BB6A9B695B0020
:103960000AE0BB6A9A6913465B0013445A08BB6AB3
:103970009B6903F0010313443B63BB6ADA693B6B49
:1039800003F2FF135B0A9A4201D20D23B5E0BB6A32
:103990004FF0FF321A61BB6A0022DA6097F84730B5
:1039A000032B40F08C80BB6A00225A71BB6A93F8EB
:1039B00061301B029AB2BB6A93F8603013439BB22A
:1039C0009BB21A46FB6B1A44BB6A5A61BB6A5978B0
:1039D000BB6A03F13002BB6A5B69084611461A46AE
:1039E00001230FF055FF0346002B68D1BB6A93F803
:1039F0002F321B029AB2BB6A93F82E3213439BB24A
:103A00001AB24AF65523CFF6FF739A4257D1BB6AD2
:103A100093F833301A06BB6A93F832301B041A430A
:103A2000BB6A93F831301B021A43BB6A93F83030FB
:103A30001A4345F25223C4F261139A423FD1BB6A42
:103A400093F817321A06BB6A93F816321B041A430E
:103A5000BB6A93F815321B021A43BB6A93F81432FF
:103A60001A4347F27223C6F241139A4227D1BB6A26
:103A700093F81F321A06BB6A93F81E321B041A43CE
:103A8000BB6A93F81D321B021A43BB6A93F81C32BF
:103A90001A43BB6ADA60BB6A93F81B321A06BB6A28
:103AA00093F81A321B041A43BB6A93F819321B02AB
:103AB0001A43BB6A93F818321A43BB6A1A61BB6A8D
:103AC00097F847201A7049F67843C2F201031B8821
:103AD00001339AB249F67843C2F201031A8049F6DB
:103AE0007843C2F201031A88BB6ADA80BB6A0022FB
:103AF000DA62BB6A00221A71002318464837BD46B5
:103B000080BD00BF000000000000000000000000B9
:103B100080B582B000AF78600B467B807B68002B5D
:103B200008D07B681B78002B04D07B68DB887A8800
:103B30009A4201D009230CE07B685B7818460FF0AD
:103B400077FE034603F00103002B01D0032300E0BE
:103B5000002318460837BD4680BD00BF00000000A6
:103B600080B485B000AF03463960FB71FB79002B50
:103B700001D00B231CE0FA7949F67443C2F2010329
:103B800053F82230FB60FB68002B02D0FB68002258
:103B90001A703B68002B02D03B6800221A70FA7939
:103BA00049F67443C2F20103396843F82210002336
:103BB00018461437BD465DF8047B704700000000CE
:103BC00080B596B000AFF860B9601346FB71FB6832
:103BD00000221A60FB7903F01F03FB71FB7923F0CD
:103BE0000103DBB207F1080107F120020846114684
:103BF0001A46FFF7DDFC034687F857304FF4007094
:103C00000FF01EFFF864FB6C002B01D111234FE174
:103C1000FB6CFB6307F11403BB6397F85730002B71
:103C200009D1BB6807F1200210461946FFF7E0FBF7
:103C3000034687F857307B6B3B6597F85730002B6E
:103C400005D13B6D002B02D1062387F85730FB7955
:103C500003F01C03002B00F0B08097F85730002BC6
:103C600012D097F85730042B07D107F120031846DC
:103C700002F09EFE034687F85730FB7943F00803B5
:103C8000FB717B6B3B6512E03B6D0B331B7803F0E4
:103C90001103002B03D0072387F8573007E0FB7987
:103CA00003F00403002B02D0082387F8573097F85D
:103CB0005730002B40F0A080FB7903F00803002B65
:103CC00000F09A800FF0ACFEB8643B6D0E33BA6C16
:103CD000D2B21A703B6D0F33BA6C92B2120A92B222
:103CE000D2B21A703B6D1033BA6C120CD2B21A7089
:103CF0003B6D1133BA6C120ED2B21A703B6D0B339E
:103D000000221A703B6D1C3300221A703B6D1D336C
:103D100000221A703B6D1E3300221A703B6D1F3358
:103D200000221A703B6D15331B781B029AB23B6D53
:103D300014331B7813439BB29BB21A043B6D1B33A5
:103D40001B781B0299B23B6D1A331B780B439BB255
:103D50009BB213437B643B6D1A3300221A703B6D98
:103D60001B3300221A703B6D143300221A703B6D16
:103D7000153300221A703B6A01221A717B6C002BEA
:103D80003AD03B6ADB6ABB643B6A1846796C02F046
:103D9000A7F8034687F8573097F85730002B2BD1F8
:103DA0003B6A7A6C013ADA603B6A1846B96C01F0FA
:103DB000CFFD034687F857301FE097F85730002BA8
:103DC0001BD13B6D0B331B7803F01003002B03D08A
:103DD000042387F8573010E0FB7903F00203002B2F
:103DE0000BD03B6D0B331B7803F00103002B04D089
:103DF000072387F8573000E000BF97F85730002BB3
:103E00000FD1FB7903F00803002B03D0FB7943F0BB
:103E10002003FB713B6ADA6AFB68DA61FB683A6D82
:103E20001A62F86C0FF01CFE97F85730002B3DD14A
:103E3000FB68FA799A713B6D15331B781B029AB2B5
:103E40003B6D14331B7813439BB29BB21A043B6D3A
:103E50001B331B781B0299B23B6D1A331B780B4343
:103E60009BB29BB21A43FB681A613B6D1F331B78F0
:103E70001A063B6D1E331B781B041A433B6D1D3322
:103E80001B781B021A433B6D1C331B781A43FB68DB
:103E9000DA60FB6800229A60FB6800229A613A6A45
:103EA000FB681A603B6ADA88FB689A8097F857309B
:103EB00018465837BD4680BD0000000000000000D5
:103EC00080B58AB000AFF860B9607A603B60BB68CB
:103ED000BB613B6800221A60FB681A68FB689B881C
:103EE00010461946FFF714FE0346FB75FB7D002BB9
:103EF00001D0FB7D6FE1FB689B79DBB25BB2002BED
:103F000001DA022367E1FB689B7903F00203002BCF
:103F100001D107235FE1FB68DA687B681A44FB681C
:103F2000DB689A4280F0408100237B603DE1FB68C2
:103F30009B68C3F30803002B40F00081FB689B687B
:103F40005B0ADAB2FB681B689B78013BDBB213406B
:103F5000BB75BB7D002B3FD1FB689B68002B10D14C
:103F6000FB681B697B627B6A002B14D1FB681B68B2
:103F70001846002102F004F87862FB687A6A1A6138
:103F80000AE0FB681A68FB685B691046194601F095
:103F9000F7FF786200E000BF7B6A002B00F0098128
:103FA0007B6A012B08D1FB689B7963F07F03DAB24F
:103FB000FB689A7102230EE17B6AB3F1FF3F08D1DF
:103FC000FB689B7963F07F03DAB2FB689A71012387
:103FD00001E1FB687A6A5A61FB689B7903F0400350
:103FE000002B20D0FB681B685978FB6803F1240282
:103FF000FB689B69084611461A4601230FF090FCA6
:104000000346002B08D0FB689B7963F07F03DAB28C
:10401000FB689A710123DEE0FB689B7923F0400383
:10402000DAB2FB689A71FB681A68FB685B69104634
:10403000194601F095FD38613B69002B08D1FB68FA
:104040009B7963F07F03DAB2FB689A710223C2E0C6
:10405000BB7D3A6913443B617B685B0AFB61FB698A
:10406000002B46D0BA7DFB691A44FB681B689B781D
:104070009A4206D9FB681B689B781A46BB7DD31A07
:10408000FB61FB681B685A78FB69DBB21046B969B3
:104090003A690FF045FC0346002B08D0FB689B797A
:1040A00063F07F03DAB2FB689A71012393E0FB6847
:1040B0009A693B69D21AFB699A4216D2FB6803F1EE
:1040C0002402FB6899693B69CB1A5B02B9690B440E
:1040D000104619464FF4007201F0B2FBFB689B7961
:1040E00023F04003DAB2FB689A71FB695B023B6222
:1040F00045E0FB689A693B699A421CD0FB689A6864
:10410000FB68DB689A4216D2FB681B685A78FB682A
:104110002433104619463A6901230FF0B9FB0346D0
:10412000002B08D0FB689B7963F07F03DAB2FB6851
:104130009A7101234FE0FB683A699A61FB689B68BA
:10414000C3F30803C3F500733B623A6A7B689A4283
:1041500001D97B683B62FB689B68C3F3080320338B
:10416000FA68134404331846B9693A6A01F068FBE7
:10417000FB689B7943F04003DAB2FB689A71BA6935
:104180003B6A1344BB61FB689A683B6A1A44FB684C
:104190009A603B681A683B6A1A443B681A607A68FE
:1041A0003B6AD31A7B6000E000BF7B68002B7FF482
:1041B000BEAEFB689A68FB68DB689A4203D9FB686D
:1041C0009A68FB68DA60FB689B7943F02003DAB2F7
:1041D000FB689A71002318462837BD4680BD00BF92
:1041E00080B586B000AF78607B681A687B689B8872
:1041F00010461946FFF78CFC0346FB75FB7D002B30
:1042000040F0AB807B689B7903F02003002B00F02B
:10421000A4807B689B7903F04003002B19D07B6856
:104220001B6859787B6803F124027B689B69084608
:1042300011461A4601230FF073FB0346002B01D0F1
:1042400001238BE07B689B7923F04003DAB27B6823
:104250009A717B681A687B68DB691046194601F021
:1042600077FB0346FB75FB7D002B76D17B681B6AD1
:104270003B613B690B333A690B32127842F0200202
:10428000D2B21A703B691C337A68D268D2B21A7003
:104290003B691D337A68D26892B2120A92B2D2B2E6
:1042A0001A703B691E337A68D268120CD2B21A7047
:1042B0003B691F337A68D268120ED2B21A703B691A
:1042C0001A337A681269D2B21A703B691B337A6862
:1042D000126992B2120A92B2D2B21A703B691433C6
:1042E0007A681269120CD2B21A703B6915337A6877
:1042F0001269120C92B2120A92B2D2B21A700FF074
:104300008FFBF8603B691633FA68D2B21A703B69CA
:104310001733FA6892B2120A92B2D2B21A703B699B
:104320001833FA68120CD2B21A703B691933FA6862
:10433000120ED2B21A707B689B7923F02003DAB296
:104340007B689A717B681B6801221A717B681B6805
:10435000184601F05DFB0346FB75FB7D18461837D8
:10436000BD4680BD0000000000000000000000000D
:1043700080B584B000AF78607868FFF731FF0346FE
:10438000FB73FB7B002B02D17B6800221A60FB7B56
:1043900018461037BD4680BD000000000000000038
:1043A00080B588B000AF786039607B681A687B6838
:1043B0009B8810461946FFF7ABFB0346FB75FB7D58
:1043C000002B01D0FB7D40E17B689B79DBB25BB2C7
:1043D000002B01DA022338E17B68DA683B689A42F5
:1043E00008D27B689B7903F00203002B02D17B6823
:1043F000DB683B607B689B683B610023BB617B683B
:10440000BA699A603B68002B00F0C1807B681B682A
:104410009B785B02FB603B69002B1BD03B685A1EFC
:10442000FB68B2FBF3F23B69591EFB68B1FBF3F387
:104430009A420FD33B695A1EFB685B421A407B6865
:104440009A607B689B683A68D31A3B607B685B69BB
:10445000FB612BE07B681B69FB61FB69002B22D1B0
:104460007B681B681846002101F08AFDF861FB6932
:10447000012B08D17B689B7963F07F03DAB27B68FC
:104480009A710223E1E0FB69B3F1FF3F08D17B6839
:104490009B7963F07F03DAB27B689A710123D4E0E1
:1044A0007B68FA691A617B68FA695A61FB69002BBB
:1044B00046D16CE07B689B7903F00203002B0CD0A3
:1044C0007B681B681846F96901F05AFDF861FB69C1
:1044D000002B09D1FB683B6036E07B681B681846FF
:1044E000F96901F05DFBF861FB69B3F1FF3F08D1A9
:1044F0007B689B7963F07F03DAB27B689A71012352
:10450000A3E0FB69012B05D97B681B689A69FB69ED
:104510009A4208D87B689B7963F07F03DAB27B68A4
:104520009A71022391E07B68FA695A617B689A6804
:10453000FB681A447B689A603A68FB68D31A3B6050
:104540003A68FB689A42B5D87B689A683B681A4417
:104550007B689A603B68C3F30803002B17D07B6825
:104560001B681846F96901F0FBFAB861BB69002BBA
:1045700008D17B689B7963F07F03DAB27B689A711C
:10458000022362E03B685B0ABA691344BB617B6843
:104590009B68C3F30803002B45D07B689A69BB690D
:1045A0009A4240D07B689B7903F04003002B20D0D7
:1045B0007B681B6859787B6803F124027B689B69E0
:1045C000084611461A4601230FF0AAF90346002BAC
:1045D00008D07B689B7963F07F03DAB27B689A71BD
:1045E000012332E07B689B7923F04003DAB27B68D9
:1045F0009A717B681B685A787B6824331046194689
:10460000BA6901230FF044F90346002B08D07B68F8
:104610009B7963F07F03DAB27B689A71012314E01F
:104620007B68BA699A617B689A687B68DB689A42A2
:104630000AD97B689A687B68DA607B689B7943F06B
:104640002003DAB27B689A71FB7D18462037BD469D
:1046500080BD00BF0000000000000000000000005E
:1046600080B588B000AF786039607B683A46104604
:1046700019460022FEF79CFF0346FB77FB7F002BC9
:104680005DD14FF400700FF0DBF9B861BB69002B0E
:1046900001D1112354E07B68BA69DA617B6807F1C4
:1046A0000C029A613B6878681946FEF7A1FE034642
:1046B000FB77B8690FF0D4F9FB7F002B3AD17B6808
:1046C0005B69002B28D07B685B690B331B7803F098
:1046D0001003002B1ED07B685B6915331B781B020F
:1046E0009AB27B685B6914331B7813439BB29BB20D
:1046F0001A047B685B691B331B781B0299B27B68C9
:104700005B691A331B780B439BB29BB21A437B68DD
:104710009A6001E00523FB77FB7F002B0AD17B68C1
:104720001B68DA887B689A807868002101F0B8FC01
:104730000346FB77FB7F042B01D10523FB77FB7F2F
:1047400018462037BD4680BD000000000000000074
:1047500080B588B000AF786039607B681A687B6884
:104760009B8810461946FFF7D3F90346FB77FB7F7A
:10477000002B3FD13B68002B06D17868002101F067
:104780008FFC0346FB7735E04FF400700FF058F9CB
:10479000B861BB69002B01D111232CE07B68BA6999
:1047A000DA617B6807F10C029A61786802F068F8B8
:1047B0000346FB77FB7F042B04D17B6800221A6140
:1047C0000023FB77FB7F002B11D178683968FEF757
:1047D00027FD7868002101F0E3FC0346FB77FB7FAF
:1047E000042B04D17B6800221A610023FB77B8698F
:1047F0000FF036F9FB7F18462037BD4680BD00BF5D
:1048000080B500AF05F07CFE80BD00BF0000000059
:1048100080B483B000AF7860012318460C37BD46E2
:104820005DF8047B704700BF00000000000000003E
:1048300080B483B000AF7860002318460C37BD46C3
:104840005DF8047B704700BF00000000000000001E
:1048500080B400AFBD465DF8047B704700000000E7
:1048600080B500AF0AF0ACFD09F0C2FF35F070FE74
:1048700000F066F80023184680BD00BF000000006D
:1048800080B400AFBFF34F8F4FF46D42CEF2000201
:104890004FF46D43CEF20003DB6803F4E0610423C0
:1048A000C0F2FA530B43D360BFF34F8FFEE700BF54
:1048B00080B500AFFFF7E4FF80BD00BF000000003F
:1048C00080B500AF49F67C40C2F201004CF2C40151
:1048D000C0F6030134F094FF13F01AFB49F62C7074
:1048E000C2F2010041F2883144F6B102C0F6000282
:1048F00000230AF0BDF913F043FB80BD0000000067
:1049000080B400AFBD465DF8047B70470000000036
:1049100080B500AF41F66463C2F200031B6849F63C
:104920004070C2F20100194640F6A802FCF7D8FF19
:1049300080BD00BF0000000000000000000000007B
:1049400080B500AF49F68450C2F2010049F66061BB
:10495000C2F20101C82200230CF092FC41F6706300
:10496000C2F200031A6841F66C63C2F200031B68CE
:10497000936219F075FCFFF7C3FF49F64070C2F26D
:1049800001001DF065FC2DF093FE49F67C40C2F25B
:10499000010013F0C5FC41F67063C2F200031B680E
:1049A00018461DF0D5F84CF2E000C0F6030044F6BE
:1049B000C101C0F6000136F0ABFA41F67063C2F2F5
:1049C00000031B6849F67C40C2F20100194632F030
:1049D0003FFF41F67063C2F200031B68184610F0F7
:1049E0002FFA49F67C40C2F2010019F0E1F941F6D4
:1049F0007063C2F200031B6849F67C40C2F20100FA
:104A000019462EF09DFF41F67063C2F200031B6849
:104A1000184610F095FAFFF77BFF4CF2E800C0F65D
:104A2000030013F05DFC49F68053C2F2010301223A
:104A30001A7040F2A853C1F200039B69184635F082
:104A400057FD0346802BCCBF00230123DBB2002B94
:104A500006D04CF2FC00C0F6030000F059F81FE04D
:104A600041F67063C2F200031B6818460FF008FCA1
:104A700041F66863C2F200031B68D3F83C314FF47F
:104A80007A7202FB03F35A1E44F6D353C1F2620357
:104A9000A3FB02139B09013318460AF059F8C8E733
:104AA00080BD00BF0000000000000000000000000A
:104AB000B0B582B000AF786049F69852C2F20102F8
:104AC0004CF20413C0F6030314461D460FCD0FC469
:104AD0002B6823707B689B6949F69850C2F20100ED
:104AE0001946FCF7FDFF49F69850C2F201004CF25E
:104AF0001811C0F60301FE2219F0DAFA0837BD4694
:104B0000B0BD00BF00000000000000000000000079
:104B10000FB480B582B000AF49F62873C2F201032A
:104B20001B78002B41D14FF44063C4F202034FF4D1
:104B300080429A612FF0ACFB49F62873C2F2010360
:104B400001221A703869252135F01AF80346B3F1AD
:104B5000FF3F14BF00230123DBB2002B07D049F62F
:104B60006060C2F201003969FDF762F81DE049F6A4
:104B70008453C2F201030022DA6007F114037B6060
:104B800049F68450C2F2010039697A680CF070F875
:104B900049F68453C2F201035A6849F68453C2F2BB
:104BA0000103DB68134400221A700837BD46BDE8D4
:104BB000804004B0704700BF00000000000000000B
:104BC00080B400AF4AF2E873C2F201031B78002BF5
:104BD00001D07B2303E047F69C03C0F23313184651
:104BE000BD465DF8047B7047000000000000000037
:104BF00080B582B000AF786039607B68012B0ED140
:104C00003A684FF6FF739A4209D149F67C40C2F2E6
:104C100001004CF22811C0F6030134F099FE083768
:104C2000BD4680BD00000000000000000000000044
:104C300080B500AF01204FF6FF71FFF7D9FF80BDAF
:104C400080B582B000AF78607B685A6B40F2011388
:104C5000C0F201039360202383F311880CF0E0FD80
:104C600004E07B680833184609F06AFD7B681B691D
:104C7000002BF6DB7B682433184601210CF058FF2B
:104C80000CF0EEFD002383F311880837BD4680BD8C
:104C900080B584B000AF78607B685B6BDB68FB60DD
:104CA000FB6803F00303002B21D07B685B6B7A6801
:104CB000526B526922F002025A61202383F3118859
:104CC0000CF0AEFD04E07B681433184609F038FDA3
:104CD0007B68DB69002BF6DB7B68203318460121FB
:104CE0000CF026FF0CF0BCFD002383F31188FB6859
:104CF00003F01003002B13D07B685B6B1022DA608B
:104D0000202383F311880CF08BFD7B682833184631
:104D100010210CF00DFF0CF0A3FD002383F311888C
:104D20001037BD4680BD00BF00000000000000003D
:104D300080B584B000AF78607B685B6B1B69FB60FB
:104D4000FB6803F00303002B21D07B685B6B7A6860
:104D5000526B526922F010025A61202383F31188AA
:104D60000CF05EFD04E07B681433184609F0E8FCA3
:104D70007B68DB69002BF6DB7B6820331846022159
:104D80000CF0D6FE0CF06CFD002383F31188FB6859
:104D900003F01003002B13D07B685B6B10221A61A9
:104DA000202383F311880CF03BFD7B6828331846E1
:104DB00010210CF0BDFE0CF053FD002383F311888D
:104DC0001037BD4680BD00BF00000000000000009D
:104DD00080B586B000AF78607B685B6B5B683B61D9
:104DE0007B685B6B1C225A603B6903F00803002B55
:104DF0001AD07B6803221A707B685B6B7A68526BEF
:104E0000126822F002021A60202383F311880CF04A
:104E100007FD7B683033184600210CF089FE0CF04A
:104E20001FFD002383F311883B6903F00403002B6B
:104E30002DD07B685B6B9B69FB607B685B6B7A68E2
:104E4000526B926922F070029A61FB6803F00703CB
:104E50007B61FB6803F07003002B03D07B6943F098
:104E600008037B61202383F311880CF0D9FC7B6855
:104E700003F12802FB6819047B690B4310461946AD
:104E80000CF056FE0CF0ECFC002383F3118818376D
:104E9000BD4680BD000000000000000000000000D2
:104EA00080B500AF0CF0FCFC49F6FC30C2F201000A
:104EB000FFF7C6FE0CF034FD0CF022FB80BD00BFF6
:104EC00080B500AF0CF0ECFC49F6FC30C2F20100FA
:104ED000FFF7DEFE0CF024FD0CF012FB80BD00BFDE
:104EE00080B500AF0CF0DCFC49F6FC30C2F20100EA
:104EF000FFF71EFF0CF014FD0CF002FB80BD00BF9D
:104F000080B500AF0CF0CCFC49F6FC30C2F20100D9
:104F1000FFF75EFF0CF004FD0CF0F2FA80BD00BF5D
:104F200080B500AF0CF0BCFC49F63440C2F2010081
:104F3000FFF786FE0CF0F4FC0CF0E2FA80BD00BF37
:104F400080B500AF0CF0ACFC49F63440C2F2010071
:104F5000FFF79EFE0CF0E4FC0CF0D2FA80BD00BF1F
:104F600080B500AF0CF09CFC49F63440C2F2010061
:104F7000FFF7DEFE0CF0D4FC0CF0C2FA80BD00BFDF
:104F800080B500AF0CF08CFC49F63440C2F2010051
:104F9000FFF71EFF0CF0C4FC0CF0B2FA80BD00BF9E
:104FA00080B500AF49F6FC30C2F2010009F0B8FF4D
:104FB00049F6FC33C2F201034FF4C842C4F20002C6
:104FC0005A6349F63440C2F2010009F0A9FF49F6DC
:104FD0003443C2F201034FF4D042C4F200025A63D8
:104FE0000E200021002202F043FF80BD00000000DF
:104FF00080B582B000AF78607A6849F6FC33C2F2BF
:1050000001039A421BD11320B0210CF059F914204E
:10501000B0210CF055F91520B0210CF051F91620F3
:10502000B0210CF04DF94FF46053C4F202034FF479
:105030006052C4F20202126C42F000721A647A6882
:1050400049F63443C2F201039A4228D149F6FC33AF
:10505000C2F201031B78012B05D14CF23010C0F6CF
:1050600003000CF01DFD3F20B0210CF029F9402079
:10507000B0210CF025F94120B0210CF021F942209B
:10508000B0210CF01DF94FF46053C4F202034FF449
:105090006052C4F20202126C42F080621A647B68B1
:1050A00002221A707B685B6B01221A6003E0062003
:1050B00001210BF0E5FA7B685B6B5B6803F0010391
:1050C000002BF4D07B685B6B7A6852685268DA61B7
:1050D0007B685B6B7A68526812681A607B685A6BEF
:1050E00048F65B73C0F2010353610837BD4680BDCB
:1050F00080B483B000AF786039603B68032B37D849
:1051000001A252F823F000BF195100082F510008E6
:10511000455100085B5100087B685B6B9B6803F09E
:10512000E053002B0CBF00230123DBB221E07B689E
:105130005B6B9B6803F08063002B0CBF0023012393
:10514000DBB216E07B685B6B9B6803F00063002BAF
:105150000CBF00230123DBB20BE07B685B6B9B6819
:1051600003F08053002B0CBF00230123DBB200E0CF
:10517000002318460C37BD465DF8047B704700BF1E
:1051800080B487B000AFF860B9607A60BB68032B69
:1051900062D801A252F823F0A9510008C3510008B7
:1051A000CF510008DB510008FB685A6BFB685B6B52
:1051B0009B6803F040731B0E18331B0113443B61C3
:1051C00010E0FB685B6B03F5C0733B610AE0FB68B2
:1051D0005B6B03F5C8733B6104E0FB685B6B03F535
:1051E000D0733B617B681B78C3F34013DBB2002BA9
:1051F0000FD07B685B68C3F31C03DA007B681B7805
:10520000C3F30013DBB25B00134343F004037B6181
:105210000DE07B689B88C3F30A039BB25A057B6849
:105220001B78C3F30013DBB25B0013437B617B6825
:105230001B78C3F30303DBB21A463B695A607B68F1
:105240009A683B699A607B68DA683B69DA607B69D7
:1052500043F001023B691A601C37BD465DF8047BD0
:10526000704700BF000000000000000000000000C8
:1052700080B483B000AF786039603B68012B19D0EF
:10528000012B02D3022B20D02AE07B685B6BDB680A
:1052900003F00303002B06D17B685B6B1B6903F0F3
:1052A0000303002B01D0012300E0002303F00103DE
:1052B000DBB216E07B685B6BDB6803F00303002B5B
:1052C0000CBF00230123DBB20BE07B685B6B1B6927
:1052D00003F00303002B0CBF00230123DBB200E02B
:1052E000002318460C37BD465DF8047B704700BFAD
:1052F00080B487B000AFF860B9607A60BB68002BFB
:1053000013D1FB685B6BDB6803F00303002B02D057
:105310000123BB6009E0FB685B6B1B6903F00303BF
:10532000002B00F0A5800223BB60BB68012B02D0DC
:10533000022B2AD09CE0FB685B6BD3F8B0317B6119
:10534000FB685B6BD3F8B4313B61FB685B6BD3F8F4
:10535000B8217B68DA60FB685B6BD3F8BC217B68A3
:105360001A61FB685B6B2022DA60FB685B6BDB68B1
:1053700003F00303002B31D1FB685B6BFA68526BBF
:10538000526942F002025A6128E0FB685B6BD3F875
:10539000C0317B61FB685B6BD3F8C4313B61FB6858
:1053A0005B6BD3F8C8217B68DA60FB685B6BD3F872
:1053B000CC217B681A61FB685B6B20221A61FB6859
:1053C0005B6B1B6903F00303002B07D1FB685B6B6E
:1053D000FA68526B526942F010025A617B6903F01D
:1053E00002035B08DBB203F00103D9B27A681379D8
:1053F00061F3041313717B6903F004039B08DBB2B0
:1054000003F00103D9B27A68137961F3451313717C
:105410007B681B79C3F34013DBB2002B09D07B6997
:10542000DB0823F060417A68936861F31C039360A2
:105430000AE07B695B0D9BB2C3F30A0399B27A68F9
:10544000138961F30A0313813B69DBB203F00F0395
:10545000D9B27A68137961F3030313713B691B0AAC
:10546000DAB27B681A703B691B0C9AB27B685A806F
:105470001C37BD465DF8047B704700BF000000008C
:1054800080B500AF49F66C40C2F2010009F090FE11
:1054900080BD00BF00000000000000000000000010
:1054A00080B584B000AF78607B681B78012B01D198
:1054B00004F006FF0023FB6014E07B685B68FA6879
:1054C00053F8323003F00403002B04D07868F968F5
:1054D00000F00EF803E07868F96800F0E1F8FB6886
:1054E0000133FB60FB68162BE7D91037BD4680BD42
:1054F00080B487B000AF786039603B680F2B2ED83E
:105500003B689B087B613B6803F003039B000F2211
:1055100002FA03F3DB433B617B685B683A6853F84C
:10552000323003F0F0031A093B6803F003039B00D9
:1055300002FA03F3FB604FF46053C4F201034FF42B
:105540006052C4F201027969023152F821103A69BD
:105550001140FA6811437A69023243F822107B68DD
:105560005B683A6853F8323003F00103002B0FD028
:105570004FF47053C4F201034FF47052C4F20102AD
:1055800091683A68012000FA02F20A439A600FE03B
:105590004FF47053C4F201034FF47052C4F201028D
:1055A00091683A68012000FA02F2D2430A409A60F8
:1055B0007B685B683A6853F8323003F00203002BD3
:1055C0000FD04FF47053C4F201034FF47052C4F281
:1055D0000102D1683A68012000FA02F20A43DA6057
:1055E0000FE04FF47053C4F201034FF47052C4F251
:1055F0000102D1683A68012000FA02F2D2430A405F
:10560000DA607B685A683B68DB0013445B68002BF8
:105610001FD04FF47053C4F201034FF47052C4F220
:10562000010211683A68012000FA02F20A431A6086
:105630004FF47053C4F201034FF47052C4F20102EC
:1056400051683A68012000FA02F2D2430A405A60D7
:105650001EE04FF47053C4F201034FF47052C4F2D1
:10566000010251683A68012000FA02F20A435A60C6
:105670004FF47053C4F201034FF47052C4F20102AC
:1056800011683A68012000FA02F2D2430A401A6017
:105690001C37BD465DF8047B704700BF000000006A
:1056A00080B483B000AF786039604FF47053C4F2B7
:1056B00001034FF47052C4F2010211683A680120EC
:1056C00000FA02F2D2430A401A604FF47053C4F257
:1056D00001034FF47052C4F2010251683A6801208C
:1056E00000FA02F2D2430A405A604FF47053C4F2F7
:1056F00001034FF47052C4F2010291683A6801202C
:1057000000FA02F2D2430A409A604FF47053C4F296
:1057100001034FF47052C4F20102D1683A680120CB
:1057200000FA02F2D2430A40DA604FF47053C4F236
:1057300001033A68012101FA02F25A610C37BD46B1
:105740005DF8047B704700BF00000000000000000F
:1057500080B485B000AF03463960FB80FB887F2BA7
:1057600002D8FB88FB812AE03B68002B0FD0FB8826
:10577000FF2B09D8FB88A3F1800246F6D063C0F660
:10578000040333F8123000E00023FB8117E000230C
:10579000FB810CE0FA8946F6D063C0F6040333F8C7
:1057A0001230FA889A4205D0FB890133FB81FB89CC
:1057B0007F2BEFD9FB8980339BB2DBB2FB81FB8966
:1057C00018461437BD465DF8047B704700000000A2
:1057D00080B485B000AF0346FB800023FB6002E08D
:1057E000FB680133FB6046F6D073C0F60403FA6829
:1057F00033F81230002B09D046F6D073C0F60403FC
:10580000FA6833F81230FA889A42E9D146F6D07332
:10581000C0F60403FA6833F81230002B07D047F2C1
:10582000B013C0F60403FA6833F8123000E0FB88C6
:1058300018461437BD465DF8047B70470000000031
:1058400080B487B000AFF860B9607A60FB687B61B4
:10585000BB683B6107E07B695A1C7A613A69511C5D
:10586000396112781A707B685A1E7A60002BF2D167
:105870001C37BD465DF8047B704700BF0000000088
:1058800080B487B000AFF860B9607A60FB687B6174
:1058900005E07B695A1C7A61BA68D2B21A707B68DB
:1058A0005A1E7A60002BF4D11C37BD465DF8047B8C
:1058B000704700BF00000000000000000000000072
:1058C00080B489B000AFF860B9607A60FB68FB61B2
:1058D000BB68BB6100237B617B685A1E7A60002B2A
:1058E0000DD0FB695A1CFA611B781A46BB69591C1A
:1058F000B9611B78D31A7B617B69002BECD07B6983
:1059000018462437BD465DF8047B70470000000050
:1059100080B483B000AF7860396002E07B68013307
:105920007B607B681B78002B05D07B681B781A4650
:105930003B689A42F2D17B681B7818460C37BD460B
:105940005DF8047B704700BF00000000000000000D
:1059500080B584B000AF786039607B68DB6AFB603B
:10596000FA683B689A424BD07B681B79002B32D097
:105970007B685A787B68303310461946FA680123F1
:105980000DF0CEFF0346002B01D0012339E07B68E8
:1059900000221A717B681A6A7B68DB691A44FB680B
:1059A0009A4218D97B68DB78FB7211E07B68DB696F
:1059B000FA681344FB607B685A787B683033104682
:1059C0001946FA6801230DF0ABFFFB7A013BFB722D
:1059D000FB7A012BEAD83B68002B11D07B685A7800
:1059E0007B683033104619463A6801230DF050FFAA
:1059F0000346002B01D0012303E07B683A68DA629A
:105A0000002318461037BD4680BD00BF00000000CF
:105A100080B584B000AF786078680021FFF798FF08
:105A20000346FB73FB7B002B40F092807B681B7866
:105A3000032B40F081807B685B79002B7CD07B68F6
:105A40000022DA627B683033184600214FF400727E
:105A5000FFF716FF7B68552283F82E227B68AA2267
:105A600083F82F227B68522283F830207B685222F1
:105A700083F831207B68612283F832207B684122E1
:105A800083F833207B68722283F814227B687222A9
:105A900083F815227B68412283F816227B686122F5
:105AA00083F817227B681B69DAB27B6883F81822B7
:105AB0007B681B699BB21B0A9BB2DAB27B6883F8D6
:105AC00019227B681B691B0CDAB27B6883F81A22E7
